:020000040800F2
:10000000500A002085020008F92B00083927000853
:10001000F52B0008C50F0008612F00080000000044
:10002000000000000000000000000000892C000813
:10003000C90F0008000000002D2C00088D2C0008BE
:100040009F0200089F0200089F0200089F0200080C
:100050009F0200089F0200089F0200089F020008FC
:100060009F0200089F0200089F0200089F020008EC
:100070009F0200089F0200089F0200089F020008DC
:100080009F0200089F0200089F0200089F020008CC
:100090009F0200089F0200089F0200089F020008BC
:1000A0009F0200089F0200089F0200089F020008AC
:1000B0009F0200089F0200089F0200089F0200089C
:1000C0009F0200089F0200089F0200089F0200088C
:1000D0009F0200089F0200089F0200089F0200087C
:1000E0009F0200089F0200089F0200089F0200086C
:1000F000B12C00089F0200089F0200089F02000820
:100100009F0200089F0200089F0200089F0200084B
:100110009F0200089F0200089F0200089F0200083B
:100120009F0200089F0200089F0200089F0200082B
:100130009F02000800000000000000009F0200086D
:100140009F0200089F0200089F0200089F0200080B
:100150009F0200089F0200089F0200089F020008FB
:100160009F0200089F0200089F0200089F020008EB
:100170009F0200089F0200089F0200080000000084
:10018000000000009F0200080000000000000000C6
:100190009F02000800000000000000009F0200080D
:1001A0000000000000000000000000009F020008A6
:1001B0009F0200089F0200089F0200089F0200089B
:1001C0009F02000800F002F800F04DF80AA090E845
:1001D000000C82448344AAF10107DA4501D100F002
:1001E00042F8AFF2090EBAE80F0013F0010F18BF82
:1001F000FB1A43F001031847F4AD000014AE0000F1
:10020000103A24BF78C878C1FAD8520724BF30C842
:1002100030C144BF04680C60704700000023002414
:1002200000250026103A28BF78C1FBD8520728BF06
:1002300030C148BF0B607047662907F06E8100200F
:1002400070471FB507F05CF99DE8030000F072FAF3
:1002500000F00AFD04000020002106F051FEE060DD
:100260001FBD10B510BD00F0DAFC1146FFF7E9FF25
:1002700006F038FA00F00EFE03B4FFF7F2FF03BCFD
:1002800000F064F90948804709480047FEE7FEE7A7
:10029000FEE7FEE7FEE7FEE7FEE7FEE7FEE7FEE736
:1002A00004480549054A064B70470000952C000894
:1002B000C501000850040020500A0020500600200C
:1002C0005006002053EA020C00F069802DE9F04B43
:1002D0004FF00006002B1FBFB3FA83F503FA05F4B5
:1002E00024FA05F65E4012BF1643B2FA82F502FA0E
:1002F00005F4C5F120051EBF22FA05FC44EA0C04F2
:10030000203556EA044C4FEA144418BF641C4FF0E1
:1003100000084FF00009904271EB030C39D300291B
:1003200019BFB1FA81F701FA07F6B0FA80F700FABF
:1003300007F6C7F120071EBF20FA07FC46EA0C06A5
:100340002037B6FBF4FCA7EB0507103F07F01F0BA7
:10035000CBF120062CFA06F60CFA0BFB44BFB34691
:100360000026202FA4BF5E464FF0000B5BEA060C70
:1003700008BF4FF0010B19EB0B0948EB0608ABFB6C
:10038000027C06FB02CC0BFB03CCC01B71EB0C0107
:10039000C1E70B46024641464846BDE8F08B13B51F
:1003A000084318BF4FF0FF300146AFF30080BDE8AF
:1003B0001C40704710B5002000F07BF9FFF751FF9B
:1003C000BDE81040012000F0C1B810B5431C02E0A8
:1003D00010F8011B71B18107FAD14FF0013202C848
:1003E0008C1A8C4314EAC211F9D0C01A0A0603D041
:1003F000C01E10BDC01A10BD0A0401D0801E10BD61
:100400000902FCD0401E10BD032A40F2308010F0DB
:10041000030C00F0158011F8013BBCF1020F62449F
:1004200098BF11F801CB00F8013B38BF11F8013B30
:10043000A2F1040298BF00F801CB38BF00F8013BDD
:1004400011F0030300F02580083AC0F0088051F84D
:10045000043B083A51F804CBA0E80810F5E7121D58
:100460005CBF51F8043B40F8043BAFF30080D20777
:1004700024BF11F8013B11F801CB48BF11F8012B43
:1004800024BF00F8013B00F801CB48BF00F8012B66
:10049000704710B5203AC0F00B80B1E81850A0E8C2
:1004A0001850B1E81850A0E81850203ABFF4F5AF42
:1004B0005FEA027C24BFB1E81850A0E8185044BF9E
:1004C00018C918C0BDE810405FEA827C24BF51F80B
:1004D000043B40F8043B08BF7047D20728BF31F8FF
:1004E000023B48BF11F8012B28BF20F8023B48BF50
:1004F00000F8012B70474FF0000200B513469446F8
:100500009646203922BFA0E80C50A0E80C50B1F16B
:100510002001BFF4F7AF090728BFA0E80C5048BF7F
:100520000CC05DF804EB890028BF40F8042B08BF1D
:10053000704748BF20F8022B11F0804F18BF00F819
:10054000012B704770477047704700000149182021
:10055000ABBEFEE72600020070B5064600F0CEF8FE
:10056000056806F10B0020F00704B4429CBF002090
:1005700070BD2B466A68BAB11068A04210D304F16E
:10058000080188423CBF5068586007D35168101971
:1005900041601168091B016058601460101D70BD36
:1005A00013465268002AE7D12146284600F0AEF8EB
:1005B0000028DED170BD70B50446051F00F09EF81E
:1005C0000068002C14BF446870BD002C18BFAC42FA
:1005D0003CBF20466468F8D301680A18AA4218BFD5
:1005E000456003D12A680546114401602868411915
:1005F000A1421CBF6C6070BD6168696021680844DD
:10060000286070BD2DE9F04791460C46804600F009
:1006100075F80768604234EA000001D1042C02D268
:100620000520BDE8F087601E40F0070609F10B00C9
:1006300020F007054D4539D93B467A6882B31468E6
:10064000101D404206EA000C644525D9A4EB0C00BD
:10065000854221D8BCF1000F0BD0104601686244DE
:10066000A1EB0C01116041685160C0F800C05860F6
:100670000346116805F10800814205D35019491B52
:10068000016015605860034652F8040F586000205E
:10069000C8F80020BDE8F08713465268002ACED182
:1006A0002946384600F032F80028C5D10620BDE8BA
:1006B000F08710B500F088FABDE8104000F07EBA6F
:1006C00080E8FF1FC0F834D0C0F838E0C0F83CE044
:1006D0004FF00000704700BF80EC200B704700BF58
:1006E00080EC200B704700BFC0EC200B704700006F
:1006F00000487047300000207047000000487047F5
:1007000038000020704770477047704738B504467E
:100710000A4600206946AFF30080002808BF38BDB4
:1007200002460099204600F0A3FA012038BD0120BE
:1007300000F0D2BBF8B5AFF30080054600200C46B0
:10074000102000BF0646A819A0420DD932466946BE
:100750000020AFF30080070008BF00F0BDFB009849
:10076000A04218BF0546C419FFF7C8FF0560074639
:10077000F01D20F007004619284600F00AF8B442A0
:1007800008BFF8BDA21B31463868BDE8F84000F04C
:100790006FBA00210160C0E9011070471020704756
:1007A0002DE9FF4F0C461E464FF0FF378BB0D2E9C4
:1007B0000001DDF860800A908A46C1F30A5505B948
:1007C0003D46002108464FF00000BAF1000F00F44A
:1007D000400005DA00EB80004FF4400101EA5000D0
:1007E0004FEA9059B9F1010F00DDB9460A9850EA75
:1007F0004A000ED044F61050A5F2FF3545432F14A1
:10080000B8F1000F1ED07542291E1EDDC9F100028D
:100810001CE0B8F1010F4FF0000001D0302103E0DF
:10082000F24305E02154401CB042FBDB304600227D
:10083000002121540B99C1F80880C1E900200FB0B4
:10084000BDE8F08FBD1B6D1CDEE74A4600DA694249
:1008500006A800F0ADFA06AB93E8070003AB83E807
:10086000070050460A9905F06AFF8DE80700A0F5D9
:1008700000501F3800900398002D0ADD42F21F013E
:100880004A460844002303A90390684606F0D3F9BA
:1008900009E0A0F500504A461F38002303A9039041
:1008A000684606F0DDF98DE807000004000C03D06F
:1008B0004FF0FF30410800E01046B8F1000F03D0C0
:1008C0000022009215461EE0751E05D400F0EAF9DC
:1008D000303262556D1EF9D5B3460122084302D06D
:1008E00000227F1C04E02078302801D100227F1EE6
:1008F000002A099784D01DE0112D07DA00F0D2F903
:10090000303262556D1C50EA0102F5D1084302D025
:100910000098C8B10EE00021681E05E0235C625C0F
:1009200063542254401E491C8142F7DBAB46A81B8E
:10093000401E0990002004F80B000B98099AC0F89B
:100940000880C0E9002B7AE711264FF0000857E72E
:100950002DE9F04F88460446D21D22F0070191B0E0
:10096000D1E90001CDE90A0106F0B1FA02460B987F
:10097000C00F01D02D2007E02068810701D52B2072
:1009800002E0202101EAC000032A099001D0072AD1
:1009900005DB03464146204600F0CAF90BE120780A
:1009A000800601D5E06900E00620B8F1650F8146B8
:1009B00006D0B8F1660F18D0B8F1670F70D131E0EA
:1009C0000020B9F1110F009001DB112301E009F1C2
:1009D00001030AAA01A90CA8FFF7E2FEDDE90C70E9
:1009E000002609F10105834647E001204B460090AF
:1009F0004FF000470AAA01A90CA8FFF7D1FEDDE9D4
:100A00000DB00C995D46002610B909F101000D18D2
:100A1000B9EB050003D4C0F1FF3609F10105A5EBE0
:100A200009002BE0B9F1010F01DA4FF001090020B4
:100A3000B9F1110F0090484601DD112300E0034693
:100A40000AAA01A90CA8FFF7ABFEDDE90C704D4620
:100A500000268346207800070AD4AB4500DA5D46BD
:100A600001A8012D04DD411911F8011C302907D01E
:100A70004F4502DA17F1040F04DA012082460FE035
:100A80006D1EEEE7002F02DCED1B3E4403E0781CF8
:100A9000A84200DD7D1CB81B00F1010A4FF00047A1
:100AA0002078000703D4AA4501DB4FF0FF3A00216C
:100AB000B7F1004F0DF143088DF8431024D0022008
:100AC0002B23002F01DA7F422D230A21021EA0F1E1
:100AD000010000DC5FB197FBF1FC97FBF1F201FB39
:100AE0001C7C17460CF1300C08F801CDEEE7A8F19C
:100AF000010003702188090501D5452100E0652129
:100B0000A0F1010800F8011C09980FA9A1EB080742
:100B1000FF1D00B10120411901EBEA70A1693844C1
:100B2000081A401EA0612078C00602D42046AFF308
:100B30000080099828B1D4E901219047206A401C1F
:100B400020622078C00622D52046AFF300801EE048
:100B5000002E04DBB34502DD01A8805D00E03020FB
:100B6000D4E901219047206A401C2062761CAAF13A
:100B700001005FEA000A0AD100F076F8C068016857
:100B8000405CD4E901219047206A401C2062281E65
:100B9000A5F10105DCDC07E0D4E9012118F8010B1F
:100BA0009047206A401C2062381EA7F10107F3DC41
:100BB0002046AFF30080032011B041E6002801D0A9
:100BC000FFF7C4BC7047000010B5002102A000F080
:100BD0006AF9012010BD0000534947414252543A7E
:100BE0002041626E6F726D616C207465726D696E0A
:100BF0006174696F6E00000086469EE8FF1FDEF894
:100C000034D0DEF83CE0704790EC200B704700BF1A
:100C100090EC200B704700BFD0EC200B704775465E
:100C2000FFF766FDAE4605006946534620F0070013
:100C3000854618B020B5FFF733FBBDE820404FF0E4
:100C400000064FF000074FF000084FF0000BAC46D5
:100C5000ACE8C009ACE8C009ACE8C009ACE8C00920
:100C600021F007018D467047004870475000002072
:100C7000034640688C46002818BF88423CBF0346A4
:100C80004068F8D318681844884207D00CF1030074
:100C900020F00700001D411A521A0146081D0A6083
:100CA000FFF789BC30B5B0F10A0271F100034FEAD9
:100CB000900E4EEA817EB0EB0E0061EB91014FEA9F
:100CC000101E4EEA017E10EB0E0041EB11114FEAAF
:100CD000102E4EEA016E10EB0E0041EB11214FEA8F
:100CE000104E4EEA014E10EB0E0041EB1141401840
:100CF00041F100014FEAD00040EA41704FEAD101D2
:100D00004FEA810444EA907410EB800544EB01043F
:100D10006D1944EB0404521BA3414FF0000348BF7C
:100D20000A3200D530BD401C41F1000130BD000049
:100D30002DE9F0411F46044603260168072A01F405
:100D4000006004DB08B116A505E016A503E008B1B4
:100D500015A500E015A521F010002060A069C01EB7
:100D6000A0610FB1401EA0612046AFF300804FB1DB
:100D7000D4E9012138469047206A401C2062C01CFB
:100D8000206206E0206AFAE7D4E9012115F8010B98
:100D90009047761EF8D22046AFF30080BDE8F08180
:100DA0004E414E006E616E00494E4600696E66000F
:100DB0002DE9F047814616468AB0354878440DC87B
:100DC0008DE80D0032487844801C03AC0DC884E8DF
:100DD0000D0041F69B300844372190FBF1F290FB67
:100DE000F1F5A5F1800501FB12041B3C02D564421C
:100DF000012000E00020DFF898A080460027FA4498
:100E0000AAF1BE0A0EE0E0070AD03246684607EBB8
:100E1000470101230AEB810105F022FF8DE807005D
:100E200064107F1C002CEED1194F7F44AE3F19E0B7
:100E3000E80715D007EB04100DF1180A90E80E0032
:100E40008AE80E00C068F04201D198190890324635
:100E5000012306A903A805F003FF03AB83E80700FD
:100E60006D10641C002DE3D14FF00103324669463A
:100E7000B8F1000F03A802D005F0DDFE01E005F097
:100E8000EFFEC9E90001C9F808200AB0BDE8F08703
:100E90005869000010B50446AFF300802046BDE855
:100EA0001040FFF7E9B970B505460C460A2000E08E
:100EB0006D1C00F057F835B128780028F8D102E011
:100EC000641C00F04FF814B120780028F8D1BDE878
:100ED00070400A2000F046B810B500F04BF8BDE8AD
:100EE0001040FFF76BBE000030B44FF0013C50F8EB
:100EF000042B51F8043BCCFA52F4D51A20D1FCB99A
:100F000050F8042B51F8043BCCFA52F4D51A17D1FF
:100F1000B4B950F8042B51F8043BCCFA52F4D51A6A
:100F20000ED16CB950F8042B51F8043BCCFA52F4B2
:100F3000D51A05D1002CDAD030BC4FF00000704734
:100F400029BAB1FA81F111F01801D1F120008440E1
:100F5000F2D1CA40CB4012F0FF0213F0FF0330BCC5
:100F6000D01A704708B569468DF800000320ABBE63
:100F700008BD000010B5012805D0002103A0FFF72F
:100F800092FF012010BD09A1F8E700005349475224
:100F9000544D454D3A204F7574206F662068656149
:100FA00070206D656D6F7279000000003A20486511
:100FB0006170206D656D6F727920636F72727570EC
:100FC00074656400FEE700007047000080B500F023
:100FD000D7F980BD70470000EFF3108072B600BFF4
:100FE000FEE700002DE9F04F83B01C4640F23C4381
:100FF000C2F200031F88019187425AD305465888E0
:101000000199884255D3E088002852D0A088E3880F
:101010002168203A5A43C3084707DDF830904FF063
:10102000010618BF06EBD00302FB0317002208E0FD
:10103000029A400718BF01370132E08891B281421D
:1010400037D2A0880028F4D001984FF0000A02EBB4
:10105000000B029212E000BF0D9A80B21FFA8BF1D2
:1010600001230126009600F0E3F8B8F1070F08BF4E
:101070000137A0880AF1010A8245D9D238780AF0EE
:101080000708802121FA08F14FF6FF72914500EA26
:10109000010009D000280AEB0500DDD180B21FFA5B
:1010A0008BF14A46DCE700BF0028DED00AEB0500E2
:1010B000D2E703B0BDE8F08F2DE9F04F83B040F2E6
:1010C0003C4AC2F2000A9946BAF80030834232D351
:1010D0008046BAF802008B4688422CD3137853B36B
:1010E000571C5E46454619E0B9F80600BAF80210EA
:1010F00010FA86F088420C980D9C84BF45465E46E7
:101100000090A8B2B1B2DAB24B460194FFF76AFF81
:1011100017F8013BB9F80400054463B1B9F80400BD
:10112000BAF8001010FA85F08842DDD9B9F8060047
:1011300045460644D8E703B0BDE8F08F2DE9F04FEF
:1011400087B0039340F23C43C2F2000305921A8831
:101150000691824269D3064658880699884264D32C
:1011600005998A4261D3039988425ED305984FF06E
:10117000FF32B0EB060B48BFCBF1000B0398069B88
:101180004FF00009B0EB030858BFC8F100080599FB
:1011900008EB0B0A8E424FF0FF314FF0010738BFCA
:1011A00001210491834238BF0122029204E000BF72
:1011B0005946B1EB4A0F2ADA119809F101090128C1
:1011C0000ED14AF6AA214AF6AB224FFA89F0C2F6AE
:1011D000AA21CAF6AA2200FB0210B0F1553F1FD384
:1011E000109A0698B5B284B2129B28462146009701
:1011F00000F01EF8B8EB4A0FDADC0598854214D0EF
:1012000004985946C2440644B1EB4A0FD4DB039814
:1012100084420AD08A440298069901440691CBE799
:101220004FF000094FF6FF72DBE707B0BDE8F08F23
:101230002DE9F047924640F23C42C2F200021D46C0
:101240001388834244D352888A4241D3089A012AA0
:1012500023D1002D08BFBDE8F0874FF0FF3202EB2D
:101260004506A0EB05084D1B00204FF0000900BF0C
:1012700008EB000700200024284481B2B8B252468F
:1012800001F0FCFA0134A0B28642F5DC09F1010953
:101290001FFA89F08642EBDC1AE0CDB1A0F101081B
:1012A0004F1E4FF0000900BF08EB0906002400BFE5
:1012B000381981B2B0B2524601F0E0FA0134A0B25E
:1012C000A842F5D309F101091FFA89F0A842EBD32E
:1012D000BDE8F0872DE9F04784B01C4640F23C435E
:1012E000C2F2000315461A88824205D30646588882
:1012F000A04228BFAA4202D204B0BDE8F0870F4640
:101300008842F9D3DDE90C8050B1304639462A468F
:101310002346CDF8008001F043FA04B0BDE8F08721
:10132000DDF838904FF0000A304639462A463B46F1
:10133000CDE9008ACDF80890FFF700FF3046394626
:1013400032462346CDE9008ACDF80890FFF7F6FE35
:10135000284621462A463B46CDE9008ACDF808902A
:10136000FFF7ECFE2846214632462346CDE9008AA7
:10137000CDF80890FFF7E2FE04B0BDE8F08700006A
:10138000B0B5044600F0E2F8054640F22400C2F28F
:1013900000000078611C18BF044400BF00F0D6F8BC
:1013A000401BA042FAD3B0BD2DE9F04F83B000F14D
:1013B0003E4202F1FF724FEAB22241F6000701926B
:1013C000C4F2020707224FF0010E00254FF0000A79
:1013D0004FF00008B84208BF062200920AE000BFA2
:1013E00008F101080AF1040AB8F1100F05F102052D
:1013F00000F0A2800C680EFA08FB14EA0B09EFD08B
:101400004C6804F0030CACF1010EBEF1010F12D8D0
:1014100082680323CE6803FA05F7BA4306FA05F794
:101420003A4382604268C4F3001722EA0B0207FACB
:1014300008F73A434260BCF1030F1CD0C268032393
:101440008E6803FA05F7BA4306FA05F73A43BCF18A
:10145000020FC2600FD16FF0030202EA5802024489
:101460000AF01C060F23176A03FA06F40B69A74358
:10147000B3403B431362026803234F68AB409A4377
:1014800007F00303AB401A43FB004FF0010E02606C
:10149000A6D5002243F644030292C4F202031A685E
:1014A00043F6004442F480421A601A68C4F2010410
:1014B00002F480420292029A28F003024FF6084B8F
:1014C0002244CFF6FF7B52F80B300AF00C070F26B0
:1014D000BE4023EA060C019B009E062B38BF1E4629
:1014E00006FA07F747EA0C0342F80B3022684B680C
:1014F00042EA0907DE0358BF22EA0907276062684B
:101500009E0342EA090758BF22EA09076760A268FA
:10151000DE0242EA090758BF22EA0907A76043F63C
:101520000C47C4F201073A689B0242EA090358BF1C
:1015300022EA09033B6053E703B0BDE8F08F0000E7
:10154000002A08BF090481617047000040F248404A
:10155000C2F200000068704740F2240040F24841A7
:10156000C2F20000C2F2000100780A68104408606C
:101570007047000080B543F60040C4F202000168E5
:1015800041F400710160016841F48061016001680B
:1015900041F480710160032000F064F8002000F045
:1015A00005F800F02BF8002080BD0000B0B540F237
:1015B0002402C2F2000240F218011278C2F20001C5
:1015C0004FF47A730968B3FBF2F20446B1FBF2F10F
:1015D000084600F07BFD0F2C4FF001050CD858B9E0
:1015E0004FF0FF3021460022002500F02BF840F29A
:1015F0002800C2F2000004602846B0BD80B582B069
:10160000002043F640010190C4F202014A6842F40E
:1016100080424A604A6802F480420192019A009036
:10162000086840F080500860086800F08050009022
:101630000098072000F016F802B080BD80B502F0D7
:1016400043F980BD70B514460D46064602F096FA81
:101650002946224602F00EFA0146304602F0F8F919
:1016600070BD000080B502F091FA80BD2DE9F04117
:10167000002800F08B8043F60808C4F202080446F4
:10168000D8F8F8030D4600F00F00884207D288F81A
:10169000F853D8F8F80300F00F00A84276D120687C
:1016A000810717D5410705D5D8F8001041F4E0515E
:1016B000C8F80010010705D5D8F8001041F46041C2
:1016C000C8F80010D8F80010A26821F0F00111430A
:1016D000C8F80010C0073FD1D8F8F80300F00F0099
:1016E000A84207D988F8F853D8F8F80300F00F009B
:1016F000A8424BD12068410707D5D8F80010E2680E
:1017000021F4E0511143C8F80010000708D5D8F8BB
:101710000000216920F4604040EAC100C8F80000E0
:1017200000F07EF8D8F8001047F23072C1F30311D0
:10173000C0F60002515C40F2180220FA01F140F2BA
:101740002800C2F200000068C2F200021160FFF738
:101750002DFF0020BDE8F0816068811E022907D2BC
:1017600058F8081C89015CBF0120BDE8F08110E039
:10177000012807D158F8081C89035CBF0120BDE887
:10178000F08106E058F8081C890702D40120BDE862
:10179000F081D8F8001021F003010843C8F80000D8
:1017A000FFF7D4FE064641F2883700BFD8F80000A4
:1017B000616800F00C00B0EB810F8DD0FFF7C6FE22
:1017C000801BB842F2D90320BDE8F08140F2180036
:1017D000C2F200000068704780B5FFF7F7FF43F6DC
:1017E0000801C4F20201096847F24072C1F3822184
:1017F000C0F60002515CC84080BD000080B5FFF714
:10180000E5FF43F60801C4F20201096847F240729D
:10181000C1F34231C0F60002515CC84080BD0000F7
:1018200010B543F60404C4F202046068C0F38101F9
:1018300042F20040C0F2F400DFE801F04102071676
:1018400041F20020C0F27A0010BD216801F03F0291
:10185000216823684902C3F3881114D4A1FB000155
:101860000023FEF72FFD15E0216801F03F022168FB
:1018700023684902C3F3881115D4A1FB000100239A
:10188000FEF720FD16E041F20020C0F27A00484346
:10189000B0FBF2F021680222C1F3014102EB4101E9
:1018A000B0FBF1F010BD41F20020C0F27A004843D5
:1018B000B0FBF2F02168C1F30271B0FBF1F010BD92
:1018C0002DE9F04182B0002800F0958004460078B0
:1018D00043F60006C007C4F202062BD0B06800F041
:1018E0000C00042820D0B06800F00C00082802D1B9
:1018F0007068400218D4B06800F00C000C2802D1C7
:101900007068400210D46568B5F5A02F00F04E81D4
:10191000B5F5803F00F04E81306820F480303060B3
:10192000306820F4802048E13068800302D5606888
:10193000002860D02078800722D5B06810F00C0F06
:1019400011D0B06800F00C00082802D17068400285
:1019500009D5B06800F00C000C2840F09980706840
:10196000400200F195803068800702D5E0680128C8
:1019700041D13068216920F0F80040EAC1003060B0
:10198000207800073BD4207840074ED4A56985B362
:10199000B06800F00C00082840F0A280012D2AD089
:1019A0007068E16900F480028A4224D1216A00F063
:1019B0003F028A421FD147F6C071626A0140B1EB13
:1019C000821F18D1A16A4FF6FF73C903994300F42F
:1019D0004032A1F580318A420DD1E16A00F0706297
:1019E000B2EB016F07D1216B00F0E040B0EB017F5B
:1019F00001D1002023E1012002B0BDE8F08160693F
:101A0000002840F20000C4F2472059D00121C0F85C
:101A1000801EFFF79BFD0546706F8007B3D4FFF76C
:101A200095FD401B0228F7D994E0306C10F08058E7
:101A30000AD100200190306C40F080503064306C4E
:101A400000F080500190019847F20007C4F20007AF
:101A50003868C0050FD4386840F480703860FFF7EC
:101A600075FD05463868C00505D4FFF76FFD401BBE
:101A70000228F7D96EE0A568052D53D0012D55D069
:101A8000306F20F001003067306F20F0040050E02C
:101A9000E068002875D00020C4F2472001210160D1
:101AA000FFF754FD054600BF306880073FF561AF82
:101AB000FFF74CFD401B02284FF00300F4D9BEE0B5
:101AC0000021C0F8801EFFF741FD0546706F8007BA
:101AD0007FF559AFFFF73AFD401B0228F6D939E0F0
:101AE0000027C4F2472700203866FFF72FFD022D9C
:101AF00005460BD13068800140F17D80FFF726FD5F
:101B0000401B02284FF00300F4D998E030688001B0
:101B10007FF56FAFFFF71AFD401B02284FF003005F
:101B2000F4D98CE0306F40F004003067306F40F043
:101B300001003067FFF70AFD002D054641F28837A6
:101B400013D000BF306F800712D4FFF7FFFC401B9B
:101B5000B842F7D9032002B0BDE8F081FFF7F6FCE8
:101B6000401BB8424FF0030069D8306F8007F5D4AE
:101B7000B8F1000F7FF40AAF306C20F08050306471
:101B800004E70020C4F2472000210160FFF7DEFCDB
:101B9000054600BF306880077FF5F2AEFFF7D6FC40
:101BA000401B02284FF00300F4D948E0306840F4AD
:101BB00080203060306840F480303060FFF7C6FC31
:101BC000002D054613D000BF306880033FF5B2AE4C
:101BD000FFF7BCFC401B64284FF00300F4D92EE053
:101BE000FFF7B4FC401B64284FF0030027D830688F
:101BF0008003F5D49EE604F11C052FCD246B084329
:101C000040EA8210D9034FF6FF729143A1F580316B
:101C100040EA0560084340EA0470706001203866BD
:101C2000FFF794FC044600BF306880013FF5E1AE49
:101C3000FFF78CFC001B02284FF00300F4D902B020
:101C4000BDE8F08170B538B10446406A30B100207B
:101C5000206104F1140007E0012070BD6068B0F558
:101C6000827F03D004F11C00002101600026A662DF
:101C700094F8510020B9204684F8506000F03CF8F8
:101C8000022084F8510094E80F0001F48271056885
:101C900002F4044225F040050560114403F400629B
:101CA0002369114403F002026369114403F0010245
:101CB000A369E569114403F40072114405F0380288
:101CC000256A114405F08002A56A114305F400520B
:101CD00011430160626A042101EA134102F010021B
:101CE00011444160C16921F40061C1610120666550
:101CF00084F85100304670BD80B586B00022059250
:101D0000CDE9032243F200010068C4F201018842D8
:101D10000292019201D006B080BD43F630000092DD
:101D2000C4F20200436943F480534361436903F4FE
:101D300080530093009B0092036843F0010303600B
:101D4000006800F0010000900098E020019002205F
:101D5000CDE90202032004900520059001F55040D2
:101D600001A9FFF721FB06B080BD00002DE9F0437B
:101D700081B0044690F85000012803D1022001B040
:101D8000BDE8F0834FF001091D4616460F4684F862
:101D90005090FFF7DBFB94F8511001295DD180468C
:101DA000002F4FF0010018BF002E00F09580032097
:101DB00084F85100002060652763A686E686A0634C
:101DC000A087E087A168C4E91000B1F5004F08D1F1
:101DD0002068016821F040010160016841F4804100
:101DE000016020680168490603D4016841F04001A0
:101DF00001606168731EE268B1FA81F1B3FA83F39E
:101E000049095B09B2F5006F41EA030127D139B1F5
:101E1000216B0988C160B81C2063E08E0138E08620
:101E2000E08E002841D06E1C0AE000BF216B31F823
:101E3000022BC2602163E08E0138E086E08EA0B301
:101E4000206881688907F1D4FFF780FB002EF5D068
:101E5000A0EB0800A842F1D325E002203CE039B114
:101E600039780173206B01302063E08E0138E08601
:101E7000E08ED0B16E1C0AE0216B09780173206BF3
:101E800001302063E08E0138E086E08E68B1206882
:101E900081688907F0D4FFF759FB002EF5D0A0EB3D
:101EA0000800A842F1D3032016E020462946424606
:101EB00001F032FE00281CBF20206065A06838B900
:101EC000002000902068C168009180680090009810
:101ED000606D002818BF0120002184F8519084F81B
:101EE000501001B0BDE8F0832DE9F04381B0044605
:101EF00090F85000012803D1022001B0BDE8F08322
:101F000001201E4615460F4684F85000FFF71EFBC1
:101F100094F85110814601290CD06068B0F5827F99
:101F200076D104294FF0020040F0C680A168002954
:101F300040F0C280002F4FF0010018BF002D00F0CC
:101F4000BB80002E00F0B88094F8510000210428D6
:101F50001CBF052084F851006165A563E687A6874C
:101F60002763E6862068A6862164616401684906C5
:101F700003D4016841F0400101606168731EE268AA
:101F8000B1FA81F1B3FA83F3DDF8208049095B09E6
:101F9000B2F5006F41EA03013CD139B1216B0988E8
:101FA000C160B81C2063E08E0138E086012608F18C
:101FB000010500BFE08E10B9E08F002866D02068D0
:101FC000816889070CD5E18E012E09D141B1216BC1
:101FD000002631F8022BC2602163E18E0139E186CF
:101FE0008168C9070AD0E18F41B1C068A16B0126A1
:101FF00021F8020BA163E08F0138E087FFF7A6FA12
:10200000002DD7D0A0EB09004045D3D3032053E0E7
:10201000022051E039B139780173206B013020631F
:10202000E08E0138E086012608F10105E08E08B94E
:10203000E08F58B32068816889070DD5E18E012EA5
:102040000AD149B1216B002609780173206B013058
:102050002063E08E0138E08620688168C9070BD0D4
:10206000E18F49B1C068A16B01260870A06B0130F7
:10207000A063E08F0138E087FFF768FA002DD5D024
:10208000A0EB09004045D1D3032015E0204641468E
:102090004A4601F041FD18B12020606501200BE0A7
:1020A000A06800284FF0000006D100902168CA689F
:1020B0000092896800910099012184F85110002153
:1020C00084F8501001B0BDE8F083000080B501F045
:1020D00065FB80BD704700007047000010B590F8A8
:1020E0003C20012A4FF0020252D0012380F83C30FC
:1020F00080F83D200268D2F804E0D2F808C00C68ED
:102100002EF07003234341F2FF74C4F20004A24294
:1021100053600DDC40F2FF73C4F200039A4215DCF9
:10212000B2F1804F29D040F20043C4F2000322E014
:1021300040F2FF33C4F201039A4212DC41F600037D
:10214000C4F200039A4218D0002312E040F60003C4
:10215000C4F200039A4210D040F60043C4F20003D8
:1021600009E044F20003C4F201039A4205D040F2B0
:102170000043C4F201039A4204D149682CF0800361
:10218000194391600121002280F83D1080F83C2025
:10219000104610BD002804BF0120704710B504464A
:1021A00090F83D0028B9002084F83C00204600F05B
:1021B0001FF8022084F83D002068211D00F080FDFA
:1021C000012084F8460084F83E0084F83F0084F83B
:1021D000400084F8410084F8420084F8430084F809
:1021E000440084F8450084F83D00002010BD000044
:1021F00080B582B0006842F20001C4F2000188425A
:102200001ED041F60041C4F20001884227D10020CF
:10221000019043F64000C4F202000168002241F040
:10222000800101600068002100F0800001900198A9
:102230002C20FFF707FA2C20FFF700FA02B080BD30
:102240000020009043F64000C4F20200016841F40F
:1022500080710160006800F480700090009802B006
:1022600080BD00007047000010B504460068016999
:10227000890744BFC1685FEA817138D42068016969
:10228000490744BFC1685FEA41713CD420680169D5
:10229000090744BFC1685FEA017141D42068016940
:1022A000C90644BFC1685FEAC16145D420680169BD
:1022B000C9071CBFC1685FEAC1714AD120680169C2
:1022C000090644BFC1685FEA016149D42068016919
:1022D000490644BFC1685FEA416148D4206801698A
:1022E000890644BFC1685FEA816147D410BD6FF0C1
:1022F00002010161012121778069800745D02046D4
:10230000FFF7B0FF47E06FF0040101610221217780
:10231000806910F4407F41D02046FFF7A3FF43E0DF
:102320006FF00801016104212177C06980073ED068
:102330002046FFF797FF40E06FF010010161082190
:102340002177C06910F4407F3AD02046FFF78AFF1A
:102350003CE06FF001010161204600F07FF9ADE73C
:102360006FF0800101612046FFF7B4FEAEE76FF029
:1023700040010161204600F073F9AFE76FF02001E2
:1023800001612046FFF7A8FE10BD204600F050F87E
:10239000204600F0E5F8002020776FE7204600F0A7
:1023A00047F8204600F0DCF8002020776EE7204652
:1023B00000F03EF8204600F0D3F8002020776DE7CB
:1023C000204600F035F8204600F0CAF800202077BB
:1023D0006CE7000080B586B000220592CDE90322AB
:1023E00040F200410068C4F200018842029201926A
:1023F00001D006B080BD43F630000092C4F2020066
:10240000036843F004030360006800F004000090D8
:102410000098802001900220CDE90202CDE904203D
:1024200001F5013001A9FEF7BFFF06B080BD000035
:1024300070470000B0B5044690F83C00012804BF86
:102440000220B0BD4FEAB2000D460121032884F8F6
:102450003C1036D8DFE800F0020A12222068294634
:1024600001F06AFA206850F8181F0EE0206829462B
:1024700000F0CAFC206850F8181F16E020682946B2
:1024800001F08AFA206850F81C1F41F00801016031
:10249000016821F00401016029690FE020682946E4
:1024A00001F0AEFA206850F81C1F41F40061016091
:1024B000016821F480610160296909020268114301
:1024C0000160002084F83C00B0BD0000002804BF7B
:1024D0000120704710B5044690F83D0028B900204F
:1024E00084F83C00204600F01FF8022084F83D00EC
:1024F0002068211D00F0E4FB012084F8460084F8E8
:102500003E0084F83F0084F8400084F8410084F8DD
:10251000420084F8430084F8440084F8450084F8BD
:102520003D00002010BD000081B0006840F2004175
:10253000C4F20001884201D001B070470020009031
:1025400043F64000C4F20200016841F0020101605C
:10255000006800F002000090009801B07047000091
:102560007047000010B5044641B1082909D004297C
:1025700014BF04F1410004F13F0004E004F13E0007
:1025800001E004F14000007801281CBF012010BDCB
:10259000022041B1082909D0042914BF84F8410060
:1025A00084F83F0004E084F83E0001E084F8400035
:1025B0002068012200F016FC206840F2004140F43F
:1025C0008062C4F201018A4203D1426C42F40042AB
:1025D000426441F2FF72C4F2000290420DDC40F20C
:1025E000FF71C4F20001884217DCB0F1804F27D0A0
:1025F00040F20041C4F2000120E040F2FF32C4F298
:102600000102904214DC41F60001C4F2000188424C
:1026100016D00021C4F2010110E040F60001C4F21E
:10262000000188420CD040F60041C4F2000105E0F0
:1026300044F20002C4F20102904201D0884206D165
:10264000816801F00701062904BF002010BD016860
:1026500041F001010160002010BD00007047000042
:1026600070470000002804BF0120704710B50446E1
:1026700090F83D0028B9002084F83C00204600F086
:1026800021F8242084F83D002068C16821F400511D
:10269000C160204601F0A6F82068016921F490414C
:1026A0000161416921F02A014161C16841F4005191
:1026B000C16000202021206484F83D1084F83E1081
:1026C00010BD000080B586B000220592CDE903223E
:1026D00044F200410068C4F2000188420292019273
:1026E00001D006B080BD43F630000092C4F2020073
:1026F000036943F400330361036903F40033009377
:10270000009B0092036843F001030360006800F03F
:102710000100009000980C2001900220CDE90202F7
:10272000032004900720059001F5DE3001A9FEF793
:102730003BFE06B080BD0000FEE7000080B582B021
:1027400040F23C41C2F200010A884B8884460020D6
:102750000021CDF800C000F023F802B080BD0000D9
:10276000B0B50C46054601F089FAB4F57A7F28BF6A
:102770004FF47A74204601F0A3F800F085FE284655
:1027800000F036F8C820FEF721FC112000F0D8F840
:102790007820FEF71BFC292000F0D2F8B0BD000025
:1027A0002DE9F041824214D91C460F468B4298BF56
:1027B000BDE8F081DDF81880394623461546064607
:1027C00000F072F8A81BE21B81B292B2404600F002
:1027D00003F8BDE8F081000080B5514301F084F8B2
:1027E00080BD000080B502460B4600F05DF880BD5C
:1027F000B0B5072808D8DFE800F0040A0D1013165A
:10280000191C2224082516E00025002413E0622468
:10281000082510E0022408250DE0422408250AE0DE
:102820002224282507E00224282504E06224282504
:1028300001E04224282540F23C41C2F20001087127
:102840004FF4F07204284FF4A07038BF4FF4A07218
:1028500038BF4FF4F0704880B6200A8000F070F85E
:10286000002000F04FF8204600F04CF8362000F031
:1028700067F8284600F046F8B0BD000010B51446D1
:1028800040F23C42C2F20002138883420AD35288CB
:102890008A4238BF10BDFFF7A5FF20460121012263
:1028A000FFF79AFF10BD0000F0B581B007462A205F
:1028B0001C4616460D4600F043F8380A00F022F890
:1028C000F8B200F01FF8013EC6F3072000F01AF836
:1028D000F0B200F017F82B2000F032F8280A00F0D0
:1028E00011F8E8B200F00EF8013CC4F3072000F044
:1028F00009F8E0B200F006F82C2000F021F801B051
:10290000F0BD0000B0B540F20045C4F20205044637
:10291000A5F580604FF480710122FEF711FE284674
:1029200040210022FEF70CFE002000F09BF920461B
:1029300000F098F9284640210122FEF701FEB0BDC3
:10294000B0B540F20045C4F202050446A5F580602A
:102950004FF480710022FEF7F3FD2846402100224B
:10296000FEF7EEFD204600F07DF9284640210122C9
:10297000FEF7E6FDB0BD00002DE9F04786B000246B
:1029800043F630000594CDE90344CDE901440094B9
:10299000C4F20200016840F2004841F00401016005
:1029A0000168C4F2020801F004010091009900944A
:1029B0000168002241F08001016001684FF48C69D8
:1029C00001F08001009100990094016841F001013B
:1029D0000160016801F00101009100990094016813
:1029E00041F00201016000684FF48C6100F00200C8
:1029F000009000984046FEF7A3FDA8F58067384692
:102A00004FF4407100224FF4407AFEF799FD4FF4E5
:102A1000005001900020C1F2210008F5806501AE50
:102A2000CDE9020428463146FEF7BEFCCDF80490FD
:102A30004FF0010940463146CDE902940494FEF777
:102A4000B3FC38463146CDE901A9CDE90344FEF790
:102A5000ABFC0820CDE90104404631460394FEF763
:102A6000A3FC4FF4B070CDE901042846314603942D
:102A7000FEF79AFC06B0BDE8F087000080B540F292
:102A8000C82043F20001C2F20000C4F201014FF479
:102A90008272002380E80E0000F114014FF4007CE4
:102AA0004FF0080EC0E9033381E808500A21C0E95D
:102AB0000833C0E90A31FFF7C5F8002818BFFEF750
:102AC0008BFA80BD80B540F2203041F60041C2F261
:102AD0000000C4F20001002344F24F6242F20F7C76
:102AE00080E80E1003618361FFF754FB002818BFD4
:102AF000FEF772FA80BD000080B540F2683042F205
:102B00000001C2F20000C4F200010023B3224FF61C
:102B1000FF7C80E80E1003618361FFF73BFB002818
:102B200018BFFEF759FA80BD10B58AB040F2B03038
:102B300040F200410024C2F20000C4F2000140F261
:102B4000E7330994CDE90744CDE90544CDE90344D1
:102B5000CDE9014440F2077280E81600C0E9033471
:102B60008461FFF7B3FC002818BFFEF735FA40F286
:102B7000B030C2F2000008A9CDE90844FFF7AEFA70
:102B8000002818BFFEF728FA602001900020CDE948
:102B90000200059040F2B030C2F2000001A9042208
:102BA000FFF748FC002818BFFEF716FA40F2B030D5
:102BB000C2F20000FFF70EFC0AB010BD80B540F273
:102BC000F83044F20041C2F20000C4F200010023D8
:102BD0004FF00C0C4FF4E13280E80E00C0E90333F3
:102BE000C0E905C3C361FFF73DFD002818BFFEF72C
:102BF000F3F980BDFEE70000FEE7000010B588B0E5
:102C0000602140F2B034CDE901100020C2F200048E
:102C10000390059001A920460422FFF70BFC2046F3
:102C20000421FFF79FFC08B010BD000070470000B2
:102C300080B582B08DF8070000208DF8060040F2C4
:102C4000C8204FF47A7CC2F200000DF107010DF1AB
:102C500006020123CDF800C0FFF746F99DF80600F3
:102C600002B080BD80B582B08DF8070040F2C82068
:102C7000C2F200000DF1070101224FF47A73FFF751
:102C800075F8002002B080BD7047000080B5FEF7E7
:102C900063FC80BD4EF68850CEF20000016841F41E
:102CA000700101604FF0006140F8801C7047000027
:102CB00080B540F22030C2F20000FFF7D5FA80BDA7
:102CC00010B540F6FF3E0368C4F2000E40F2004C1F
:102CD0007045C4F2010C0FDCB0F1804F19D040F206
:102CE0000042C4F20002904213D040F60002C4F247
:102CF000000290420DD010E040F60042C4F2000203
:102D0000904206D0604504D00022C4F201029042F5
:102D100003D14A6823F07003134341F6FF72C4F2F3
:102D2000000290420DDC70451FDCB0F1804F41D0B5
:102D300040F20042C4F2000290423BD040F6000252
:102D400021E043F6FF72C4F20102904220DC42F21D
:102D50000002C4F2000290422CD00022C4F2010210
:102D6000904227D0604525D028E040F60042C4F2CA
:102D7000000290421ED041F60002C4F200029042CE
:102D800018D041F60042C4F20002904212D015E081
:102D900044F20002C4F2010290420BD044F6000259
:102DA000C4F20102904205D044F20042C4F2010292
:102DB000904203D1CA6823F44073134323F0800286
:102DC0004B69D1F800E08C681A430260C46240F499
:102DD0008062C0F828E0624504BF096901630121EF
:102DE000416110BD80B501F01F014FF0010CD0F81A
:102DF00020E00CFA01F32EEA03030362036A02FAED
:102E000001F11943016280BDF0B5026A40F200454C
:102E100022F010020262036A4268D0F818C08E687D
:102E2000D1F800E023F0200340F48064C4F20105EF
:102E3000AC4243EA061307D1CE686FF0400723F097
:102E4000C00307EA06163343AC4207D1D1E9054572
:102E500022F4406242EA840242EA85022CF4E64708
:102E600047EA0E2742608761496881630362F0BDCB
:102E700010B582B040F29400C2F20000027E4FF61C
:102E8000EA71062A13D8DFE802F00412122B123876
:102E900047004BF2103240F2EA63C3F6B752C3F672
:102EA0000A63C0E904234A1C4281113941E001F15F
:102EB000150084B22046FFF741FC4AF6587240F2F2
:102EC00000034FF4784CC0F60002C2F20003002069
:102ED0003C210094CDF804C0FEF7EEF802B010BD1E
:102EE00042F25B5245F6D073C3F6B852C3F608639C
:102EF000C0E90423418110391BE041F6830242F20C
:102F00007863CBF60862C3F6B453C0E9042340F2F9
:102F10000522428102310CE049F6237245F2590341
:102F2000CBF60762C3F6B853C0E904234FF401722D
:102F30004281818102B010BD10B5044640F20040CC
:102F4000C4F2020020210122FEF7FAFA40F29401B5
:102F5000C2F200010C76081D063100F037FC10BDEE
:102F6000FEE77047826812B10146012010477047A2
:102F700080B58AB0694603F0E3FA0299002818BFC9
:102F8000002108460AB080BD80B58AB0694603F0CA
:102F9000D7FA0099002818BF002108460AB080BD62
:102FA00070B5ADF5407D62AD04462846FDF788FB5F
:102FB00000206E46E0603046294603F0E5FAB6A9E7
:102FC000304603F0BDFAA8B96D46B6AEB99B5BB109
:102FD000B698BB99BE9AC4E9120221650020214629
:102FE0002A469847082809D12846314603F0A8FA0E
:102FF0000028EBD003200DF5407D70BD062803D0DE
:10300000092818BF0320F6E762A869462246002374
:1030100000F072FB0220EEE7B0B5ADF5367D62AD93
:1030200004462846FDF74CFB694628462246012304
:1030300000F062FBFDF7BEF970B5049C154601294E
:1030400006460BD019BB0F2D4FF0020013D893B9D1
:1030500030462946224603F081FA13E0052B07D0BB
:10306000012B07D10F2D05D8304603F0B9FA03E044
:103070001F2D01D9022070BD05F580713046224612
:1030800003F047FA002818BF0120400070BDFDF78B
:1030900091F900002DE9F04F81B09A42044680F08A
:1030A000F3801D468A460026EB46202782F0030067
:1030B0001AF8009002F101085FEA09600ED4204678
:1030C0000D215A4603F04AFA5FEA49604FEA890047
:1030D0002AD400990844021D2BE000BF09F0F0003B
:1030E00080380009052800F2DB80DFE800F00328C3
:1030F0003744607BA84580F0D38088F003014FEA15
:1031000009301AF8011080B240EA0113002B00F0D8
:10311000C78009F0080002F1020846EAD0062046FE
:1031200000211A4625E000BF009900F0FC00081AB3
:10313000021F009220460D2103F070FA9EE049F034
:10314000020000F00F000F2800F0AA8009F00F0124
:1031500020465A4603F002FA009AEBE709F007000E
:1031600007FA00F0103809F0080140EAC1222046B1
:103170000021002380E0A9F1B00107293FD80920F0
:10318000DFE801F08004446B8F8F8F8FA84580F0BB
:10319000878088F003001AF800300920002B00F027
:1031A000808013F0F0017CD102F10208B7E709F04A
:1031B000FE00C82874D188F003001AF80010A9F1A5
:1031C000C800B0FA80F040090B0943EA001001F092
:1031D0000F0143181F2B63D841EA004002F1020897
:1031E000421C08E05FEA09705AD4012109F0070087
:1031F000C0F2080142182046012105233CE00121CC
:1032000009F00700C0F20801421831E0B14600267B
:10321000002000BFA84543D288F003011AF801102E
:1032200008F1010701F07F028240164307300906CA
:10323000B846EFD420460D215A4603F08FF9009886
:103240000D2100EB860000F501722046009203F08C
:10325000E5F9B8464E46202710E088F003001AF83A
:10326000000002F1020840EA003000F00F10421C9A
:1032700020460121012300BF00F016F8A845424670
:10328000FFF414AFF00709D16A4620460E2103F07F
:1032900065F9009A20460F2103F0C0F9082000E0EC
:1032A000092001B0BDE8F08F2DE9F04186B01E463F
:1032B0001546012904462CD0002965D19EBB02AADF
:1032C00020460D2103F04AF968BB00270DF11408D0
:1032D000002600BF25FA06F0C00713D00298324638
:1032E00050F8041B00230290059120460021CDF8E0
:1032F000008000F04BF8B0B9A6F10D00B0FA80F0F4
:10330000400907430136102EE4D1F80732D00020DF
:103310000AE046F00400052805D105AA20460D2143
:1033200003F01CF918B1022006B0BDE8F081A8B284
:10333000C0B12F0C00EB15450DF1080805983A4671
:1033400000F10801059103C83346CDE9020120468A
:103350000121CDF8008000F019F80028E3D10137F1
:10336000AF42EBD3012E03D10598021D059202E076
:10337000059A00E0029A20460D2103F04FF900283B
:1033800018BF01204000CFE7FDF714F870B5049E88
:103390001446012905460BD021BB0F2C4FF002002B
:1033A00013D893B932682846214603F037F914E060
:1033B000052B07D0012B07D10F2C05D8284603F089
:1033C0000FF903E01F2C01D9022070BDD6E90023BC
:1033D00004F58071284603F006F9002818BF012083
:1033E000400070BDFCF7E6FF70B594B007AC204616
:1033F0003421FDF780F8002543F640000695CDE91D
:103400000455CDE902550195C4F20200016801227C
:1034100041F0805101600068022600F08050019068
:10342000019847F200000195C4F20000016862F3C0
:103430008F310160006800F4404001900198102035
:1034400007960A920B90CDE90D650F904FF4A87086
:1034500010900420CDE9110620461396FEF730FAAD
:1034600078B90F20CDE902064FF480500495CDE9DC
:10347000050502A80221FEF7F9F8002804BF14B0E0
:1034800070BDFDF7A9FD000080B5F920FFF758FADF
:103490000020FFF737FA0820FFF734FAC020FFF7C3
:1034A0004FFA1920FFF72EFA1A20FFF72BFAC12046
:1034B000FFF746FA4520FFF725FA0020FFF722FA2A
:1034C000C220FFF73DFA3320FFF71CFAC520FFF7B3
:1034D00037FA0020FFF716FA2820FFF713FAB12079
:1034E000FFF72EFAA020FFF70DFA1120FFF70AFAD6
:1034F000B420FFF725FA0220FFF704FAB620FFF701
:103500001FFA0020FFF7FEF94220FFF7FBF93B20EE
:10351000FFF7F8F9B720FFF713FA0720FFF7F2F9E2
:10352000E020FFF70DFA1F20FFF7ECF92520FFF749
:10353000E9F92220FFF7E6F90B20FFF7E3F906206F
:10354000FFF7E0F90A20FFF7DDF94E20FFF7DAF97F
:10355000C620FFF7D7F93920FFF7D4F90020FFF78D
:10356000D1F90020FFF7CEF90020FFF7CBF90020BA
:10357000FFF7C8F90020FFF7C5F90020FFF7C2F9EF
:10358000E120FFF7DDF91F20FFF7BCF93F20FFF72F
:10359000B9F93F20FFF7B6F90F20FFF7B3F91F2065
:1035A000FFF7B0F90F20FFF7ADF94620FFF7AAF9B2
:1035B0004920FFF7A7F93120FFF7A4F90520FFF70D
:1035C000A1F90920FFF79EF90320FFF79BF91C20C2
:1035D000FFF798F91A20FFF795F90020FFF792F905
:1035E000F120FFF7ADF93620FFF78CF90420FFF743
:1035F00089F90020FFF786F93C20FFF783F90F20B7
:10360000FFF780F90F20FFF77DF9A420FFF77AF983
:103610000220FFF777F9F220FFF792F91820FFF761
:1036200071F9A320FFF76EF91220FFF76BF9022062
:10363000FFF768F93220FFF765F91220FFF762F90A
:10364000FF20FFF75FF93220FFF75CF90020FFF75A
:1036500059F9F420FFF774F94020FFF753F90020DF
:10366000FFF750F90820FFF74DF99120FFF74AF9CD
:103670000420FFF747F9F820FFF762F92120FFF750
:1036800041F90420FFF73EF93A20FFF759F9552098
:10369000FFF738F980BD000070B540F2C824064637
:1036A000C2F200042820E0612046FEF7CBFA40F287
:1036B0000045C4F20205284620210022FDF740FF04
:1036C0003046FFF7CFFAC820FDF784FCFF20FFF754
:1036D000AFFA0646FF20FFF7ABFA40EA0620C6081D
:1036E000284620210122FDF72BFF0820E06120461B
:1036F000FEF7A8FA304670BD2DE9F0478CB00C46B5
:10370000014620469A46154602F03EFF01260DF17D
:103710002C080DF104091AF001004FF0010718BF41
:10372000022708D03EB92A6920464FF0FF3102F047
:1037300075FF4FF0000A20466FF00101424602F08B
:103740000DFF2046494602F0FBFE20BB049B8BB1D7
:1037500001980699099AC5E9120229653846294651
:103760002246984707280BD0082805D10B98296ACC
:10377000884203D0013ECEE709280CD1FCF71AFE9F
:103780006A4620464FF0FF3102F0E8FE00982861BB
:10379000204602F01CFF0CB0BDE8F087B0B5013840
:1037A0000024B4EB106F1CBF0120B0BD4EF2100519
:1037B000CEF2000568604FF0FF300F2100F048F9AD
:1037C0000720AC6028602046B0BD0000B0B50546BB
:1037D000D0200C4600F064F92880902000F060F9B9
:1037E0002080B0BD10B504460068D4E902C2236948
:1037F000016921F4405111430161626943EA0C01FE
:10380000E3691143C268194349F20C639A431143B7
:10381000C1604169A26921F4407141F20043114342
:1038200040F48062C4F201039A42416102D1FDF783
:10383000E5FF01E0FDF7D0FFE16963681922B1F50A
:10384000004FA0FB02011CD15A00DB0FFCF73AFD30
:1038500048F21F51C5F2EB11A0FB01235A096FF08A
:10386000630302FB0300322303EBC000A0FB010152
:103870004FF4F87000EA111000EB0210C1F342118E
:103880001AE09A009B0FFCF71DFD48F21F51C5F28C
:10389000EB11A0FB01235A096FF0630302FB030045
:1038A000322303EB0010A0FB0101F02000EA5110CD
:1038B00000EB0210C1F3431122680843906010BD71
:1038C00080B5FFF79BF980BD002848BF704700F026
:1038D0001F01012202FA01F14EF200124009CEF25C
:1038E000000242F820107047F0B581B040F2004469
:1038F000C4F202040D460646A4F580604FF48071C0
:103900000122FDF71DFE204640210022FDF718FE92
:1039100055B1370AF6B200BF3846FFF7A3F9304673
:10392000FFF7A0F9013DF7D1204640210122FDF724
:1039300007FE01B0F0BD000070B5026A40F200451C
:1039400022F001020262036A4268D0F818C08E6851
:10395000D1F800E023F0020340F48064C4F20105D2
:10396000AC4243EA060305D1CE6823F00C0326F0EF
:1039700004063343AC4205D1D1E9054522F4407237
:1039800022432A432CF0730646EA0E064260866103
:1039900049684163036270BDF0B5026A40F20045B8
:1039A00022F480720262036A4268D0F81CC08E68FA
:1039B000D1F800E023F4007340F48064C4F2010500
:1039C000AC4243EA062307D1CE6840F2FF473602F5
:1039D00023F44063BE433343AC4207D1D1E90545EC
:1039E00022F4405242EA041242EA05122CF0730714
:1039F00047EA0E074260C7614968C1630362F0BDD0
:103A000070B5026A40F2004622F480520262026AF5
:103A10004368D0F81CE00C68D1F808C040F4806519
:103A2000C4F20106B54204D14D6923F4804343EA50
:103A300085132EF4E64646EA04264360C66122F466
:103A40000052496842EA0C320164026270BD000013
:103A50004EF6145300F00F02CEF2000309011A448F
:103A600000F16043B0F1FF3FC8BF03F5644211703D
:103A70007047000000F0070080F00703042B28BF08
:103A800004234FF0FF3C03380CFA03F338BF002047
:103A9000994381400CFA00F022EA00000843704785
:103AA00070B584B004466FF001060DF1060500BF45
:103AB0002046FFF7F1FDA9194880C820FDF78AFAD2
:103AC0000236082EF4D1A81C002100BF4A1C0B4668
:103AD00035F8116030F81340A64284BF25F8114034
:103AE00020F813600133042BF2D1042A1146EDD1E2
:103AF00000226FF0010100BF43185B8802311A44B5
:103B0000042992B2F8D14AF6AB20CAF6AA20A2FB49
:103B10000001480804B070BD10B582B040F218032F
:103B2000C2F200031B6849F68174C1F25E64A3FB14
:103B3000043C04464FEA5C504FF47A7358430190BA
:103B40006068B0F5827F0DD113460A462046802179
:103B500000F02CF878B1606D40F020006065032023
:103B600002B010BD019830B1019801380190206871
:103B700080680006F6D4002002B010BD4EF60C504E
:103B8000CEF200000068C0F3022070474EF60C51E0
:103B9000CEF200010A684FF6FF031A4060F30A22D2
:103BA00042F0806040F0FD70086070472DE9F043FE
:103BB00081B01E4690460D468146FDF7C7FC301A7F
:103BC00000EB0807FDF7C2FC40F21801C2F2000149
:103BD0000968C1F3CB3179430091D9F800108968A5
:103BE0002940A94219D1064608F1010406E000BFA8
:103BF000D9F8000080682840A8420ED1002CF7D0E8
:103C0000FDF7A4FC801BB8420BD200980099002855
:103C100008BF0746481E0090EAE7002001B0BDE853
:103C2000F083D9E900014268B1F5827F22F0E00219
:103C300042600BD1D9F80810B1F5004F02D0B1F5B0
:103C4000806F03D1016821F040010160D9F828108C
:103C5000B1F5005F07D1016821F4005101600168EE
:103C600041F400510160012089F85100002089F8D9
:103C70005000032001B0BDE8F083000010B500241F
:103C8000C4F2020420464FF400710122FDF758FCF3
:103C90004FF4FA70FDF79AF920464FF400710022B4
:103CA000FDF74EFC4FF4FA70FDF790F920464FF403
:103CB00000710122FDF744FC4FF4FA70FDF786F91C
:103CC00010BD00002DE9F04385B002AFDDE90C899D
:103CD000066838461C46154601F0DEFE3046394679
:103CE0002A462346CDF80080CDF8049000F0F2FC7F
:103CF000384601F0E4FE05B0BDE8F08310B584B0AD
:103D0000DDE906CE089C0068CDE900CE029400F003
:103D100087FD04B010BD000000687047B0B50446D0
:103D20001C2002F09DF805460020C5E90000C5E909
:103D30000200C5E90400A861284600F0D7FD20462E
:103D40002560B0BD10B50446006818B100F0D6FD7E
:103D500002F083F8204610BD4AF6E051C0F600019B
:103D600008310160704701F0E7BF80B5AFF3008014
:103D7000BDE8804002F071B880B5AFF30080BDE8C7
:103D8000804002F06AB803C844F64E42C0F24302D3
:103D9000000A82EA112240EA016042F62B31C4F2A5
:103DA000437148401043B0FA80F04009704740F238
:103DB000BC01C2F20001884238BFFCF7FCBB01F530
:103DC0000071884201D200F007BBFCF7F4BB10B5CC
:103DD00082B00446002808BF012401A80821224619
:103DE000FCF710FC18B1204600F05AFB00E00198E7
:103DF00002B010BD2DE9F04F8FB08A4618219846C9
:103E000017460446FCF777FB03201AF001062076DC
:103E100008D15FEA8A7008D50AF00C000C2809D195
:103E2000022003E01AF00E0F04D0032020760FB01A
:103E3000BDE8F08FDDF860904846FFF799F800285C
:103E40000D9000F04E810546CDE90464E06000204D
:103E50000E900DF1380C484600210F2200230897E0
:103E6000CDF82880CDF800C0FFF7E6F80E9820F0D6
:103E700001084846FFF788F80746681C0D90297826
:103E80000DA86FEA070900F0C1F90D99002811F893
:103E9000012B08BF38460990FF2A4FF000000D9112
:103EA0000CD0002211F8013B03F07F0787403A4312
:103EB0001B0600F10700F5D488180D9111F8015B7D
:103EC0000B90C84400200022CDF80CA00D9100BF3B
:103ED00011F8013B03F07F0787403A431B0600F1CE
:103EE0000700F5D401EB020B0EAF0D910E9100BF50
:103EF000594524D23846294600F088F9814638468B
:103F0000294600F083F982463846294600F07EF9BA
:103F10000E990023002200BF11F8014B04F07F0628
:103F20009E403243260603F10703F5D4C1450E91A6
:103F300003D80AEB0903984505D3C845D8D2089899
:103F40000A9900F056F9002800F0D9800999002A52
:103F500000EB010300F0C78003990BEB0200A0F116
:103F6000010901F00600069001F00500079001F03C
:103F7000080009900A9842F60138C4F22B3800F183
:103F800058044FF0FF37029300200021CA4600BFBB
:103F90001AF8012B02F07F0383401943130600F146
:103FA0000700F5D452060D4607FA00F348BF1D433B
:103FB000202828BF0D46012D3ADB0B980028BED0E3
:103FC000A0EB8500016859B3006800BF40B3064606
:103FD000089800286AD00A9803C800BF44F64762D0
:103FE000C4F24C32514080EA08000843204602D116
:103FF0000A9850F8240C00280C9000F0B8800A9819
:1040000050F8201C002900F0B28030680CAA036927
:1040100030469847002849D0049800283DD092E0C7
:10402000079800286FD1099800283FD187E700BF83
:10403000B5F1FF3F03DD0698022837D168E0089804
:1040400070B30A9803C800BF44F64762C4F24C320A
:10405000514080EA08000843A046264602D10A984B
:1040600050F8246C0A9C002E00F0858054F8203C07
:10407000002B00F080804FEAE57B0B9A28465946DA
:104080000096019400F062F9444642F60138C4F209
:104090002B3858B10498002860D1099830B966E0EF
:1040A000079880BB0998002869D000BF0020002134
:1040B000524600BF12F8013B03F07F0686403143B1
:1040C0001E0600F10700F5D45A060A4607FA00F664
:1040D00048BF3243202828BF0A4682B10AEB0209B2
:1040E00052E70820A2E6039800F00600022806D155
:1040F00005990020C1E900000B61062001E0059947
:104100000820087693E62646059CE817256003E01C
:104110002646059C002020606060C4F80890029844
:1041200020610A9D284603C800BF44F64762C4F2D6
:104130004C32514080EA0800084308BF55F8246C0F
:104140006661062072E60599E817C1E900500C98EF
:10415000029AC1F80890C1E90420CEE70599C1E9A7
:10416000005B0298C1F80890C1E90406C5E70A9906
:10417000012000F03EF80120214600F03AF80A99AB
:10418000002000F036F810B50446283001F0ACFEEF
:10419000606901F0D3FDF0B583B015460C4602907E
:1041A00002AE084600210022002300960027FFF7F8
:1041B000EDF8286800210290204601220023009695
:1041C000FFF7E4F82D69204600210F220023029713
:1041D0000096FEF731FF0298002100F0010028430D
:1041E000029020460F2200230096FFF7CFF803B07D
:1041F000F0BDB0B5054608460C4601F075FE1DB190
:1042000054F8140C01F09AFD01F006FE70B5FF2978
:104210001CD001F00F020C2A00F28B80D0F800C0F5
:10422000DFE802F05828380717878787873F690734
:1042300017009CF800209CF802309CF803609CF862
:10424000015043EA062342EA05224FE04FF0000EF8
:104250006DE09CF800209CF802309CF803609CF80C
:10426000015043EA062342EA052242EA034E0CF1DA
:10427000080648E000224FF0000E664616F8013BA3
:1042800003F07F0494404EEA040E1B0602F107027D
:10429000F4D438E09CF800209CF8013042EA032E68
:1042A0002FE000220024664616F8013B03F07F054C
:1042B00095402C431D0602F10702F5D44FF0FF355F
:1042C000A64695405B0648BF4EEA050E202A28BF49
:1042D000A64618E09CF800209CF802309CF8035099
:1042E0009CF8014043EA052342EA042242EA034ED5
:1042F0000CF1040607E09CF901209CF8003043EA29
:10430000022E0CF10206C1F302122AB1012A10D1C9
:10431000BEF1000F08D0E644BEF1000F04D009063C
:1043200048BFDEF800E001E04FF0000E0660704686
:1043300070BDFCF73FF8012803D101F1580001F0EE
:10434000F2BE80B551F8140C01F0F8FC2DE9F041F3
:1043500082B0E2B1DDF82080C0431C4602EB800051
:1043600001AD00BF076867B1061D006800BF0168A6
:104370002A460B692146CDF804809847002830462C
:10438000F0D0B7FA87F0400902B0BDE8F081099992
:104390000020FFF72EFF000080B5406850F8041F92
:1043A0000968884780BD000080B5406801680968D9
:1043B000884780BDB0B504464AF6EC50C0F6000010
:1043C00008302060142001F04BFD2146054600F026
:1043D000B7F820466560B0BD2DE9F04140F2BC2C35
:1043E000C2F2000CDCF8003040F2BC0E011FC2F239
:1043F000000ECBB10EF50072934215D000244FF49D
:1044000000781A46568802EB86078F4214D030F89F
:10441000027C01EB8705954214D0158814460EEBFB
:104420008502B8EB850FEDD1A3EB0E008008088064
:10443000CCF80010BDE8F08130F8020C3044508018
:10444000BDE8F081BB1920F8023C2CB1A1EB0E00B5
:1044500080082080BDE8F0811088CCF8001008802A
:10446000BDE8F081B0B58AB00C46054669462046E5
:1044700002F066F895F85010C90707D10299002894
:1044800018BF0021086808B1092007E0204602F0A3
:10449000F9F80921012808BF082108460AB0B0BD73
:1044A00010B540F2BC2CC2F2000CDCF8002040F247
:1044B000BC0EC2F2000E3AB980217246CCF800E080
:1044C000AEF80010AEF802100EF500718A4213D05B
:1044D0000330012101EB900300214FF4007400BF71
:1044E00010465288934209D313D001880EEB810203
:1044F000B4EB810F0146F3D1002010BDD11A4180E9
:1045000089B200EB8102002420F82140101D538065
:1045100010BD0288002912BF0A800EEB8201CCF880
:104520000010002120F8041B10BD0000704700009F
:1045300080B5C06800F03EF980BD00007047000003
:104540002DE9F04393B0044600F004FA4AF6FC501B
:10455000C0F600004AF6B47600F108012430C0F637
:104560000006C4E90010304604F1100501F09CF982
:1045700010AF02463846314601F067FA2820182667
:104580000090284639460022F0230196FFF79AFB57
:10459000384601F094FA4AF6AA76C0F6000630468C
:1045A00001F082F90DAF02463846314601F04DFA6E
:1045B0008C204FF014080090284639460022B4237E
:1045C000CDF80480FFF77EFB384601F078FA4AF612
:1045D0009A76C0F60006304601F066F90AAF024648
:1045E0003846314601F031FAA0200090284639467D
:1045F00000224FF4B973CDF80480FFF763FB38460F
:1046000001F05DFA4AF69F76C0F60006304601F0EA
:104610004BF907AF02463846314601F016FA7820CA
:104620000090284639460022F023CDF80480FFF799
:1046300049FB384601F043FADC203C214FF0F709F2
:10464000CDE90110284600214FF47842F023CDF83F
:104650000090FFF753FB4AF6C276C0F600063046DC
:1046600001F022F904AF02463846314601F0EDF977
:10467000284639460022F023CDF80090CDF804807A
:10468000FFF720FB384601F01AFA2846FFF744FBF3
:1046900001462046E16013B0BDE8F08380B500F02C
:1046A00003F801F0DAFB80BD10B54AF6FC51C0F604
:1046B0000001044601F108002060E06824316160D7
:1046C00018B100F01BF901F0C8FB204600F05CF9BE
:1046D00010BD00002DE9F04792B003AC0546DDE9BE
:1046E0001A9A00F10C0820461E46174601F0D4F92C
:1046F00006A821463A463346CDF80090CDF804A0EE
:1047000000F00AFAD5E90401884210D20DAC204627
:104710004146012201F0D4FA0E9806A900F012FADF
:104720000E981C300E90204601F0D4FA35E0D5E901
:10473000030146F6B754081A8010CBF2DB646043DD
:10474000461C404601F050F8B0422FD355F8141FD4
:1047500055E90223891A89106143B6EB410F98BFCE
:104760004E00B1EB500F28BF0646981A801000FB90
:1047700004F20DAC204631462B4601F035FA0F9875
:1047800006A900F0DFF90F9821461C300F90404633
:1047900001F0A4FA204601F04BFA06A800F0E6F971
:1047A00003A801F08CF912B0BDE8F087404600F094
:1047B000CFFF0000F0B581B0044600686168814217
:1047C00014D04CF6CD460025CCF6CC46002700BFD1
:1047D0002068284400F0EAF8D4E900010137081AFB
:1047E00080107043874205F11405F1D3D4E9030129
:1047F000814213D046F6B7560025CBF2DB66002780
:10480000E068284400F004F9D4E903010137081AEC
:1048100080107043874205F11C05F1D301B0F0BD53
:10482000F0B58DB0DDE91265DDF850C0044603A88F
:10483000CDE90065CDF808C000F0D6F8D4E9010153
:10484000884215D208A82146012201F00FFA0999E1
:10485000079ADDE90336DDE90554C1E90036C1E90F
:1048600002540A611431099101F00AFA0DB0F0BD49
:10487000D4E900014CF6CD47081A8010CCF6CC479D
:104880007843451C204600F0A9FFA8422BD32346BD
:1048900053F8081FD4E90026891A89107943B5EB2B
:1048A000410F98BF4D00B1EB500F28BF0546B01A1D
:1048B000801008AE00FB07F23046294601F052F99D
:1048C00003AF0A988ECF079D80E88E0005610A9895
:1048D000314614300A90204601F0D6F9304601F0F6
:1048E00065F90DB0F0BD204600F032FF0021C0E9AF
:1048F0000011C0E90211C0E90411704710B5044667
:104900000C3001F019F9204601F00AF910BD000041
:1049100080B50830FFF740FD80BD000080B508304D
:10492000FFF742FD80BD000010B5044600F022F9FB
:104930000430FFF711FA4AF62460C0F6000000F1D7
:1049400008011830C4E9001004F10800FFF732FD37
:10495000204610BDB0B50C46054600F00BF90430FA
:10496000FFF7FAF94AF64060C0F6000000F10801CE
:104970002030C5E9001005F11000AC60FFF7CEF95A
:104980002846B0BDFEDE000010B504464AF6406081
:10499000C0F6000000F108012030C4E9001004F165
:1049A0001000FFF7CFF9204610BD0000B0B584B06D
:1049B000D0E9011CD0E903234088A1EB030EACEB46
:1049C00002045D1802EB0C0300214FF0020CCDE94C
:1049D00000011FFA8EF0A1B2AAB29BB2CDF808C0B6
:1049E000FCF778FC04B0B0BD10B5DDF810C0DDE90F
:1049F000024E017042800EEBDE710CEBDC7249104E
:104A00005210C0E90134C0E9031210BD00000000DB
:104A10002DE9F04182B0044680694FF6FF781028F6
:104A20001ED12278206912F001010CBF5208626881
:104A300052086FF00A0302FB0300A28A0029A2F1C8
:104A400006010CBF621CA268A38980B2019340F2E8
:104A5000000389B2C2F20003CDF80080FCF72CFB02
:104A6000A06914281DD12278206912F001010CBF21
:104A7000520862685208A2EB02121044A28A00296E
:104A8000A2F108010CBF621CA268A38980B2019345
:104A900040F2080389B2C2F20003CDF80080FCF7AF
:104AA0000BFBA06918282DD1206902F016FB227893
:104AB000054612F001070CBF5008606840080E461A
:104AC00002F022FB9FED120B53EC102B02F030FB97
:104AD00002460B462846314602F028FA02F0CEFA8A
:104AE000A18A002FA1F10A010CBF621CA268A7894C
:104AF00040F2100389B2C2F20003CDF800800197A2
:104B0000FCF7DAFA02B0BDE8F08100BF00BF00BFD9
:104B100000000000008032C02DE9F0410646002070
:104B2000DDE90678C6E90000B06030461C4615464F
:104B300000F0CFFF3046B581C6E90447C6F81880BB
:104B4000BDE8F0818B68D1E900C28360C0E900C292
:104B50000022C1E900228A60D1E903C3D1E905122C
:104B6000C0E90512C0E903C37047000080B500F03A
:104B7000A6FF80BD4AF66461C0F6000108310160FD
:104B80007047012180F848107047B0B50C4621F0FD
:104B90000F01B1F5887F054610D0B1F5807F24D193
:104BA00095F84900D8B995F84810012085F84900D2
:104BB00005F1500089B1FBF793FD10E095F84A002C
:104BC00030B9012085F84A0005F1D800FBF78CFDCB
:104BD00005EBC400A0F5F56005E0FBF77DFD05EBF6
:104BE000C400A0F5F66003C8B0BDFBF7E3FBF0B569
:104BF00081B00E4621F00F011C461546B1F5887FA5
:104C0000074610D0B1F5807F26D197F84900D8B972
:104C100097F84810012087F8490007F1500089B142
:104C2000FBF75EFD10E097F84A0030B9012087F8E5
:104C30004A0007F1D800FBF757FD07EBC600A0F5C7
:104C4000F56005E0FBF748FD07EBC600A0F5F66050
:104C5000C0E9005401B0F0BDFBF7ACFB90F8810156
:104C6000704710B582B004460021D0F87801019158
:104C70000091694601AA01F00BFDDDE90023014620
:104C80002046FEF707FA0838B0FA80F0400902B073
:104C900010BD21F01F00A0F58070B0FA80F040092F
:104CA000704780B50168CA684FF0FF319047002017
:104CB00080BD084600F09AB92DE9F04F81B05768E1
:104CC0000023B3EBD70F00F0D0804FEAD708D2F81B
:104CD00000900025434600BF05EB530B09EBCB07C3
:104CE00019F83BC097F801E097F802A0FC784CEA6D
:104CF0000E264AEA042446EA044606F0804446EAC0
:104D0000440637446FEA53069A198F4294BF0BF159
:104D100001055A08002A1346DED1002D58D06A1E1C
:104D200009EBC20119F832C091F801A091F802E034
:104D300091F803B0454502D14FF0FF3812E009EB7E
:104D4000C50219F8353054789578D67843EA0423AB
:104D500045EA062443EA044303F0804443EA44035B
:104D600003EB02080E1D33D03278B378F5787778EC
:104D700043EA052342EA072242EA0345012D71D0A6
:104D8000002DCDF800C025D405F0804245EA42034D
:104D90009A199B5D56789778D47843EA062347EAB8
:104DA000042443EA0443B3F1FF3F15DD03F08044DC
:104DB00043EA4403144654F8046F03EB0209330E2C
:104DC00004EB83030433002716464FF0000C33E056
:104DD00000234AE02B4600E01646C3F30362022A92
:104DE0004FEAD57716D0012A0DD0002A41D10023F1
:104DF00045F69F694FF0000CB5F1FF3FC8BF331D6A
:104E0000C0F6000918E045F6A769C0F600094FF0A2
:104E1000000C05E045F6AF69C0F600094FF0010C43
:104E2000C3F30742B2FA82F35B0987F0010423431C
:104E30001FD006EB8202131D009A4EEA0B2442EAB1
:104E40000A2242EA044202F0804442EA4402114447
:104E50006CF34107C0F87861C0E95618C0E95839C9
:104E6000C0F86C716B1E18BF0123184601B0BDE875
:104E7000F08FFBF79FFAB0B584B0044600680D468A
:104E8000C26820464FF0FF31904720F0010020B368
:104E900040F20001C0F20001A0EB050559B103A9E1
:104EA00002AA2846AFF30080B8B90398029900908F
:104EB000019160B911E04BF228004BF2D851C0F6D5
:104EC0000000C0F600010090081A019005D06A4663
:104ED00020462946FFF7F0FE10B9012084F8800132
:104EE00004B0B0BDB0B5054690F8800108B100240B
:104EF0000EE02846FFF7B5FE0446012808D12868D1
:104F00000121426B2846904795F880010028EED198
:104F10002046B0BD80B50C2906DD0F2908D00E292A
:104F20000AD00D2906D009E08A1C03D04A1C05D1FD
:104F3000443008E03C3006E0403004E00C2904D85E
:104F400000EB81000830006880BDFBF733FA10B534
:104F500000F10804204600F013FA2046BDE8104096
:104F6000FBF74ABE80B50C2906DD0F2908D00E29B3
:104F70000AD00D2906D009E08B1C03D04B1C05D1AB
:104F8000426480BDC26380BD026480BD0C299EBFA7
:104F900000EB8100826080BDFBF70CFAB0B590F8A1
:104FA000802122B108462821FBF7A5FAB0BDD0F830
:104FB0006C4100F5B075D0E956CE2CCD4C6101F1B5
:104FC00008042CC4C1E900CE00F5B875D0F87C0106
:104FD0002CCD486201F118002CC0B0BD1039002062
:104FE00011F1130F88BF012070477047811C6129A0
:104FF00000F26A804AF6E670C0F60000DFE811F0C1
:1050000062007D007E0080008200840086008800AF
:105010008A008C008E00900092009400960062003E
:1050200098007D007C007C007C007C007C007C0083
:105030007C007C007C007C007C007C007C007C0090
:105040007C007C007C007C007C007C007C007C0080
:105050007C007C007C007C007C007C007C007C0070
:105060007C007C007C007C007C007C007C007C0060
:105070007C007C007C007C007C007C007C007C0050
:105080007C007C009A009C009E00A000A200A4006E
:10509000A600A800AA00AC00AE00B000B200B400A8
:1050A000B600B800BA00BC00BE00C000C200C40018
:1050B000C600C800CA00CC00CE00D000D200D40088
:1050C000D600D800A7A07047A0F580701F2813D87D
:1050D000DFE800F01070727476787A7C7E808284CB
:1050E00086888A8C8E90929496989A9C9EA0A2A470
:1050F000A6A8AAAC6DA070479CA0704798A0704766
:1051000096A0704794A0704792A0704790A07047F7
:105110008EA070478CA070478AA0704788A0704707
:1051200086A0704784A0704782A0704780A0704717
:105130008DA070477DA070477BA0704779A0704715
:1051400077A0704775A0704773A0704771A0704733
:105150006FA070476DA070476BA0704769A0704743
:1051600067A0704765A0704763A0704761A0704753
:105170005FA070475DA070475BA0704759A0704763
:1051800057A0704755A0704753A0704751A0704773
:105190004FA070474DA070474BA0704749A0704783
:1051A00047A0704745A0704743A0704741A0704793
:1051B0003FA070473CA070473AA0704738A07047A6
:1051C00036A0704734A0704732A0704730A07047B7
:1051D0002EA070472CA070472AA0704728A07047C7
:1051E00026A0704724A0704722A0704720A07047D7
:1051F0001EA070471CA070471AA0704718A07047E7
:1052000016A0704714A0704712A0704710A07047F6
:105210000EA070470CA070470AA0704708A0704706
:1052200006A0704704A0704702A0704700A0704716
:105230006433310064333000643239006432380042
:105240006432370064323600643235006432340030
:105250006432330064323200643231006432300030
:10526000643139006431380064313700643136000C
:10527000643135006431340064313300643132000C
:10528000643131006431300064390000643800005A
:1052900064370000643600006435000064340000A8
:1052A00064330000643200006431000064300000A8
:1052B0007333310073333000733239007332380086
:1052C0007332370073323600733235007332340074
:1052D0007332330073323200733231007332300074
:1052E0007331390073313800733137007331360050
:1052F0007331350073313400733133007331320050
:10530000733131007331300073390000733800009D
:1053100073370000733600007335000073340000EB
:1053200073330000733200007331000073300000EB
:105330007231320072313100723130007239000046
:1053400072380000723700007236000072350000BB
:1053500072340000723300007232000072310000BB
:1053600072300000737000006C720000756E6B6E1E
:105370006F776E2072656769737465720000000054
:1053800010B5044690F8410050B194F84000002850
:1053900004F1480002D0FBF73BFC01E0FBF734FCD2
:1053A00094F8420028B104F1D000BDE81040FBF7AA
:1053B00033BC10BD70477047704770B51546059AED
:1053C0000E4689681C463AB188420AD0406849684E
:1053D000FBF78AFD28B170BD40684968884218BF54
:1053E00070BD31462A462346BDE8704000F072B8D1
:1053F0002DE9F0411646069A0C46896898460746FC
:105400008AB18F4230D07D6849682846FBF76CFD31
:1054100050B3206887420ED041682846FBF764FDF0
:1054200048B1BDE8F0817868496888421CD021689D
:1054300049688842F5D12069B04220D06069B04205
:105440001DD0C4F820806661D4E90910013001291B
:10545000A06205D1A069022804BF012084F83600AB
:105460000420E062BDE8F0816068B042D9D1E06913
:1054700001281CBFC4F81C80BDE8F081D1E7B8F159
:10548000010F18BFBDE8F08101202062BDE8F08166
:1054900080B5D1F808C0D0F804E0DCF804008645F7
:1054A00018BF80BD086950B190420DD0486A0130E4
:1054B000486202208861012081F8360009E001205D
:1054C0000A618B61486280BD8869022804BF8B61D4
:1054D00080BD80BD80B548684FF0010E984281F8CC
:1054E00035E000D080BD0B69DDF808C081F834E0FC
:1054F0002BB193420FD0486A0130486217E0012077
:10550000BCF1010F0A61C1F818C04862EAD1086B0A
:1055100001280CD0E6E78A69022A04BFC1F818C046
:105520006246086B012818BF80BD012ADAD101202C
:1055300081F8360080BDF0B58FB0074640684B68F3
:1055400098422ED04AF6B8431446C0F600034AF6F5
:10555000C442C0F60002084619460023002500F0A8
:10556000EAFEF8B101A90646A1C14FF0FF3001AD36
:10557000049005F110002721FAF7BDFF01200D90DE
:1055800030682268C769304629460123B847079822
:105590000138B0FA80F04FEA501504BF059820603A
:1055A00000E0012528460FB0F0BD2DE9F04383B09F
:1055B000DDE90A940E46896898461546074674B197
:1055C0008F4204D078684968FBF78EFC58B93146A1
:1055D0002A46434603B0BDE8F043FFF77BBF786837
:1055E00049688842F3D0B8682A46016843464F6943
:1055F0003146CDF800900194B84703B0BDE8F08380
:105600002DE9F04383B0DDF828900C468968984670
:105610001546B9F1000F074630D08F4240D07E6862
:1056200049683046FBF760FCD0B32068874204D05D
:1056300041683046FBF758FC40BB2069A84238D08F
:105640006069A84235D0E06AC4F82080042838D0C8
:105650000020A086B8682A4601682B464F690121C0
:1056600000912146CDF80490B84794F8350030B346
:1056700094F834000321E16280BB22E07868496835
:1056800088420DD0216849688842D6D0B8682A4639
:10569000016843468F692146CDF80090B8471DE068
:1056A0006068A8421AD1E069012818BFC4F81C80BC
:1056B00014E0B8F1010F04BF012020620EE00420C5
:1056C000E0626561D4E9091001300129A06205D1C9
:1056D000A069022804BF012084F8360003B0BDE8A9
:1056E000F08380B5D1F808C0D0F804E0DCF804C03D
:1056F000E64507D08068D0F800C0DCF81CC0BDE8E3
:1057000080406047086950B190420DD0486A01302E
:10571000486202208861012081F8360009E00120FA
:105720000A618B61486280BD8869022804BF8B6171
:1057300080BD80BD4068704700A070477374643AB4
:105740003A6261645F657863657074696F6E0000CA
:10575000B0B5082000F0B4FB04464AF6DF71C0F68D
:10576000000100F051F84AF61C70C0F60000083045
:105770004AF6E84145F665022060C0F60001C0F631
:105780000002204600F0A7FD0546204600F051FD2E
:105790002846FDF741FCB0B5082000F091FB044617
:1057A0004AF6D271C0F6000100F02EF84AF61C70DD
:1057B000C0F6000008304AF6E84145F66502206070
:1057C000C0F60001C0F60002204600F084FD054648
:1057D000204600F02EFD2846FDF71EFC4CF6CC407E
:1057E000C0F6CC407047000049F24920C0F62410B2
:1057F0007047000000A070477374643A3A626164B5
:105800005F616C6C6F630000F0B581B004464AF6CE
:105810000870C0F600000830206008460D46FAF710
:10582000D4FD06460D3000F01BFB002100F10C07F3
:10583000C0E900668160721C38462946FAF7E4FD2B
:105840002046676001B0F0BD05462046AFF30080FA
:105850002846FDF7E1FB80B500F004F8BDE8804084
:1058600000F0FBBA10B5044640684AF60871C0F66D
:10587000000150F8042C08312160511E002A40F824
:10588000041C02DC0C3800F0E8FA2046BDE81040A9
:1058900000F051BA80B5FFF7E5FFBDE8804000F0A9
:1058A000DCBA00F0DABA000080B5FAF78EFD80BDF0
:1058B00070B584B004460068154620F0010090429F
:1058C0008C460AD9A668656025B1304661462A46ED
:1058D000FAF79AFD002070550BE0411E281A636804
:1058E000421C00208DE829002046CDF80CC000F0B5
:1058F00026F8204604B070BDB0B584B015468C467D
:105900000A2A04460BD86800207025B1601C614645
:105910002A46FAF779FD6019002141700CE02078E1
:10592000A5F10A02430800208DE8290020460A213B
:10593000CDF80CC000F003F8204604B0B0BD2DE94E
:10594000F04F81B00D466FF01101491B91420446A2
:1059500053D32078DDF828B0C0070CBF601CA068C6
:1059600000904FF6E670C7F6FF701F4685420DD8CF
:105970005019B0EB450F38BF680000F1100121F05D
:105980000F080B2838BF4FF00B0801E06FF010082C
:10599000DDF830A0404600F063FABBF1000F064688
:1059A00004D0009930465A46FAF72EFDDDF82C90C7
:1059B000BAF1000F05D00D9906EB0B005246FAF72D
:1059C00023FDA7EB0907B7EB0B0207D0009906EB05
:1059D0000B00594450444944FAF716FD0A2D02D0F1
:1059E000009800F03AFA48F0010007EB0A0143C4BE
:1059F0000020705401B0BDE8F08F2046FFF7CBFEC9
:105A0000F0B581B015460C460A2A064603D8680050
:105A100006F8010B0EE015F1100F13D205F110007E
:105A200020F00F07384600F01BFA791CC6E9001574
:105A3000B06006466A1C3046214601B0BDE8F04021
:105A4000FAF7E2BC3046FFF7A6FEF0B581B012F1DE
:105A5000100F05461DD214460E460B2A04D26000D4
:105A600005F8010B64B910E004F1100020F00F07F5
:105A7000384600F0F5F9791CC5E90014A860054620
:105A8000284631462246FAF7BFFC0020285501B0CF
:105A9000F0BD2846FFF77FFE10B50A780446D2070E
:105AA00006D1D1E900028968C4E90002A16004E0DE
:105AB000D1E901212046FFF7A3FF204610BD10B514
:105AC00004460078C00702D0A06800F0C6F920465E
:105AD00010BD80B5884208BF80BD02780B78D20720
