:020000040800F2
:1000000058040020DD0100089F0D0008C90C0008FD
:100010009D0D0008E9020008C50E00080000000060
:10002000000000000000000000000000A30D000818
:10003000EB02000800000000A10D0008A50D00085B
:10004000F7010008F7010008F7010008F7010008B0
:10005000F7010008F7010008F7010008F7010008A0
:10006000F7010008F7010008F7010008F701000890
:10007000F7010008F7010008F7010008F701000880
:10008000F7010008F7010008F7010008F701000870
:10009000F7010008F7010008F7010008F701000860
:1000A000F7010008F7010008F7010008F701000850
:1000B000F7010008F7010008F7010008F701000840
:1000C000F7010008F7010008F7010008F701000830
:1000D000F7010008F7010008F7010008F701000820
:1000E000F7010008F7010008F7010008F701000810
:1000F000F7010008F7010008F7010008F701000800
:10010000F7010008F7010008F7010008F7010008EF
:10011000F7010008F7010008F7010008F7010008DF
:10012000F7010008F7010008F7010008F7010008CF
:10013000F70100080000000000000000F7010008BF
:10014000F7010008F7010008F7010008F7010008AF
:10015000F7010008F7010008F7010008F70100089F
:10016000F7010008F7010008F7010008F70100088F
:10017000F7010008F7010008F7010008000000007F
:1001800000000000F701000800000000000000006F
:10019000F70100080000000000000000F70100085F
:1001A000000000000000000000000000F70100084F
:1001B000F7010008F7010008F7010008F70100083F
:1001C000F7010008DFF810D000F07CF80048004785
:1001D000B50F0008AFF300805804002006488047A0
:1001E00006480047FEE7FEE7FEE7FEE7FEE7FEE71C
:1001F000FEE7FEE7FEE7FEE7A90D0008C5010008DF
:100200002DE9F05F0546002092469B46884606464B
:10021000814640241BE0284641464746224600F0DE
:1002200041F853465A46C01A914110D31146184618
:10023000224600F028F82D1A67EB01084F462246A7
:100240000120002100F01FF817EB00094E41201E8D
:10025000A4F10104DFDC484631462A464346BDE8A6
:10026000F09FD2B201E000F8012B491EFBD270478B
:100270000022F6E710B513460A4604461946FFF772
:10028000F0FF204610BD202A04DB203A00FA02F1DC
:10029000002070479140C2F1200320FA03F3194374
:1002A00090407047202A04DB203A21FA02F0002116
:1002B000704721FA02F3D040C2F120029140084376
:1002C00019467047064C074D06E0E06840F0010310
:1002D00094E8070098471034AC42F6D3FFF776FF56
:1002E0001010000830100008FEE7704772B6FEE7F5
:1002F00070B5044600F00AF90546601C02D00448B7
:100300000078044400F002F9401BA042FAD370BD0B
:10031000000000202DE9F84FDFF8ACA100220124F5
:100320000AF1040B03254FF00F090BF1040E00BF77
:100330000B6804FA02F63340B34272D10F7907F02A
:100340000307012F01D0022F16D187684FEA420818
:1003500005FA08FC27EA0C07D1F80CC00CFA08FCD7
:100360004CEA070CC0F808C04768B7430E79C6F3DB
:10037000001696403E4346600E79F643B6070AD013
:10038000C6684FEA420C05FA0CF7BE438F6807FABD
:100390000CF73743C7600E7906F00306022E10D122
:1003A000D60800EB8608D8F8206057074FEAD76CCC
:1003B00009FA0CF7BE430F6907FA0CF73743C8F880
:1003C000207006684FEA420C05FA0CF7BE430F791D
:1003D00007F0030707FA0CF7374307604E68F6008B
:1003E0006BD53A4E376847F480473760366822F05D
:1003F000030706F480460096354E07EB060CDCF842
:10040000086897074FEA177809FA08F7BE43314F93
:10041000B84201D100271FE02F4FB84202D1012777
:100420001AE04AE02D4FB84201D1022714E02C4FC8
:10043000B84201D103270FE02A4FB84201D1042767
:100440000AE0294FB84201D1052705E0274FB842FD
:1004500001D1062700E0072707FA08F73743CCF851
:100460000878DAF800605746D1F804C09E435FEA86
:10047000CC3C00D51E433E60DBF800605F46D1F8FF
:1004800004C09E435FEA8C3C00D51E433E60DEF80C
:1004900000607746D1F804C09E435FEACC2C00D5BB
:1004A0001E433E60084F0C373E68D1F804C09E439F
:1004B0005FEA8C2C00D51E433E60521C102AFFF4CC
:1004C00037AFBDE8F88F0000003C014044380240DF
:1004D00000300140000002400004024000080240D9
:1004E000000C0240001002400014024000180240BC
:1004F000426921EA02030A4043EA024181617047EE
:100500000AB1816170470904FBE700000148806877
:100510007047000000000020024881680278114402
:1005200081607047000000200B4810B5016841F45D
:1005300000710160016841F480610160016841F46B
:1005400080710160032000F063F8002000F006F8DD
:1005500000F024F8002010BD003C024070B50D4DA5
:1005600004464FF47A712878B1FBF0F00A49096823
:10057000B1FBF0F000F02EFB48B9102C07D200229E
:100580002146501E00F024F800206C6070BD012050
:1005900070BD0000000000200C0000200B4882B05D
:1005A000016841F480410160006800F480400090DF
:1005B0000648001F016841F080510160006800F0AA
:1005C00080500090072002B000F022B8443802406A
:1005D000F0B40E4B1B680C46C3F30223C3F10705AE
:1005E000042D00D90425191D072901D2002300E09C
:1005F000DB1E012606FA05F1491E214099409E4066
:10060000761E16403143F0BC00F0B5BC0CED00E0A6
:10061000064900F0070208684FF6FF03184040EA59
:100620000220034A10430860704700000CED00E010
:100630000000FA052DE9F0470E46050065D0DFF809
:100640001481D8F80000F7B200F00F00B04207D2D2
:1006500088F80070D8F8000000F00F00B04254D1C4
:1006600028683D4C810712D5400703D5206840F427
:10067000E05020602878000703D5206840F46040EF
:1006800020602068A96820F0F000084320602878E6
:10069000C0072DD0304968680839012812D00228D7
:1006A00013D0032811D00968890700292DDA2168A1
:1006B00021F0030101432160FFF728FF814641F249
:1006C000883A0EE009688903EFE709688901ECE7D9
:1006D000FFF71CFFA0EB0901514502D90320BDE83B
:1006E000F0872068696800F00C00B0EB810FEFD153
:1006F000D8F80010404601F00F01B14207D9077049
:10070000006800F00F00B04201D00120E7E7287830
:10071000400705D52068E96820F4E05008432060D0
:100720002878000706D52068296920F4604040EA4F
:10073000C100206000F038F82168084AC1F30311B5
:10074000515CC8400649086006480068FFF706FF8C
:100750000020C4E7003C024008380240F80F0008BF
:100760000C000020040000200448054900680968C6
:10077000044AC1F38221515CC84070470C0000203C
:100780000838024008100008044805490068096854
:10079000044AC1F34231515CC84070470C0000204C
:1007A0000838024008100008224810B5006810F010
:1007B0000C02214815D04110042A11D01D4C241FD1
:1007C000082A0FD00C2A0CD12268236802F03F02BD
:1007D0005B0221D52068C0F38810A0FB010120E056
:1007E000084610BD2268236802F03F025B0205D56F
:1007F0002068C0F38810A0FB010104E02168C1F368
:100800008811A1FB00010023FFF7FAFC2168C1F366
:100810000141491C49000AE02168C1F38811A1FB8C
:1008200000010023FFF7ECFC2168C1F30271B0FB6B
:10083000F1F010BD083802400024F4002DE9F84F13
:1008400004007DD0DFF878B32078ABF10407C0074F
:10085000A7F1040550D0DBF800105846C1F3810120
:1008600001290FD00168C1F38101022902D1396841
:10087000490207D40068C0F38100032809D1386811
:10088000400206D52868800336D560680028D8D095
:1008900032E06068B0F5803F10D0B0F5A02F286836
:1008A00010D020F480302860286820F48020286050
:1008B0006068A0B1FFF72AFE06460CE0286840F405
:1008C0008030F4E740F480202860F7E7FFF71EFE51
:1008D000801B642876D828688003F7D50CE0FFF7E2
:1008E00015FE064605E000BFFFF710FE801B6428DA
:1008F000F0D828688003F7D42078DFF8C892800702
:100900004FF0000A44D5DBF80010584611F00C0FE8
:100910000FD00168C1F38101022902D1396849026F
:1009200007D50068C0F3810003280AD13868400267
:1009300007D42868800715D5E068012800D111E0A8
:100940003AE1E068B0B10120C9F80000FFF7DEFD30
:10095000064604E0FFF7DAFD801B0228BAD82868B3
:100960008007F7D52868216920F0F80040EAC10027
:1009700028600DE0C9F800A0FFF7C8FD064604E0B6
:10098000FFF7C4FD801B02281CD828688007F7D415
:100990002078000727D5DFF828828B48616908F1A5
:1009A0006C0881B101210160FFF7B0FD064604E04B
:1009B000FFF7ACFD801B022804D8D8F800008007A0
:1009C000F6D510E089E0C0F800A0FFF79FFD0646CD
:1009D00005E000BFFFF79AFD801B02287DD8D8F8FC
:1009E00000008007F6D42078400769D574484FF09E
:1009F000000838300068C0000BD4714838300168F6
:100A000041F08051016000684FF0010800F0805013
:100A100000906E4E3068C00511D4306840F480708C
:100A20003060FFF773FD009006E000BFFFF76EFD3A
:100A30000099401A022850D83068C005F6D5604E9B
:100A4000A068683601280FD00528306810D020F043
:100A500001003060306820F004003060A068B8B158
:100A6000FFF754FD00900FE0306840F00100F4E71C
:100A700040F004003060F7E7FFF748FD0099411AA5
:100A800041F28830814264D830688007F4D50EE0A6
:100A9000FFF73CFD009007E0FFF738FD0099411A91
:100AA00041F28830814254D830688007F4D4B8F1DC
:100AB000000F05D042483830016821F080510160B4
:100AC000A069A8B3DBF80010C1F38101022947D067
:100AD0000228C9F860A005D000E03AE0FFF716FD53
:100AE000044639E0FFF712FD064604E0FFF70EFD6D
:100AF000801B02282DD828688001F7D4F4E907016B
:100B00000843E168324A490802EB0141A26841EA20
:100B100082110843217C40EA0160217D40EA017096
:100B200038600120C9F86000FFF7F0FC044606E0D9
:100B300044E000BFFFF7EAFC001B022809D8286840
:100B40008001F7D53AE000BFFFF7E0FC001B022868
:100B500002D90320BDE8F88F28688001F4D42DE085
:100B60000128F7D03868E26900F48001914223D16E
:100B7000226A00F03F0191421ED147F6C071626ABD
:100B80000140B1EB821F17D1A26A4FF0FF3300F48E
:100B9000403103EB5202B1EB024F0DD194F82C20FF
:100BA00000F07061B1EB026F06D194F8301000F0E4
:100BB000E040B0EB017F01D00120CBE70020C9E786
:100BC0000838024000004742800E47420070004053
:100BD0000000FFFF10B5401EB0F1807F01D301205F
:100BE00010BD4FF0E02460610F21601700F0C3F9E1
:100BF0000020A06107202061002010BD70B5040016
:100C000004D094F83D00002510B106E0012070BD2D
:100C100084F83C50204600F023F8242084F83D005E
:100C20002068C16821F40051C160204600F0C4F87A
:100C30002068016921F4904101612068416921F037
:100C40002A0141612068C16841F40051C1602564F6
:100C5000202084F83D0084F83E00002070BD000094
:100C600010B586B0044614216846FFF701FB13490E
:100C70002068884220D112480021026842F40032E4
:100C80000260006800F4003005900D4810380268DA
:100C900042F001020260006800F0010005900C20A3
:100CA00000900220CDE90101032003900720049069
:100CB00069460448FFF72EFB06B010BD0044004013
:100CC0004038024000000240FEE7000030B587B027
:100CD00014216846FFF7CCFA1E480024016841F051
:100CE00004010160016801F004010591016841F00F
:100CF00080010160016801F080010591016841F007
:100D000001010160016801F001010591016841F0F4
:100D1000020101600068104D00F002000590002201
:100D200020212846FFF7ECFB4FF4005000900B48C1
:100D3000CDE9010469460A48FFF7ECFA202000904B
:100D40000120CDE90104694628460394FFF7E2FA41
:100D500007B030BD303802400000024000002110D2
:100D6000000802400C4810B50A4901604FF4E13117
:100D70004160002181600C22C160C0E904128161E0
:100D8000C161FFF73BFF002803D0BDE81040FFF72B
:100D9000ADBA10BD0044004010000020FEE7FEE7A1
:100DA00070477047FFF7B8BB0248016841F4700113
:100DB0000160704788ED00E070B504460068016985
:100DC000E26821F44051114301612169A068E269A0
:100DD00008436169114308432168CA6849F20C63FA
:100DE0009A430243CA6020684169A26921F44071B4
:100DF0001143416131492068884202D0304988421C
:100E000002D1FFF7C1FC01E0FFF7AEFCE26900236D
:100E1000192164253226B2F5004F626828D0A0FB64
:100E20000101930F9200FFF7EBF90146B0FBF5F0DB
:100E30006FF01802504301EB800006EB0010B0FB8E
:100E4000F5F000F0F002B1FBF5F002EB0012B1FB9F
:100E5000F5F06FF01803584301EB800006EB00102B
:100E6000B0FBF5F000F00F0021681044886070BD01
:100E7000A0FB010192185B41FFF7C2F90146B0FBEC
:100E8000F5F00201B1FBF5F06FF01803584301EBE8
:100E9000800006EBC000B0FBF5F000F0F80002EBBC
:100EA0004002B1FBF5F0584301EB800006EBC000B7
:100EB000B0FBF5F000F00700D6E70000001001409D
:100EC00000140140FEE7000030B593B034216846BD
:100ED000FFF7CEF914210DA8FFF7CAF91E48002527
:100EE000016841F080510160006800F0805012906C
:100EF0001A48016821F4404141F4804101600068D2
:100F0000022400F44040129001200390102000942D
:100F100006940490CDE907504FF4A870099004207E
:100F2000CDE90A0468460C94FFF788FC08B172B654
:100F3000FEE70DA90F2081E831004FF48050CDE984
:100F4000100502210DA8FFF775FB002801D072B62D
:100F5000FEE713B030BD0000403802400070004092
:100F600010B5044681880068FFF7C2FAA068BDE8A2
:100F70001040FFF7BDB90907090E002804DB00F196
:100F8000E02080F80014704700F00F0000F1E0202E
:100F900080F8141D704702E008C8121F08C1002A1B
:100FA000FAD170477047002001E001C1121F002AEA
:100FB000FBD170470EB5FFF7B7FAFFF785FFFFF7D4
:100FC00085FEFFF7CFFE0B4920204FF47A74009185
:100FD000ADF80400029400256846FFF7C1FF6D1CC0
:100FE000062DF9D3029464080A2CF4D86846FFF75A
:100FF000B7FFFBE700000240000000000000000017
:1010000001020304060708090000000001020304AE
:10101000301000080000002010000000960F0008AB
:10102000401000081000002048040000A60F00082F
:101030000100000010000000000000000024F40087
:04000005080001C529
:00000001FF
