:020000040800F2
:10000000D00900202903000807620008E15A00080F
:10001000056200082D430008356900080000000053
:100020000000000000000000000000008D630008D8
:100030002F43000800000000356200088F630008AD
:100040004303000843030008430300084303000878
:100050004303000843030008430300084303000868
:100060004303000843030008430300084303000858
:100070004303000843030008430300084303000848
:100080004303000843030008430300084303000838
:100090004303000843030008430300084303000828
:1000A0004303000843030008430300084303000818
:1000B0004303000843030008430300084303000808
:1000C00043030008430300084303000843030008F8
:1000D00043030008430300084303000843030008E8
:1000E00043030008430300084303000843030008D8
:1000F000B1630008430300084303000843030008FA
:1001000043030008430300084303000843030008B7
:1001100043030008430300084303000843030008A7
:100120004303000843030008430300084303000897
:100130004303000800000000000000004303000823
:100140004303000843030008430300084303000877
:100150004303000843030008430300084303000867
:100160004303000843030008430300084303000857
:100170004303000843030008430300080000000095
:100180000000000043030008000000000000000021
:1001900043030008000000000000000043030008C3
:1001A0000000000000000000000000004303000801
:1001B0004303000843030008430300084303000807
:1001C0004303000800F002F800F09FF80AA090E84E
:1001D000000C82448344AAF10107DA4501D100F002
:1001E00094F8AFF2090EBAE80F0013F0010F18BF30
:1001F000FB1A43F0010318478C9D0000AC9D0000E2
:10020000103A24BF78C878C1FAD8520724BF30C842
:1002100030C144BF04680C60704700000023002414
:1002200000250026103A28BF78C1FBD8520728BF06
:1002300030C148BF0B6070476E2900F04F847029B1
:1002400000F0AB85662908F06E84652908F06B84A0
:10025000672908F06884612908F0678403681B0A2D
:1002600028BF41F08001692900F0FC83642900F077
:10027000F983752900F0F6836F2900F03885782915
:1002800000F07785E92900F0D384E42900F0D084D8
:10029000F52900F0CD84EF2900F03585F82900F02C
:1002A00076850368DB0928BF41F08001632901F0EE
:1002B000B987732901F0BE87E32901F0C987F329C3
:1002C00001F0CE87002070471FB508F01FFC9DE8A5
:1002D000030000F02FFB01F041FB0400002000218F
:1002E00007F024FE401C60600020002107F034FE6F
:1002F000E06001F07FF903F0C9FB1FBD10B50020DD
:1003000002F0EBFD01F0DFF910BD01F001FB114639
:10031000FFF7DAFF07F0DAFD02F0D6FD03B4FFF7CE
:10032000EDFF03BC00F0D4FA0948804709480047B4
:10033000FEE7FEE7FEE7FEE7FEE7FEE7FEE7FEE795
:10034000FEE7FEE704480549054A064B70470000F2
:1003500095630008C5010008D0030020D0090020E3
:10036000D0050020D005002053EA020C00F069807F
:100370002DE9F04B4FF00006002B1FBFB3FA83F5B9
:1003800003FA05F424FA05F65E4012BF1643B2FAEA
:1003900082F502FA05F4C5F120051EBF22FA05FC1C
:1003A00044EA0C04203556EA044C4FEA144418BFC2
:1003B000641C4FF000084FF00009904271EB030CF1
:1003C00039D3002919BFB1FA81F701FA07F6B0FA5B
:1003D00080F700FA07F6C7F120071EBF20FA07FCD6
:1003E00046EA0C062037B6FBF4FCA7EB0507103FE6
:1003F00007F01F0BCBF120060CFA0BFB2CFA06F6CC
:1004000044BFB3460026202FA4BF5E464FF0000B2A
:100410005BEA060C08BF4FF0010B19EB0B09ABFBB5
:10042000027C48EB0608C01B06FB02CC0BFB03CC8E
:1004300071EB0C01C1E70B46024641464846BDE858
:10044000F08B13B54FF000004FF00001AFF30080C8
:10045000BDE81C407047032A40F2308010F0030CC6
:1004600000F0158011F8013BBCF1020F624498BF07
:1004700011F801CB00F8013B38BF11F8013BA2F1A4
:10048000040298BF00F801CB38BF00F8013B11F01F
:10049000030300F0A581083AC0F0088051F8043B3E
:1004A000083A51F804CBA0E80810F5E7121D5CBF2C
:1004B00051F8043B40F8043BAFF30080D20724BF5F
:1004C00011F8013B11F801CB48BF11F8012B24BFF3
:1004D00000F8013B00F801CB48BF00F8012B704742
:1004E000431A28BF9A427FF6B6AF032A104411443C
:1004F00040F2268010F0030F1EBF11F8013D521E7E
:1005000000F8013D10F0030F7FF4F6AF11F0030384
:1005100000F0AB81083AC0F00B8051F8043D083A76
:1005200051F804CD40F8043D40F804CDFFF7F3BF87
:10053000121D5CBF51F8043D40F8043DAFF300804C
:10054000D20724BF11F8013D11F801CD48BF11F8C1
:10055000012C24BF00F8013D00F801CD48BF00F890
:10056000012C70474FF0000200B5134694469646A2
:10057000203922BFA0E80C50A0E80C50B1F12001B6
:10058000BFF4F7AF090728BFA0E80C5048BF0CC064
:100590005DF804EB890028BF40F8042B08BF7047C2
:1005A00048BF20F8022B11F0804F18BF00F8012B34
:1005B00070477047704770470048704768030020D5
:1005C00070B5064600F096F9056806F10B0020F0BC
:1005D0000704B4429CBF002070BD2B466A68BAB1C4
:1005E0001068A04210D304F1080188423CBF506853
:1005F000586007D35168101941601168091B0160E8
:1006000058601460101D70BD13465268002AE7D16F
:100610002146284600F07AF90028DED170BD70B579
:100620000446051F00F066F90068002C14BF4468FA
:1006300070BD002C18BFAC423CBF20466468F8D3A4
:1006400001680A18AA4218BF456003D12A68054606
:100650001144016028684119A1421CBF6C6070BD43
:100660006168696021680844286070BD10B500F0B9
:1006700045F9006810BD10B5044600F03FF904606C
:1006800010BD0FB4014610B504AA039800F060FA3B
:1006900010BC5DF814FB00007CB51D4616460C002E
:1006A000009001D02044401E074B7B442A466946F7
:1006B0000190304600F02BFA05461CB10020694637
:1006C00000F038FA28467CBD910400000FB400B554
:1006D0008DB010A9099000910B904FF0FF300A9057
:1006E00000200C90064878440690064878446A46F4
:1006F00007900F9909A800F0E7FD0DB05DF814FB15
:10070000FF0B0000170C000010B5002001F032F8BC
:10071000FFF7F4FDBDE81040012000F0D9B810B596
:1007200001F030F8BDE8104001F01FB840EA0103C5
:10073000024630B59B0710D14FF0013400E008C2EB
:1007400008C91D1B9D4315EAC41FF8D013F0FF0113
:1007500002F8011B0DD01B0AF8E711F8013B002B32
:1007600002F8013B05D011F8013B002B02F8013BD8
:10077000F3D130BD0022CBB210F8011B994200D159
:10078000421E0029F8D11046704710B5431C02E004
:1007900010F8011B71B18107FAD14FF0013202C884
:1007A0008C1A8C4314EAC211F9D0C01A0A0603D07D
:1007B000C01E10BDC01A10BD0A0401D0801E10BD9D
:1007C0000902FCD0401E10BD421E12F8013F002B52
:1007D000FBD111F8013B002B02F8013BF9D1704726
:1007E00010B5203AC0F00B80B1E81850203AA0E8CC
:1007F0001850B1E81850A0E81850BFF4F5AF5FEA00
:10080000027C24BFB1E81850A0E8185044BF18C9B2
:1008100018C0BDE810405FEA827C24BF51F8043B59
:1008200040F8043B08BF7047D20728BF31F8023BAD
:1008300048BF11F8012B28BF20F8023B48BF00F841
:10084000012B7047431A28BF9A427FF6C9AF104464
:1008500010F0030F11441EBF11F8013D521E00F8A5
:10086000013D10F0030F7FF4F6AF103AC0F00A809C
:1008700010B531E91850103A20E91850BFF4F9AF1B
:10088000BDE81040530724BF31E9081020E90810E3
:1008900044BF51F8043D40F8043D12F0030F08BF77
:1008A0007047D20728BF31F8023D48BF11F8012C2C
:1008B00028BF20F8023D48BF00F8012C704700F027
:1008C000BDBF10B507F03BF9BDE8104007F0A6B872
:1008D00001491820ABBEFEE7260002000048704721
:1008E0003403002010B501F039F8001D10BD00BF21
:1008F0003D760000004870473C03002000487047E8
:1009000034030020704770477047704738B504467D
:100910000A4600206946AFF30080002808BF38BDB2
:1009200002460099204601F025F8012038BD01203B
:1009300002F02DBBF8B5AFF30080054600200C4651
:10094000102000BF0646A819A0420DD932466946BC
:100950000020AFF30080070008BF02F018FB0098EA
:10096000A04218BF0546C419FFF7C4FF056007463B
:10097000F01D20F007004619284600F00AF8B4429E
:1009800008BFF8BDA21B31463868BDE8F84000F04A
:10099000F1BF00210160C0E90110704710207047CD
:1009A00070B5044685690068C10601D5302600E0AF
:1009B0002026C00707D070BDD4E9012130469047FA
:1009C000206A401C20626D1EF6D570BD70B50446CD
:1009D00085690078C00707D170BDD4E901212020C6
:1009E0009047206A401C20626D1EF6D570BD0968D4
:1009F0004A0501D540B27047C905FCD500B2704721
:100A000009684A0501D5C0B27047C905FCD580B256
:100A1000704770B50C460546012A05D02878800637
:100A200000D5EA69002302E0012305E05B1C934244
:100A300002D2E05C0028F9D1A869E618C01AA861C2
:100A4000286A184428622846FFF7AAFF04E0D5E97F
:100A5000012114F8010B9047B442F8D32846FFF760
:100A6000B5FF70BD2DE9F0410646002410687529D8
:100A7000314616A510D0FFF7BAFF002802DA40422F
:100A800013A507E031688A0701D512A502E04907DE
:100A900004D511A5012401E0FFF7B2FF00210A22CD
:100AA00006F1240709E0B0FBF2FCB0FBF2F302FB15
:100AB0001C00303078541846491C0028F3D12346D6
:100AC0002A463046BDE8F04100F0BCBF00000000FF
:100AD0002D0000002B0000002000000011680268BB
:100AE000006A530501D508700AE0D30501D50880D6
:100AF00006E0130603D5C217C1E9000200E0086052
:100B00000120704701694A1C02610878704700B5EE
:100B10008FB0CDE901310021059105497944CDE936
:100B200003101146684600F043F90FB000BD000005
:100B3000E5FFFFFF0A6802F8010B0A607047D1E980
:100B400000239A4202D2531C0B60107070470000C1
:100B5000074B70B50D467B44FFF7D9FF0446284686
:100B600001F0D5FF10B14FF0FF3070BD204670BDD1
:100B7000CD7200002DE9FF5F15468A460446DFF876
:100B8000AC80F8440027D8E900103E46CDE90010BB
:100B900010E03AF816106A4602A802F075F9411CF6
:100BA00007D02178890603D5E269391891420DD81A
:100BB0000744761C2078800602D5E069B84205DD3E
:100BC000AE42E6DB3AF816000028E2D1A069C01B6D
:100BD000A0612046FFF7E4FED8E90010CDE900103F
:100BE000002017E03AF818106A4602A802F04CF903
:100BF000B0F1FF3F81460BD000250DF1080B05E059
:100C0000D4E901211BF8050090476D1C4D45F7D331
:100C100008F10100B0428046E4DB206A38442062DB
:100C20002046FFF7D3FEBDE8FF9F0000FA8E0000CC
:100C30002DE9F0418046D21D22F007020025D2E9BD
:100C40000002F52915A614D0011E72F1000106DA82
:100C50000023D0EB030063EB020211A608E0D8F8F2
:100C600000108B0701D50FA602E0490701D50EA69B
:100C700001251146002408F1240704E000F094FE49
:100C800030323A55641C50EA0102F7D12B46324605
:100C900021464046BDE8F04100F0D4BE000000000F
:100CA0002D0000002B0000002000000030B40021C7
:100CB00000F1240408E002F00705D208303542EACA
:100CC0004372DB086554491C52EA0305F3D10468FA
:100CD000002310A2250707D5A40600D421B1C469BA
:100CE00001230DA2641EC46130BC00F0ABBE10B580
:100CF000044621461068FFF783FE02462046BDE801
:100D000010400023D2E7D21D22F00701D1E90023D1
:100D1000CCE700000000000030000000F0B40D46F9
:100D20000188090502D5214C7C4402E01F4C7C441B
:100D30000E34002100F1240608E002F00F0712092A
:100D4000E75D42EA03721B097754491C52EA030724
:100D5000F3D102780023120704D5702D06D009B113
:100D6000022311342246F0BC00F06CBE0123103483
:100D7000F8E770B504460D4621461068FFF740FEBF
:100D8000024629462046BDE870400023C6E7D21D32
:100D900022F00703D3E90023C0E70368126843F099
:100DA000200303600823C3610023B7E75C8D0000C4
:100DB0002DE9F05F894604464FF0000ADFF874B170
:100DC000FB44C0F820A02046E1688847002874D082
:100DD000252806D0D4E901219047206A401C2062D2
:100DE000F1E700265F462046E1688847202805464F
:100DF00007DB312D05D2781910F8200C08B1064315
:100E0000F1E7B00701D526F00406C4F81CA00027BE
:100E1000C4F818A02A2D09D0284606F0FDFF38B3E3
:100E200004EB8708303DC8F8185019E059F8041B46
:100E3000204604EB87029161E1688847012F05464F
:100E400018D1E069002820DA26F020061DE0D8F845
:100E5000180000EB800005EB40003038C8F818009F
:100E60002046E1688847054606F0D6FF0028EED107
:100E7000012F0AD02E2D08D12046E16888477F1C1B
:100E80000546022F46F02006C4DBA069002803DADD
:100E9000404246F00106A061F00701D026F010069E
:100EA0006C2D0BD0682D09D04C2D39D06A2D35D042
:100EB000742D35D07A2D33D016E038E0E1682F4616
:100EC00020468847B842054609D16C2F26D04FF4FA
:100ED0008060E168064320468847054604E06C2FA1
:100EE0001AD04FF4807006430DB3A5F141001928C4
:100EF00002D8203546F400664A4629462046266038
:100F00004E46FFF799F980B101280BD0F61D26F067
:100F1000070000F1080956E74020E4E78020D8E701
:100F20000020D6E706F104094DE7284652E7206A7B
:100F3000BDE8F09FEC8C00002DE9FF4F1C46914668
:100F40004FF0FF3581B000218A468846D4E9016719
:100F5000A16902986D1C8847216A8346884700284A
:100F6000F6D1BBF1FF3F0CD0002F26F4C0661ADD8E
:100F7000700615D5BBF12B0F0AD0BBF12D0F0FD189
:100F800004E04FF0FF3005B0BDE8F08F46F4806616
:100F9000A16902986D1C88477F1E8346002F02DDE1
:100FA000BBF1300F03D0B9F1000F2AD025E0A169C1
:100FB0006D1C02987F1E46F400768847002F8346FA
:100FC00005DDBBF1780F06D0BBF1580F03D0B9F1A6
:100FD000000F10D011E0B9F1000F02D0B9F1100FDD
:100FE0000BD1A1696D1C02987F1E26F400768847FC
:100FF0008346102000E0082081464FEAE970009007
:1010000017E00A20F8E74346AAFB0928DDF800C0EC
:101010007F1E03FB098046F4007605F101050AFBFB
:101020000C0112EB0B0A029841EBEB78A16988479F
:101030008346002F06DD4946584601F015F95FEA60
:10104000000BE0D5E16902988847B00502D46FF043
:10105000010098E7F00718D1700610D551467005C9
:1010600005D50023D1EB030163EB080200E0424603
:101070002068031D23600068C0E9001205E02068B5
:10108000011D21600068C0E900A828467BE72DE922
:10109000FF5F1D464FF0FF3B91464FF000085F4653
:1010A000D5E90146A96901987F1C8847296A8246CB
:1010B00088470028F6D1BAF1FF3F0CD0002E24F467
:1010C000C06419DD600614D5BAF12B0F09D0BAF14E
:1010D0002D0F0ED103E0584604B0BDE8F09F44F454
:1010E0008064A96901987F1C8847761E8246002E7D
:1010F00002DDBAF1300F03D0B9F1000F26D032E093
:10110000A969761E01987F1C44F400748847002E5C
:10111000824605DDBAF1780F06D0BAF1580F03D038
:10112000B9F1000F10D01EE0B9F1000F02D0B9F1F3
:10113000100F18D1A969761E01987F1C24F4007441
:1011400088478246102002E0082000E00A208146FD
:1011500009E0A96908FB0908761E01987F1C44F480
:10116000007488478246002E05DD4946504601F04E
:101170007BF80028EDDAE96901988847A00502D4D8
:101180006FF00100A8E7E00725D1600613D56005E0
:1011900002D5C8F1000000E0404629680A1D2A6017
:1011A0000968220501D5087015E0220701D50880DD
:1011B00011E008600FE02868011D29600068210522
:1011C00002D580F8008006E0210702D5A0F8008053
:1011D00001E0C0F8008038467EE72DE9FF5F4FF060
:1011E00000089946144646469169D2E901A7DDF800
:1011F00038B001988847054659EA0B0005D009E048
:10120000A1690198761C88470546216A28468847C7
:101210000028F5D1681C03D05FEACA7005D015E03C
:101220004FF0FF3004B0BDE8F09F2068011D216041
:10123000D0F800800AE05FEACA7001D108F8015BCB
:10124000A169761C01987F1E88470546002F1ADD8C
:10125000681C18D0B9F1000F0DD0E81705EBD0606D
:10126000421120F01F0059F822102A1A0120904044
:101270000142E0D107E0BBF1000FDCD12846216A32
:1012800088470028D7D0E16901988847BBF1000F53
:1012900007D1002E05DD5FEACA7002D1002188F86F
:1012A0000010A068B84203DDBBF1000F03D017B1F6
:1012B0006FF00100B6E73046B4E700000268114461
:1012C0001378016018467047D1600549794451612F
:1012D00004497944116200211161114600F0D2BF26
:1012E000EDFFFFFF5D070000426842B1016811F8A1
:1012F000013B23B1521EC0E900121846704701217C
:10130000C160881E704742685AB1C368016843B91A
:1013100083688B4205D0491E521CC0E90012002090
:1013200070474FF0FF3070472DE9FF4F4FF0000836
:101330009A461446C146464683B0D2E901B7CDF875
:101340000080CDF80480916904988847109905467B
:101350005AEA010005D009E0A1690498761C884783
:101360000546216A284688470028F5D1681C03D025
:101370005FEACB7005D02AE04FF0FF3007B0BDE840
:10138000F08F2068011D2160D0F800801FE002A8C6
:101390006A46E9B201F05AFD411C07D0801C09D011
:1013A0004FF000095FEACB7007D00AE0E1690498CA
:1013B00088473EE04FF0010904E0BDF8081028F826
:1013C000021B7F1EA1690498761C88470546002FE2
:1013D0001ADD681C18D0BAF1000F0DD0E81705EB24
:1013E000D060421120F01F005AF822102A1A012062
:1013F00090400142CBD107E010980028C7D1284681
:10140000216A88470028C2D0E16904988847B9F169
:10141000000F0ED1109830B9002E04DD5FEACB70BA
:1014200001D1A8F80000A068B84202DD109818B1F8
:1014300017B16FF00100A1E730469FE72DE9FF4F9C
:101440004FF000089B461446454683B0D2E901960A
:10145000CDF80080CDF804809169DDF848A00498AB
:10146000884707465BEA0A0005D009E0A1690498AD
:101470006D1C88470746216A384688470028F5D101
:10148000781C03D05FEAC97005D01BE04FF0FF3035
:1014900007B0BDE8F08F2068011D2160D0F8008002
:1014A00010E05FEAC97007D16A464046B9B201F060
:1014B000EBFC411C31D08044A1696D1C0498761E60
:1014C00088470746002E14DD781C12D0BBF10000BF
:1014D00007D03B46DDE9101201F00AFB0028E0D1FD
:1014E00007E0BAF1000FDCD13846216A88470028AE
:1014F000D7D0E16904988847BAF1000F06D1002DD2
:1015000004DD5FEAC97001D188F80000A068B0422C
:1015100003DDBAF1000F03D016B16FF00100B7E799
:101520002846B5E72DE9FF5F9B46144600273D4658
:101530009169D2E90196DDF840A00198884780467C
:101540005BEA0A0005D009E0A16901986D1C884793
:101550008046216A404688470028F5D1B8F1FF3F10
:1015600003D05FEAC97005D014E04FF0FF3004B03B
:10157000BDE8F09F2068011D216007680AE05FEA6E
:10158000C97001D127F8028BA1696D1C0198761EE4
:1015900088478046002E15DDB8F1FF3F12D0BBF121
:1015A000000007D04346DDE90E1201F0A1FA002841
:1015B000E5D107E0BAF1000FE1D14046216A884742
:1015C0000028DCD0E16901988847BAF1000F05D105
:1015D000002D03DD5FEAC97000D13880A068B042F9
:1015E00003DDBAF1000F03D016B16FF00100BEE7C2
:1015F0002846BCE710B542485421FEF7B3FF4148E6
:101600005421FEF7AFFF40485421FEF7ABFF3F499E
:101610003B483C4A3F4B08603D490A603A491960E3
:10162000531C0365481C1065012008653B48344A7B
:1016300039A1784401F092FA20B9384878440A3840
:1016400001F09EFC37482F4A35A1784401F086FA14
:1016500020B9344878440A3801F092FC32482A4ACA
:101660002FA1784401F07AFA20B92F4878440A383B
:1016700001F086FC40232248DC000021224601F0D4
:101680004AFA20B125487844543801F079FC1D48C5
:1016900022464023002101F03EFA20B1214878443F
:1016A000543801F06DFC184822461023002101F047
:1016B00032FA002806D01C487844BDE8104056385D
:1016C00001F05EBC10BD104870B5006D20F0010443
:1016D0000B4801F0B9FA0B4801F0B6FA0A4801F0DC
:1016E000B3FA09E0206D20F00105204601F0ACFAC4
:1016F0002046FEF794FF2C46002CF3D170BD00006D
:10170000380200208C020020E0020020340000207B
:10171000380000203C000020720000008B84000094
:101720007700000077840000638400000A460146C9
:10173000014801F0FCBA0000940300202DE9F041BB
:10174000074615460E461020FEF73AFF04000AD061
:101750006760C4E9026500F005F901682160046072
:101760000020BDE8F0810120FBE7002801D0FFF751
:10177000AFB8704710B501F0EBFBBDE81040FFF7C4
:10178000F4BF000010B5002102A001F0C7FB01204A
:1017900010BD00005349475056464E3A20507572CE
:1017A00065207669727475616C20666E2063616C69
:1017B0006C65640001B5FEF74EFE01BD4FF0013CC3
:1017C00050F8042B51F8043B9A4221D1A2EB0C03B0
:1017D000934313EACC1317D150F8042B51F8043B70
:1017E0009A4215D1A2EB0C03934313EACC130BD10D
:1017F00050F8042B51F8043B9A4209D1A2EB0C0398
:10180000934313EACC13DBD04FF00000704700BFC6
:10181000D01A01BAB1FA81F101F0180122FA01F0EF
:10182000CB40C1F12001DBB2C0B2C01A2CFA01F3E7
:10183000D11A914311EAC311E6D1704710B500F0F7
:101840000EF8016919B100220261884701E0806841
:101850008047FEF759FF000010B5FEF755FF70B541
:1018600000F084F804680546A4B92020FEF7A8FE1D
:10187000040011D0094900202C60C4E90001084986
:10188000A1602073206160610649A06109B101F087
:1018900097FBE061204670BDFEF736FF00000000B8
:1018A00059180008000000000EB5CDE90001FEF750
:1018B0006CFF029069460120ABBE0EBD08B56946BB
:1018C00000900220ABBE08BD1FB58DE80700694639
:1018D0000520ABBE04B010BD1FB58DE80F006946F2
:1018E0000620ABBEF6E708B5694600900920ABBEFE
:1018F00008BD1CB5CDE9000169460A20ABBE1CBD80
:10190000704708B5694600900C20ABBE08BD704713
:101910007546FEF7E3FFAE4605006946534620F0E4
:101920000700854618B020B5FEF70CFDBDE8204045
:101930004FF000064FF000074FF000084FF0000B8B
:1019400021F00701AC46ACE8C009ACE8C009ACE83E
:10195000C009ACE8C0098D467047000000487047D8
:1019600054030020004870476C0300200048704773
:1019700070030020034640688C46002818BF884248
:101980003CBF03464068F8D318681844884207D023
:101990000CF1030020F00700001D411A521A014605
:1019A000081D0A60FEF73BBE30B5B0F10A024FEAEF
:1019B000900E71F100034EEA817EB0EB0E0061EBF8
:1019C00091014FEA101E4EEA017E10EB0E0041EB32
:1019D00011114FEA102E4EEA016E10EB0E0041EB92
:1019E00011214FEA104E4EEA014E10EB0E0041EB72
:1019F0001141401841F100014FEAD00040EA417026
:101A00004FEAD10110EB80054FEA810444EA90745B
:101A100044EB01046D1944EB0404521BA3414FF045
:101A2000000348BF0A3200D530BD401C41F100011F
:101A300030BD10B50446FEF755FF0068005D00F0AC
:101A4000010010BD2DE9F0470D4699469246044627
:101A500000F124080168880604D5E06921F010012E
:101A6000216000E00120A84201DD471B00E00027C3
:101A7000A1697A1902EB0900081AA0612078C00652
:101A800002D42046FEF78CFF002608E0D4E90121AD
:101A90001AF806009047206A401C761C20624E45CA
:101AA000F4DB2078C0060AD52046FEF779FF06E071
:101AB000D4E9012130209047206A401C2062381E62
:101AC000A7F10107F4DC07E0D4E9012118F80500CB
:101AD0009047206A401C2062281EA5F10105F3DC16
:101AE0002046FEF773FF2078000602D50220BDE8ED
:101AF000F0870120FBE770472DE9FF4F0C461E469B
:101B00004FF0FF378BB0D2E90001DDF860800A901A
:101B10008A46C1F30A5505B93D46002108464FF0F3
:101B20000000BAF1000F00F4400005DA00EB80007D
:101B30004FF4400101EA50004FEA9059B9F1010F0A
:101B400000DDB9460A9850EA4A000ED044F610501B
:101B5000A5F2FF3545432F14B8F1000F1ED0754292
:101B6000291E1EDDC9F100021CE0B8F1010F4FF083
:101B7000000001D0302103E0F24305E02154401C75
:101B8000B042FBDB30460022002121540B99C1F802
:101B90000880C1E900200FB0BDE8F08FBD1B6D1CAF
:101BA000DEE74A4600DA694206A801F06FFA06ABA2
:101BB00093E8070003AB83E8070050460A9901F059
:101BC00077FF8DE80700A0F500501F3800900398BC
:101BD000002D0ADD42F21F014A460844002303A9F2
:101BE0000390684602F022FA09E0A0F500504A4648
:101BF0001F38002303A90390684602F041FA8DE8DC
:101C000007000004000C03D04FF0FF30410800E053
:101C10001046B8F1000F03D00022009215461EE0D6
:101C2000751E05D4FFF7C0FE303262556D1EF9D522
:101C3000B3460122084302D000227F1C04E0207832
:101C4000302801D100227F1E002A099784D01DE090
:101C5000112D07DAFFF7A8FE303262556D1C50EAED
:101C60000102F5D1084302D00098C8B10EE000216E
:101C7000681E05E0235C625C63542254401E491CCC
:101C80008142F7DBAB46A81B401E0990002004F8F8
:101C90000B000B98099AC0F80880C0E9002B7AE77E
:101CA00011264FF0000857E72DE9F04F884604460B
:101CB000D21D22F0070191B0D1E90001CDE90A015E
:101CC00005F015FF02460B98C00F01D02D2007E04C
:101CD0002068810701D52B2002E0202101EAC00005
:101CE000032A099001D0072A05DB03464146204616
:101CF00001F08CF90BE12078800601D5E06900E065
:101D00000620B8F1650F814606D0B8F1660F18D0ED
:101D1000B8F1670F70D131E00020B9F1110F0090D8
:101D200001DB112301E009F101030AAA01A90CA8B2
:101D3000FFF7E2FEDDE90C70002609F1010583469C
:101D400047E001204B4600904FF000470AAA01A946
:101D50000CA8FFF7D1FEDDE90DB00C995D46002619
:101D600010B909F101000D18B9EB050003D4C0F159
:101D7000FF3609F10105A5EB09002BE0B9F1010FD0
:101D800001DA4FF001090020B9F1110F0090484627
:101D900001DD112300E003460AAA01A90CA8FFF700
:101DA000ABFEDDE90C704D46002683462078000727
:101DB0000AD4AB4500DA5D4601A8012D04DD4119C6
:101DC00011F8011C302907D04F4502DA17F1040F32
:101DD00004DA012082460FE06D1EEEE7002F02DCE0
:101DE000ED1B3E4403E0781CA84200DD7D1CB81BBF
:101DF00000F1010A4FF000472078000703D4AA45FC
:101E000001DB4FF0FF3A0021B7F1004F0DF143081D
:101E10008DF8431024D002202B23002F01DA7F42BB
:101E20002D230A21021EA0F1010000DC5FB197FB07
:101E3000F1FC97FBF1F201FB1C7C17460CF1300C16
:101E400008F801CDEEE7A8F101000370218809052B
:101E500001D5452100E06521A0F1010800F8011C31
:101E600009980FA9A1EB0807FF1D00B10120411936
:101E700001EBEA70A1693844081A401EA06120787D
:101E8000C00602D42046FEF78BFD099828B1D4E99C
:101E900001219047206A401C20622078C00622D58C
:101EA0002046FEF77DFD1EE0002E04DBB34502DD7B
:101EB00001A8805D00E03020D4E901219047206A2C
:101EC000401C2062761CAAF101005FEA000A0AD1D8
:101ED000FFF744FDC0680168405CD4E901219047E8
:101EE000206A401C2062281EA5F10105DCDC07E009
:101EF000D4E9012118F8010B9047206A401C2062A8
:101F0000381EA7F10107F3DC2046FEF75FFD032032
:101F100011B041E62DE9F04F04460D46D21D22F0E6
:101F2000070089B0D0E900974846394605F0DFFD43
:101F30000246F80F01D02D2307E02068810701D564
:101F40002B2302E0202101EAC0038DF820300BB1E1
:101F5000012000E00020032A824601D0072A04DB8A
:101F60002946204601F052F83FE12078800601D44E
:101F70000D2500E0E569C7F30A560D2D49DA002169
:101F80004FEA175B08464FF00000002F00F44000B6
:101F900007DA00EB80004FF4400100EBD07001EA5B
:101FA00060008115012901DD4FF0FF3100224FEA69
:101FB000850CBCF1180F06D31346ACF118004FF096
:101FC0008052C24003E04FF4801323FA0CF30CF16B
:101FD0000C0CBCF1200F04D3ACF1200C09FA0CF06E
:101FE00001E007FA0CF000294FF0004801DD18B9B4
:101FF0000FE00ED140450CD319EB02095F4121B926
:10200000404502D19F4329EA0209BBEB175F00D08C
:10201000761C2088000502D57B48784402E07A4887
:102020007844193808AA302302F80A30037C0AF1F0
:102030000101002E0AF1020A53546A4602DC4FF0F5
:10204000300101E04FF031014FF001088DF8001030
:1020500002D0A6F2FF3603E059EA470100D06B4EEA
:10206000002D02DC2178090704D54FF002082E214B
:102070008DF80110C44600210BE0C7F303433F0174
:10208000C35C491C6D1E02F80830052908F10108DF
:1020900001DA002DF1DC00210CE000EB1973491C82
:1020A0001B786D1E082902F808304FEA091908F15B
:1020B000010801DA002DF0DC21688B0602D516E05C
:1020C000A8F10108E04505DD02EB080313F8013C27
:1020D000302BF5D0B8F1000F09DD02EB080313F83F
:1020E000013C2E2B03D1090701D4A8F10108002DD2
:1020F00005DD3E2102F808106D1E08F10108407C44
:10210000002E02F8080008F1010804DA2D207642BA
:1021100002F8080002E02B2002F808000A214FF420
:102120007A70864208F101080BDB96FBF0F330333E
:1021300002F8083096FBF0F308F1010800FB136683
:1021400001E0642E0CDB642096FBF0F3303302F8E0
:10215000083096FBF0F308F1010800FB136601E07C
:102160000A2E06DB96FBF1F0303002F8080008F189
:10217000010896FBF1F001FB1060303002F8080016
:10218000A16908F1010808EB050202EB0A00081A30
:10219000A0612078C00602D42046FEF701FC216A27
:1021A00008AE01EB0A00206204E0D4E9012116F830
:1021B000010B9047BAF1010AF7D22078C00602D588
:1021C0002046FEF7EDFB6E4609E016F8010B3E28AF
:1021D0000FD0D4E901219047206A401C2062B8F159
:1021E0000108F2D22046FEF7F1FB09B00320BDE85A
:1021F000F08F206A2844206203E0D4E901213020D6
:1022000090476D1EEBD3F8E7C27A000002FCFFFF97
:1022100010B5436913B1AFF3008001E0FEF7F9FB9D
:10222000012010BD127800F124010A7000224A70CA
:102230000122EDE711684FF0FF32E9E710B543697D
:1022400013B1AFF3008001E0FEF794FC012010BD54
:10225000128800F1240182840022C2840122EDE769
:1022600011684FF0FF32E9E73A2800D2303820F009
:102270002002412A01D3A2F13700884201D34FF056
:10228000FF3070472DE9F34F4FF0000A0C465646D9
:102290008DB001200C9001F10C000B9062690B983D
:1022A00001219047051E2DD0252D2CD0216A88476D
:1022B000C0B162690B9801219047216A88470028C4
:1022C000F7D16269411E0B98904700E0761CA16926
:1022D0000D988847216A88470028F7D1E1690D9851
:1022E0008847DBE7A1690D988847A842074601D1D6
:1022F000761CD3E7E1690D9888477F1C02D1BAF1BB
:10230000000F6FD06CE162690B9800273D4639469B
:1023100090472A2804D162690B9801219047012532
:10232000DFF8D08262690B9801219047A0F130015B
:102330000A290AD24745E5DC07EB870100EB410794
:10234000303FDFD445F01005ECE7E90601D46FF02B
:1023500000476C280AD04C2814D0682815D06A2869
:102360000DD074281CD07A281AD01DE062690B9811
:10237000012190476C2802D045F0040514E045F097
:1023800002050DE045F020050AE062690B98012185
:102390009047682802D045F0080505E045F400653F
:1023A00062690B9801219047C4E9015765283DD027
:1023B00019DC58287AD00CDC452837D004DC2528D5
:1023C00026D041289ED131E046282FD0472899D1E8
:1023D0002CE05B2877D0612828D063287CD0642843
:1023E00023D15AE0F7E06F2848D008DC66281DD0DA
:1023F00067281BD0692821D06E2816D127E07028C5
:1024000045D0732868D0752847D078280DD14DE085
:10241000A1690D988847252805463FF469AFE16911
:102420000D9888476D1C3FF46AAFD9E00D9923469B
:102430006A466FF0010006F0DAFBC6E045F04000A6
:1024400023464FF000026060A80736D43EE0E8075C
:102450007FF447AF2068011D21600068290501D580
:1024600006701BE7290701D5068017E7A90703D5E2
:10247000F117C0E9006111E706600FE745F0400081
:1024800023464FF008026060A80716D41EE040F60D
:102490000E0125EA0100606016E045F04000234689
:1024A0004FF00A026060A80707D40FE045F0400033
:1024B0006060A80708D5234610220D996FF001002F
:1024C000FEF73AFD81E007E0102223460D996FF0F8
:1024D0000100FEF7DCFD78E04FF0000963284F466D
:1024E000C8464B46CB4602D05B2807D039E020795E
:1024F000C00601D40120A060012732E06269D4F84F
:102500000CB00B98012190475E2807D14FF00109CC
:1025100049466269D4F80CB00B989047216939B9E3
:1025200000210A4603AB43F82120491C0829FADBA5
:10253000D8B3216949B308F1010862690B980121F8
:1025400090475D28F4D1B9F1000F09D0002003A90C
:1025500051F82020D24341F82020401C0828F7DB06
:1025600003AB2069002820794FEA40701ED05B46FB
:102570002246CDF80080CDE901970D9900286FF033
:10258000010020DAFEF7CEFF1FE0C11703AA00EB1F
:10259000D1614B1121F01F0102EB8302411A136834
:1025A0000120884003431360C7E719E00D992246D4
:1025B00000286FF00100009702DAFEF7B5FE04E094
:1025C000FEF70BFE01E0FEF739FF00280ADA401C97
:1025D00006D10C9820B14FF0FF300FB0BDE8F08F5E
:1025E0005046FAE7E90701D10AF1010A0644002042
:1025F0000C9053E6CCCCCC0C2DE9FF4F06468BB0AB
:102600000878FF2806D0491C2D2805D000244FF05B
:10261000000908E000200CE00124F8E709EB890339
:10262000491C00EB43090878FF28F7D114B1C9F120
:1026300000008146107800252C46AA4629462D2800
:1026400001D02B2804D1521C2D2813D00020824603
:102650008B461078FF280FD04FF0000C0A21521C37
:10266000A5FB017804FB018105FB0C11C5194BEB9F
:102670000104EEE70120EAE7002108464FF00000E0
:10268000BAF1000F02D000EB80004008C0F3815780
:10269000012F01DD4FF0FF370E9955EA040009EBD9
:1026A00001080BD04FF0020918F5FA7F16DA4FEA4D
:1026B000CA70002F706008DD012007E04FEACA7081
:1026C000C6E900B00FB0BDE8F08F00203060FEF723
:1026D00015F9C0F800901821084616E0B8F5FA7F01
:1026E00018DD002F02DAF748784401E0F648784414
:1026F000D0E90010C6E9001040EACA707060FEF729
:10270000FDF8C0F80090142108460FB0BDE8F04F66
:1027100006F006BA002108464FF00000B8F10001AB
:10272000099002DAC7F1000200E03A4601DAC8F186
:10273000000106A800F0AAFC06AB93E8070003AB73
:1027400083E8070044F23E005BEA0401009058462B
:1027500004D144F21E012C465D460091210C09046F
:10276000014306D10099240444EA15442D0410398C
:10277000009104F07F41014306D10099240244EA0C
:1027800015642D020839009104F07041014306D10F
:102790000099240144EA15742D01091F009104F0E9
:1027A0004041014306D10099A40044EA9574AD006C
:1027B000891E009104F00041084304D100986D196E
:1027C0006441401E00904FF001033A466846B8F15C
:1027D000000FCDE9014503A902DD01F066FC01E02F
:1027E00001F039FCBAF1000F04460D4601D084F027
:1027F0000044002108464FF00000099940F2FF779D
:10280000484010F00C0F07D124F00040284303D0BB
:10281000C4F30A50B84212D1FEF770F8C0F8009025
:10282000C4F30A50B8420AD1A8487844D0E900104D
:10283000C6E9001004F000410843706042E7C6E9B1
:1028400000543FE72DE9FF4F1F464FF0000A4FF0BD
:10285000FF38454691B0D7E90146CDF83CA0FFF7D7
:102860007DF8C0680168405C1090B96912986D1CD1
:102870008847396A814688470028F6D1B9F1FF3F79
:102880000AD0002E24F4D06411DDB9F12B0F08D04A
:10289000B9F12D0F0BD102E0404615B013E744F417
:1028A0008064B96912986D1C8847761E8146600560
:1028B00004A901D52D2000E02B20002E01F1010BF1
:1028C0000DF130088DF810003FDDB9F1690F08D027
:1028D000B9F1490F05D0B9F16E0F02D0B9F14E0F21
:1028E0001CD13B4601A8009580E85002DDE9121298
:1028F0006FF0020006F07FF9C11CCED10EE0B9697D
:1029000012986D1C884781461398761E44F4007413
:1029100005600F98401C002E0F9016DDB9F1300FA6
:10292000EDD0B9F1780F02D0B9F1580F0DD10F9851
:1029300001280AD13B46CDE90054DDE91212001FFF
:10294000029606F056F9C11CA7D1109989453ED1CF
:1029500044F0800406E01399681CAAF1010A44F4CB
:1029600000740860B9696D1C1298761E884730287B
:102970008146F0D02BE01099894505D1200603D47B
:10298000761E44F0800418E0484605F045FA08B386
:10299000761E0DF123018B4544F4007408D2A9F191
:1029A00030000BF8010B200607D5AAF1010003E067
:1029B000200602D40AF101008246A00502D513992F
:1029C000681C0860B96912986D1C88478146002E02
:1029D000D1DC53E0002E51DDB9F1650F02D0B9F121
:1029E000450F4BD1A00549D5B9696D1C1298761ECB
:1029F00024F440748847002E81460CDD2B2804D037
:102A0000B9F12D0F07D144F48074B96912986D1C87
:102A10008847761E8146E00501D52D2100E02B2157
:102A200008F8011BCDF8008021E0761E0DF1390178
:102A3000884544F400740CD2A9F1300010F0FF0076
:102A400088F8000002D10099884509D908F10108E9
:102A500006E0E00501D51E4801E042F20F70824613
:102A6000B96912986D1C8847814613980560002E3D
:102A700004DD484605F0D0F90028D6D1F96912984E
:102A80008847FF2053468BF8000088F8000000209C
:102A90000A900B9004AA0CA90AA8FFF7ADFDA005A7
:102AA00002D46FF00100F8E614F0240F12D0E00712
:102AB0001CD13868DDE90A12031D3B600068C0E9DB
:102AC000001213E0C0780000B278000076770000B2
:102AD000F1D8FFFF0AA9684605F05EF9E00705D1C5
:102AE0003868009A011D3960006802602846D4E603
:102AF00010B508E030F8024B9C4204D10AB1002026
:102B000010BD012010BD491EF4D2104610BD007B3F
:102B100000F08000704770B5C468A50713D0650247
:102B200011D4B2F5807F09D0B2F5007F06D0B2F59E
:102B3000806F08D1012300F1240106E05D1E6FF0D3
:102B40007F46B54201D3012070BD0161C361416080
:102B500024F470611143C160002070BD2DE9F04183
:102B60000C4607461646104600F06EF82078611CA9
:102B700061280AD0722802D077283CD102E00125D2
:102B8000002405E00225042402E0082448F202059E
:102B900011F8010B2B2806D0622809D011F8010C7E
:102BA00074280AD00BE045F0030544F00204EFE777
:102BB00045F0040544F00104EAE744F01004384607
:102BC0002146FEF771FE411C15D000213161716074
:102BD0004FF40071F560F1617061200704D5304653
:102BE0000222002100F0B0FB306D40F001003065A2
:102BF0003046BDE8F0810020FBE72DE9F0410D46AD
:102C00000646104C206DC10704D0410804D020F0C6
:102C10000104F7E722460EE05420FDF7D1FC07003F
:102C20000ED0206D47F0010108435421206538463D
:102C3000FDF798FC3A4629463046BDE8F0418DE75D
:102C40000020D6E7380200202DE9F04704464FF077
:102C500000094FF0FF37C568D4E90486A80707D0FC
:102C6000204600F021FC3046FEF728FE002802DA5C
:102C70003846BDE8F087280502D54046FDF7CFFC71
:102C80004C212046FDF76EFC206D20F001002065F0
:102C90004846EEE770B50646484231EA00000FD0DC
:102CA0002A20741C00253070FEF758FE03460022CF
:102CB00053F82500010F000109292BD957312AE0CB
:102CC000042913D004DC012908D0022904D109E029
:102CD00008290FD0102911D0002070BDFEF73EFE4C
:102CE00000680EE0FEF73AFE40680AE0FEF736FEA6
:102CF000806806E0FEF732FEC06802E0FEF72EFEB6
:102D0000006928B120F0030050F8041C084470BD8D
:102D10004CA070BD3031521C082A04F8011BC9D3E5
:102D20006D1C052DC3DB00202070304670BD09B13D
:102D30004B0901D00020704722B113782A2B02D012
:102D400000F034B8A6E7AFF300802DE9F0410F465C
:102D50008046541C00250026314614F8010BA0F1D2
:102D60003002092A03D9A0F16103052B16D83928AE
:102D700001D8104600E05738491C082940EA0616D9
:102D8000EBD30120A840384203D0FEF7E7FD40F81E
:102D900025606D1C052DDEDB207810B10020BDE81C
:102DA000F08139464046BDE8F04173E72DE9F04136
:102DB0000C460646154688070AD51146224878442F
:102DC00005F0B4F8071EEAD0FEF7C8FD7F1C476087
:102DD000E0070AD029461C4878441A38AFF300802F
:102DE000071EDCD0FEF7BAFD076060070AD529464A
:102DF000154878443438AFF30080071ECFD0FEF773
:102E0000ADFD876020070AD529460F4878444E3823
:102E100005F0A2F8071EC2D0FEF7A0FDC760E006CD
:102E20000AD52946084878446838AFF30080051E63
:102E3000B5D0FEF793FD056121463046BDE8F0416F
:102E400028E7ACE7430000000E73000070B516469B
:102E50000C460546FDF746FD036893F8010101287D
:102E600004D0185D68B101202C8070BDD3F8030137
:102E70003246214603F2031303442846BDE870405E
:102E800018474FF0FF3070BD70B516460C4605462A
:102E9000FDF728FD036893F80101012806D0FF2CF7
:102EA0000FD8185D68B101202C7070BDD3F80701F0
:102EB0003246214603F2071303442846BDE870401A
:102EC00018474FF0FF3070BD10B50446AFF30080D7
:102ED0002046BDE81040FDF721BA2DE9F041064635
:102EE000FEF740FD8046454613E016B1E068B0426B
:102EF0000ED120682860D4E90101D8F80070884715
:102F00002046FDF78CFBD8F80000B842EBD100E07A
:102F100025462C68002CE8D1BDE8F08170B5054647
:102F20000C460A2000E06D1C00F068F835B12878E6
:102F30000028F8D102E0641C00F060F814B1207899
:102F40000028F8D1BDE870400A2000F057B8000012
:102F500010B5002102A0FFF7E1FF012010BD000025
:102F6000534947414252543A2041626E6F726D613B
:102F70006C207465726D696E6174696F6E0000001B
:102F800010B500F0D5FABDE81040FEF7EEBB10B565
:102F900000F0E8FABDE81040FEF7E7BB00DE2DE9DF
:102FA000F04117460E46054633B107FB0354E41BB8
:102FB0002046B047A542FAD1A5F10800BDE8F0814E
:102FC00010B58820FDF7FCFA002801D0002101701F
:102FD00010BD802902D808B1017809B100207047DE
:102FE000012100F8081B704718B100F10802914256
:102FF00001D00020704700210170704708B5694674
:103000008DF800000320ABBE08BD00002DE9F041A3
:103010001F46044603260168072A01F4006004DB0A
:1030200008B116A505E016A503E008B115A500E056
:1030300015A521F010002060A069C01EA0610FB18D
:10304000401EA0612046FDF7ABFC4FB1D4E9012141
:1030500038469047206A401C2062C01C206206E06F
:10306000206AFAE7D4E9012115F8010B9047761E92
:10307000F8D22046FDF7AAFCBDE8F0814E414E0093
:103080006E616E00494E4600696E66002DE9F0479C
:10309000814616468AB0354878440DC88DE80D0043
:1030A00032487844801C03AC0DC884E80D0041F61A
:1030B0009B300844372190FBF1F290FBF1F5A5F12C
:1030C000800501FB12041B3C02D56442012000E094
:1030D0000020DFF898A080460027FA44AAF1BE0A33
:1030E0000EE0E0070AD03246684607EB47010123AD
:1030F0000AEB810100F0C4FF8DE8070064107F1C1B
:10310000002CEED1194F7F44AE3F19E0E80715D0EF
:1031100007EB04100DF1180A90E80E008AE80E0083
:10312000C068F04201D1981908903246012306A9DF
:1031300003A800F0A5FF03AB83E807006D10641C33
:10314000002DE3D14FF0010332466946B8F1000F7C
:1031500003A802D000F06AFF01E000F091FFC9E986
:103160000001C9F808200AB0BDE8F087D46A000061
:103170002DE9F04705460C46C86820F4201040F4BD
:103180008000C860800602D5084600F0B0F9E0680B
:1031900041F282014FF0FF390140022903D020465D
:1031A00000F04EF9B5E000F42041B1F5004F0FD129
:1031B000C00306D56168E06A884200D808466060AE
:1031C00006E02069E06260606069FEF79AFBA0613A
:1031D000A0680022EEB200280DDAE1688B050AD45F
:1031E000C043A06041F490302260E0606068411C00
:1031F00061600670A5E0E0689046226040F40050EF
:10320000E060206968BB6069FEF76DFB012704F18F
:103210002405A0B1A08910F4407F08D0E069FDF733
:10322000CFF9206118B1E06840F4006016E0E76172
:103230002561E06820F4407040F480600EE0E069B1
:10324000FDF7BEF900282061F1D0E06840F400608D
:1032500010F4407FE06002D140F48070E0602069AB
:103260006060E06825696FF0010AC1051FD56168DB
:10327000E06A884200D80846411B04D0224628460E
:1032800000F0E8F8F0BBE068010203D5E562C4E9AC
:10329000015854E0691CE1626160E16940F48030EA
:1032A000491EC4E9021030462E70BDE8F0870102C5
:1032B00002D500F480320AE06068411C616006704B
:1032C000E0680A2E40F48030E06006D00022E16A17
:1032D0006068814203D90B4602E00122F7E703460A
:1032E000A7895B1B7F0503D4E7699F4200DDE2B13C
:1032F000814200D80146E5620F1AC4E90158002B4B
:1033000009DD00E005E022461946284600F0A2F853
:1033100008B14846C9E747B1A069E5626560C01BCE
:10332000A061E06840F01000E060E068000208D5AD
:103330006168A069E562491B08446560A061504668
:10334000B3E73046B1E700002DE9F04104461646E8
:103350000D464769007B80072ED03846FEF7C3FA3A
:1033600050BB3EB3012E02D0022E25D104E02046F0
:1033700000F04AFB05441DE03846FEF7C2FAE1685A
:10338000002841F01001E16005DA204600F058F80D
:103390000120BDE8F081C9030BD56268E16A914262
:1033A00000D81146A26911442269891A814200DDC0
:1033B00008460544002D01DA0220EAE7E16A606868
:1033C000E268814206D29103E06203D522F4003123
:1033D00041F01002A6690027AE4213DCE16A814287
:1033E00001D90B4600E0034603EB060C2369ACEB66
:1033F000030CAC4506DD814201D98C4600E08446D1
:103400009C4505D1A760276042F02000A5620DE031
:10341000AD1BE669AE1B8142A66000D90846C01A02
:10342000281A20605819606022F0200003490840E3
:10343000E060002084F84870ABE70000BFCFD7FF02
:10344000C16821F4001141F08001C1600021816058
:10345000016070472DE9F047814614460E464FF053
:10346000FF383248D5685769054209D03846A16906
:10347000FEF73FFA002811DB2C48C0430540E56009
:103480002B46324649463846FEF71EFAA16920F01F
:103490000042B21A11440028A16103D02046FFF770
:1034A000CFFF4046BDE8F08770B504460569C06AA5
:1034B0006168884200D80846E16821F42011E16083
:1034C000C90312D5A84208D02246411B2846FFF75F
:1034D000C1FF10B14FF0FF3070BD0020E562C4E9BC
:1034E0000150E06820F48030E060002070BD10B52D
:1034F0000446C06820F02000E060A16AA06988420C
:103500000DD02046FFF7D0FFE06820F4405040F097
:103510001000E060A06AA0612069E062606044F28F
:103520004001E0688843E06010BD00001000020028
:1035300010B5014602A0FFF7F1FC012010BD00000C
:1035400053494752545245443A2052656469726562
:1035500063743A2063616E2774206F70656E3A2041
:103560000000000010B5012805D0002103A0FFF7DE
:10357000D5FC012010BD09A1F8E7000053494752CE
:10358000544D454D3A204F7574206F662068656133
:1035900070206D656D6F7279000000003A204865FB
:1035A0006170206D656D6F727920636F72727570D6
:1035B000746564002DE9FF4F1F464FF03C0987B04A
:1035C0004FF00042DDE9141001F10108DDF858A0C8
:1035D00002EA4050039000200590834605460446C9
:1035E0000490B969461E08988847AAF1010A02901A
:1035F000BAF1000F3BDD02982E2815D01021FEF7FE
:1036000033FE00282EDB4FF0010B0599014317D044
:10361000B9F1000F0BDB4A46C11700F024FA05434D
:103620000C43A9F1040905E0012004900BE008B166
:1036300045F0010501200590049820B9361D02E0EF
:10364000049800B1361FB969089808F10108884745
:10365000BBF1000FAAF1010A0290C9D00999C1F883
:103660000080C5E70298702808D0502806D0F96974
:1036700008988847BBF1000F14D04FE0002002905B
:103680000120BBF1000F049009D0B969089808F136
:1036900001088847AAF10109B9F1000F07DCF969AF
:1036A000089888476FF001000BB0BDE8F08F2B2819
:1036B00004D02D280CD14FF0FF300490B969089840
:1036C00008F101088847A9F10109B9F1000FE6DD09
:1036D000411CE4D00A21FEF7C7FD0028DFDB029978
:1036E00008F1010801EB810100EB41000290B9698A
:1036F000089888470A21FEF7B7FD099AA9F1010940
:10370000B9F1000FC2F8008001DD0028E7DAF9699D
:10371000089888470499029800FB016655EA04005E
:1037200004D004F04041090002D006E0039898E07C
:10373000A40044EA9574AD00B61E04F000410800F0
:1037400002D16D196441761E159810F0240F03D034
:103750004FF00B095C4803E04FF028096FF07D0043
:103760008246564507DAAAEB06018944B9F1410FB2
:1037700001DD4FF0410901200021A9F1010200F013
:1037800072F9024628400B462140084301D001212E
:1037900000E00021501E029143F1FF3128402140FA
:1037A000084301D0012000E000200299834651EA3D
:1037B0000B014FD0002108464FF00000039900F4A0
:1037C000400039B100EB80004FF4400100EBD070B5
:1037D00001EA60008015012802DD4FF0FF3000E0B3
:1037E00013D0401C36D0029860B3BBF1000F0CD14F
:1037F0004A460120002100F036F9284021400843C4
:1038000001D0012000E00020E0B101204A46002163
:1038100000F029F9034640190A4661412D1A8C41EE
:1038200011D3B9F1400F09DD159810F0240F02D023
:10383000AAF1340603E0AAF1170600E0761C002581
:103840004FF0004406E05B1E42F1FF3220EA030520
:1038500021EA0204CAF10100B04206DA1B490398CA
:1038600008430190002000900EE0039AC4F3D32196
:10387000E80A0A43164940EA44500A433146CDE972
:103880000002684604F0BEFA159810F0240F0BD021
:103890001598C00715D13868DDE90012031D3B609B
:1038A0000068C0E900120CE002A8694604F074FA4E
:1038B0001598C00705D13868029A011D3960006863
:1038C00002604046F0E6000002FCFFFF0000F07FCF
:1038D0000000F03F2DE9FF4F92461D4685B04FF0A6
:1038E0000041DDE9124BDDE914727F1E01EA4B5005
:1038F000414940F0FF4940EA0108002122F0200040
:103900004928049102D04E2828D04CE03BA0012643
:1039100007C88DE80700A9690698641C88477F1EC0
:10392000014606D41DF8060018B121F0200181429D
:103930000BD0E96906988847032E34D0082E32D080
:103940006FF0010009B0BDE8F08F761C032E01D0A6
:10395000082EE0D1601CCAF80000DCE7A9690698CF
:10396000641C88477F1E2AD420F02000412826D1DD
:10397000A9690698641C88477F1E20D420F0200087
:103980004E281CD1A9690698641C88477F1E48F4FC
:10399000002849F48009CAF8004001D4282806D03C
:1039A000E969069888475FEACB7012D022E0A969DE
:1039B0000698641C88477F1E01D4002803DAE96951
:1039C00006988847BCE72928F1D1641CCAF8004052
:1039D000E9E71BF0240F07D028680499031D2B602A
:1039E0000068C0E9001805E02868021D2A60006828
:1039F000C0F800902046A5E70000F07F494E4649F8
:103A00004E4954590000000010B50146C2689007A5
:103A100003D0900607D5886A0AE0FCF76FFF012102
:103A20000160881E10BD8B69486818440B69C01A74
:103A300091F848301BB191F84910401A10BD11039C
:103A4000FCD50028FADD401E10BD2DE9F0411646D8
:103A50001F460C46851B02E02846B847AD1B641E76
:103A6000FAD2BDE8F081B2F120030AD5C2F12003F9
:103A700001FA02F120FA03F300FA02F041EA03012D
:103A8000704700FA03F14FF00000704770B5064C24
:103A90007C44064D7D4403E0206820448047241D7B
:103AA000AC42F9D170BD00005C66000064660000A5
:103AB0005FEA400C08BF91F0000F4FEA8C234FEAF9
:103AC000C12243EA51514FEA1C5018BF00F5F040A3
:103AD0004FEA300018BF41F000415FEA6C5C00F033
:103AE0002980BCF1FF3F08BF40F080407047130CB5
:103AF00006BF12044FF0100C4FF0000C130E04BF61
:103B000012020CF1080C130F04BF12010CF1040C8B
:103B1000930F04BF92000CF1020CD30F04BF5200AC
:103B20000CF1010C11464FF00002A0F11F00A0EBB8
:103B30000C00704711F0004F08BF704731F0004192
:103B40003FF4D5AF0B0C06BF09044FF0100C4FF03B
:103B5000000C0B0E04BF09020CF1080C0B0F04BF84
:103B600009010CF1040C8B0F04BF89000CF1020C4D
:103B7000CB0F04BF49000CF1010CCCF12003A0EBEA
:103B80000C0022FA03F302FA0CF241EA030100F1FD
:103B90000100704720F07F4C80EA030023F07F474C
:103BA000ACEB070303F57C5300F0004003F1FF0387
:103BB0002DE980494FEA154B09B44FEA144325EA31
:103BC0000B4E24EA03480FF2042606EB132749089C
:103BD0003E785FEA320203FB0667C7F5000707FB82
:103BE00006F64FEA54374FEAD64606F1020607FBBF
:103BF000066CCCF1005C4FEA1C472CEA074C07FB33
:103C000006F40CFB06F504EB15464FEA961634BF96
:103C100000204FF000404FEAD13706FB07FC4FEA87
:103C20001C4C0CFB0BF7D21B03FB0CF761EB0701E1
:103C30000CFB0EF7B0EB074072EB17420CFB08F7DA
:103C400034BFA2EB0742B2EB074261EB17414FEAE8
:103C50000C444FEA910706FB07FC4FEA1C4C0CFB97
:103C60000BF7B0EBC74072EB573203FB0CF734BFD6
:103C7000A2EBC742B2EBC74261EB57310CFB0EF728
:103C8000B0EBC70072EB57720CFB08F734BFA2EB26
:103C9000C702B2EBC70261EB5771039F4FEA816124
:103CA00041EA921104EBCC044FEAD1374FEA826229
:103CB00006FB07FC42EA90124FEA80604FEA1C4C78
:103CC0000CFB0BF7D21B03FB0CF761EB07010CFBA2
:103CD0000EF7B0EB074072EB17420CFB08F734BF4E
:103CE000A2EB0742B2EB074261EB17414FEA8C555A
:103CF0004FEA910704EB9C2406FB07FC4FEA1C4C9F
:103D00000CFB0BF7B0EBC74072EB573203FB0CF721
:103D100034BFA2EBC742B2EBC74261EB57310CFB99
:103D20000EF7B0EBC70072EB57720CFB08F734BF0D
:103D3000A2EBC702B2EBC70261EB577115EB4C2542
:103D40004FEA816141EA92114FEA82624FEAD1372C
:103D500042EA901206FB07FC44F100044FEA80603F
:103D60004FEA1C4C0CFB0BF7D21B03FB0CF761EB6F
:103D700007010CFB0EF7B0EB074072EB17420CFB90
:103D800008F734BFA2EB0742B2EB074261EB1741E1
:103D900015EB1C154FEA813141EA92414FEA82321C
:103DA00042EA90424FEA80304FEA0C7644F1000438
:103DB00048EA03434EEA0B484FF0000EB2EB080C02
:103DC00071EB030724BF624639464EEB0E0E4FF0EF
:103DD000000B0018524149414BEB0B0BB2EB080CA6
:103DE00071EB03077BF1000B24BF624639464EEBB3
:103DF0000E0E4FF0000B0018524149414BEB0B0BDC
:103E0000B2EB080C71EB03077BF1000B24BF624699
:103E100039464EEB0E0E51EA020718BF46F0010676
:103E200016EB0E7655F1000254F1000103D5BDE802
:103E30008901BDE80088BDE88901BDE80048B619E0
:103E4000524141EB0101A3F10103704780807F7E65
:103E50007D7C7B7A79787776767574737271717000
:103E60006F6E6E6D6C6C6B6A6A69686867666665B2
:103E70006464636362616160605F5F5E5E5D5D5C40
:103E80005C5B5B5A5A5959585857575656555555B1
:103E90005454535352525251515050504F4F4F4E11
:103EA0004E4D4D4D4C4C4C4B4B4B4A4A4A4949495F
:103EB00048484847474747464646454545444444A1
:103EC00044434343434242424241414146EA06465B
:103ED000A3F570534FEA164646EA42564FEAD222FD
:103EE00042EA415210B54FEAD121A3F1010300F09B
:103EF0002FF820F0004000F1020C00F0004701EB29
:103F000000501146BCF5006F40EA070000D210BD1A
:103F1000BAF1000F0AD01CB503B44FF004004FF003
:103F200004014FF000000FBCBDE810404FF000014D
:103F3000BBF1010FB9BF04484FF0FF310348002126
:103F400040EA070010BD00BFFFFFEF7F0000F07FD9
:103F5000002B9C4630D477002BD01CB54FEA370796
:103F600003B44FF010004FF01001BAF1000F06D06B
:103F7000BCF1000FDCBF40F0080040F008014FF03A
:103F800000000FBCBDE810400BF1010BBBF1010FAD
:103F900008BF5FEA170722BF12F1010211F1010108
:103FA0004FF0004143F1000300F0004043EA0000FD
:103FB0007047F9D35708D0E746EA064613F1400F99
:103FC0004FEA16461FDD13F1200FDFBF16430A46E6
:103FD000002120335B42BED0C3F1200746EA0646EB
:103FE00002FA07F74FEA164646EA0706C3F120072A
:103FF00022FA03F201FA07F721FA03F14FF0000366
:1040000042EA0702A7E746EA020646EA06464FEA00
:10401000164646EA0106BCBF46EA0646360C4FF095
:1040200000034FF000024FF0000194E72DE9804CAF
:104030009A46934670B491E8380007C831EA400CBC
:1040400048BF34EA430C03D5FFF7A4FDFFF780FF18
:10405000F0BCBDE8008C2DE9804C9A46934670B4C4
:1040600091E8380007C831EA400C48BF34EA430CF5
:1040700003D5FFF78FFDFFF729FFF0BCBDE8008CEB
:104080002DE9804C9A46934670B491E8380007C8F1
:1040900010F0804F08BF13F0804F03D100F01AF8E2
:1040A000FFF756FFF0BCBDE8008C2DE9804C9A4626
:1040B000934670B491E8380007C810F0804F08BFED
:1040C00013F0804F03D100F005F8FFF7FFFEF0BCBE
:1040D000BDE8008C20F07F4780EA030023F07F4C8E
:1040E00007EB0C03A3F57C5300F00040A3F1FE03A3
:1040F00092F0000F00F0B38095F0000F00F0778091
:104100002DE901494FEA11404FEA144621EA0048DF
:1041100000FB06FC24EA064708FB06F607FB08F846
:1041200000FB07F718EB06484CEB164C4FEA124B16
:1041300018EB07484FEA15464CEB174022EA0B4EA6
:104140000BFB06FC25EA06470EFB06F607FB0EFEF8
:104150000BFB07F71EEB064E4CEB164C4FF0000620
:104160001EEB074E4CEB174B18EB0B0840F1000011
:1041700018EB0E0B58EB000840F100008F1A4FF0BF
:1041800000013CBFC943661B14BFB5EB040C002102
:104190003CBFC943F61B4FEA17444EEA8E0E27EA8E
:1041A00004454FEA1C4704FB07622CEA074C05FB59
:1041B00007F70CFB05F604FB0CFC16EB074642EB7D
:1041C000174216EB0C4642EB1C421BEB060658EB63
:1041D0000202414146EA9E0601D5BDE80189B619B1
:1041E000524141EB0101A3F10103BDE801894FEA0E
:1041F00014454FEA114724EA054621EA074C05FB1E
:1042000007F406FB07F70CFB06F105FB0CFC11EBB2
:10421000074144EB17444FEA124711EB0C4144EBC2
:104220001C4422EA074C05FB07F206FB07F70CFBD0
:1042300006F605FB0CFC16EB074642EB174216EBA5
:104240000C4642EB1C456A1854F1000148BF704708
:10425000B619524141EB0101A3F10103704795F0FA
:10426000000F37D04FEA11424FEA144721EA0246C5
:1042700024EA074C02FB07F106FB07F70CFB06F4E8
:1042800002FB0CFC14EB074441EB17414FEA1547C6
:1042900014EB0C4441EB1C4125EA074C02FB07F5EB
:1042A00006FB07F70CFB06F602FB0CFC16EB0746B9
:1042B00045EB174516EB0C4645EB1C42121951F124
:1042C000000148BF7047B619524141EB0101A3F10B
:1042D000010370474FEA14454FEA114724EA0546A7
:1042E00021EA074C05FB07F106FB07F70CFB06F27A
:1042F0004FF0000605FB0CFC12EB074241EB1741A7
:1043000012EB0C4251EB1C4148BF7047921841EB35
:104310000101A3F10103704738B504466846AFF3C5
:1043200000800146204604F09FF838BDFEE7704744
:1043300000F0C2B900E0401E0028FCDC704772B6F5
:10434000FEE700002DE9F84F804689461F463548B4
:104350000188414563D34088484560D3B888410708
:1043600001D0012100E0002101EBD000203AF988C2
:104370005043484339680D1800264FF0800B4FF02A
:10438000010A49E000243EE00A98A0F57F41FF3988
:1043900013D0287804F007012BFA01F1084220D04D
:1043A00009EB060081B208EB040080B20123CDF8CE
:1043B00000A00B9A00F0E2F81FE0287804F0070153
:1043C0002BFA01F1084218D009EB060081B208EB84
:1043D000040080B20123CDF800A00B9A00F0CEF8C3
:1043E0000BE009EB060081B208EB0400CDF800A059
:1043F00080B201230A9A00F0C1F8E043400700D1DF
:104400006D1C641CA4B2B888A042BDD8387940079E
:1044100000D06D1C761CB6B2F888B042B2D8BDE8A8
:10442000F88F0000800000202DE9FC5F0746DDF8D2
:1044300030B0894690461E463C464D46DFF85CA0AB
:10444000BAF80000B84227D3BAF80200484523D38F
:104450001EE0B088BAF800102044884203D93C46D8
:10446000F088284485B2F088BAF8021028448842BF
:1044700001D93C464D460D983346CDE900B029465A
:104480002046FFF75FFF08F10108B088204484B29E
:1044900098F80020002ADCD1BDE8FC9F80000020B5
:1044A0002DE9FE4F07460E46904699463249088848
:1044B000B8425ED34988B1425BD3404559D34945A0
:1044C00057D3474503D94146384600F0F3F84E45E7
:1044D00003D94946304600F0EDF8B8EB070A01D59C
:1044E000A7EB080AA9EB060BBBF1000F01DDA6EB59
:1044F000090B4FF0FF30474501D2012100E0014692
:1045000002914E4500D2012001900AEB0B040025D8
:104510006D1C6DB20D98012805D1032095FBF0F1BB
:1045200000FB1150D0B101200090314638460E9B5F
:104530000C9A00F023F8BBEB440F05DC474518D07C
:104540005C440298384487B2BAEB440FE0DB4E4536
:104550000FD054440198304486B2D9E7012000902E
:104560004FF6FF72314638460E9B00F007F80025E3
:10457000E1E7BDE8FE8F0000800000202DE9F05F3C
:104580000F460A99804691461D461F4802884245BB
:1045900021D34088B8421ED3012901D0002630E043
:1045A0000026701E00EB450A13E0002408EB06000D
:1045B000A0EB050B09E03819401B81B21FFA8BF004
:1045C0004A4601F053FC641CA4B2A245F3DC761CFD
:1045D000B6B2B245E9DCBDE8F09F002408EB060A5C
:1045E000AAF1010A09E03819401E81B21FFA8AF0C7
:1045F0004A4601F03BFC641CA4B2AC42F3D3761CE7
:10460000B6B2AE42E9D3E6E7800000202DE9FE4FC6
:104610001746DDE90D260C9C814688461D46244937
:10462000088848451AD34988414517D3B84215D35D
:10463000A94213D3B94503D93946484600F03AF8A0
:10464000A84503D92946404600F034F842B12B462C
:104650003A4641464846009401F09AFBBDE8FE8F79
:104660004FF0000ACDE901A643463A464146484686
:104670000094FFF715FFCDE901A62B464A464146B7
:1046800048460094FFF70CFFCDE901A643463A46A1
:10469000294638460094FFF703FFCDE901A62B46D3
:1046A0004A46294638460094FFF7FAFED6E700004E
:1046B000800000207047000070B5044600F0F6F856
:1046C0000546601C02D004480078044400F0EEF86F
:1046D000401BA042FAD370BD0C0000202DE9F84F1A
:1046E0000022DFF890914FF0010809F1040A032736
:1046F0004FF00F0C0AF1040B08FA02F50B682B407F
:10470000AB4272D10C7904F00304012C01D0022CCD
:1047100015D18668540007FA04FE26EA0E06D1F881
:104720000CE00EFA04FE4EEA060EC0F808E04468FB
:10473000AC430D79C5F300159540254345600C79D0
:10474000E443A40708D0C568540007FA04F6B5434B
:104750008E68A6402E43C6600C7904F00304022C38
:1047600011D1D40800EB8406356A5407E40E0CFA24
:1047700004FE25EA0E05D1F810E00EFA04FE4EEA1A
:10478000050EC6F820E00568540007FA04F6B543A4
:104790000E7906F00306A6402E4306604C68E4003E
:1047A00062D5354C256845F480452560246804F4BD
:1047B00080440094314C22F003052E19D6F8085895
:1047C00094074FEA147E0CFA0EF4A5432C4CA04239
:1047D00001D100241FE02B4CA04201D101241AE09A
:1047E000294CA04202D1022415E03DE0274CA04212
:1047F00001D103240FE0264CA04201D104240AE099
:10480000244CA04201D1052405E0234CA04201D153
:10481000062400E0072404FA0EF42C43C6F80848E6
:10482000D9F800409C434D68ED0300D51C43C9F8FE
:104830000040DAF800409C434D68AD0300D51C43AE
:10484000CAF80040DBF800409C434D68ED0200D5FB
:104850001C43CBF80040074D0C352C689C434E6838
:10486000B60200D51C432C60521C102AFFF444AF42
:10487000BDE8F88F003C0140443802400030014060
:10488000000002400004024000080240000C024008
:10489000001002400014024000180240002A01D01B
:1048A0008161704709048161704700000148806898
:1048B000704700000C000020024881680278114413
:1048C000816070470C00002010B50B48016841F46E
:1048D00000710160016841F480610160016841F488
:1048E00080710160032000F073F8002000F006F8EA
:1048F00000F026F8002010BD003C024070B50446D0
:104900000D4D4FF47A712878B1FBF0F00B4909682E
:10491000B1FBF0F000F0D9FD08B1012070BD102C02
:1049200007D200222146501E00F032F86C600020B1
:1049300070BD012070BD00000C0000201800002098
:1049400082B00B48016841F480410160006800F4C6
:10495000804001900648001F016841F080510160CD
:10496000006800F080500190072002B000F030B8DD
:1049700044380240002809DB00F01F020121914069
:104980004009800000F1E020C0F8001170470000ED
:10499000F0B40D460D4B1B68C3F30223C3F10704AB
:1049A000042C00D90424191D072901D2002300E09A
:1049B000DB1E012606FA04F1491E294099409E405B
:1049C000761E16403143F0BC03F0A9B80CED00E0B0
:1049D00000F00701054A10684FF6FF03184040EA4F
:1049E0000120034908431060704700000CED00E00F
:1049F0000000FA052DE9F04704460D46002C13D0BF
:104A0000DFF82891D9F80000EFB200F00F00A842BB
:104A10000CD289F80070D9F8000000F00F00A8420D
:104A200004D00120BDE8F0870120FBE72068404E5C
:104A3000810712D5400703D5306840F4E05030605C
:104A40002078000703D5306840F46040306030685B
:104A5000A16820F0F000084330602078C00731D012
:104A6000334960680839012808D002280BD0032890
:104A700009D0096889070BD40120D3E709688903A5
:104A800006D40120CEE70968890101D40120C9E7D5
:104A9000316821F0030101433160FFF707FF8046D1
:104AA00041F2883A07E0FFF701FFA0EB080050450C
:104AB00001D90320B6E73068616800F00C00B0EB64
:104AC000810FF0D1D9F8000000F00F00A84209D9F9
:104AD00089F80070D9F8000000F00F00A84201D05A
:104AE00001209FE72078400705D53068E16820F471
:104AF000E050084330602078000706D5306821690F
:104B000020F4604040EAC100306000F03FF83168B6
:104B1000084AC1F30311515CC840074908600748BF
:104B20000068FFF7EBFE00207CE70000003C02403D
:104B3000083802400A9800081800002010000020E1
:104B400001480068704700001800002000B5FFF71A
:104B5000F7FF04490968044AC1F38221515CC84047
:104B600000BD0000083802401A98000800B5FFF7A1
:104B7000E7FF04490968044AC1F34231515CC84067
:104B800000BD0000083802401A98000810B52648F9
:104B9000006810F00C01254818D04310042914D0E7
:104BA000214C241F082912D00C290FD1216801F0B3
:104BB0003F022168490229D52068C0F38810A0FB74
:104BC00003010023FBF7D0FB28E0184610BD216845
:104BD00001F03F022168490208D52068C0F388101F
:104BE000A0FB03010023FBF7BFFB07E021680023C4
:104BF000C1F38811A1FB0001FBF7B6FB2168C1F3EB
:104C00000141491C4900B0FBF1F010BD21680023AF
:104C1000C1F38811A1FB0001FBF7A6FB2168C1F3DA
:104C20000271B0FBF1F010BD083802400024F4001E
:104C30002DE9F84F0446002C11D02078F74FC0071B
:104C4000A7F104055CD0381D0168C1F38101012979
:104C500013D00168C1F38101022903D005E00120CE
:104C6000BDE8F88F3968490207D40068C0F38100B5
:104C7000032809D13868400206D5286880033FD54B
:104C8000606870BB0120EBE76068B0F5803F10D032
:104C9000B0F5A02F12D0286820F480302860286852
:104CA00020F4802028606068E0B1FFF7FFFD064631
:104CB00014E0286840F480302860F4E7286840F465
:104CC00080202860286840F480302860EBE7FFF7F8
:104CD000EDFD801B642801D90320C1E7286880030B
:104CE000F5D50DE0FFF7E2FD064606E0FFF7DEFD35
:104CF000801B642801D90320B2E728688003F5D41B
:104D00002078DFF81C8380074FF0000950D5C34896
:104D1000001D016811F00C0F0FD00168C1F3810173
:104D2000022902D13968490207D50068C0F3810021
:104D3000032812D1386840020FD42868800704D5B0
:104D4000E068012801D001208AE72868216920F065
:104D5000F80040EAC10028602AE0E068C0B1012004
:104D6000C8F80000FFF7A2FD064606E0FFF79EFD2B
:104D7000801B022801D9032072E728688007F5D537
:104D80002868216920F0F80040EAC10028600FE09F
:104D9000C8F80090FFF78AFD064606E0FFF786FD9B
:104DA000801B022801D903205AE728688007F5D420
:104DB0002078000727D5994E9A486169703689B1E5
:104DC00001210160FFF772FD824607E0FFF76EFDEB
:104DD000A0EB0A00022801D9032041E730688007D0
:104DE000F4D510E0C0F80090FFF760FD824607E0C0
:104DF000FFF75CFDA0EB0A00022801D903202FE792
:104E000030688007F4D4207840076ED54FF0000A50
:104E100082483C300068C0000BD480483C300168B8
:104E200041F080510160006800F0805000904FF028
:104E3000010ADFF8F4B1DBF80000C00514D4DBF898
:104E4000000040F48070CBF80000FFF72FFD06460D
:104E500006E0FFF72BFD801B022801D90320FFE6A7
:104E6000DBF80000C005F4D5DFF8B0B1A0680BF1A5
:104E70006C0B012813D0052818D0DBF8000020F0B7
:104E80000100CBF80000DBF8000020F00400CBF8B4
:104E90000000A06828B3FFF709FD06461CE0DBF818
:104EA000000040F00100CBF80000F2E7DBF8000062
:104EB00040F00400CBF80000DBF8000040F00100F7
:104EC000CBF80000E5E7FFF7F1FC811B41F28830E9
:104ED000814201D90320C3E6DBF800008007F2D548
:104EE00011E0FFF7E3FC064609E015E0FFF7DEFC02
:104EF000811B41F28830814201D90320B0E6DBF802
:104F000000008007F2D4BAF1010F05D143483C30CC
:104F1000016821F080510160A069D8B33F49091DA3
:104F200009684FF0FF36C1F38101022949D00228F8
:104F300005D0C8F86090FFF7B9FC04463DE0C8F81A
:104F40006090FFF7B3FC814607E0FFF7AFFCA0EBF2
:104F50000900022801D9032082E628688001F4D4E0
:104F600054F81C0F6168E2680843A16806EB52021E
:104F7000890141EA02410843217C40EA0160217D28
:104F800040EA017038600120C8F86000FFF78EFC2D
:104F9000044607E04CE0FFF789FC001B022801D91A
:104FA00003205DE628688001F5D541E0FFF77EFC2F
:104FB000001B022801D9032052E628688001F5D49D
:104FC00036E0012832D03868E26900F4800191426D
:104FD00021D1226A00F03F0191421CD147F6C071F5
:104FE000626A0140B1EB821F15D1A26A00F4403120
:104FF00006EB5202B1EB024F0DD194F82C2000F0D9
:105000007061B1EB026F06D194F8301000F0E0400F
:10501000B0EB017F0CD0012022E6000004380240F2
:1050200000004742800E474200700040012017E612
:10503000002015E670B50446002C09D0606A0025F2
:1050400040B125616561A56294F8510040B10CE062
:10505000012070BD6068B0F5827FF4D0E561F2E7B1
:1050600084F85050204600F045F8022084F85100A2
:105070002068016821F040010160A088218900F4C6
:10508000827001F404410843A18901F400610843DE
:10509000217C01F002010843217D01F00101084358
:1050A000218B01F400710843217F01F0380108438E
:1050B00094F8201001F080010843218D01F4005183
:1050C000084321680860A069042101EA104094F8AF
:1050D000241001F010010843216848602068C1696C
:1050E00021F40061C1616565012084F85100002050
:1050F00070BD000010B586B00446142101A8FBF76E
:1051000031FA13492068884220D1002111480268F1
:1051100042F480520260006800F4805000900D4814
:105120001438026842F001020260006800F00100D9
:105130000090E0200190022002900391032004904F
:105140000520059001A90448FFF7C8FA06B010BD74
:105150000030014044380240000002402DE9F84F81
:1051600004468B4692461D46002694F850000128BE
:105170000DD04FF0010984F85090FFF797FB0746D8
:1051800094F85100B046012804D00226A5E0022080
:10519000BDE8F88FBBF1000F1CD05FEA0A0019D000
:1051A000032084F85100C4F85480C4F830B0A4F847
:1051B00034A0A4F836A0C4F83880A4F83C80A4F841
:1051C0003E80C4F84480C4F84080A068B0F5004F29
:1051D00002D00BE0012680E02068016821F0400148
:1051E00001602068016841F4804101602068016825
:1051F000490603D4016841F040010160E068B0F560
:10520000006F05D0606878B3BAF1010F2DD04DE082
:10521000606810B1BAF1010F20D1206B21680088BD
:10522000C860206B801C2063E08E401EE08615E085
:1052300020688168890709D5216B0988C160206BC6
:10524000801C2063E08E401EE08607E0FFF72EFB07
:10525000C01BA84201D3681C04D11DB1E08E0028F8
:10526000E6D126E0032638E0FFE7206B21680078CE
:105270000873206B401C2063E08E401EE08615E022
:1052800020688168890709D5216B09780173206B33
:10529000401C2063E08E401EE08607E0FFF706FB1F
:1052A000C01BA84201D3681C0ED16DB1E08E00284E
:1052B000E6D13A462946204600F0DCFF08B120201E
:1052C0006065A06810B105E0032606E02068C168AB
:1052D00080680090606D00B1012684F8519084F8D8
:1052E0005080304654E72DE9F84F04460A9E8A461E
:1052F00093461F4601254FF0000894F850000128FE
:105300000ED0012084F85000FFF7D0FA814694F8BF
:105310005100616801280DD0B1F5827F07D102E00C
:105320000220BDE8F88FA16809B9042802D04FF027
:105330000208C3E0BAF1000F28D0BBF1000F25D05E
:10534000380023D094F85100042802D0052084F8B6
:10535000510000206065C4F838B0E787A787C4F81B
:1053600030A0E786A786206460642068016849064B
:1053700003D4016841F040010160E068B0F5006FBE
:1053800007D06068E8B3012F48D07DE04FF00108F6
:1053900094E0606808B1012F39D1206B2168008842
:1053A000C860206B801C2063E08E401EE0862EE0EB
:1053B0002068816889070DD5E18E59B1012D09D189
:1053C000216B0988C160206B801C2063E08E401E29
:1053D000E086002520688168C9070BD0E18F49B1BC
:1053E000C068A16B0880A06B801CA063E08F401E8A
:1053F000E0870125FFF75AFAA0EB0900B04206D377
:1054000000E00BE0701C02D04FF0030856E0E08E85
:105410000028CDD1E08F0028CAD13BE0206B216865
:1054200000780873206B401C2063E08E401EE086ED
:105430002AE02068816889070DD5E18E59B1012DD8
:1054400009D1216B09780173206B401C2063E08E29
:10545000401EE086002520688168C9070BD0E18FD7
:1054600049B1C068A16B0870A06B401CA063E08FBD
:10547000401EE0870125FFF719FAA0EB0900B042B2
:1054800001D3701C11D186B1E08E0028D1D1E08FFC
:105490000028CED14A463146204600F0EBFE38B116
:1054A0004FF001082020606508E04FF0030805E098
:1054B000A06818B92068C168806800900120503445
:1054C00060700020207040462BE710B5401EB0F100
:1054D000807F01D3012010BD4FF0E02460610F21D7
:1054E000601702F01CFB0020A06107202061002053
:1054F00010BD70477047000070B590F83C20012A3D
:1055000031D0012680F83C60022280F83D200268FC
:105510005468936824F070050C682C435460134C55
:105520000268A24214D0B2F1804F11D0104CA242B6
:105530000ED0104CA2420BD00F4CA24208D00F4C00
:10554000A24205D00E4CA24202D00E4CA24204D17F
:1055500023F080034968194391603C304670002174
:105560000170002070BD022070BD000000000140ED
:105570000004004000080040000C0040000401400E
:10558000004001400018004010B50446002C03D034
:1055900094F83D0010B107E0012010BD002084F810
:1055A0003C00204600F016F8022084F83D00211D42
:1055B000206800F003FF01203D3460726070A0702D
:1055C000E07020716071A071E07120722070002085
:1055D00010BD000008B50068104A1149904211D171
:1055E000086840F080000860086800F080000090C3
:1055F000002211462C20FFF7CBF9BDE808402C20F3
:10560000FFF7B8B9074A904207D1086840F48070A4
:105610000860086800F48070009008BD001C00401D
:105620004038024000200040704770B504462068B2
:1056300001694FF00005C943890716D4C168C94301
:10564000890712D4E91E0161012020772068806952
:10565000800703D02046FFF7E7FF05E0204600F073
:10566000C3F8204600F064F9257720680169C94332
:10567000490718D4C168C943490714D46FF004011D
:105680000161022020772068806910F4407F03D0F8
:105690002046FFF7C9FF05E0204600F0A5F82046A8
:1056A00000F046F9257720680169C943090717D436
:1056B000C168C943090713D46FF0080101610420D0
:1056C00020772068C069800703D02046FFF7ACFF31
:1056D00005E0204600F088F8204600F029F92577FB
:1056E00020680169C943C90618D4C168C943C906FD
:1056F00014D46FF010010161082020772068C06980
:1057000010F4407F03D02046FFF78EFF05E02046CF
:1057100000F06AF8204600F00BF92577206801694F
:10572000C943C90708D1C168C943C90704D1891E43
:105730000161204600F06CF920680169C94309063F
:1057400009D4C168C943090605D46FF0800101611D
:105750002046FFF7CEFE20680169C943490609D4F7
:10576000C168C943490605D46FF040010161204674
:1057700000F04FF920680169C94389060BD4C1685C
:10578000C943890607D46FF0200101612046BDE8B6
:105790007040FFF7AFBE70BD10B586B0044614214F
:1057A00001A8FAF7DFFE0D482168814214D10021DB
:1057B0000B48026842F004020260006800F0040036
:1057C00000908020019002200290039104910590A6
:1057D00001A90448FEF782FF06B010BD0004004096
:1057E0003038024000080240704770B504460D464C
:1057F00094F83C0001280AD0012084F83C0042B112
:10580000042A1AD0082A2DD00C2A53D13EE00220B7
:1058100070BD2946206800F045FE2068816941F08E
:10582000080181612068816921F00401816120689B
:1058300081692A69114381613CE02946206800F0B2
:1058400065FE2068816941F4006181612068816999
:1058500021F480618161206881692A6941EA02211D
:10586000816127E02946206800F08AFE2068C1692E
:1058700041F00801C1612068C16921F00401C161E2
:105880002068C1692A691143C16113E02946206873
:1058900000F0AEFE2068C16941F40061C16120687A
:1058A000C16921F48061C1612068C1692A6941EA46
:1058B0000221C161002084F83C0070BD10B504468F
:1058C000002C03D094F83D0010B107E0012010BD7A
:1058D000002084F83C00204600F016F8022084F8EE
:1058E0003D00211D206800F069FD01203D346072FB
:1058F0006070A070E07020716071A071E071207222
:105900002070002010BD000008B5006806498842DC
:1059100008D10648016841F002010160006800F00A
:105920000200009008BD0000000400404038024022
:105930007047000010B50446002909D004290AD098
:1059400008290BD094F8410001280AD0012010BD8D
:1059500094F83E00F8E794F83F00F5E794F840002B
:10596000F2E70220A9B3042937D0082938D084F8F7
:1059700041000122206800F087FD1E4920681E4A70
:10598000884201D0904203D1436C43F40043436406
:105990002068884213D0B0F1804F10D01749884258
:1059A0000DD0174988420AD01649884207D0904244
:1059B00005D01549884202D01449884213D1816824
:1059C00001F00701062912D0016841F001010160D0
:1059D0000DE0FFE784F83E00CBE784F83F00C8E71E
:1059E00084F84000C5E7016841F001010160002032
:1059F00010BD000000000140000401400004004010
:105A000000080040000C0040004001400018004029
:105A10007047704770B50446002C04D094F83D00E0
:105A2000002510B106E0012070BD84F83C502046EE
:105A300000F022F8242084F83D002068C16821F499
:105A40000051C160204600F0EBFE2068016921F49E
:105A5000904101612068416921F02A01416120687B
:105A6000C16841F40051C1602564202084F83D00E4
:105A700084F83E00002070BD10B586B004461421A5
:105A800001A8FAF76FFD13492068884220D1002150
:105A90001148026842F400320260006800F40030ED
:105AA00000900D481038026842F001020260006860
:105AB00000F0010000900C20019002200290039160
:105AC000032004900720059001A90448FEF706FE74
:105AD00006B010BD004400404038024000000240C3
