:020000040800F2
:1000000038050020DD0100080B220008811B0008D4
:100010000922000891040008613600080000000071
:100020000000000000000000000000008D23000818
:100030009304000800000000392200088F23000804
:10004000F7010008F7010008F7010008F7010008B0
:10005000F7010008F7010008F7010008F7010008A0
:10006000F7010008F7010008F7010008F701000890
:10007000F7010008F7010008F7010008F701000880
:10008000F7010008F7010008F7010008F701000870
:10009000F7010008F7010008F7010008F701000860
:1000A000F7010008F7010008F7010008F701000850
:1000B000F7010008F7010008F7010008F701000840
:1000C000F7010008F7010008F7010008F701000830
:1000D000F7010008F7010008F7010008F701000820
:1000E000F7010008F7010008F7010008F701000810
:1000F000F7010008F7010008F7010008F701000800
:10010000F7010008F7010008F7010008F7010008EF
:10011000F7010008F7010008F7010008F7010008DF
:10012000F7010008F7010008F7010008F7010008CF
:10013000F70100080000000000000000F7010008BF
:10014000F7010008F7010008F7010008F7010008AF
:10015000F7010008F7010008F7010008F70100089F
:10016000F7010008F7010008F7010008F70100088F
:10017000F7010008F7010008F7010008000000007F
:1001800000000000F701000800000000000000006F
:10019000F70100080000000000000000F70100085F
:1001A000000000000000000000000000F70100084F
:1001B000F7010008F7010008F7010008F70100083F
:1001C000F7010008DFF810D000F050F900480047B0
:1001D000C1370008AFF3008038050020064880478B
:1001E00006480047FEE7FEE7FEE7FEE7FEE7FEE71C
:1001F000FEE7FEE7FEE7FEE795230008C5010008DD
:100200002DE9F05F0546002092469B46884606464B
:10021000814640241BE0284641464746224600F0DE
:1002200067F853465A46C01A914110D311461846F2
:10023000224600F04EF82D1A67EB01084F46224681
:100240000120002100F045F817EB00094E41201E67
:10025000A4F10104DFDC484631462A464346BDE8A6
:10026000F09FD2B201E000F8012B491EFBD270478B
:100270000022F6E710B513460A4604461946FFF772
:10028000F0FF204610BD0EB540F23341029100212F
:10029000CDE900110A460B4600F049F803B000BD55
:1002A000C1F30A5210B5C1F3130140F2FF3341F418
:1002B00080119A4201DA002010BD40F233439A4285
:1002C000A2F2334203DC524200F012F810BD90401B
:1002D00010BD202A04DB203A00FA02F1002070470A
:1002E0009140C2F1200320FA03F319439040704774
:1002F000202A04DB203A21FA02F00021704721FA7B
:1003000002F3D040C2F120029140084319467047E1
:1003100010B5141E73F1000408DA401C41F100010D
:1003200092185B411A4301D120F0010010BD2DE964
:10033000F04D92469B4611B1B1FA81F202E0B0FA5B
:1003400080F220329046FFF7C4FF04460F4640EA91
:100350000A0041EA0B0153465A46084313D011469E
:1003600053EA010019D0C8F140025046FFF7C0FF20
:1003700005460E46504659464246FFF7AAFF084337
:1003800005D0012004E020463946BDE8F08D00206C
:10039000054346EAE0762C4337430A986305E40AAE
:1003A000A0EB08000022FD0A44EA47540A3002D5B7
:1003B00000200146E9E7010510196941DDE908451A
:1003C00000196941BDE8F04DA2E72DE9F04D002389
:1003D0001A461B1A8A4103DB00200146BDE8F08D56
:1003E000C1F30A52C1F3130141F480154FF0000B21
:1003F000D10702D100186D41521E0027044640F279
:10040000FF11384601EB620A3E4680460246002054
:100410004FF48011FFF76CFFC2197141BB1846EB16
:100420000100B4EB030C75EB000C04D3E41A65EB8C
:10043000000517460E46241908F101006D4180465B
:100440003428E3DDF91946EB0600091BA84103D265
:100450004FF0FF32134601E0002213461BEB07006A
:1004600046EB0A51BDE8F04DFFF752BF064C074D71
:1004700006E0E06840F0010394E807009847103474
:10048000AC42F6D3FFF7A2FE645F0008845F000869
:10049000FEE7704700F0DEBA00E0401E0028FCDCFA
:1004A000704772B6FEE700002DE9F84F81462C48F0
:1004B0001E46884603884B454FD3418841454CD35F
:1004C000B088410700D0012101EBD000203A10FB99
:1004D00002F0F1884FF0800A484331684FF0010B79
:1004E0000F18002536E000242BE00A9804F00702DC
:1004F000A0F57F41FF3939782AFA02F001EA0001BC
:1005000001D009B90BE0B1B108EB050081B209EBEC
:10051000040080B20123CDF800B00B9A09E008EB8B
:10052000050081B209EB0400CDF800B080B20123D0
:100530000A9A00F0FDF9E043400700D17F1C641CDB
:10054000A4B2B088A042D0D83079400700D07F1C38
:100550006D1CADB2F088A842C5D8BDE8F88F000088
:100560002C0000202DE9FF4FADF5037D8846DDE925
:1005700090BA814600244FF48077154626463946C6
:1005800042A8FFF775FE394602A8FFF771FE16482C
:1005900042AA03884B4523D3438802A843451FD36F
:1005A0000A219DB195FBF1F301FB135395FBF1F586
:1005B00030330355641C24B2F3E7031913F8013CEC
:1005C0008B55761C641E36B224B200E01146002C16
:1005D000F3DCCDE900BA41464846869B00F006F8B8
:1005E0000DF5077DBDE8F08F2C0000202DE9FC5FA4
:1005F0008046194889460D4601884446DDF834B0E6
:100600001E461746A14225D341888246A94221D3DE
:100610001DE0B088BAF800300119994203D9F18879
:10062000444629448DB2F188BAF802002944814237
:1006300001D944464D460C99CDE9001B3346294665
:100640002046FFF731FFB0887F1C204484B23A78FF
:10065000002ADED1BDE8FC9F2C0000202DE9FF4FD1
:100660008046814885B00F460488129944457BD363
:100670004088B84278D903200024A0EB420015B28C
:100680000FFA80FA01297BD0EAE0264661E000BF3C
:100690004FF0010908EB040007EB060B02901FFA6C
:1006A0008BF1CDF8009080B24B46089A00F040F9EB
:1006B000A8EB040004901FFA8BF1CDF8009080B2F3
:1006C0000123089A00F034F93819CDE9009081B27D
:1006D000A8EB060B1FFA8BF00123089A00F028F90B
:1006E000381B039081B2CDF800901FFA8BF00123E4
:1006F000089A00F01DF90498A7EB060B1FFA8BF17E
:10070000CDF8009080B20123089A00F011F9029808
:100710001FFA8BF1CDF8009080B20123089A00F007
:1007200007F9039808EB060B81B2CDF800901FFA89
:100730008BF00123089A00F0FBF80198CDF80090A7
:1007400081B21FFA8BF00123089A00F0F1F8761CB1
:1007500036B2AE429CDDBAF1000F07DA0AEB840034
:10076000801D0FFA80FA09E00CE009E0611B0AEB3A
:1007700081000A306D1E0FFA80FA2DB2641C24B27B
:10078000AC4282DD09B0BDE8F08F08EB0400012621
:1007900007EB050902901FFA89F1009680B2139BBE
:1007A000089A00F0C5F8A8EB040003901FFA89F13D
:1007B000009680B2139B089A00F0BAF83819CDE978
:1007C000006081B2A8EB05091FFA89F0139B089A13
:1007D00000F0AEF8A7EB040B1FFA8BF11FFA89F0BB
:1007E0000096139B089A00F0A3F80398A7EB05095D
:1007F0001FFA89F1009680B2139B089A00F098F8CE
:1008000002981FFA89F1009680B2139B089A00F0B3
:100810008FF808EB05091FFA8BF11FFA89F0009693
:10082000139B089A00F084F80198009681B21FFA91
:1008300089F0139B089A00F07BF8BAF1000F05DAF3
:100840000AEB8400801D0FFA80FA07E0611B0AEBB7
:1008500081000A306D1E0FFA80FA2DB2641C24B29A
:10086000AC4292DD8EE700002C0000202DE9FE4F07
:100870001C462E4B15461A88824254D35B888B4205
:1008800051D3AA424FD3A3424DD383468A462A1A54
:1008900000D5421B9146621A002A00DD0A1B9046D1
:1008A0004FF0FF32AB4501D2012000E0104602902C
:1008B000A24500D2012209EB0806002701927F1C05
:1008C0000D987FB2012805D1032097FBF0F100FBC2
:1008D0001170E8B101200090514658460E9B0C9AC9
:1008E00000F026F8B8EB460F06DCAB451BD00298AB
:1008F000464458441FFA80FBB9EB460FDFDBA245A4
:1009000011D001994E440AEB01001FFA80FAD6E794
:10091000012000904FF6FF72514658460E9B00F0A2
:1009200007F80027DEE7BDE8FE8F00002C0000205E
:100930002DE9F05F814621481C46884603880A99C4
:1009400093464B4521D3428842451ED301294FF09F
:1009500000062FD1881E00EB440714E009EB0600C7
:100960000025A0EB040A0AE008EB0500001B81B299
:100970001FFA8AF05A4601F0E5FA6D1CADB2AF429B
:10098000F2DC761CB6B2B742E8DCBDE8F09F002589
:1009900009EB06077F1E09E008EB0500401E81B247
:1009A000B8B25A4601F0CEFA6D1CADB2A542F3D3EF
:1009B000761CB6B2A642EAD3E7E700002C0000207E
:1009C0002DE9FE4F8846224917468146DDE90C4253
:1009D00008880E9D1E46484510D349884346414528
:1009E0000CD3B8420AD3B14208D3184642B10146EB
:1009F00033463A464846009401F014FABDE8FE8FAB
:100A00004FF0000ACDE9004A43463A4619464846A7
:100A10000295FFF72BFFCDE9004A4A46334641468F
:100A200010460295FFF722FFCDE9004A3A464346B9
:100A3000314610460295FFF719FFCDE9004A3346CB
:100A40004A46194638460295FFF710FFD6E70000E0
:100A50002C00002070B5044600F006F90546601C25
:100A600002D004480078044400F0FEF8401BA04285
:100A7000FAD370BD180000202DE9F84FDFF8ACA1C3
:100A8000002201240AF1040B03254FF00F090BF19A
:100A9000040E00BF0B6804FA02F63340B34272D171
:100AA0000F7907F00307012F01D0022F16D18768B5
:100AB0004FEA420805FA08FC27EA0C07D1F80CC0F7
:100AC0000CFA08FC4CEA070CC0F808C04768B743AA
:100AD0000E79C6F3001696403E4346600E79F64303
:100AE000B6070AD0C6684FEA420C05FA0CF7BE43B7
:100AF0008F6807FA0CF73743C7600E7906F00306D4
:100B0000022E10D1D60800EB8608D8F820605707CF
:100B10004FEAD76C09FA0CF7BE430F6907FA0CF7D6
:100B20003743C8F8207006684FEA420C05FA0CF704
:100B3000BE430F7907F0030707FA0CF73743076046
:100B40004E68F6006BD53A4E376847F480473760F9
:100B5000366822F0030706F480460096354E07EB10
:100B6000060CDCF8086897074FEA177809FA08F7C7
:100B7000BE43314FB84201D100271FE02F4FB8428A
:100B800002D101271AE04AE02D4FB84201D10227D5
:100B900014E02C4FB84201D103270FE02A4FB8428E
:100BA00001D104270AE0294FB84201D1052705E009
:100BB000274FB84201D1062700E0072707FA08F7B8
:100BC0003743CCF80878DAF800605746D1F804C00B
:100BD0009E435FEACC3C00D51E433E60DBF80060DC
:100BE0005F46D1F804C09E435FEA8C3C00D51E43AB
:100BF0003E60DEF800607746D1F804C09E435FEAAD
:100C0000CC2C00D51E433E60084F0C373E68D1F80F
:100C100004C09E435FEA8C2C00D51E433E60521CEC
:100C2000102AFFF437AFBDE8F88F0000003C014008
:100C300044380240003001400000024000040240FD
:100C400000080240000C0240001002400014024064
:100C5000001802400069084000D0012070470AB126
:100C6000816170470904FBE7014880687047000014
:100C700018000020024881680278114481607047A2
:100C8000180000200B4810B5016841F400710160A4
:100C9000016841F480610160016841F48071016084
:100CA000032000F063F8002000F006F800F024F8BC
:100CB000002010BD003C024070B50D4D04464FF4BD
:100CC0007A712878B1FBF0F00A490968B1FBF0F0BD
:100CD00000F064FD48B9102C07D200222146501EB6
:100CE00000F024F800206C6070BD012070BD000091
:100CF00018000020240000200B4882B0016841F455
:100D000080410160006800F4804000900648001FA8
:100D1000016841F080510160006800F0805000904F
:100D2000072002B000F022B844380240F0B40E4B65
:100D30001B680C46C3F30223C3F10705042D00D939
:100D40000425191D072901D2002300E0DB1E01261E
:100D500006FA05F1491E214099409E40761E164034
:100D60003143F0BC02F0CABC0CED00E0064900F0D3
:100D7000070208684FF6FF03184040EA0220034AC2
:100D800010430860704700000CED00E00000FA0519
:100D90002DE9F0470E46050065D0DFF81481D8F83C
:100DA0000000F7B200F00F00B04207D288F80070E0
:100DB000D8F8000000F00F00B04254D128683D4C34
:100DC000810712D5400703D5206840F4E050206029
:100DD0002878000703D5206840F460402060206830
:100DE000A96820F0F000084320602878C0072DD0C3
:100DF000304968680839012812D0022813D0032826
:100E000011D00968890700292DDA216821F0030132
:100E100001432160FFF728FF814641F2883A0EE046
:100E200009688903EFE709688901ECE7FFF71CFF10
:100E3000A0EB0901514502D90320BDE8F0872068E5
:100E4000696800F00C00B0EB810FEFD1D8F800100A
:100E5000404601F00F01B14207D90770006800F069
:100E60000F00B04201D00120E7E72878400705D500
:100E70002068E96820F4E0500843206028780007E3
:100E800006D52068296920F4604040EAC10020604E
:100E900000F038F82168084AC1F30311515CC840DA
:100EA0000649086006480068FFF706FF0020C4E70F
:100EB000003C0240083802408E5E000824000020FA
:100EC0001C0000200448054900680968044AC1F371
:100ED0008221515CC840704724000020083802403D
:100EE0009E5E00080448054900680968044AC1F389
:100EF0004231515CC840704724000020083802404D
:100F00009E5E0008224810B5006810F00C022148CF
:100F100015D04110042A11D01D4C241F082A0FD0CF
:100F20000C2A0CD12268236802F03F025B0221D513
:100F30002068C0F38810A0FB010120E0084610BD26
:100F40002268236802F03F025B0205D52068C0F3E7
:100F50008810A0FB010104E02168C1F38811A1FB06
:100F600000010023FFF74CF92168C1F30141491C3E
:100F700049000AE02168C1F38811A1FB00010023A8
:100F8000FFF73EF92168C1F30271B0FBF1F010BD2B
:100F9000083802400024F4002DE9F84F04007DD009
:100FA000DFF878B32078ABF10407C007A7F1040598
:100FB00050D0DBF800105846C1F3810101290FD051
:100FC0000168C1F38101022902D13968490207D4BD
:100FD0000068C0F38100032809D13868400206D5B3
:100FE0002868800336D560680028D8D032E0606871
:100FF000B0F5803F10D0B0F5A02F286810D020F4B5
:1010000080302860286820F4802028606068A0B1C3
:10101000FFF72AFE06460CE0286840F48030F4E72B
:1010200040F480202860F7E7FFF71EFE801B64284D
:1010300076D828688003F7D50CE0FFF715FE064642
:1010400005E000BFFFF710FE801B6428F0D8286879
:101050008003F7D42078DFF8C89280074FF0000AA9
:1010600044D5DBF80010584611F00C0F0FD0016882
:10107000C1F38101022902D13968490207D500680C
:10108000C0F3810003280AD13868400207D42868D9
:10109000800715D5E068012800D111E03AE1E06849
:1010A000B0B10120C9F80000FFF7DEFD064604E0FC
:1010B000FFF7DAFD801B0228BAD828688007F7D529
:1010C0002868216920F0F80040EAC10028600DE09E
:1010D000C9F800A0FFF7C8FD064604E0FFF7C4FD0D
:1010E000801B02281CD828688007F7D420780007C6
:1010F00027D5DFF828828B48616908F16C0881B137
:1011000001210160FFF7B0FD064604E0FFF7ACFDEA
:10111000801B022804D8D8F800008007F6D510E01C
:1011200089E0C0F800A0FFF79FFD064605E000BF7C
:10113000FFF79AFD801B02287DD8D8F800008007B1
:10114000F6D42078400769D574484FF0000838304D
:101150000068C0000BD471483830016841F08051FC
:10116000016000684FF0010800F0805000906E4E62
:101170003068C00511D4306840F480703060FFF7EB
:1011800073FD009006E000BFFFF76EFD0099401A66
:10119000022850D83068C005F6D5604EA068683681
:1011A00001280FD00528306810D020F001003060F1
:1011B000306820F004003060A068B8B1FFF754FD3B
:1011C00000900FE0306840F00100F4E740F00400C8
:1011D0003060F7E7FFF748FD0099411A41F2883087
:1011E000814264D830688007F4D50EE0FFF73CFDFB
:1011F000009007E0FFF738FD0099411A41F288306E
:10120000814254D830688007F4D4B8F1000F05D07B
:1012100042483830016821F080510160A069A8B3CC
:10122000DBF80010C1F38101022947D00228C9F878
:1012300060A005D000E03AE0FFF716FD044639E073
:10124000FFF712FD064604E0FFF70EFD801B0228A3
:101250002DD828688001F7D4F4E907010843E16834
:10126000324A490802EB0141A26841EA821108436F
:10127000217C40EA0160217D40EA01703860012054
:10128000C9F86000FFF7F0FC044606E044E000BF48
:10129000FFF7EAFC001B022809D828688001F7D56F
:1012A0003AE000BFFFF7E0FC001B022802D9032050
:1012B000BDE8F88F28688001F4D42DE00128F7D02C
:1012C0003868E26900F48001914223D1226A00F07B
:1012D0003F0191421ED147F6C071626A0140B1EBF5
:1012E000821F17D1A26A4FF0FF3300F4403103EBA5
:1012F0005202B1EB024F0DD194F82C2000F0706136
:10130000B1EB026F06D194F8301000F0E040B0EB82
:10131000017F01D00120CBE70020C9E70838024057
:1013200000004742800E4742007000400000FFFF6F
:1013300070B5040009D0606A002540B1256165617F
:10134000A56294F8510040B10CE0012070BD6068C6
:10135000B0F5827FF4D0E561F2E784F85050204682
:1013600000F044F8022084F851002068016821F060
:1013700040010160A088218900F4827001F40441D9
:101380000843A18901F400610843217C01F00201B6
:101390000843217D01F001010843218B01F4007114
:1013A0000843217F01F03801084394F8201001F030
:1013B00080010843218D01F4005108432168086031
:1013C000A069042101EA104094F8241001F01001F2
:1013D0000843216848602068C16921F40061C16147
:1013E0006565012084F85100002070BD10B586B0FD
:1013F000044614216846FEF73BFF134920688842E3
:1014000020D112480021026842F480520260006834
:1014100000F4805005900D481438026842F0010233
:101420000260006800F001000590E02000900220BA
:10143000CDE901010320039005200490694604488A
:10144000FFF71AFB06B010BD0030014044380240DF
:10145000000002402DE9F84F044690F850000027A4
:101460001D461646894601280DD04FF0010B84F821
:1014700050B0FFF7F9FB804694F85100BA460128B6
:1014800004D0022793E00220BDE8F88FB9F1000FE5
:1014900073D0002E71D0032084F85100C4F854A0FA
:1014A000C4F83090A686E686C4F838A0A4F83CA01C
:1014B000A4F83EA0C4F844A0C4F840A0A068B0F5C9
:1014C000004F09D12068016821F0400101602068C7
:1014D000016841F48041016020680168490603D435
:1014E000016841F040010160E068B0F5006F60689C
:1014F00003D030B3012E24D041E008B1012E1CD11D
:10150000206B21680088C86006E020688168890730
:1015100009D5216B0988C160206B801C2063E08E97
:10152000401EE08609E0FFF79FFBA0EB0800A84201
:1015300002D3681C01D031E07DB3E08E0028E4D1F5
:1015400020E0206B21680078087306E0206881683D
:10155000890709D5216B09780173206B401C206332
:10156000E08E401EE0860AE0FFF77EFBA0EB08005D
:10157000A84203D3681C02D010E017E06DB1E08EE2
:101580000028E3D142462946204600F077FE08B104
:1015900020206065A06818B106E0FFE7032706E099
:1015A0002068C16880680090606D00B1012784F8F0
:1015B00051B084F850A0384666E72DE9F84F04464C
:1015C00090F8500000270A9E1D4692468B464FF029
:1015D000010901280ED0012084F85000FFF744FBD8
:1015E000804694F85100616801280CD0B1F5827FE3
:1015F00007D102E00220BDE8F88FA16809B90428EC
:1016000001D00227C2E0BBF1000F27D0BAF1000FD2
:1016100024D01DB394F85100042802D0052084F88A
:10162000510000206065C4F838A0E587A587C4F89C
:1016300030B0E586A58620646064206801684906AC
:1016400003D4016841F040010160E068B0F5006F2B
:10165000606805D0E8B3012D46D07FE0012795E012
:1016600008B1012D39D1206B21680088C860206B3A
:10167000801C2063E08E401EE0862EE0206881689A
:1016800089070FD5E18E69B1B9F1010F0AD1216B3C
:101690000988C160206B801C2063E08E401EE086BC
:1016A0004FF0000920688168C9070CD0E18F51B163
:1016B000C068A16B0880A06B801CA063E08F401EF7
:1016C000E0874FF00109FFF7CFFAA0EB0800B04226
:1016D00000E009E001D3701C50D1E08E0028CDD18C
:1016E000E08F0028CAD13FE0206B216800780873A2
:1016F000206B401C2063E08E401EE0862EE02068B8
:10170000816889070FD5E18E69B1B9F1010F0AD15E
:10171000216B09780173206B401C2063E08E401E12
:10172000E0864FF0000920688168C9070CD0E18F7E
:1017300051B1C068A16B0870A06B401CA063E08F22
:10174000401EE0874FF00109FFF78EFAA0EB08007A
:10175000B04202D3701C01D010E07EB1E08E0028B0
:10176000CDD1E08F0028CAD142463146204600F054
:1017700085FD28B101272020606507E0032705E0EB
:10178000A06818B92068C16880680090012084F8BA
:101790005100002084F8500038462CE710B5401E58
:1017A000B0F1807F01D3012010BD4FF0E0246061D3
:1017B0000F21601701F0A2FF0020A0610720206127
:1017C000002010BD70B590F83C20012A32D00124D1
:1017D00080F83C40022280F83D2003685A689D68EA
:1017E00022F070060A6832435A60134B02689A422C
:1017F00014D0B2F1804F11D0104B9A420ED0104B42
:101800009A420BD00F4B9A4208D00F4B9A4205D008
:101810000E4B9A4202D00E4B9A4204D1496825F0F1
:1018200080031943916080F83D40002180F83C100E
:10183000084670BD022070BD000001400004004059
:1018400000080040000C004000040140004001403E
:101850000018004010B586B0044614216846FEF713
:1018600007FD0D492068884214D10C480021026808
:1018700042F004020260006800F00400059080203D
:1018800000900220CDE90101CDE90310694604482A
:10189000FFF7F2F806B010BD0004004030380240F7
:1018A0000008024070B5044690F83C000D4601283F
:1018B0000AD0012084F83C0042B1042A18D0082A3A
:1018C0002AD00C2A4DD139E0022070BD206800F0EA
:1018D000E1FD2068816941F008018161206881692A
:1018E00021F004018161206881692A69114311E0B6
:1018F000206800F0FFFD2068816941F4006181618A
:101900002068816921F480618161206881692A6988
:1019100041EA0221816124E0206800F021FE206874
:10192000C16941F00801C1612068C16921F0040169
:10193000C1612068C1692A69114311E0206800F083
:1019400043FE2068C16941F40061C1612068C1693A
:1019500021F48061C1612068C1692A6941EA0221DC
:10196000C161002084F83C0070BD10B5040003D0B4
:1019700094F83D0010B107E0012010BD002084F86C
:101980003C00204600F01EF8022084F83D00211D96
:10199000206800F00DFD012084F8460084F83E0028
:1019A00084F83F0084F8400084F8410084F8420045
:1019B00084F8430084F8440084F8450084F83D002E
:1019C000002010BD08B500680649884208D10648C5
:1019D000016841F002010160006800F0020000901F
:1019E00008BD0000000400404038024010B5044625
:1019F000022249B104290ED0082913D094F84100DD
:101A0000012816D0012010BD94F83E000128F9D11C
:101A100084F83E200FE094F83F000128F2D184F8CA
:101A20003F2008E094F840000128EBD184F84020E2
:101A300001E084F841200122206800F01DFD1649D4
:101A40002068164A884201D0904203D1436C43F487
:101A5000004343642068884213D0B0F1804F10D017
:101A60000F4988420DD00F4988420AD00E4988425A
:101A700007D0904205D00D49884202D00C498842D7
:101A800004D1816801F00701062903D0016841F003
:101A900001010160002010BD000001400004014070
:101AA0000004004000080040000C004000400140DD
:101AB0000018004070B5040004D094F83D000025E3
:101AC00010B106E0012070BD84F83C50204600F0C3
:101AD00023F8242084F83D002068C16821F40051D7
:101AE000C160204601F036FD2068016921F4904173
:101AF00001612068416921F02A0141612068C168C3
:101B000041F40051C1602564202084F83D0084F830
:101B10003E00002070BD000010B586B004461421C0
:101B20006846FEF7A5FB13492068884220D1124879
:101B30000021026842F400320260006800F40030C4
:101B400005900D481038026842F0010202600068FA
:101B500000F0010005900C2000900220CDE9010169
:101B6000032003900720049069460448FEF784FF91
:101B700006B010BD00440040403802400000024062
:101B8000FEE7000008B50021009003484388028862
:101B9000084600F047F908BD2C0000202DE9F0416F
:101BA00001221B4E0C468046550229463046FFF75F
:101BB00056F84FF4FA773846FEF76CFC00222946B7
:101BC0003046FFF74CF83846FEF764FC0122294600
:101BD0003046FFF744F83846FEF75CFC7800844254
:101BE00000D90446204600F011FB00F013F84046EF
:101BF00000F05EF9C820FEF74DFC112000F004FA59
:101C00007820FEF747FCBDE8F041292000F0FCB940
:101C10000000024010B5F92000F0F6F9002000F0B5
:101C2000D5F9082000F0D2F9C02000F0EDF9192014
:101C300000F0CCF91A2000F0C9F9C12000F0E4F955
:101C4000452000F0C3F9002000F0C0F9C22000F0E8
:101C5000DBF9332000F0BAF9C52000F0D5F90020F7
:101C600000F0B4F9282000F0B1F9B12000F0CCF96F
:101C7000A02000F0ABF9112000F0A8F9B42000F08A
:101C8000C3F9022000F0A2F9B62000F0BDF900204F
:101C900000F09CF9422000F099F93B2000F096F901
:101CA000B72000F0B1F9072000F090F9E02000F033
:101CB000ABF91F2000F08AF9252000F087F92220D7
:101CC00000F084F90B2000F081F9062000F07EF985
:101CD0000A2000F07BF94E2000F078F9C62000F0D1
:101CE00075F9392000F072F9002000F06FF900203A
:101CF00000F06CF9002000F069F9002000F066F9AE
:101D0000002000F063F9002000F060F9E12000F00D
:101D10007BF91F2000F05AF93F2000F057F93F20CF
:101D200000F054F90F2000F051F91F2000F04EF997
:101D30000F2000F04BF9462000F048F9492000F050
:101D400045F9312000F042F9052000F03FF9092063
:101D500000F03CF9032000F039F91C2000F036F9BE
:101D60001A2000F033F9002000F030F9F12000F0E3
:101D70004BF9362000F02AF9042000F027F9002062
:101D800000F024F93C2000F021F90F2000F01EF9AA
:101D90000F2000F01BF9A42000F018F9022000F039
:101DA00015F9F22000F030F9182000F00FF9A32007
:101DB00000F00CF9122000F009F9022000F006F9F9
:101DC000322000F003F9122000F000F9FF2000F0AB
:101DD000FDF8322000F0FAF8002000F0F7F8F420C7
:101DE00000F012F9402000F0F1F8002000F0EEF8C9
:101DF000082000F0EBF8912000F0E8F8042000F053
:101E0000E5F8F82000F000F9212000F0DFF80420C8
:101E100000F0DCF83A2000F0F7F8BDE8104055205B
:101E200000F0D4B82DE9F0410746DDF818801C46D3
:101E300015460E46BA420CD9B4420AD900F098F8B9
:101E4000A01B82B2E81B81B24046BDE8F04100F021
:101E500003B8BDE8F08100002DE9F04101FB02F676
:101E60000446012211020E48FEF7F9FEDFF8348025
:101E7000002240214046FEF7F2FE0025270A06E038
:101E8000384600F0EFF9E0B200F0ECF96D1CB54215
:101E9000F6D34046BDE8F04101224021FEF7DFBE07
:101EA00000000240000402400B46024600F060B809
:101EB00070B5002522492C464FF4A0724FF4F07300
:101EC00008281FD2DFE800F004070A0D1114181BC0
:101ED0000825222407E00825622404E008250224BE
:101EE00001E008254224087127E02825222401E08A
:101EF0002825022408710DE028256224FAE7282508
:101F00004224F7E70871C0B1012816D0022814D086
:101F1000032812D00B804A80B62000F075F800200C
:101F200000F054F8204600F051F8362000F06CF82C
:101F30002846BDE8704000F049B80A804B80EBE7C6
:101F40002C00002010B5094B14461A8882420BD38E
:101F50005A888A4208D3FFF7A7FF20460122BDE82E
:101F600010401146FFF778BF10BD00002C00002084
:101F70002DE9F04107461D4614460E462A2000F082
:101F800043F8380A00F022F8F8B200F01FF8641E97
:101F9000C4F3072000F01AF8E0B200F017F82B2085
:101FA00000F032F8300A00F011F8F0B200F00EF84C
:101FB0006D1EC5F3072000F009F8E8B200F006F83E
:101FC000BDE8F0412C2000F01FB8000070B50546B8
:101FD000012211020A48FEF742FE0A4C002240216B
:101FE0002046FEF73CFE002000F03CF9284600F0B9
:101FF00039F92046BDE8704001224021FEF72FBE8E
:10200000000002400004024070B5054600224FF473
:1020100080710948FEF723FE084C0022402120462B
:10202000FEF71DFE284600F01DF92046BDE8704071
:1020300001224021FEF713BE0000024000040240CE
:102040002DE9F04186B014216846FEF711F92C48BD
:102050000024016841F004010160016801F00401FD
:102060000591016841F080010160016801F0800183
:102070000591016841F001010160016801F0010171
:102080000591016841F0020101600068DFF8748089
:1020900000F002004FF48C6505900022294640466E
:1020A000FEF7DDFD184F4FF44076002231463846EA
:1020B000FEF7D5FD4FF4005000901448CDE901041F
:1020C00069461348FEF7D8FC00950125CDE9015477
:1020D000694640460394FEF7CFFC0096CDE90154D3
:1020E000694638460394FEF7C7FC0820CDE9000492
:1020F000694640460294FEF7BFFC06B0BDE8F08199
:10210000303802400004024000000240000021106C
:1021100000080240104810B50E4901604FF482716A
:10212000416000218160C1604FF400720161C0E92B
:1021300005120822C0E90721416281620A21C162B9
:10214000FFF7F6F8002803D0BDE81040FEF7A9B964
:1021500010BD0000003001405400002010B58AB0CE
:10216000002407941C2168460894FEF781F817485C
:102170001549016040F20771C0E9011440F2E731EE
:10218000C0E903148461FFF7F0FB08B1FEF789F999
:10219000079407A90D480894FFF714FB08B1FEF750
:1021A00080F96020CDE900040294042269460748C2
:1021B0000494FFF777FB08B1FEF773F90348FFF7C4
:1021C00049FB0AB010BD000000040040AC00002034
:1021D0000C4810B50A4901604FF4E131416000211B
:1021E00081600C22C160C0E904128161C161FFF706
:1021F00061FC002803D0BDE81040FEF752B910BDC5
:1022000000440040F4000020FEE7FEE700B587B080
:102210006021CDE90010002002900490042269465C
:102220000448FFF73FFB04210248FFF7DFFB07B03C
:1022300000BD0000AC0000207047000001B582B076
:1022400000208DF804004FF47A700090012301AA59
:1022500002A90348FFF7B1F99DF804000EBD000084
:102260005400002001B54FF47A73012269460248F8
:10227000FFF7F0F808BD00005400002038B5044610
:102280001248134B0068B0FBF3F04FF47A735843D5
:1022900000906068B0F5827F0DD10B46009200225D
:1022A0008021204600F016F870B1606D40F02000EB
:1022B0006065032038BD009830B1401E0090206852
:1022C0008068C0430006F6D5002038BD24000020F9
:1022D00000366E012DE9F8431E46914688460446B5
:1022E000089DFEF7C1FC401B351AFEF7BDFC0746F2
:1022F00025480068C0F3CB30684338E0701C37D005
:10230000FEF7B2FCC01BA84203D215B1009860B31F
:102310002CE02068416821F0E00141606068B0F580
:10232000827F0BD1A068B0F5004F02D0B0F5806F6E
:1023300004D12068016821F040010160A06AB0F575
:10234000005F09D12068016821F400510160206814
:10235000016841F400510160012084F8510000201F
:1023600084F850000320BDE8F8830025401E00904B
:102370002068816838EA010004D000214945BDD1B8
:102380000020F0E70121F9E7240000207047FEF764
:1023900071BC00000548016841F470010160034907
:1023A0004FF00060803908607047000088ED00E061
:1023B000F0B50268254C264D264E274F274B4FF08F
:1023C000804CA04209D0604507D0A84205D0B04259
:1023D00003D0B84201D0984204D122F0700E4A686E
:1023E00042EA0E02A0421BD0604519D0A84217D085
:1023F000B04215D0B84213D0984211D0184DA8421F
:102400000ED0184DA8420BD0174DA84208D0174D3A
:10241000A84205D0164DA84202D0164DA84203D1BD
:1024200022F44075CA682A434D6922F080022A438B
:1024300002608A68C2620A688262A04201D0984241
:1024400001D10969016301214161F0BD0000014032
:102450000004004000080040000C0040000401405F
:102460000040014000440140004801400018004085
:10247000001C00400020004010B501F01F030121A6
:10248000046A99408C430462016A9A4011430162D4
:1024900010BD0000F0B5026A22F001020262036A78
:1024A00042688469124E24F073050C682C4323F0B3
:1024B00002058B682B430D4DA84201D0B04205D1D7
:1024C00023F00807CB683B4323F00403A84201D064
:1024D000B04205D14D6922F4407215438A692A43FE
:1024E00042608461496841630362F0BD00000140BD
:1024F00000040140F0B5026A22F010020262026A92
:10250000436884690D6824F4E64444EA05248D6830
:1025100022F0200242EA05120F4D104EA84201D0CF
:10252000B04206D1CF6822F0800242EA071222F0C0
:102530004002A84201D0B04207D14D6923F4406364
:1025400043EA85038D6943EA8503436084614968F2
:1025500081630262F0BD0000000001400004014000
:10256000F0B5026A22F480720262026A4368C469AA
:1025700022F4007224F073050C68124E2C438D680F
:1025800042EA05220E4DA84201D0B04206D1CF68E2
:1025900022F4006242EA072222F48062A84201D0BB
:1025A000B04207D14D6923F4405343EA05138D69C6
:1025B00043EA05134360C4614968C1630262F0BD28
:1025C000000001400004014030B5026A22F480524C
:1025D0000262046A4268C3690D6823F4E64343EA71
:1025E00005238D6824F4005444EA0534084DA842BC
:1025F00002D0084DA84204D14D6922F4804242EA3B
:1026000085124260C36149680164046230BD000004
:1026100000000140000401402DE9F04F00262DED9F
:10262000028B89B0DFEDFE8A4FF6FF7845464046C3
:10263000FFF7A8FA4FF47849CDE900594C46F94B19
:10264000F94A3C210020FDF7D1FF0C2529462246FE
:10265000084600F079FCF54F0020DFF8D4B338725B
:102660004FF0010A9FEDF38AF34C012000F0C2FD08
:10267000387ABAEB901FF8D120F04000387205A8E4
:10268000B98820F8261000EB8600F9884180761C76
:10269000F6B2C820FDF7FEFE012E1DD0022E26D078
:1026A000032E36D0042E43D060880026401B81B212
:1026B00020884246401B80B200F046FC29464A462C
:1026C000084600F041FCD74BDCA21A212820CDE9B6
:1026D0000089FDF78BFFC8E729464246084600F00F
:1026E00033FC20884A46401B80B229460BE02088F4
:1026F0004246401B80B2294600F026FC60884A46CC
:10270000401B81B2284600F01FFCC820FDF7C2FE26
:10271000ABE760884246401B81B2284600F014FCBB
:1027200060884A46401B81B22088401B80B2EAE79D
:10273000BDF81400BDF81810401A00B2002800DAE5
:102740004042BDF81610BDF81A20891A09B20029B6
:1027500000DA4942404301FB0100FDF794FD41ECE2
:10276000100B00F0DBFF51EC100BFDF799FD80B270
:102770000090BDF81C00BDF82010401A01B20029DD
:1027800000DA4942BDF81E00BDF82220801A00B2CE
:10279000002800DA4042494340430844FDF773FDF6
:1027A00041EC100B00F0BAFF51EC100BFDF778FD77
:1027B00081B200985E4600EE100AF8EE400A00EE84
:1027C000101AB8EE401A80EE810A10EE100AB042DC
:1027D0007EDD10EE100A9E4A904279DC00980028B7
:1027E00076D00029FCD0BDF81400BDF81C10401AAA
:1027F00001B2002900DA4942BDF81600BDF81E20DA
:10280000801A00B2002800DA40424943404308449D
:10281000FDF739FD41EC100B00F080FF51EC100B7F
:10282000FDF73EFD80B20090BDF81800BDF8201005
:10283000401A01B2002900DA4942BDF81A00BDF879
:102840002220801A00B2002800DA40424943404367
:102850000844FDF718FD41EC100B00F05FFF51EC50
:10286000100BFDF71DFD009980B200EE101AB34663
:10287000F8EE400A00EE100AB8EE401A80EE810A27
:1028800010EE100A584504DD10EE100A7049884217
:1028900034DD20EE080ABDF82210BDF82030BDF866
:1028A0001E20BCEEC00A002610EE100A80B2CDE950
:1028B0000310CDE9012300BFBDF81C000090BDF856
:1028C0001A30BDF81820BDF81610BDF8140000E04D
:1028D00067E000F071FD4FF47A70FDF7DBFD608872
:1028E0004246401B81B22088401B80B200F02CFB86
:1028F00029464A46084600F027FBB6E6BDF8180010
:10290000BDF81C10401A01B2002900DA4942BDF896
:102910001A00BDF81E20801A00B2002800DA4042DA
:10292000494340430844FDF7AEFC41EC100B00F076
:10293000F5FE51EC100BFDF7B3FC86B2BDF81400A8
:10294000BDF82010401A01B2002900DA4942BDF852
:102950001600BDF82220801A00B2002800DA40429A
:10296000494340430844FDF78EFC41EC100B00F056
:10297000D5FE51EC100BFDF793FC00EE106A80B20F
:10298000F8EE400A00EE100AB8EE401A80EE810A16
:1029900010EE100A584504DD10EE100A2C4988424A
:1029A00012DD20EE080ABDF81E30BDF8201000260A
:1029B000BCEEC00A019310EE100A82B2BDF82200EC
:1029C0000492CDE9021077E720793876C7ED048AC2
:1029D000B6EE000A032874D0002873D0052872D000
:1029E00021886D4201EB4500BDF81620BDF81A3074
:1029F00000EE900AD01A00B201EE100AF8EEE00ADA
:102A0000B8EEC11AC0EE811AC7ED041A608800EB57
:102A1000450400EE904ABDF81450B8EEE02A19E0E3
:102A20000000000000000020A85E00083800002020
:102A30003333733F0000C8422C0000205450204E16
:102A400065656420726561646A75737421000000B5
:102A50006666863FBDF81C401A442E1B36B200EE57
:102A6000906AF8EEE00A82EE201A00EE902AB8EEA4
:102A7000602A00EE901AF8EE600A41EEC20A87ED75
:102A8000051A60EE800AFDEEE00A10EE901A7981D8
:102A9000291900EE901AF8EE601A00EE900A00BFB5
:102AA000F8EE600A444641EE610A20EE800ABDEE6F
:102AB000C00A10EE100AB8814046FFF763F8704B69
:102AC00002E014E052E096E0CDE900496DA26E21EB
:102AD0002320FDF78BFD4FF47A70FDF7DBFC2046D9
:102AE000FFF750F809B0BDEC028BBDE8F08F2088ED
:102AF0006A4200EB420100EE901ABDF81850BDF892
:102B00001430B8EEE01AE91A09B200EE901A2B441C
:102B1000F8EEE00AC1EE201AC7ED041A6188BDF88C
:102B20001E4001EB420200EE902ABDF81620A61AC4
:102B3000B8EEE02A36B200EE906AF8EEE00A82EED5
:102B4000201A00EE903AB8EE602A00EE900AF8EEF5
:102B5000600A41EEC20A87ED051A60EE800AFDEEBA
:102B6000E00A10EE900A7881A0183DE020886B42C0
:102B700000EB4301BDF81420BDF8185000EE901A88
:102B8000511B09B201EE101AF8EEE00A2A44B8EE21
:102B9000C11AC0EE811AC7ED041A6188BDF816404B
:102BA00001EB430300EE903ABDF81E30E61AB8EE92
:102BB000E02A36B200EE906AF8EEE00A82EE201AC1
:102BC00000EE902AB8EE602A00EE900AF8EE600A55
:102BD00041EEC20A87ED051A60EE800AFDEEE00ABA
:102BE00010EE900A7881E01800EE900AF8EE601A74
:102BF00000EE901A54E72288694202EB410000EE91
:102C0000900ABDF81A50BDF81600B8EEE01A2B1A5B
:102C10001BB200EE903A2844F8EEE00AC1EE201A0A
:102C2000C7ED041A6388BDF8144003EB410100EEC0
:102C3000901ABDF81C100E1B36B201EE106AF8EEA9
:102C4000E00AB8EEC12A80EE821A00EE900AB8EED1
:102C5000602A00EE902AF8EE600A41EEC20A87ED83
:102C6000051A60EE800AFDEEE00A10EE900A788107
:102C7000081900EE900AF8EE601A00EE903A0FE79D
:102C800000000020546F7563682053637265656EA1
:102C90002041646A757374204F4B21002DE9FE4F6B
:102CA0004FF6FF70FEF76EFF4B4D1F26F702288888
:102CB000698801248842CDE900764FF00008A0F130
:102CC0003C00464B4FF4FC694FF6E07A4FF49B7B97
:102CD00080B243A2414642D9FDF788FCCDE9007697
:102CE0002888414B783880B240A20021FDF77EFC55
:102CF000CDE9006402942A884623A2F1320080B212
:102D00001421FDF75DFECDE9009402942A88822308
:102D1000A2F1320080B25021FDF752FECDE90074DD
:102D200002942A88BE23A2F1320080B28C21FDF7E2
:102D300047FECDE900A402942A88FA23A2F13200CA
:102D400080B2C821FDF73CFECDE9008402942A88B8
:102D50005B46A2F1320080B24FF4827137E0FDF79A
:102D600045FCCDE9007628881F4B783880B21FA239
:102D70000021FDF73BFCCDE90064462314211A46EF
:102D800008460294FDF71CFECDE9009446238222FA
:102D9000142150200294FDF713FECDE90074462360
:102DA000BE2214218C200294FDF70AFECDE900A476
:102DB0004623FA221421C8200294FDF701FECDE932
:102DC000008446235A4614214FF482700294FDF782
:102DD000F7FDBDE8FE8F00002C0000200000002061
:102DE000434C4541520000000800002041440000CF
:102DF0002DE9F843002000F0FDF95048007A000664
:102E000031D54F4A4F4C1088238898422BD2518895
:102E1000B4F80280414526D21F250024EF02434525
:102E20004FF4FC664FF6E07C4FF00209A3F13C083A
:102E300044D9404501DD102944D3A3F17808404529
:102E400009DDA3F15008404505DA182903D200BF77
:102E5000FFF7E2FB36E0323B984206DD142904D945
:102E6000462902D29580BDE8F883984205DD5029B5
:102E700003D9822901D29680F5E7984205DD8C2995
:102E800003D9BE2901D29780EDE7984207DDC82912
:102E900005D9FA2903D200BFA2F804C0E3E798429B
:102EA00007DDB1F5827F04D9B1F59B7F01D2948013
:102EB000D9E7CDF80090928801233CE0404505DD3C
:102EC000102903D2BDE8F843FFF7E8BEA3F1780864
:102ED000404504DD503B984201DA1829B8D3A0F1EF
:102EE0001503312B03D2142901D94629BAD3A0F1F5
:102EF0005103312B03D2142901D94629BBD3A0F1A8
:102F00008D03312B03D2142901D94629BBD3A0F15B
:102F1000C903312B03D2142901D94629BCD3A0F20D
:102F20000513312B03D2142901D94629BFD3CDF87B
:102F3000009092880223FDF7FBFC94E73800002004
:102F4000100000202C0000202DE9FE431646054607
:102F50004FF000080C3082B2CDE900680127A5F1DE
:102F60000C000C4680B20B460297FDF77FFC04F183
:102F70000C0083B21838CDE9006881B22A461046A9
:102F80000297FDF773FC022332462146284600973C
:102F9000FDF7CEFCCDE900873346062221462846C0
:102FA000FDF75CFBBDE8FE831CB528486FF01502F9
:102FB000017E062913D0F9B103292BD0052936D07B
:102FC000140C2046FEF7DEFD4FF47840CDE90040BA
:102FD0001F4B204A3C210020FDF708FB1CBD9FED44
:102FE0001E0A4FF4017180ED040A9FED1C0A80ED6A
:102FF000050A418182811CBD9FED190A6FF0140101
:1030000080ED040A9FED170A80ED050A41816FF0FB
:1030100026010AE09FED140A6FF0250180ED040AF5
:103020009FED120A80ED050A428181811CBD9FED52
:10303000100A40F2052180ED040A9FED0E0A80ED92
:10304000050A41816FF01301EFE70000380000200E
:1030500000000020205F0008239F07BE5950B83DA4
:1030600010B3B73DEA060A3E5B25B83DD05F083E87
:10307000831808BE7826B43D10B5044601222021ED
:103080000548FDF7ECFD0548811D0476BDE81040BC
:10309000001D00F069B80000000402403800002064
:1030A00070B5154C06462820E0612046FEF740F931
:1030B000124D002220212846FDF7D1FD3046FFF7B2
:1030C000D1F8C820FDF7E8F9FF20FFF7B7F84FF671
:1030D000FF7101EA0026FF20FFF7B0F83043C60871
:1030E000012220212846FDF7BAFD0820E061204694
:1030F000FEF71EF9304670BD540000200004024067
:10310000FEB5002507462E466C463846FFF7C8FF39
:1031100024F81600C820FDF7BFF9761CF6B2052E7C
:10312000F3D30020411C0B460BE000BF34F8102005
:1031300034F81160B24203D924F8106024F8112049
:10314000491CC9B20529F1D3D8B20428EAD3012019
:1031500034F81010401C2944C0B28DB20428F7D3B3
:103160000320B5FBF0F0FEBD70B505460C46D0203F
:10317000FFF7C6FF28809020FFF7C2FF208070BDB8
:103180007FB50C460546694602A8FFF7EDFF01A989
:1031900003A8FFF7E9FFBDF80C30BDF80820934203
:1031A00003D803F13200824205D39A421FD802F1BC
:1031B000320083421BD2BDF80410BDF800008142EA
:1031C00003D801F13206B04204D388420FD832301E
:1031D00081420CD2D01840082880BDF80000BDF80C
:1031E0000410084440082080012004B070BD002075
:1031F000FBE7000070B5054608216B48FDF72AFD86
:103200006A4C30B1207A010678D520F08000207217
:10321000C6E004F1060104F1040015B1FFF7B0FFA8
:1032200044E0FFF7ADFFE0B3227E6148032A47D0B8
:103230006049BAB3052A7DD00A8894ED041A00EEDD
:10324000102AE28800EE902AB8EE400AB4F90A206B
:10325000F8EE600A01EE600A00EE902AF8EEE00A4D
:1032600030EE600ABCEEC00A10EE102A02804988D7
:1032700094ED051A00EE101AB4F80410B8EE400AE6
:1032800000EE901AB4F90C10F8EE600A01EE600A34
:1032900000EE901AF8EEE00A30EE600ABCEEC00ACA
:1032A00001E003E02BE010EE101A4180207A0006C6
:1032B00076D4C0202072A0882080E08860806FE0F3
:1032C000B4F90A1094ED041A00EE101AA18800EE69
:1032D000901AB8EEC00AF8EE600A01EE200ABCEEC1
:1032E000C00A10EE101A0180B4F90C1094ED051A02
:1032F00000EE101AE188B8EEC00A43E049E00A88FF
:1033000094ED041A00EE102AA28800EE902AB8EE7E
:10331000400AB4F90A20F8EE600A01EE600A00EEF5
:10332000902AF8EEE00A30EE600ABCEEC00A10EE19
:10333000102A00E009E00280498894ED051A00EEA9
:10334000101AE188B8EE400A9AE7B4F90A1094ED31
:10335000041A00EE101AE18800EE901AB8EEC00AC6
:10336000F8EE600A01EE200ABCEEC00A10EE101A58
:103370000180B4F90C1094ED051A00EE101AA18822
:10338000B8EEC00A00EE901AF8EE600A01EE200ACC
:1033900084E70020208060804FF6FF70A080E080EE
:1033A000207A00F0800070BD000402403800002048
:1033B000100000202C0000202DE9FF4FDFF8649161
:1033C00083B08246B9F8048001204FF6FF74CDE93E
:1033D00000408B4602904FF48773FA22A0212820E8
:1033E000FDF7EEFA4FF478454B464FA2A021282076
:1033F000CDE90045FDF7FAF84B464CA2A0218C2000
:10340000CDE90045FDF7F2F84B4649A2B42128204A
:10341000CDE90045FDF7EAF84B4646A2B4218C20E1
:10342000CDE90045FDF7E2F84B4643A2C82128202C
:10343000CDE90045FDF7DAF84B4640A2C8218C20C3
:10344000CDE90045FDF7D2F84B463DA2DC2128200E
:10345000CDE90045FDF7CAF84B463AA2DC218C20A5
:10346000CDE90045FDF7C2F84B4637A2F0212820F0
:10347000CDE90045FDF7BAF808EB480606F1280744
:10348000B8B24B465246A021CDE90045FDF76AF897
:103490008C36B0B24B465A46A021CDE90045FDF727
:1034A00061F8CDE90045B8B24B46B421059AFDF765
:1034B00059F8CDE90045B0B24B46B421069AFDF764
:1034C00051F8CDE90045B8B24B46C821109AFDF736
:1034D00049F8B0B24B46CDE90045C821119AFDF735
:1034E00041F8B8B24B46CDE90045DC21129AFDF710
:1034F00039F8B0B24B46CDE90045DC21139AFDF70F
:1035000031F808EB8800282101EB4000CDE90045A7
:1035100080B24B46F021149AFDF724F807B0BDE8BD
:10352000F08F0000000000207831000079310000A9
:1035300078320000793200007833000079330000DF
:103540007834000079340000666163206973203AA2
:103550002000000070B5044600680169E26821F4AB
:103560004051114301612169A068E2690843616922
:10357000114308432168CA6849F20C639A43024325
:10358000CA6020684169A26921F440711143416118
:1035900031492068884202D03049884202D1FDF783
:1035A000A1FC01E0FDF78EFCE269002319216425EE
:1035B0003226B2F5004F626828D0A0FB0101930FBC
:1035C0009200FCF71DFE0146B0FBF5F06FF018020B
:1035D000504301EB800006EB0010B0FBF5F000F06B
:1035E000F002B1FBF5F002EB0012B1FBF5F06FF069
:1035F0001803584301EB800006EB0010B0FBF5F018
:1036000000F00F0021681044886070BDA0FB01012C
:1036100092185B41FCF7F4FD0146B0FBF5F00201A6
:10362000B1FBF5F06FF01803584301EB800006EB97
:10363000C000B0FBF5F000F0F80002EB4002B1FB77
:10364000F5F0584301EB800006EBC000B0FBF5F04D
:1036500000F00700D6E70000001001400014014010
:10366000FEE7000030B593B034216846FCF700FE59
:1036700014210DA8FCF7FCFD1E480025016841F04F
:1036800080510160006800F0805012901A48016873
:1036900021F4404141F4804101600068022400F4BB
:1036A0004040129001200390102000940694049052
:1036B000CDE907504FF4A87009900420CDE90A0421
:1036C00068460C94FDF768FC08B172B6FEE70DA9D8
:1036D0000F2081E831004FF48050CDE91005022120
:1036E0000DA8FDF755FB002801D072B6FEE713B018
:1036F00030BD000040380240007000400907090E4C
:10370000002804DB00F1E02080F80014704700F08E
:103710000F0000F1E02080F8141D704700B52DED7A
:10372000048BB0EE409AF0EE609A83B051EC190B26
:10373000FCF74BFE41EC180B18EE100A18EE901A2D
:103740008DED008B002818BF0120084320F00040B9
:10375000C0F17F6000F1E040C00F14D019EE101AE4
:1037600019EE900A8DED009B002918BF0121084336
:1037700020F00040C0F17F6000F1E040C00F04BFC6
:10378000012000F017F8B0EE480A03B0F0EE680A26
:10379000BDEC048B00BD02E008C8121F08C1002A5E
:1037A000FAD170477047002001E001C1121F002AC2
:1037B000FBD17047014908607047000028000020D5
:1037C000FDF760FAFFF74EFFFEF73AFCFEF7A2FCAA
:1037D000FEF7C4FCFEF7FCFC06244FF47A71204689
:1037E000FEF7DCF92046FFF747FCFFF7DDFB00BFE3
:1037F000FFF7FEFAFCE700000000000000000000F8
:1038000000000000000000000000000000000000B8
:1038100000000000000000000C000C000C000C0078
:103820000C000C000C000C0000000C00000000005C
:10383000000000000000000000001DC01DC0088046
:103840000880088000000000000000000000000068
:1038500000000000000000000D800D800D800D8034
:103860003FC01B003FC01B001B001B001B000000D3
:1038700000000000000004001F803180318038000B
:103880001E000F000380318031803F0004000400DF
:10389000000000000000000018002400240018C0F0
:1038A00007801E00318002400240018000000000BD
:1038B000000000000000000000000F0018001800C9
:1038C00018000C001D80370033001D800000000030
:1038D00000000000000000000000070007000200D8
:1038E00002000200000000000000000000000000D4
:1038F00000000000000000000300030006000E00AE
:103900000C000C000C000C000E000600030003006D
:103910000000000000000000180018000C00060065
:10392000060006000600060006000C001C00180039
:103930000000000000000000060006003FC03FC07D
:103940000F001F8019800000000000000000000030
:10395000000000000000000000000000040004005F
:1039600004003F8004000400040000000000000088
:103970000000000000000000000000000000000047
:103980000000000000000000060004000C00080019
:10399000080000000000000000000000000000001F
:1039A00000003F8000000000000000000000000058
:1039B0000000000000000000000000000000000007
:1039C00000000000000000000C000C0000000000DF
:1039D00000000000000000C000C001800180030062
:1039E000030006000C000C00180018003000300026
:1039F00000000000000000000E001B00318031803C
:103A000031803180318031801B000E0000000000C9
:103A1000000000000000000006003E000600060056
:103A2000060006000600060006003FC00000000079
:103A300000000000000000000F001980318031807C
:103A4000030006000C00180030003F80000000005A
:103A500000000000000000003F00618001800300C2
:103A60001F0003800180018061803F000000000092
:103A70000000000000000000070007000F000B001E
:103A80001B00130033003F8003000F800000000084
:103A900000000000000000001F801800180018003F
:103AA0001F0011800180018021801F0000000000A4
:103AB000000000000000000007801C00180030001B
:103AC000370039803180318019800F0000000000FC
:103AD00000000000000000007F004300030006001B
:103AE0000600060006000C000C000C0000000000A0
:103AF00000000000000000001F0031803180318094
:103B00001F0031803180318031801F0000000000B3
:103B100000000000000000001E00330031803180F2
:103B200033801D800180030007003C00000000007E
:103B300000000000000000000000000000000C0079
:103B40000C000000000000000C000C000000000051
:103B50000000000000000000000000000000030062
:103B60000300000000000000060004000800080038
:103B70000000000000000000000000C0030004007E
:103B80001800600018000400030000C000000000DE
:103B90000000000000000000000000000000000025
:103BA0007FC000007FC00000000000000000000097
:103BB0000000000000000000000060001800040089
:103BC000030000C0030004001800600000000000B3
:103BD000000000000000000000001F003180318064
:103BE000018007000C000C0000000C000000000029
:103BF00000000000000000000E0011002100210064
:103C00002700290029002700200011000E000000D5
:103C1000000000000000000000003F000F0009004D
:103C2000198019801F8030C030C079E0000000008A
:103C3000000000000000000000007F0031803180A3
:103C400031803F003180318031807F0000000000F2
:103C5000000000000000000000001F4030C0604075
:103C6000600060006000604030801F0000000000C5
:103C7000000000000000000000007F00318030C024
:103C800030C030C030C030C031807F000000000044
:103C9000000000000000000000007F8030803080C5
:103CA00032003E003200308030807F800000000013
:103CB000000000000000000000007FC030403040E5
:103CC00032003E003200300030007C000000000076
:103CD000000000000000000000001E8031806080B5
:103CE0006000600067C0618031801F00000000003C
:103CF000000000000000000000007BC03180318027
:103D000031803F803180318031807BC000000000F5
:103D1000000000000000000000003FC00600060098
:103D2000060006000600060006003FC00000000076
:103D3000000000000000000000001FC0030003009E
:103D4000030003006300630063003E000000000006
:103D5000000000000000000000007BC03180330044
:103D600036003C003E003300318079C00000000086
:103D7000000000000000000000007E001800180095
:103D8000180018001840184018407FC000000000BC
:103D900000000000000000000000E0E060C071C012
:103DA0007BC06AC06EC064C060C0FBE00000000061
:103DB0000000000000000000000073C03180398066
:103DC0003D8035803780338031807980000000006D
:103DD000000000000000000000001F00318060C0F3
:103DE00060C060C060C060C031801F000000000083
:103DF000000000000000000000007F0031803180E2
:103E0000318031803F00300030007E000000000033
:103E1000000000000000000000001F00318060C0B2
:103E200060C060C060C060C031801F000CC01F80D7
:103E3000000000000000000000007F0031803180A1
:103E400031803E003300318031807CE00000000092
:103E5000000000000000000000001F803180318061
:103E600038001F000380318031803F0000000000D7
:103E7000000000000000000000007F804C804C80AB
:103E80004C800C000C000C000C003F0000000000F7
:103E9000000000000000000000007BC03180318085
:103EA000318031803180318031801F00000000007E
:103EB000000000000000000000007BC03180318065
:103EC0001B001B001B000A000E000E00000000007B
:103ED00000000000000000000000FBE060C064C0C3
:103EE0006EC06EC02A803B803B80318000000000A5
:103EF000000000000000000000007BC031801B00BB
:103F00000E000E000E001B0031807BC00000000080
:103F10000000000000000000000079E030C01980BF
:103F20000F0006000600060006001F8000000000CB
:103F3000000000000000000000003F8021802300FE
:103F4000060004000C00188030803F800000000054
:103F500000000000000000000780060006000600C8
:103F600006000600060006000600060006000780A0
:103F700000000000000030003000180018000C00A5
:103F80000C000600030003000180018000C000C097
:103F900000000000000000001E00060006000600F1
:103FA00006000600060006000600060006001E00C9
:103FB00000000000000004000A000A001100208038
:103FC0002080000000000000000000000000000051
:103FD00000000000000000000000000000000000E1
:103FE00000000000000000000000000000000000D1
:103FF00000000000FFE008000400020000000000D4
:1040000000000000000000000000000000000000B0
:1040100000000000000000000000000000001F0081
:10402000018001801F80318033801DC000000000AE
:104030000000000000000000700030003000370079
:10404000398030C030C030C03980770000000000B7
:1040500000000000000000000000000000001E80C2
:10406000318060806000608031801F0000000000AF
:1040700000000000000000000380018001801D801E
:10408000338061806180618033801DC0000000004A
:1040900000000000000000000000000000001F0001
:1040A000318060C07FC0600030C01F800000000011
:1040B000000000000000000007E00C000C003F8042
:1040C0000C000C000C000C000C003F8000000000F5
:1040D00000000000000000000000000000001DC003
:1040E000338061806180618033801D800180018028
:1040F0001F0000000000000070003000300037009A
:10410000398031803180318031807BC000000000F7
:1041100000000000000000000600060000001E0075
:10412000060006000600060006003FC00000000072
:1041300000000000000000000600060000003F0034
:104140000300030003000300030003000300030057
:104150003E0000000000000070003000300037809A
:1041600036003C003C003600330077C00000000001
:1041700000000000000000001E000600060006000F
:10418000060006000600060006003FC00000000012
:1041900000000000000000000000000000007F8020
:1041A00036C036C036C036C036C076E000000000EB
:1041B0000000000000000000000000000000770088
:1041C000398031803180318031807BC00000000037
:1041D00000000000000000000000000000001F00C0
:1041E000318060C060C060C031801F0000000000EE
:1041F0000000000000000000000000000000770048
:10420000398030C030C030C03980370030003000D5
:104210007C000000000000000000000000001DC045
:10422000338061806180618033801D8001800180E6
:1042300007C00000000000000000000000007B80BC
:104240001CC018001800180018007F0000000000B3
:1042500000000000000000000000000000001F80BF
:1042600031803C001F00038031803F0000000000CF
:1042700000000000000000001800180018007F0077
:10428000180018001800180018800F000000000027
:10429000000000000000000000000000000073802B
:1042A000318031803180318033801DC000000000BA
:1042B00000000000000000000000000000007BC0C3
:1042C000318031801B001B000E000E00000000003A
:1042D0000000000000000000000000000000F1E00D
:1042E00060C064C06EC03B803B8031800000000035
:1042F00000000000000000000000000000007BC083
:104300001B000E000E000E001B007BC00000000012
:10431000000000000000000000000000000079E044
:1043200030C0198019800B000F00060006000C0039
:104330003E000000000000000000000000003F8080
:10434000218003000E00180030803F800000000034
:10435000000000000000000006000C000C000C0033
:104360000C000C0018000C000C000C000C000600E7
:104370000000000000000000060006000600060025
:1043800006000600060006000600060006000600FD
:1043900000000000000000000C00060006000600FF
:1043A00006000600030006000600060006000C00DA
:1043B00000000000000000000000000000000000FD
:1043C000180024800300000000000000000000002E
:1043D00000000000000000000000000000000000DD
:1043E00000000000000000000000000000000000CD
:1043F00000000000000000000000000000000000BD
:1044000000000000000000000000000000000000AC
:10441000000000000000000000000000000000009C
:104420000000000003800003800003800003800080
:1044300003800003800003800003800003800001EC
:104440000000010000000000000000038000038065
:10445000000000000000000000000000000000005C
:104460000000000000000000000000000000000E3E
:1044700070000E70000E7000042000042000042064
:104480000004200000000000000000000000000008
:10449000000000000000000000000000000000001C
:1044A000000000000000000000000000000000000C
:1044B0000000000006600006600006600006600064
:1044C0000660003FF8003FF8000660000CC0003FA7
:1044D000F8003FF8000CC0000CC0000CC0000CC07D
:1044E000000CC00000000000000000000000000000
:1044F00000000000000000000001800001800007B3
:10450000B0000FF0001870001870001C00000F8041
:104510000007E00000F0001830001C30001C7000A4
:104520001FE0001BC000018000018000018000012D
:1045300080000000000000000000000000000000FB
:10454000000000000780000FC0001CE000186000A1
:104550001860001CE0000FF80007E0001FF00007E3
:10456000380006180006180007380003F00001E0C4
:10457000000000000000000000000000000000003B
:10458000000000000000000000000000000000002B
:10459000000003F00007F0000C60000C00000C00AD
:1045A000000600000700000F9C001DFC0018F00032
:1045B0001870000FFC0007DC000000000000000085
:1045C00000000000000000000000000000000000EB
:1045D0000000000000000003800003800003800052
:1045E00001000001000001000001000000000000C7
:1045F00000000000000000000000000000000000BB
:1046000000000000000000000000000000000000AA
:104610000000000000000000000000000018000082
:10462000380000700000F00000E00000E00001C071
:104630000001C00001C00001C00001C00001C000B5
:1046400000E00000E0000070000070000038000092
:104650001800000000000000000000000000000042
:10466000000000001800001C00000E00000E0000FA
:1046700007000007000003800003800003800003A0
:1046800080000380000380000700000700000F0087
:10469000000E00001C0000180000000000000000D8
:1046A0000000000000000000000000000180000188
:1046B00080000180001DB8001FF80007E00003C063
:1046C0000003C0000660000660000000000000005B
:1046D00000000000000000000000000000000000DA
:1046E00000000000000000000000000000000000CA
:1046F00000000000000000000000018000018000B8
:104700000180000180000180003FFC003FFC0001AF
:104710008000018000018000018000018000000015
:104720000000000000000000000000000000000089
:104730000000000000000000000000000000000079
:104740000000000000000000000000000000000069
:104750000000000000000000000000000000000059
:1047600000E00000C00001C00001800001800003E3
:104770000000030000000000000000000000000036
:104780000000000000000000000000000000000029
:104790000000000000000000001FF8001FF80000EB
:1047A0000000000000000000000000000000000009
:1047B00000000000000000000000000000000000F9
:1047C00000000000000000000000000000000000E9
:1047D00000000000000000000000000000000000D9
:1047E00000000000000000000000000000000000C9
:1047F00003C00003C00003C0000000000000000070
:104800000000000000000000000000000000001890
:104810000000180000380000300000700000600048
:1048200000600000C00000C00001800001800003A3
:1048300000000300000600000600000E00000C004F
:10484000001C00001800001800000000000000001C
:1048500000000000000000000000000003C000078E
:10486000E0000C30000C3000181800181800181860
:10487000001818001818001818001818000C30003C
:104880000C300007E00003C0000000000000000042
:104890000000000000000000000000000000000018
:1048A000000000000080000780001F80001D8000C5
:1048B0000180000180000180000180000180000172
:1048C00080000180000180000180001FF8001FF8B7
:1048D00000000000000000000000000000000000D8
:1048E00000000000000000000000000007C0001FE2
:1048F000F000383000301800301800001800003088
:104900000000600001C0000380000600000C0000F1
:104910001800003FF8003FF8000000000000000011
:104920000000000000000000000000000000000087
:104930000000000003C0000FE0000C700000300019
:1049400000300000600003C00003E00000700000C1
:1049500018000018000018001838001FF0000FC0E1
:104960000000000000000000000000000000000047
:1049700000000000000000000000000000E0000156
:10498000E00001E0000360000660000660000C60CB
:10499000000C60001860003060003FF8003FF80035
:1049A00000600003F80003F80000000000000000B1
:1049B00000000000000000000000000000000000F7
:1049C000000000001FF0001FF00018000018000099
:1049D0001800001BC0001FF0001C30000018000071
:1049E00018000018000018003030003FF0000FC021
:1049F00000000000000000000000000000000000B7
:104A000000000000000000000000000000F80003AB
:104A1000F8000700000E00000C00001800001BC08A
:104A2000001FF0001C30001818001818001818009B
:104A30000C38000FF00003E0000000000000000050
:104A40000000000000000000000000000000000066
:104A5000000000001FF8001FF800181800183800A8
:104A600000300000300000700000600000600000B6
:104A7000E00000C00000C00001C000018000018013
:104A80000000000000000000000000000000000026
:104A900000000000000000000000000007E0000F20
:104AA000F0001C38001818001818000C300007E03F
:104AB0000007E0000C300018180018180018180043
:104AC0001C38000FF00007E00000000000000000AC
:104AD00000000000000000000000000000000000D6
:104AE0000000000007C0000FF0001C300018180084
:104AF0001818001818000C38000FF80003D8000030
:104B0000180000300000700000E0001FC0001F000F
:104B10000000000000000000000000000000000095
:104B20000000000000000000000000000000000085
:104B3000000000000000000003C00003C00003C02C
:104B40000000000000000000000000000000000065
:104B500003C00003C00003C000000000000000000C
:104B60000000000000000000000000000000000045
:104B70000000000000000000000000000000000035
:104B800000F00000F00000F0000000000000000055
:104B9000000000000000E00001C000018000018072
:104BA0000003000002000000000000000000000000
:104BB00000000000000000000000000000000000F5
:104BC0000000001C00003C0000F00003C0000F00CB
:104BD000003C0000F000003C00000F000003C0009B
:104BE00000F000003C00001C00000000000000007D
:104BF00000000000000000000000000000000000B5
:104C000000000000000000000000000000000000A4
:104C10000000007FFC007FFC000000000000007F1F
:104C2000FC007FFC0000000000000000000000000D
:104C30000000000000000000000000000000000074
:104C40000000000000000000000000000000000064
:104C500000007000007800001E000007800001E0E6
:104C600000007800001E0000780001E000078000CE
:104C70001E0000780000700000000000000000002E
:104C80000000000000000000000000000000000024
:104C90000000000000000007C0000FE000187000D6
:104CA00018300018300000700000E00003C000035E
:104CB0008000030000000000000000070000070063
:104CC00000000000000000000000000000000000E4
:104CD00000000000000000000000000003E00007EA
:104CE000F0000E38000C180018780018F80019D8D9
:104CF0000019980019980019980018F80018780001
:104D00001800000C00000E180007F80003E0000077
:104D10000000000000000000000000000000000093
:104D2000000000000000001F80001FC00001C00044
:104D30000360000360000630000630000C30000FF6
:104D4000F8001FF800180C00300C00FC7F00FC7FFE
:104D50000000000000000000000000000000000053
:104D60000000000000000000000000000000007FC4
:104D7000E0007FF0001838001818001818001838E4
:104D8000001FF0001FF800181C00180C00180C0081
:104D9000180C007FF8007FF0000000000000000009
:104DA0000000000000000000000000000000000003
:104DB0000000000000000003EC000FFC001C1C00C1
:104DC000180C00300C0030000030000030000030C3
:104DD0000000300000180C001C1C000FF80003F04D
:104DE00000000000000000000000000000000000C3
:104DF0000000000000000000000000000000007F34
:104E0000C0007FF000183800181800180C00180CAB
:104E100000180C00180C00180C00180C00181800D2
:104E20001838007FF0007FE0000000000000000064
:104E30000000000000000000000000000000000072
:104E4000000000000000007FF8007FF80018180044
:104E50001818001998001980001F80001F80001981
:104E600080001998001818001818007FF8007FF8C3
:104E70000000000000000000000000000000000032
:104E80000000000000000000000000000000003FE3
:104E9000FC003FFC000C0C000C0C000CCC000CC007
:104EA000000FC0000FC0000CC0000CC0000C0000C0
:104EB0000C00003FC0003FC00000000000000000E8
:104EC00000000000000000000000000000000000E2
:104ED0000000000000000003EC000FFC001C1C00A0
:104EE000180C00300C0030000030000030FE0030A4
:104EF000FE00300C00380C001C1C000FFC0003F0FE
:104F000000000000000000000000000000000000A1
:104F10000000000000000000000000000000007E13
:104F20007E007E7E00181800181800181800181847
:104F3000001FF8001FF800181800181800181800B3
:104F40001818007E7E007E7E000000000000000039
:104F50000000000000000000000000000000000051
:104F6000000000000000001FF8001FF80001800092
:104F700001800001800001800001800001800001AB
:104F800080000180000180000180001FF8001FF8F0
:104F90000000000000000000000000000000000011
:104FA00000000000000000000000000000000007FA
:104FB000FE0007FE0000300000300000300000302E
:104FC0000000300030300030300030300030300031
:104FD0003060003FE0000F80000000000000000093
:104FE00000000000000000000000000000000000C1
:104FF000000000000000007F3E007F3E00183000EF
:1050000018600018C0001980001B80001FC0001C21
:10501000E0001870001830001838007F1F007F1F54
:105020000000000000000000000000000000000080
:105030000000000000000000000000000000007FF1
:1050400080007F80000C00000C00000C00000C00B1
:10505000000C00000C00000C0C000C0C000C0C00F0
:105060000C0C007FFC007FFC000000000000000032
:105070000000000000000000000000000000000030
:1050800000000000000000F00F00F81F00381C00B6
:105090003C3C003C3C00366C00366C0033CC0033AA
:1050A000CC00318C00300C00300C00FE7F00FE7F05
:1050B00000000000000000000000000000000000F0
:1050C0000000000000000000000000000000007868
:1050D000FE0078FE001C18001E18001F18001B1888
:1050E000001B980019D80018D80018F8001878008C
:1050F0001838007F18007F18000000000000000032
:10510000000000000000000000000000000000009F
:105110000000000000000003C0000FF0001C380079
:10512000181800381C00300C00300C00300C003017
:105130000C00381C001818001C38000FF00003C0C9
:10514000000000000000000000000000000000005F
:105150000000000000000000000000000000003F10
:10516000F0003FF8000C1C000C0C000C0C000C0CA8
:10517000000C18000FF8000FE0000C00000C0000FD
:105180000C00003FC0003FC0000000000000000015
:10519000000000000000000000000000000000000F
:1051A0000000000000000003C0000FF0001C3800E9
:1051B000181800381C00300C00300C00300C003087
:1051C0000C00381C001818001C38000FF00007C035
:1051D0000007CC000FFC000C3800000000000000AD
:1051E0000000000000000000000000000000007F40
:1051F000E0007FF000183800181800181800183860
:10520000001FF0001FC00018E000187000183000E8
:105210001838007F1E007F0E000000000000000014
:10522000000000000000000000000000000000007E
:105230000000000000000007D8000FF8001C380034
:105240001818001818001E00000FC00003F000001E
:1052500078001818001818001C38001FF0001BE018
:10526000000000000000000000000000000000003E
:105270000000000000000000000000000000003FEF
:10528000FC003FFC00318C00318C00318C00318CF3
:105290000001800001800001800001800001800089
:1052A0000180000FF0000FF000000000000000007F
:1052B00000000000000000000000000000000000EE
:1052C000000000000000007E7E007E7E00181800B6
:1052D00018180018180018180018180018180018C6
:1052E00018001818001818000C30000FF00003C048
:1052F00000000000000000000000000000000000AE
:105300000000000000000000000000000000007F1E
:105310007F007F7F00180C000C18000C18000C1880
:1053200000063000063000036000036000036000E8
:1053300001C00001C000008000000000000000006B
:10534000000000000000000000000000000000005D
:1053500000000000000000FE3F80FE3F803006009D
:1053600030060030860019CC0019CC001B6C001BE5
:105370006C001E7C000E38000E38000C18000C1853
:10538000000000000000000000000000000000001D
:105390000000000000000000000000000000007E8F
:1053A0007E007E7E001818000C300006600003C0EE
:1053B0000001800001800003C0000660000C300086
:1053C0001818007E7E007E7E0000000000000000B5
:1053D00000000000000000000000000000000000CD
:1053E000000000000000007C7E007C7E0018180099
:1053F0000C300006600006600003C0000180000160
:1054000080000180000180000180000FF0000FF09B
:10541000000000000000000000000000000000008C
:105420000000000000000000000000000000001F5D
:10543000F8001FF80018180018300018600018C095
:10544000000180000300000618000C180018180066
:105450003018003FF8003FF8000000000000000096
:10546000000000000000000000000000000000003C
:105470000000000001F00001F00001800001800048
:105480000180000180000180000180000180000196
:105490008000018000018000018000018000018007
:1054A0000001800001F00001F00000000000000099
:1054B0000000000000001800001800001C00000C94
:1054C00000000E00000600000600000300000300BC
:1054D0000001800001800000C00000C000006000EA
:1054E000006000007000003000003800001800006C
:1054F0001800000000000000000000000000000094
:10550000000000000F80000F80000180000180007B
:105510000180000180000180000180000180000105
:105520008000018000018000018000018000018076
:10553000000180000F80000F8000000000000000CC
:1055400000000000000000000000800001C0000317
:10555000E0000770000630000C1800180C00100462
:10556000000000000000000000000000000000003B
:10557000000000000000000000000000000000002B
:10558000000000000000000000000000000000001B
:10559000000000000000000000000000000000000B
:1055A00000000000000000000000000000000000FB
:1055B00000000000000000000000000000000000EB
:1055C00000000000000000000000000000000000DB
:1055D000FFFF00FFFF000000000300000380000049
:1055E000E00000600000000000000000000000007B
:1055F00000000000000000000000000000000000AB
:10560000000000000000000000000000000000009A
:10561000000000000000000000000000000000008A
:10562000000000000000000000000000000000007A
:105630000FC0001FE00000300000300007F0001F26
:10564000F0003830003030003070001FFC000FBC1C
:10565000000000000000000000000000000000004A
:10566000000000000000000000000000780000784A
:1056700000001800001800001BE0001FF8001C18B4
:1056800000180C00180C00180C00180C00180C0066
:105690001C18007FF8007BE0000000000000000004
:1056A00000000000000000000000000000000000FA
:1056B00000000000000000000000000000000000EA
:1056C00003EC000FFC001C1C00380C00300C0030F8
:1056D0000000300000380C001C1C000FF80003F024
:1056E00000000000000000000000000000000000BA
:1056F0000000000000000000000000000078000032
:10570000780000180000180007D8001FF8001838AB
:105710000030180030180030180030180030180021
:105720001838001FFE0007DE000000000000000027
:105730000000000000000000000000000000000069
:105740000000000000000000000000000000000059
:1057500007E0001FF800181800300C003FFC003F65
:10576000FC00300000300000180C001FFC0007F0A7
:105770000000000000000000000000000000000029
:1057800000000000000000000000000001FC000319
:10579000FC000600000600003FF8003FF80006008D
:1057A00000060000060000060000060000060000DB
:1057B0000600003FF0003FF0000000000000000085
:1057C00000000000000000000000000000000000D9
:1057D00000000000000000000000000000000000C9
:1057E00007DE001FFE0018380030180030180030A7
:1057F00018003018003018001838001FF80007D8BB
:10580000000018000018000038000FF0000FC00062
:105810000000000000000000000000007800007898
:1058200000001800001800001BE0001FF0001C38EA
:105830000018180018180018180018180018180078
:105840001818007E7E007E7E000000000000000030
:105850000000000000000000000000000000000048
:105860000000000001800001800000000000000036
:105870001F80001F80000180000180000180000166
:1058800080000180000180000180003FFC003FFC9F
:105890000000000000000000000000000000000008
:1058A00000000000000000000000000000C0000038
:1058B000C0000000000000001FF0001FF0000030DA
:1058C00000003000003000003000003000003000E8
:1058D00000300000300000300000300000300000D8
:1058E00070001FE0001F80000000000000000000AA
:1058F000000000003C00003C00000C00000C000018
:105900000CF8000CF8000CC0000D80000F80000F98
:1059100000000F80000DC0000CE0003C7C003C7CCF
:105920000000000000000000000000000000000077
:105930000000000000000000000000001F80001FA9
:105940008000018000018000018000018000018052
:1059500000018000018000018000018000018000C2
:105960000180003FFC003FFC000000000000000040
:105970000000000000000000000000000000000027
:105980000000000000000000000000000000000017
:10599000F77800FFFC0039CC00318C00318C0031ED
:1059A0008C00318C00318C00318C00FDEF00FDEF5C
:1059B00000000000000000000000000000000000E7
:1059C00000000000000000000000000000000000D7
:1059D00000000000000000007BE0007FF0001C38A9
:1059E00000181800181800181800181800181800C7
:1059F0001818007E7E007E7E00000000000000007F
:105A00000000000000000000000000000000000096
:105A10000000000000000000000000000000000086
:105A200003C0000FF0001C3800381C00300C0030A0
:105A30000C00300C00381C001C38000FF00003C0B4
:105A40000000000000000000000000000000000056
:105A50000000000000000000000000000000000046
:105A600000000000000000007BE0007FF8001C1830
:105A700000180C00180C00180C00180C00180C0072
:105A80001C18001FF8001BE0001800001800001888
:105A900000007F00007F0000000000000000000008
:105AA00000000000000000000000000000000000F6
:105AB00007DE001FFE0018380030180030180030D4
:105AC00018003018003018001838001FF80007D8E8
:105AD0000000180000180000180000FE0000FE0082
