:020000040800F2
:10000000882600202903000837610008AD5A00083F
:1000100035610008BD4300088D7500080000000030
:10002000000000000000000000000000B9620008AD
:10003000BF4300080000000065610008BB620008C3
:100040004303000843030008430300084303000878
:100050004303000843030008430300084303000868
:100060004303000843030008430300084303000858
:100070004303000843030008430300084303000848
:100080004303000843030008430300084303000838
:100090004303000843030008430300084303000828
:1000A0004303000843030008430300084303000818
:1000B0004303000843030008430300084303000808
:1000C00043030008430300084303000843030008F8
:1000D00043030008430300084303000843030008E8
:1000E00043030008430300084303000843030008D8
:1000F00043030008430300084303000843030008C8
:1001000043030008430300084303000843030008B7
:1001100043030008430300084303000843030008A7
:100120004303000843030008430300084303000897
:100130004303000800000000000000004303000823
:100140004303000843030008430300084303000877
:100150004303000843030008430300084303000867
:100160004303000843030008430300084303000857
:100170004303000843030008430300080000000095
:100180000000000043030008000000000000000021
:1001900043030008000000000000000043030008C3
:1001A0000000000000000000000000004303000801
:1001B0004303000843030008430300084303000807
:1001C0004303000800F002F800F09FF80AA090E84E
:1001D000000C82448344AAF10107DA4501D100F002
:1001E00094F8AFF2090EBAE80F0013F0010F18BF30
:1001F000FB1A43F00103184750D7000070D70000E6
:10020000103A24BF78C878C1FAD8520724BF30C842
:1002100030C144BF04680C60704700000023002414
:1002200000250026103A28BF78C1FBD8520728BF06
:1002300030C148BF0B6070476E2900F0958570296A
:1002400000F0F18666290AF0AA8265290AF0A782E1
:1002500067290AF0A48261290AF0A38203681B0AB5
:1002600028BF41F08001692900F04285642900F02F
:100270003F85752900F03C856F2900F07E8678293E
:1002800000F0BD86E92900F01986E42900F0168601
:10029000F52900F01386EF2900F07B86F82900F09D
:1002A000BC860368DB0928BF41F08001632902F0A6
:1002B0000F81732902F01481E32902F01F81F329D1
:1002C00002F02481002070471FB50AF05BFA9DE818
:1002D000030000F075FC01F09BFC040000200021ED
:1002E00008F0D8FE401C60600020002108F0E8FE05
:1002F000E06001F03DFB00F077F91FBD10B5002074
:1003000000F002FB01F09DFB10BD01F05CFC11460A
:10031000FFF7DAFF08F0A2FE02F0EEFF03B4FFF7EA
:10032000EDFF03BC00F01AFC09488047094800476C
:10033000FEE7FEE7FEE7FEE7FEE7FEE7FEE7FEE795
:10034000FEE7FEE704480549054A064B70470000F2
:10035000C1620008C501000888200020882600200E
:10036000882200208822002053EA020C00F06980D5
:100370002DE9F04B4FF00006002B1FBFB3FA83F5B9
:1003800003FA05F424FA05F65E4012BF1643B2FAEA
:1003900082F502FA05F4C5F120051EBF22FA05FC1C
:1003A00044EA0C04203556EA044C4FEA144418BFC2
:1003B000641C4FF000084FF00009904271EB030CF1
:1003C00039D3002919BFB1FA81F701FA07F6B0FA5B
:1003D00080F700FA07F6C7F120071EBF20FA07FCD6
:1003E00046EA0C062037B6FBF4FCA7EB0507103FE6
:1003F00007F01F0BCBF120060CFA0BFB2CFA06F6CC
:1004000044BFB3460026202FA4BF5E464FF0000B2A
:100410005BEA060C08BF4FF0010B19EB0B09ABFBB5
:10042000027C48EB0608C01B06FB02CC0BFB03CC8E
:1004300071EB0C01C1E70B46024641464846BDE858
:10044000F08B13B54FF000004FF00001AFF30080C8
:10045000BDE81C4070472DE9F041074615460E46A1
:10046000102000F0DBF804000AD06760C4E90265E0
:1004700000F0D0F80168216004600020BDE8F08140
:100480000120FBE7032A40F2308010F0030C00F05B
:10049000158011F8013BBCF1020F624498BF11F8BE
:1004A00001CB00F8013B38BF11F8013BA2F1040277
:1004B00098BF00F801CB38BF00F8013B11F00303EF
:1004C00000F0A082083AC0F0088051F8043B083AD6
:1004D00051F804CBA0E80810F5E7121D5CBF51F8F5
:1004E000043B40F8043BAFF30080D20724BF11F86F
:1004F000013B11F801CB48BF11F8012B24BF00F8D4
:10050000013B00F801CB48BF00F8012B7047431AAC
:1005100028BF9A427FF6B6AF032A1044114440F236
:10052000268010F0030F1EBF11F8013D521E00F887
:10053000013D10F0030F7FF4F6AF11F0030300F05C
:10054000A682083AC0F00B8051F8043D083A51F8F1
:1005500004CD40F8043D40F804CDFFF7F3BF121D71
:100560005CBF51F8043D40F8043DAFF30080D20772
:1005700024BF11F8013D11F801CD48BF11F8012C3D
:1005800024BF00F8013D00F801CD48BF00F8012C60
:1005900070474FF0000200B5134694469646203946
:1005A00022BFA0E80C50A0E80C50B1F12001BFF42C
:1005B000F7AF090728BFA0E80C5048BF0CC05DF892
:1005C00004EB890028BF40F8042B08BF704748BFE0
:1005D00020F8022B11F0804F18BF00F8012B704754
:1005E000704770477047000070B5064C7C44064D5C
:1005F0007D4403E0206820448047241DAC42F9D1AB
:1006000070BD0000C4D40000DCD400000048704776
:1006100020200020004870472420002070B50646A6
:1006200000F0AEFA056806F10B0020F00704B442B2
:100630009CBF002070BD2B466A68BAB11068A0420A
:1006400010D304F1080188423CBF5068586007D3BA
:100650005168101941601168091B016058601460ED
:10066000101D70BD13465268002AE7D12146284666
:1006700000F092FA0028DED170BD70B50446051F67
:1006800000F07EFA0068002C14BF446870BD002C96
:1006900018BFAC423CBF20466468F8D301680A1812
:1006A000AA4218BF456003D12A680546114401607B
:1006B00028684119A1421CBF6C6070BD6168696007
:1006C00021680844286070BD10B500F05DFA00682C
:1006D00010BD10B5044600F057FA046010BD0FB409
:1006E000014610B504AA039800F078FB10BC5DF831
:1006F00014FB00007CB51D4616460C00009001D08E
:100700002044401E074B7B442A46694601903046F0
:1007100000F043FB05461CB10020694600F050FB89
:1007200028467CBDC10600000FB400B58DB010A9ED
:10073000099000910B904FF0FF300A9000200C9030
:10074000064878440690064878446A4607900F9910
:1007500009A800F0FFFE0DB05DF814FB2F0E00009D
:10076000470E0000007B00F0800070472DE9F0414B
:10077000044616460D464769007B80072ED0384652
:1007800000F0D8F950BB3EB3012E02D0022E25D185
:1007900004E0204600F066F805441DE0384600F00D
:1007A000D7F9E168002841F01001E16005DA204640
:1007B00001F066F80120BDE8F081C9030BD562683D
:1007C000E16A914200D81146A26911442269891A4E
:1007D000814200DD08460544002D01DA0220EAE7E7
:1007E000E16A6068E268814206D29103E06203D563
:1007F00022F4003141F01002A6690027AE4213DC5A
:10080000E16A814201D90B4600E0034603EB060C86
:100810002369ACEB030CAC4506DD814201D98C4663
:1008200000E084469C4505D1A760276042F0200087
:10083000A5620DE0AD1BE669AE1B8142A66000D942
:100840000846C01A281A20605819606022F020005B
:1008500003490840E060002084F84870ABE70000DE
:10086000BFCFD7FF10B50146C268900703D09006EE
:1008700007D5886A0AE000F087F901210160881E27
:1008800010BD8B69486818440B69C01A91F848304C
:100890001BB191F84910401A10BD1103FCD5002876
:1008A000FADD401E10BD2DE9F04704464FF0000967
:1008B0004FF0FF37C568D4E90486A80707D0204663
:1008C00001F012F8304600F020F9002802DA38462C
:1008D000BDE8F087280502D54046FFF7CEFE4C2143
:1008E0002046FFF756FE206D20F0010020654846A7
:1008F000EEE710B5002001F0DFF8FFF7FFFCBDE8E0
:100900001040012000F02AB92DE9F0410646FFF71A
:1009100081FE8046454613E016B1E068B0420ED134
:1009200020682860D4E90101D8F800708847204683
:10093000FFF7A3FED8F80000B842EBD100E025464F
:100940002C68002CE8D1BDE8F08140EA01030246A2
:1009500030B59B0710D14FF0013400E008C208C940
:100960001D1B9D4315EAC41FF8D013F0FF0102F8C8
:10097000011B0DD01B0AF8E711F8013B002B02F810
:10098000013B05D011F8013B002B02F8013BF3D1EC
:1009900030BD0022CBB210F8011B994200D1421E9B
:1009A0000029F8D11046704710B5431C02E010F83A
:1009B000011B71B18107FAD14FF0013202C88C1AC4
:1009C0008C4314EAC211F9D0C01A0A0603D0C01E23
:1009D00010BDC01A10BD0A0401D0801E10BD09024E
:1009E000FCD0401E10BD520001F071B8421E12F83A
:1009F000013F002BFBD111F8013B002B02F8013B1A
:100A0000F9D1704710B5203AC0F00B80B1E818500A
:100A1000203AA0E81850B1E81850A0E81850BFF4E8
:100A2000F5AF5FEA027C24BFB1E81850A0E8185087
:100A300044BF18C918C0BDE810405FEA827C24BFDB
:100A400051F8043B40F8043B08BF7047D20728BF69
:100A500031F8023B48BF11F8012B28BF20F8023BB8
:100A600048BF00F8012B7047431A28BF9A427FF60F
:100A7000C9AF104410F0030F11441EBF11F8013D1F
:100A8000521E00F8013D10F0030F7FF4F6AF103A4C
:100A9000C0F00A8010B531E91850103A20E918501A
:100AA000BFF4F9AFBDE81040530724BF31E9081087
:100AB00020E9081044BF51F8043D40F8043D12F00D
:100AC000030F08BF7047D20728BF31F8023D48BF67
:100AD00011F8012C28BF20F8023D48BF00F8012C76
:100AE000704701F039B800DE10B508F072F8BDE8C3
:100AF000104007F0DDBF0EB5CDE90001FFF754FF50
:100B0000029069460120ABBE0EBD08B56946009053
:100B10000220ABBE08BD1FB58DE807006946052061
:100B2000ABBE04B010BD1FB58DE80F0069460620AE
:100B3000ABBEF6E708B5694600900920ABBE08BD1C
:100B40001CB5CDE9000169460A20ABBE1CBD70474B
:100B500008B5694600900C20ABBE08BD01491820BD
:100B6000ABBEFEE72600020000487047EC1F0020E5
:100B700010B501F04DF8001D10BD00BF1985000033
:100B800000487047F41F002000487047EC1F002009
:100B9000704770477047704738B504460A460020D2
:100BA0006946AFF30080002808BF38BD02460099AF
:100BB000204601F035F8012038BD012002F0C9BB04
:100BC000F8B5AFF30080054600200C46102000BFAA
:100BD0000646A819A0420DD9324669460020AFF357
:100BE0000080070008BF02F0B4FB0098A04218BFC5
:100BF0000546C419FFF7C4FF05600746F01D20F045
:100C000007004619284600F00AF8B44208BFF8BDAC
:100C1000A21B31463868BDE8F84001F001B8002158
:100C20000160C0E9011070471020704770B504469C
:100C300085690068C10601D5302600E02026C0077E
:100C400007D070BDD4E9012130469047206A401C8E
:100C500020626D1EF6D570BD70B5044685690078BA
:100C6000C00707D170BDD4E9012120209047206A38
:100C7000401C20626D1EF6D570BD09684A0501D57D
:100C800040B27047C905FCD500B2704709684A05F3
:100C900001D5C0B27047C905FCD580B2704770B5A8
:100CA0000C460546012A05D02878800600D5EA6959
:100CB000002302E0012305E05B1C934202D2E05CCA
:100CC0000028F9D1A869E618C01AA861286A184452
:100CD00028622846FFF7AAFF04E0D5E9012114F8AD
:100CE000010B9047B442F8D32846FFF7B5FF70BD1B
:100CF0002DE9F0410646002410687529314616A5F5
:100D000010D0FFF7BAFF002802DA404213A507E02F
:100D100031688A0701D512A502E0490704D511A55B
:100D2000012401E0FFF7B2FF00210A2206F12407A7
:100D300009E0B0FBF2FCB0FBF2F302FB1C00303028
:100D400078541846491C0028F3D123462A463046D9
:100D5000BDE8F04100F0CCBF000000002D00000015
:100D60002B0000002000000011680268006A530593
:100D700001D508700AE0D30501D5088006E0130606
:100D800003D5C217C1E9000200E0086001207047E6
:100D900001694A1C02610878704700B58FB0CDE93F
:100DA00001310021059105497944CDE9031011462F
:100DB000684600F043F90FB000BD0000E5FFFFFFFB
:100DC0000A6802F8010B0A607047D1E900239A42D1
:100DD00002D2531C0B60107070470000074B70B5B7
:100DE0000D467B44FFF7D9FF04462846FFF7BAFCBF
:100DF00010B14FF0FF3070BD204670BDD1810000B2
:100E00002DE9FF5F15468A460446DFF8AC80F844BA
:100E10000027D8E900103E46CDE9001010E03AF86E
:100E200016106A4602A802F047FA411C07D0217842
:100E3000890603D5E269391891420DD80744761C1A
:100E40002078800602D5E069B84205DDAE42E6DBD7
:100E50003AF816000028E2D1A069C01BA061204624
:100E6000FFF7E4FED8E90010CDE90010002017E0FC
:100E70003AF818106A4602A802F01EFAB0F1FF3FD5
:100E800081460BD000250DF1080B05E0D4E90121C6
:100E90001BF8050090476D1C4D45F7D308F1010084
:100EA000B0428046E4DB206A384420622046FFF7E7
:100EB000D3FEBDE8FF9F0000AAC300002DE9F0416A
:100EC0008046D21D22F007020025D2E90002F52952
:100ED00015A614D0011E72F1000106DA0023D0EB32
:100EE000030063EB020211A608E0D8F800108B079C
:100EF00001D50FA602E0490701D50EA6012511462E
:100F0000002408F1240704E000F0A4FE30323A5532
:100F1000641C50EA0102F7D12B4632462146404676
:100F2000BDE8F04100F0E4BE000000002D0000002C
:100F30002B0000002000000030B4002100F1240448
:100F400008E002F00705D208303542EA4372DB08B8
:100F50006554491C52EA0305F3D10468002310A22A
:100F6000250707D5A40600D421B1C46901230DA229
:100F7000641EC46130BC00F0BBBE10B504462146FF
:100F80001068FFF783FE02462046BDE810400023AC
:100F9000D2E7D21D22F00701D1E90023CCE70000FF
:100FA0000000000030000000F0B40D460188090583
:100FB00002D5214C7C4402E01F4C7C440E340021BD
:100FC00000F1240608E002F00F071209E75D42EA8B
:100FD00003721B097754491C52EA0307F3D10278C4
:100FE0000023120704D5702D06D009B10223113455
:100FF0002246F0BC00F07CBE01231034F8E770B547
:1010000004460D4621461068FFF740FE0246294679
:101010002046BDE870400023C6E7D21D22F007033A
:10102000D3E90023C0E70368126843F0200303609C
:101030000823C3610023B7E70CC200002DE9F05F6D
:10104000894604464FF0000ADFF874B1FB44C0F84B
:1010500020A02046E1688847002874D0252806D0C3
:10106000D4E901219047206A401C2062F1E7002664
:101070005F462046E16888472028054607DB312D7A
:1010800005D2781910F8200C08B10643F1E7B00733
:1010900001D526F00406C4F81CA00027C4F818A047
:1010A0002A2D09D0284607F07FFF38B304EB8708C4
:1010B000303DC8F8185019E059F8041B204604EBDD
:1010C00087029161E1688847012F054618D1E069E0
:1010D000002820DA26F020061DE0D8F8180000EBE2
:1010E000800005EB40003038C8F818002046E16861
:1010F0008847054607F058FF0028EED1012F0AD097
:101100002E2D08D12046E16888477F1C0546022F16
:1011100046F02006C4DBA069002803DA404246F00E
:101120000106A061F00701D026F010066C2D0BD04F
:10113000682D09D04C2D39D06A2D35D0742D35D07D
:101140007A2D33D016E038E0E1682F4620468847F4
:10115000B842054609D16C2F26D04FF48060E16873
:10116000064320468847054604E06C2F1AD04FF40A
:10117000807006430DB3A5F14100192802D820352F
:1011800046F400664A462946204626604E46FFF74A
:1011900053F880B101280BD0F61D26F0070000F1AE
:1011A000080956E74020E4E78020D8E70020D6E78A
:1011B00006F104094DE7284652E7206ABDE8F09F92
:1011C0009CC100002DE9FF4F1C4691464FF0FF35B2
:1011D00081B000218A468846D4E90167A169029856
:1011E0006D1C8847216A834688470028F6D1BBF1E9
:1011F000FF3F0CD0002F26F4C0661ADD700615D50F
:10120000BBF12B0F0AD0BBF12D0F0FD104E04FF033
:10121000FF3005B0BDE8F08F46F48066A169029802
:101220006D1C88477F1E8346002F02DDBBF1300F07
:1012300003D0B9F1000F2AD025E0A1696D1C0298F6
:101240007F1E46F400768847002F834605DDBBF1FC
:10125000780F06D0BBF1580F03D0B9F1000F10D0B2
:1012600011E0B9F1000F02D0B9F1100F0BD1A16953
:101270006D1C02987F1E26F4007688478346102056
:1012800000E0082081464FEAE970009017E00A204C
:10129000F8E74346AAFB0928DDF800C07F1E03FBE0
:1012A000098046F4007605F101050AFB0C0112EBFA
:1012B0000B0A029841EBEB78A16988478346002F1F
:1012C00006DD4946584601F025F95FEA000BE0D5F6
:1012D000E16902988847B00502D46FF0010098E7F1
:1012E000F00718D1700610D55146700505D50023BA
:1012F000D1EB030163EB080200E042462068031DC6
:1013000023600068C0E9001205E02068011D21602B
:101310000068C0E900A828467BE72DE9FF5F1D466D
:101320004FF0FF3B91464FF000085F46D5E901467C
:10133000A96901987F1C8847296A82468847002846
:10134000F6D1BAF1FF3F0CD0002E24F4C06419DDB1
:10135000600614D5BAF12B0F09D0BAF12D0F0ED1BA
:1013600003E0584604B0BDE8F09F44F48064A969E6
:1013700001987F1C8847761E8246002E02DDBAF156
:10138000300F03D0B9F1000F26D032E0A969761EE4
:1013900001987F1C44F400748847002E824605DDC6
:1013A000BAF1780F06D0BAF1580F03D0B9F1000F97
:1013B00010D01EE0B9F1000F02D0B9F1100F18D112
:1013C000A969761E01987F1C24F400748847824620
:1013D000102002E0082000E00A20814609E0A96907
:1013E00008FB0908761E01987F1C44F400748847A6
:1013F0008246002E05DD4946504601F08BF8002854
:10140000EDDAE96901988847A00502D46FF0010080
:10141000A8E7E00725D1600613D5600502D5C8F11D
:10142000000000E0404629680A1D2A60096822057C
:1014300001D5087015E0220701D5088011E0086089
:101440000FE02868011D29600068210502D580F899
:10145000008006E0210702D5A0F8008001E0C0F876
:10146000008038467EE72DE9FF5F4FF0000899467F
:10147000144646469169D2E901A7DDF838B00198D3
:101480008847054659EA0B0005D009E0A169019893
:10149000761C88470546216A284688470028F5D1EA
:1014A000681C03D05FEACA7005D015E04FF0FF302A
:1014B00004B0BDE8F09F2068011D2160D0F80080D5
:1014C0000AE05FEACA7001D108F8015BA169761CE5
:1014D00001987F1E88470546002F1ADD681C18D02A
:1014E000B9F1000F0DD0E81705EBD060421120F0E4
:1014F0001F0059F822102A1A012090400142E0D121
:1015000007E0BBF1000FDCD12846216A884700289C
:10151000D7D0E16901988847BBF1000F07D1002EB1
:1015200005DD5FEACA7002D1002188F80010A068CA
:10153000B84203DDBBF1000F03D017B16FF001001B
:10154000B6E73046B4E70000026811441378016042
:1015500018467047D160054979445161044979447E
:10156000116200211161114600F0E2BFEDFFFFFFA3
:101570007D070000426842B1016811F8013B23B1C8
:10158000521EC0E90012184670470121C160881E32
:10159000704742685AB1C368016843B983688B4297
:1015A00005D0491E521CC0E90012002070474FF0C0
:1015B000FF3070472DE9FF4F4FF000089A46144660
:1015C000C146464683B0D2E901B7CDF80080CDF8D8
:1015D0000480916904988847109905465AEA0100E9
:1015E00005D009E0A1690498761C88470546216A60
:1015F000284688470028F5D1681C03D05FEACB70E5
:1016000005D02AE04FF0FF3007B0BDE8F08F20682A
:10161000011D2160D0F800801FE002A86A46E9B2EF
:1016200001F02CFE411C07D0801C09D04FF00009AE
:101630005FEACB7007D00AE0E169049888473EE092
:101640004FF0010904E0BDF8081028F8021B7F1EC6
:10165000A1690498761C88470546002F1ADD681C8E
:1016600018D0BAF1000F0DD0E81705EBD060421189
:1016700020F01F005AF822102A1A0120904001423F
:10168000CBD107E010980028C7D12846216A8847A7
:101690000028C2D0E16904988847B9F1000F0ED143
:1016A000109830B9002E04DD5FEACB7001D1A8F8A4
:1016B0000000A068B84202DD109818B117B16FF0B1
:1016C0000100A1E730469FE72DE9FF4F4FF00008EA
:1016D0009B461446454683B0D2E90196CDF800807A
:1016E000CDF804809169DDF848A004988847074642
:1016F0005BEA0A0005D009E0A16904986D1C8847DF
:101700000746216A384688470028F5D1781C03D05F
:101710005FEAC97005D01BE04FF0FF3007B0BDE8AD
:10172000F08F2068011D2160D0F8008010E05FEA92
:10173000C97007D16A464046B9B201F0BDFD411CEF
:1017400031D08044A1696D1C0498761E88470746F5
:10175000002E14DD781C12D0BBF1000007D03B46F0
:10176000DDE9101201F01AFB0028E0D107E0BAF120
:10177000000FDCD13846216A88470028D7D0E169BC
:1017800004988847BAF1000F06D1002D04DD5FEA06
:10179000C97001D188F80000A068B04203DDBAF139
:1017A000000F03D016B16FF00100B7E72846B5E788
:1017B0002DE9FF5F9B46144600273D469169D2E91B
:1017C0000196DDF840A00198884780465BEA0A0050
:1017D00005D009E0A16901986D1C88478046216AFF
:1017E000404688470028F5D1B8F1FF3F03D05FEAB3
:1017F000C97005D014E04FF0FF3004B0BDE8F09F91
:101800002068011D216007680AE05FEAC97001D104
:1018100027F8028BA1696D1C0198761E88478046C7
:10182000002E15DDB8F1FF3F12D0BBF1000007D04C
:101830004346DDE90E1201F0B1FA0028E5D107E0D8
:10184000BAF1000FE1D14046216A88470028DCD078
:10185000E16901988847BAF1000F05D1002D03DD39
:101860005FEAC97000D13880A068B04203DDBAF1E8
:10187000000F03D016B16FF00100BEE72846BCE7A9
:10188000C16821F4001141F08001C1600021816034
:10189000016070472DE9F047814614460E464FF02F
:1018A000FF383248D5685769054209D03846A169E2
:1018B000FFF746F9002811DB2C48C0430540E560DE
:1018C0002B46324649463846FFF725F9A16920F0F4
:1018D0000042B21A11440028A16103D02046FFF74C
:1018E000CFFF4046BDE8F08770B504460569C06A81
:1018F0006168884200D80846E16821F42011E1605F
:10190000C90312D5A84208D02246411B2846FFF73A
:10191000C1FF10B14FF0FF3070BD0020E562C4E997
:101920000150E06820F48030E060002070BD10B508
:101930000446C06820F02000E060A16AA0698842E7
:101940000DD02046FFF7D0FFE06820F4405040F073
:101950001000E060A06AA0612069E062606044F26B
:101960004001E0688843E06010BD00001000020004
:1019700010B542485421FEF70CFE41485421FEF7B1
:1019800008FE40485421FEF704FE3F493B483C4ACC
:101990003F4B08603D490A603A491960531C036592
:1019A000481C1065012008653B48344A39A1784439
:1019B00001F012FB20B9384878440A3801F0C2FC23
:1019C00037482F4A35A1784401F006FB20B9344846
:1019D00078440A3801F0B6FC32482A4A2FA17844EC
:1019E00001F0FAFA20B92F4878440A3801F0AAFC2D
:1019F00040232248DC000021224601F0C9FA20B130
:101A000025487844543801F09DFC1D482246402367
:101A1000002101F0BDFA20B121487844543801F08A
:101A200091FC184822461023002101F0B1FA002849
:101A300006D01C487844BDE81040563801F082BCFE
:101A400010BD104870B5006D20F001040B48FEF782
:101A50002AFF0B48FEF727FF0A48FEF724FF09E09C
:101A6000206D20F001052046FEF71DFF2046FEF701
:101A700004FE2C46002CF3D170BD0000F01E0020A7
:101A8000441F0020981F0020500000205400002018
:101A90005800002072000000FEB700007700000030
:101AA000EAB70000D6B700000A460146014801F037
:101AB00056BB00004C20002010B501F02BFCBDE807
:101AC000104001F022BC01B5FEF7DCFC01BD01B500
:101AD000FEF71DFD01BD00004FF0013C50F8042B46
:101AE00051F8043B9A4221D1A2EB0C03934313EA31
:101AF000CC1317D150F8042B51F8043B9A4215D15E
:101B0000A2EB0C03934313EACC130BD150F8042B34
:101B100051F8043B9A4209D1A2EB0C03934313EA18
:101B2000CC13DBD04FF00000704700BFD01A01BAD1
:101B3000B1FA81F101F0180122FA01F0CB40C1F1B4
:101B40002001DBB2C0B2C01A2CFA01F3D11A9143C2
:101B500011EAC311E6D1704710B500F00EF8016923
:101B600019B100220261884701E080688047FEF7D2
:101B7000C0FE000010B5FEF7BCFE70B500F04CF8DA
:101B800004680546A4B92020FEF748FD040011D0E2
:101B9000094900202C60C4E900010849A1602073B4
:101BA000206160610649A06109B101F0EAFBE061D2
:101BB000204670BDFEF79DFE00000000751B00086A
:101BC0000000000070477546FEF7CEFFAE460500E8
:101BD0006946534620F00700854618B020B5FEF749
:101BE000B1FBBDE820404FF000064FF000074FF07A
:101BF00000084FF0000B21F00701AC46ACE8C0092B
:101C0000ACE8C009ACE8C009ACE8C0098D46704733
:101C1000004870470C200020004870472820002012
:101C2000034640688C46002818BF88423CBF0346E4
:101C30004068F8D318681844884207D00CF10300B4
:101C400020F00700001D411A521A0146081D0A60C3
:101C5000FEF713BD30B5B0F10A024FEA900E71F1F4
:101C600000034EEA817EB0EB0E0061EB91014FEA7A
:101C7000101E4EEA017E10EB0E0041EB11114FEAEF
:101C8000102E4EEA016E10EB0E0041EB11214FEACF
:101C9000104E4EEA014E10EB0E0041EB1141401880
:101CA00041F100014FEAD00040EA41704FEAD10112
:101CB00010EB80054FEA810444EA907444EB010480
:101CC0006D1944EB0404521BA3414FF0000348BFBD
:101CD0000A3200D530BD401C41F1000130BD10B5C5
:101CE0000446FEF745FF0068005D00F0010010BDEE
:101CF0002DE9F0470D4699469246044600F1240826
:101D00000168880604D5E06921F01001216000E037
:101D10000120A84201DD471B00E00027A1697A19D4
:101D200002EB0900081AA0612078C00602D4204600
:101D3000FEF77CFF002608E0D4E901211AF806002E
:101D40009047206A401C761C20624E45F4DB2078C8
:101D5000C0060AD52046FEF769FF06E0D4E9012156
:101D600030209047206A401C2062381EA7F10107EE
:101D7000F4DC07E0D4E9012118F805009047206A57
:101D8000401C2062281EA5F10105F3DC2046FEF769
:101D900063FF2078000602D50220BDE8F08701200D
:101DA000FBE770472DE9FF4F0C461E464FF0FF370B
:101DB0008BB0D2E90001DDF860800A908A46C1F359
:101DC0000A5505B93D46002108464FF00000BAF11A
:101DD000000F00F4400005DA00EB80004FF44001F2
:101DE00001EA50004FEA9059B9F1010F00DDB94600
:101DF0000A9850EA4A000ED044F61050A5F2FF357A
:101E000045432F14B8F1000F1ED07542291E1EDD68
:101E1000C9F100021CE0B8F1010F4FF0000001D041
:101E2000302103E0F24305E02154401CB042FBDBCB
:101E300030460022002121540B99C1F80880C1E9E5
:101E400000200FB0BDE8F08FBD1B6D1CDEE74A46D9
:101E500000DA694206A801F0F3FA06AB93E807003E
:101E600003AB83E8070050460A9901F068FE8DE84D
:101E70000700A0F500501F3800900398002D0ADDE0
:101E800042F21F014A460844002303A90390684612
:101E900002F014F909E0A0F500504A461F3800236B
:101EA00003A90390684602F033F98DE807000004A7
:101EB000000C03D04FF0FF30410800E01046B8F1AD
:101EC000000F03D00022009215461EE0751E05D4B7
:101ED000FFF7C0FE303262556D1EF9D5B3460122C0
:101EE000084302D000227F1C04E02078302801D172
:101EF00000227F1E002A099784D01DE0112D07DAE9
:101F0000FFF7A8FE303262556D1C50EA0102F5D190
:101F1000084302D00098C8B10EE00021681E05E019
:101F2000235C625C63542254401E491C8142F7DBEF
:101F3000AB46A81B401E0990002004F80B000B982C
:101F4000099AC0F80880C0E9002B7AE711264FF003
:101F5000000857E72DE9F04F88460446D21D22F0CD
:101F6000070191B0D1E90001CDE90A0106F009FEAF
:101F700002460B98C00F01D02D2007E02068810792
:101F800001D52B2002E0202101EAC000032A09909C
:101F900001D0072A05DB03464146204601F010FA2E
:101FA0000BE12078800601D5E06900E00620B8F159
:101FB000650F814606D0B8F1660F18D0B8F1670FEB
:101FC00070D131E00020B9F1110F009001DB112335
:101FD00001E009F101030AAA01A90CA8FFF7E2FE3A
:101FE000DDE90C70002609F10105834647E0012078
:101FF0004B4600904FF000470AAA01A90CA8FFF732
:10200000D1FEDDE90DB00C995D46002610B909F14D
:1020100001000D18B9EB050003D4C0F1FF3609F13A
:102020000105A5EB09002BE0B9F1010F01DA4FF032
:1020300001090020B9F1110F0090484601DD11237C
:1020400000E003460AAA01A90CA8FFF7ABFEDDE9F0
:102050000C704D4600268346207800070AD4AB4515
:1020600000DA5D4601A8012D04DD411911F8011CBB
:10207000302907D04F4502DA17F1040F04DA0120A6
:1020800082460FE06D1EEEE7002F02DCED1B3E44A2
:1020900003E0781CA84200DD7D1CB81B00F1010A9A
:1020A0004FF000472078000703D4AA4501DB4FF02A
:1020B000FF3A0021B7F1004F0DF143088DF84310AE
:1020C00024D002202B23002F01DA7F422D230A2166
:1020D000021EA0F1010000DC5FB197FBF1FC97FB51
:1020E000F1F201FB1C7C17460CF1300C08F801CD15
:1020F000EEE7A8F1010003702188090501D545210B
:1021000000E06521A0F1010800F8011C09980FA961
:10211000A1EB0807FF1D00B10120411901EBEA7096
:10212000A1693844081A401EA0612078C00602D474
:102130002046FEF77BFD099828B1D4E9012190479C
:10214000206A401C20622078C00622D52046FEF777
:102150006DFD1EE0002E04DBB34502DD01A8805DAD
:1021600000E03020D4E901219047206A401C206221
:10217000761CAAF101005FEA000A0AD1FFF748FDC8
:10218000C0680168405CD4E901219047206A401C86
:102190002062281EA5F10105DCDC07E0D4E901215D
:1021A00018F8010B9047206A401C2062381EA7F1E6
:1021B0000107F3DC2046FEF74FFD032011B041E696
:1021C0002DE9F04F04460D46D21D22F0070089B0DC
:1021D000D0E900974846394606F0D3FC0246F80F8E
:1021E00001D02D2307E02068810701D52B2302E0D1
:1021F000202101EAC0038DF820300BB1012000E05E
:102200000020032A824601D0072A04DB2946204603
:1022100001F0D6F83FE12078800601D40D2500E0DA
:10222000E569C7F30A560D2D49DA00214FEA175B1D
:1022300008464FF00000002F00F4400007DA00EBE2
:1022400080004FF4400100EBD07001EA600081157E
:10225000012901DD4FF0FF3100224FEA850CBCF16E
:10226000180F06D31346ACF118004FF08052C2404D
:1022700003E04FF4801323FA0CF30CF10C0CBCF1C7
:10228000200F04D3ACF1200C09FA0CF001E007FA9E
:102290000CF000294FF0004801DD18B90FE00ED115
:1022A00040450CD319EB02095F4121B9404502D1E9
:1022B0009F4329EA0209BBEB175F00D0761C2088F8
:1022C000000502D57B48784402E07A487844193802
:1022D00008AA302302F80A30037C0AF10101002E1B
:1022E0000AF1020A53546A4602DC4FF0300101E061
:1022F0004FF031014FF001088DF8001002D0A6F226
:10230000FF3603E059EA470100D06B4E002D02DC96
:102310002178090704D54FF002082E218DF801100D
:10232000C44600210BE0C7F303433F01C35C491CD3
:102330006D1E02F80830052908F1010801DA002DA8
:10234000F1DC00210CE000EB1973491C1B786D1EB9
:10235000082902F808304FEA091908F1010801DAE2
:10236000002DF0DC21688B0602D516E0A8F10108EB
:10237000E04505DD02EB080313F8013C302BF5D0F6
:10238000B8F1000F09DD02EB080313F8013C2E2B16
:1023900003D1090701D4A8F10108002D05DD3E2174
:1023A00002F808106D1E08F10108407C002E02F8AA
:1023B000080008F1010804DA2D20764202F808002E
:1023C00002E02B2002F808000A214FF47A708642BE
:1023D00008F101080BDB96FBF0F3303302F808300C
:1023E00096FBF0F308F1010800FB136601E0642E90
:1023F0000CDB642096FBF0F3303302F8083096FBD8
:10240000F0F308F1010800FB136601E00A2E06DB79
:1024100096FBF1F0303002F8080008F1010896FB55
:10242000F1F001FB1060303002F80800A16908F1FA
:10243000010808EB050202EB0A00081AA0612078E7
:10244000C00602D42046FEF7F1FB216A08AE01EB7C
:102450000A00206204E0D4E9012116F8010B90473C
:10246000BAF1010AF7D22078C00602D52046FEF75D
:10247000DDFB6E4609E016F8010B3E280FD0D4E9CB
:1024800001219047206A401C2062B8F10108F2D275
:102490002046FEF7E1FB09B00320BDE8F08F206A7B
:1024A0002844206203E0D4E90121302090476D1ECA
:1024B000EBD3F8E746AF000002FCFFFF10B543691D
:1024C00013B1AFF3008001E0FEF7E9FB012010BD7E
:1024D000127800F124010A7000224A700122EDE70F
:1024E00011684FF0FF32E9E710B5436913B1AFF35C
:1024F000008001E0FEF784FC012010BD128800F18D
:10250000240182840022C2840122EDE711684FF089
:10251000FF32E9E73A2800D2303820F02002412A81
:1025200001D3A2F13700884201D34FF0FF3070474A
:102530002DE9F34F4FF0000A0C4656468DB00120AE
:102540000C9001F10C000B9062690B9801219047EF
:10255000051E2DD0252D2CD0216A8847C0B1626977
:102560000B9801219047216A88470028F7D16269BA
:10257000411E0B98904700E0761CA1690D98884792
:10258000216A88470028F7D1E1690D988847DBE781
:10259000A1690D988847A842074601D1761CD3E768
:1025A000E1690D9888477F1C02D1BAF1000F6FD006
:1025B0006CE162690B9800273D46394690472A280E
:1025C00004D162690B98012190470125DFF8D08280
:1025D00062690B9801219047A0F130010A290AD2C3
:1025E0004745E5DC07EB870100EB4107303FDFD4CF
:1025F00045F01005ECE7E90601D46FF000476C28C0
:102600000AD04C2814D0682815D06A280DD0742818
:102610001CD07A281AD01DE062690B9801219047DE
:102620006C2802D045F0040514E045F002050DE0E9
:1026300045F020050AE062690B980121904768285F
:1026400002D045F0080505E045F4006562690B9885
:1026500001219047C4E9015765283DD019DC58286D
:102660007AD00CDC452837D004DC252826D0412838
:102670009ED131E046282FD0472899D12CE05B2805
:1026800077D0612828D063287CD0642823D15AE0F1
:10269000F7E06F2848D008DC66281DD067281BD0DB
:1026A000692821D06E2816D127E0702845D07328DC
:1026B00068D0752847D078280DD14DE0A1690D98D4
:1026C0008847252805463FF469AFE1690D9888479A
:1026D0006D1C3FF46AAFD9E00D9923466A466FF04E
:1026E000010008F0C0F8C6E045F0400023464FF076
:1026F00000026060A80736D43EE0E8077FF447AFE9
:102700002068011D21600068290501D506701BE7BE
:10271000290701D5068017E7A90703D5F117C0E9F6
:10272000006111E706600FE745F0400023464FF0D7
:1027300008026060A80716D41EE040F60E0125EAE4
:102740000100606016E045F0400023464FF00A02A9
:102750006060A80707D40FE045F040006060A8075C
:1027600008D5234610220D996FF00100FEF72AFDCF
:1027700081E007E0102223460D996FF00100FEF77B
:10278000CCFD78E04FF0000963284F46C8464B4621
:10279000CB4602D05B2807D039E02079C00601D4AF
:1027A0000120A060012732E06269D4F80CB00B98D8
:1027B000012190475E2807D14FF00109494662691F
:1027C000D4F80CB00B989047216939B900210A461A
:1027D00003AB43F82120491C0829FADBD8B321694F
:1027E00049B308F1010862690B98012190475D28FF
:1027F000F4D1B9F1000F09D0002003A951F820202D
:10280000D24341F82020401C0828F7DB03AB2069A5
:10281000002820794FEA40701ED05B462246CDF852
:102820000080CDE901970D9900286FF0010020DAB2
:10283000FEF7BEFF1FE0C11703AA00EBD1614B11E9
:1028400021F01F0102EB8302411A13680120884026
:1028500003431360C7E719E00D99224600286FF083
:102860000100009702DAFEF7A5FE04E0FEF7FBFD8B
:1028700001E0FEF729FF00280ADA401C06D10C9877
:1028800020B14FF0FF300FB0BDE8F08F5046FAE7AF
:10289000E90701D10AF1010A064400200C9053E631
:1028A000CCCCCC0C2DE9FF4F06468BB00878FF2826
:1028B00006D0491C2D2805D000244FF0000908E05F
:1028C00000200CE00124F8E709EB8903491C00EB28
:1028D00043090878FF28F7D114B1C9F100008146F7
:1028E000107800252C46AA4629462D2801D02B28F1
:1028F00004D1521C2D2813D0002082468B4610781C
:10290000FF280FD04FF0000C0A21521CA5FB0178C4
:1029100004FB018105FB0C11C5194BEB0104EEE72B
:102920000120EAE7002108464FF00000BAF1000F4D
:1029300002D000EB80004008C0F38157012F01DD79
:102940004FF0FF370E9955EA040009EB01080BD050
:102950004FF0020918F5FA7F16DA4FEACA70002F15
:10296000706008DD012007E04FEACA70C6E900B0D8
:102970000FB0BDE8F08F00203060FEF705F9C0F819
:1029800000901821084616E0B8F5FA7F18DD002FF0
:1029900002DAF748784401E0F6487844D0E90010BC
:1029A000C6E9001040EACA707060FEF7EDF8C0F8A2
:1029B0000090142108460FB0BDE8F04F07F0ECBEC0
:1029C000002108464FF00000B8F10001099002DA3A
:1029D000C7F1000200E03A4601DAC8F1000106A89A
:1029E00000F02EFD06AB93E8070003AB83E8070079
:1029F00044F23E005BEA04010090584604D144F2E0
:102A00001E012C465D460091210C0904014306D1AC
:102A10000099240444EA15442D041039009104F06F
:102A20007F41014306D10099240244EA15642D0236
:102A30000839009104F07041014306D10099240146
:102A400044EA15742D01091F009104F0404101432F
:102A500006D10099A40044EA9574AD00891E009146
:102A600004F00041084304D100986D196441401EF0
:102A700000904FF001033A466846B8F1000FCDE9E7
:102A8000014503A902DD01F058FB01E001F02BFB39
:102A9000BAF1000F04460D4601D084F00044002135
:102AA00008464FF00000099940F2FF77484010F0C7
:102AB0000C0F07D124F00040284303D0C4F30A5080
:102AC000B84212D1FEF760F8C0F80090C4F30A5083
:102AD000B8420AD1A8487844D0E90010C6E90010ED
:102AE00004F000410843706042E7C6E900543FE744
:102AF0002DE9FF4F1F464FF0000A4FF0FF384546C3
:102B000091B0D7E90146CDF83CA0FFF781F8C06845
:102B10000168405C1090B96912986D1C8847396A49
:102B2000814688470028F6D1B9F1FF3F0AD0002E30
:102B300024F4D06411DDB9F12B0F08D0B9F12D0FB9
:102B40000BD102E0404615B013E744F48064B96944
:102B500012986D1C8847761E8146600504A901D530
:102B60002D2000E02B20002E01F1010B0DF130088B
:102B70008DF810003FDDB9F1690F08D0B9F1490FA8
:102B800005D0B9F16E0F02D0B9F14E0F1CD13B4602
:102B900001A8009580E85002DDE912126FF00200F2
:102BA00007F065FEC11CCED10EE0B96912986D1C0C
:102BB000884781461398761E44F4007405600F9888
:102BC000401C002E0F9016DDB9F1300FEDD0B9F199
:102BD000780F02D0B9F1580F0DD10F9801280AD102
:102BE0003B46CDE90054DDE91212001F029607F0C2
:102BF0003CFEC11CA7D1109989453ED144F0800408
:102C000006E01399681CAAF1010A44F400740860F4
:102C1000B9696D1C1298761E884730288146F0D01D
:102C20002BE01099894505D1200603D4761E44F087
:102C3000800418E0484606F0B7F908B3761E0DF197
:102C400023018B4544F4007408D2A9F130000BF83D
:102C5000010B200607D5AAF1010003E0200602D4EB
:102C60000AF101008246A00502D51399681C08608C
:102C7000B96912986D1C88478146002ED1DC53E05B
:102C8000002E51DDB9F1650F02D0B9F1450F4BD1DE
:102C9000A00549D5B9696D1C1298761E24F44074BC
:102CA0008847002E81460CDD2B2804D0B9F12D0F6A
:102CB00007D144F48074B96912986D1C8847761E58
:102CC0008146E00501D52D2100E02B2108F8011BEC
:102CD000CDF8008021E0761E0DF13901884544F4DD
:102CE00000740CD2A9F1300010F0FF0088F8000049
:102CF00002D10099884509D908F1010806E0E005EC
:102D000001D51E4801E042F20F708246B96912985F
:102D10006D1C8847814613980560002E04DD4846E7
:102D200006F042F90028D6D1F96912988847FF20A9
:102D300053468BF8000088F8000000200A900B90A2
:102D400004AA0CA90AA8FFF7ADFDA00502D46FF0F4
:102D50000100F8E614F0240F12D0E0071CD1386807
:102D6000DDE90A12031D3B600068C0E9001213E0B0
:102D7000D8AF0000CAAF00008EAE0000F1D8FFFF50
:102D80000AA9684606F090F8E00705D13868009A6D
:102D9000011D3960006802602846D4E610B508E0DD
:102DA00030F8024B9C4204D10AB1002010BD012032
:102DB00010BD491EF4D2104610BD2DE9F04705465E
:102DC0000C46C86820F4201040F48000C8608006DB
:102DD00002D50846FEF7ABFDE06841F282014FF0F4
:102DE000FF390140022903D02046FEF749FDB5E036
:102DF00000F42041B1F5004F0FD1C00306D5616842
:102E0000E06A884200D80846606006E02069E06217
:102E100060606069FDF79CFEA061A0680022EEB2D0
:102E200000280DDAE1688B050AD4C043A06041F4A4
:102E300090302260E0606068411C61600670A5E02F
:102E4000E0689046226040F40050E060206968BB72
:102E50006069FDF76FFE012704F12405A0B1A08988
:102E600010F4407F08D0E069FDF7D8FB206118B16D
:102E7000E06840F4006016E0E7612561E06820F456
:102E8000407040F480600EE0E069FDF7C7FB002869
:102E90002061F1D0E06840F4006010F4407FE06011
:102EA00002D140F48070E06020696060E0682569CC
:102EB0006FF0010AC1051FD56168E06A884200D839
:102EC0000846411B04D022462846FEF7E3FCF0BB2F
:102ED000E068010203D5E562C4E9015854E0691CC9
:102EE000E1626160E16940F48030491EC4E902108A
:102EF00030462E70BDE8F087010202D500F4803222
:102F00000AE06068411C61600670E0680A2E40F4C7
:102F10008030E06006D00022E16A6068814203D917
:102F20000B4602E00122F7E70346A7895B1B7F05FA
:102F300003D4E7699F4200DDE2B1814200D8014637
:102F4000E5620F1AC4E90158002B09DD00E005E035
:102F5000224619462846FEF79DFC08B14846C9E7B7
:102F600047B1A069E5626560C01BA061E06840F000
:102F70001000E060E068000208D56168A069E562C1
:102F8000491B08446560A0615046B3E73046B1E78D
:102F900070B5C468A50713D0650211D4B2F5807F5F
:102FA00009D0B2F5007F06D0B2F5806F08D10123B9
:102FB00000F1240106E05D1E6FF07F46B54201D3AB
:102FC000012070BD0161C361416024F4706111434F
:102FD000C160002070BD00002DE9F0410C4607469D
:102FE00016461046FDF75FFC2078611C61280AD068
:102FF000722802D077283CD102E00125002405E0A8
:103000000225042402E0082448F2020511F8010B0D
:103010002B2806D0622809D011F8010C74280AD098
:103020000BE045F0030544F00204EFE745F004052A
:1030300044F00104EAE744F0100438462146FDF765
:103040005AFD411C15D00021316171604FF40071AF
:10305000F560F1617061200704D53046022200213D
:10306000FDF784FB306D40F0010030653046BDE86F
:10307000F0810020FBE72DE9F0410D460646104C9B
:10308000206DC10704D0410804D020F00104F7E707
:1030900022460EE05420FDF7C1FA07000ED0206D45
:1030A00047F001010843542120653846FDF771FAC5
:1030B0003A4629463046BDE8F0418DE70020D6E784
:1030C000F01E002070B50646484231EA00000FD0DD
:1030D0002A20741C00253070FEF79AFD034600225A
:1030E00053F82500010F000109292BD957312AE097
:1030F000042913D004DC012908D0022904D109E0F5
:1031000008290FD0102911D0002070BDFEF780FDD6
:1031100000680EE0FEF77CFD40680AE0FEF778FDEF
:10312000806806E0FEF774FDC06802E0FEF770FDFF
:10313000006928B120F0030050F8041C084470BD59
:103140004CA070BD3031521C082A04F8011BC9D3B1
:103150006D1C052DC3DB00202070304670BD09B109
:103160004B0901D00020704722B113782A2B02D0DE
:1031700000F034B8A6E7AFF300802DE9F0410F4628
:103180008046541C00250026314614F8010BA0F19E
:103190003002092A03D9A0F16103052B16D839287A
:1031A00001D8104600E05738491C082940EA0616A5
:1031B000EBD30120A840384203D0FEF729FD40F8A8
:1031C00025606D1C052DDEDB207810B10020BDE8E8
:1031D000F08139464046BDE8F04173E72DE9F04102
:1031E0000C460646154688070AD5114622487844FB
:1031F00005F050FF071EEAD0FEF70AFD7F1C47606E
:10320000E0070AD029461C4878441A38AFF30080FA
:10321000071EDCD0FEF7FCFC076060070AD52946D4
:10322000154878443438AFF30080071ECFD0FEF73E
:10323000EFFC876020070AD529460F4878444E38AE
:1032400005F03EFF071EC2D0FEF7E2FCC760E006B5
:103250000AD52946084878446838AFF30080051E2F
:10326000B5D0FEF7D5FC056121463046BDE8F041FA
:1032700028E7ACE743000000A2A8000070B516469E
:103280000C460546FDF774FC036893F8010101281C
:1032900004D0185D68B101202C8070BDD3F8030103
:1032A0003246214603F2031303442846BDE870402A
:1032B00018474FF0FF3070BD70B516460C460546F6
:1032C000FDF756FC036893F80101012806D0FF2C96
:1032D0000FD8185D68B101202C7070BDD3F80701BC
:1032E0003246214603F2071303442846BDE87040E6
:1032F00018474FF0FF3070BD10B50446AFF30080A3
:103300002046BDE81040FDF709B8002801D0FDF7C0
:1033100025BC704710B5002102A000F061F9012022
:1033200010BD0000534947414252543A2041626E59
:103330006F726D616C207465726D696E6174696F16
:103340006E00000010B500F065F9BDE81040FFF711
:10335000DCBF10B500F078F9BDE81040FFF7D5BF2D
:103360002DE9F04117460E46054633B107FB0354DD
:10337000E41B2046B047A542FAD1A5F10800BDE8FC
:10338000F08110B58820FDF749F9002801D000210F
:10339000017010BD802902D808B1017809B1002060
:1033A0007047012100F8081B704718B100F10802AE
:1033B000914201D000207047002101707047000049
:1033C0002DE9F0411F46044603260168072A01F44F
:1033D000006004DB08B116A505E016A503E008B1FE
:1033E00015A500E015A521F010002060A069C01E01
:1033F000A0610FB1401EA0612046FDF717FC4FB140
:10340000D4E9012138469047206A401C2062C01C44
:10341000206206E0206AFAE7D4E9012115F8010BE1
:103420009047761EF8D22046FDF716FCBDE8F081E5
:103430004E414E006E616E00494E4600696E660058
:103440002DE9F047814616468AB0354878440DC8C4
:103450008DE80D0032487844801C03AC0DC884E828
:103460000D0041F69B300844372190FBF1F290FBB0
:10347000F1F5A5F1800501FB12041B3C02D5644265
:10348000012000E00020DFF898A080460027FA44E1
:10349000AAF1BE0A0EE0E0070AD03246684607EB02
:1034A000470101230AEB810100F032FE8DE807009D
:1034B00064107F1C002CEED1194F7F44AE3F19E001
:1034C000E80715D007EB04100DF1180A90E80E007C
:1034D0008AE80E00C068F04201D19819089032467F
:1034E000012306A903A800F013FE03AB83E807003D
:1034F0006D10641C002DE3D14FF001033246694684
:10350000B8F1000F03A802D000F0D8FD01E000F0F0
:10351000FFFDC9E90001C9F808200AB0BDE8F0873D
:10352000509E00002DE9F0471C469246804602FB63
:1035300001F511B3A76800203DE0002F3DDCE069F4
:10354000A8421DDAB9F1000F1AD02246294640469A
:10355000FEF7A0F908B1A7602AE0E06810F4C06F98
:1035600001D0002008E022696168891AE269511AD5
:10357000C003A16001D44842A0605046BDE8F08776
:10358000A84203DAE06840F40000E060214698F8C1
:103590000000FFF712FCE16821F40001E160411C2A
:1035A00006D0A768002805DB6D1E08F1010813E0AE
:1035B0000020E3E7012081460EE0AF423E4600DDF9
:1035C0002E46414632466068FCF75CFF6068BF1BD0
:1035D000AD1B3044B0446060002DAEDCA760CCE78A
:1035E00070B505460C460A2000E06D1C00F054F84A
:1035F00035B128780028F8D102E0641C00F04CF8BE
:1036000014B120780028F8D1BDE870400A2000F0FD
:1036100043B8000010B5014602A0FFF7E1FF01200A
:1036200010BD000053494752545245443A20526558
:103630006469726563743A2063616E2774206F70E9
:10364000656E3A200000000010B5012805D0002169
:1036500003A0FFF7C5FF012010BD09A1F8E7000096
:1036600053494752544D454D3A204F7574206F666B
:103670002068656170206D656D6F727900000000D3
:103680003A2048656170206D656D6F727920636FB7
:10369000727275707465640008B569468DF8000033
:1036A0000320ABBE08BD00002DE9FF4F1F464FF0C1
:1036B0003C0987B04FF00042DDE9141001F1010828
:1036C000DDF858A002EA40500390002005908346A0
:1036D000054604460490B969461E08988847AAF131
:1036E000010A0290BAF1000F3BDD02982E2815D096
:1036F0001021FEF70FFF00282EDB4FF0010B05997C
:10370000014317D0B9F1000F0BDB4A46C11700F097
:1037100003FA05430C43A9F1040905E001200490D4
:103720000BE008B145F0010501200590049820B98F
:10373000361D02E0049800B1361FB969089808F1F7
:1037400001088847BBF1000FAAF1010A0290C9D015
:103750000999C1F80080C5E70298702808D0502860
:1037600006D0F96908988847BBF1000F14D04FE0E4
:10377000002002900120BBF1000F049009D0B9692C
:10378000089808F101088847AAF10109B9F1000F6A
:1037900007DCF969089888476FF001000BB0BDE8B5
:1037A000F08F2B2804D02D280CD14FF0FF3004903F
:1037B000B969089808F101088847A9F10109B9F128
:1037C000000FE6DD411CE4D00A21FEF7A3FE00282D
:1037D000DFDB029908F1010801EB810100EB4100F8
:1037E0000290B969089888470A21FEF793FE099A62
:1037F000A9F10109B9F1000FC2F8008001DD00282C
:10380000E7DAF969089888470499029800FB01668D
:1038100055EA040004D004F04041090002D006E05B
:10382000039898E0A40044EA9574AD00B61E04F035
:103830000041080002D16D196441761E159810F000
:10384000240F03D04FF00B095C4803E04FF0280928
:103850006FF07D008246564507DAAAEB06018944DF
:10386000B9F1410F01DD4FF0410901200021A9F11B
:10387000010200F051F9024628400B46214008435E
:1038800001D0012100E00021501E029143F1FF31DF
:1038900028402140084301D0012000E00020029987
:1038A000834651EA0B014FD0002108464FF000003B
:1038B000039900F4400039B100EB80004FF440015F
:1038C00000EBD07001EA60008015012802DD4FF0A6
:1038D000FF3000E013D0401C36D0029860B3BBF13B
:1038E000000F0CD14A460120002100F015F92840B4
:1038F0002140084301D0012000E00020E0B1012078
:103900004A46002100F008F9034640190A46614181
:103910002D1A8C4111D3B9F1400F09DD159810F023
:10392000240F02D0AAF1340603E0AAF1170600E042
:10393000761C00254FF0004406E05B1E42F1FF328A
:1039400020EA030521EA0204CAF10100B04206DAC6
:103950001B49039808430190002000900EE0039A51
:10396000C4F3D321E80A0A43164940EA44500A4303
:103970003146CDE90002684605F00CFB159810F0C1
:10398000240F0BD01598C00715D13868DDE9001257
:10399000031D3B600068C0E900120CE002A8694604
:1039A00005F082FA1598C00705D13868029A011D02
:1039B0003960006802604046F0E6000002FCFFFF4C
:1039C0000000F07F0000F03F2DE9FF4F92461D46BA
:1039D00085B04FF00041DDE9124BDDE914727F1E26
:1039E00001EA4B50414940F0FF4940EA01080021FB
:1039F00022F020004928049102D04E2828D04CE023
:103A00003BA0012607C88DE80700A9690698641C39
:103A100088477F1E014606D41DF8060018B121F024
:103A2000200181420BD0E96906988847032E34D0E3
:103A3000082E32D06FF0010009B0BDE8F08F761C7F
:103A4000032E01D0082EE0D1601CCAF80000DCE78C
:103A5000A9690698641C88477F1E2AD420F020009C
:103A6000412826D1A9690698641C88477F1E20D466
:103A700020F020004E281CD1A9690698641C8847B4
:103A80007F1E48F4002849F48009CAF8004001D498
:103A9000282806D0E969069888475FEACB7012D0DB
:103AA00022E0A9690698641C88477F1E01D400287B
:103AB00003DAE96906988847BCE72928F1D1641C34
:103AC000CAF80040E9E71BF0240F07D028680499E2
:103AD000031D2B600068C0E9001805E02868021D7E
:103AE0002A600068C0F800902046A5E70000F07F3B
:103AF000494E46494E495459000000002DE9F04115
:103B000016461F460C46851B02E02846B847AD1BEB
:103B1000641EFAD2BDE8F081B2F120030AD5C2F1E9
:103B2000200301FA02F120FA03F300FA02F041EA5D
:103B30000301704700FA03F14FF0000070475FEA9D
:103B4000400C08BF91F0000F4FEA8C234FEAC122CE
:103B500043EA51514FEA1C5018BF00F5F0404FEABC
:103B6000300018BF41F000415FEA6C5C00F0298032
:103B7000BCF1FF3F08BF40F080407047130C06BF08
:103B800012044FF0100C4FF0000C130E04BF120281
:103B90000CF1080C130F04BF12010CF1040C930F6D
:103BA00004BF92000CF1020CD30F04BF52000CF1C1
:103BB000010C11464FF00002A0F11F00A0EB0C0019
:103BC000704711F0004F08BF704731F000413FF4DB
:103BD000D5AF0B0C06BF09044FF0100C4FF0000CD2
:103BE0000B0E04BF09020CF1080C0B0F04BF0901F6
:103BF0000CF1040C8B0F04BF89000CF1020CCB0FED
:103C000004BF49000CF1010CCCF12003A0EB0C0027
:103C100022FA03F302FA0CF241EA030100F1010077
:103C2000704720F07F4C80EA030023F07F47ACEB25
:103C3000070303F57C5300F0004003F1FF032DE977
:103C400080494FEA154B09B44FEA144325EA0B4E5D
:103C500024EA03480FF2042606EB132749083E78AE
:103C60005FEA320203FB0667C7F5000707FB06F6AB
:103C70004FEA54374FEAD64606F1020607FB066CB8
:103C8000CCF1005C4FEA1C472CEA074C07FB06F41A
:103C90000CFB06F504EB15464FEA961634BF0020E0
:103CA0004FF000404FEAD13706FB07FC4FEA1C4CAF
:103CB0000CFB0BF7D21B03FB0CF761EB07010CFBB2
:103CC0000EF7B0EB074072EB17420CFB08F734BF5E
:103CD000A2EB0742B2EB074261EB17414FEA0C44FB
:103CE0004FEA910706FB07FC4FEA1C4C0CFB0BF755
:103CF000B0EBC74072EB573203FB0CF734BFA2EBBB
:103D0000C742B2EBC74261EB57310CFB0EF7B0EB89
:103D1000C70072EB57720CFB08F734BFA2EBC70267
:103D2000B2EBC70261EB5771039F4FEA816141EA31
:103D3000921104EBCC044FEAD1374FEA826206FBC2
:103D400007FC42EA90124FEA80604FEA1C4C0CFBE1
:103D50000BF7D21B03FB0CF761EB07010CFB0EF713
:103D6000B0EB074072EB17420CFB08F734BFA2EB35
:103D70000742B2EB074261EB17414FEA8C554FEA1D
:103D8000910704EB9C2406FB07FC4FEA1C4C0CFB40
:103D90000BF7B0EBC74072EB573203FB0CF734BFA5
:103DA000A2EBC742B2EBC74261EB57310CFB0EF7F7
:103DB000B0EBC70072EB57720CFB08F734BFA2EBF5
:103DC000C702B2EBC70261EB577115EB4C254FEA06
:103DD000816141EA92114FEA82624FEAD13742EAA9
:103DE000901206FB07FC44F100044FEA80604FEAA2
:103DF0001C4C0CFB0BF7D21B03FB0CF761EB070110
:103E00000CFB0EF7B0EB074072EB17420CFB08F708
:103E100034BFA2EB0742B2EB074261EB174115EB4F
:103E20001C154FEA813141EA92414FEA823242EA5F
:103E300090424FEA80304FEA0C7644F1000448EAA1
:103E400003434EEA0B484FF0000EB2EB080C71EB47
:103E5000030724BF624639464EEB0E0E4FF0000BAF
:103E60000018524149414BEB0B0BB2EB080C71EBC4
:103E700003077BF1000B24BF624639464EEB0E0E62
:103E80004FF0000B0018524149414BEB0B0BB2EBCA
:103E9000080C71EB03077BF1000B24BF6246394627
:103EA0004EEB0E0E51EA020718BF46F0010616EB64
:103EB0000E7655F1000254F1000103D5BDE88901E9
:103EC000BDE80088BDE88901BDE80048B619524147
:103ED00041EB0101A3F10103704780807F7E7D7C6F
:103EE0007B7A7978777676757473727171706F6E8C
:103EF0006E6D6C6C6B6A6A69686867666665646437
:103F0000636362616160605F5F5E5E5D5D5C5C5BC0
:103F10005B5A5A595958585757565655555554542F
:103F2000535352525251515050504F4F4F4E4E4D8D
:103F30004D4D4C4C4C4B4B4B4A4A4A4949494848D9
:103F40004847474747464646454545444444444319
:103F500043434342424242414141000046EA064651
:103F6000A3F570534FEA164646EA42564FEAD2226C
:103F700042EA415210B54FEAD121A3F1010300F00A
:103F80002FF820F0004000F1020C00F0004701EB98
:103F900000501146BCF5006F40EA070000D210BD8A
:103FA000BAF1000F0AD01CB503B44FF004004FF073
:103FB00004014FF000000FBCBDE810404FF00001BD
:103FC000BBF1010FB9BF04484FF0FF310348002196
:103FD00040EA070010BD00BFFFFFEF7F0000F07F49
:103FE000002B9C4630D477002BD01CB54FEA370706
:103FF00003B44FF010004FF01001BAF1000F06D0DB
:10400000BCF1000FDCBF40F0080040F008014FF0A9
:1040100000000FBCBDE810400BF1010BBBF1010F1C
:1040200008BF5FEA170722BF12F1010211F1010177
:104030004FF0004143F1000300F0004043EA00006C
:104040007047F9D35708D0E746EA064613F1400F08
:104050004FEA16461FDD13F1200FDFBF16430A4655
:10406000002120335B42BED0C3F1200746EA06465A
:1040700002FA07F74FEA164646EA0706C3F1200799
:1040800022FA03F201FA07F721FA03F14FF00003D5
:1040900042EA0702A7E746EA020646EA06464FEA70
:1040A000164646EA0106BCBF46EA0646360C4FF005
:1040B00000034FF000024FF0000194E72DE9804C1F
:1040C0009A46934670B491E8380007C831EA400C2C
:1040D00048BF34EA430C03D5FFF7A3FDFFF780FF89
:1040E000F0BCBDE8008C2DE9804C9A46934670B434
:1040F00091E8380007C831EA400C48BF34EA430C65
:1041000003D5FFF78EFDFFF729FFF0BCBDE8008C5B
:104110002DE9804C9A46934670B491E8380007C860
:1041200010F0804F08BF13F0804F03D100F01AF851
:10413000FFF756FFF0BCBDE8008C2DE9804C9A4695
:10414000934670B491E8380007C810F0804F08BF5C
:1041500013F0804F03D100F005F8FFF7FFFEF0BC2D
:10416000BDE8008C20F07F4780EA030023F07F4CFD
:1041700007EB0C03A3F57C5300F00040A3F1FE0312
:1041800092F0000F00F0B38095F0000F00F0778000
:104190002DE901494FEA11404FEA144621EA00484F
:1041A00000FB06FC24EA064708FB06F607FB08F8B6
:1041B00000FB07F718EB06484CEB164C4FEA124B86
:1041C00018EB07484FEA15464CEB174022EA0B4E16
:1041D0000BFB06FC25EA06470EFB06F607FB0EFE68
:1041E0000BFB07F71EEB064E4CEB164C4FF0000690
:1041F0001EEB074E4CEB174B18EB0B0840F1000081
:1042000018EB0E0B58EB000840F100008F1A4FF02E
:1042100000013CBFC943661B14BFB5EB040C002171
:104220003CBFC943F61B4FEA17444EEA8E0E27EAFD
:1042300004454FEA1C4704FB07622CEA074C05FBC8
:1042400007F70CFB05F604FB0CFC16EB074642EBEC
:10425000174216EB0C4642EB1C421BEB060658EBD2
:104260000202414146EA9E0601D5BDE80189B61920
:10427000524141EB0101A3F10103BDE801894FEA7D
:1042800014454FEA114724EA054621EA074C05FB8D
:1042900007F406FB07F70CFB06F105FB0CFC11EB22
:1042A000074144EB17444FEA124711EB0C4144EB32
:1042B0001C4422EA074C05FB07F206FB07F70CFB40
:1042C00006F605FB0CFC16EB074642EB174216EB15
:1042D0000C4642EB1C456A1854F1000148BF704778
:1042E000B619524141EB0101A3F10103704795F06A
:1042F000000F37D04FEA11424FEA144721EA024635
:1043000024EA074C02FB07F106FB07F70CFB06F457
:1043100002FB0CFC14EB074441EB17414FEA154735
:1043200014EB0C4441EB1C4125EA074C02FB07F55A
:1043300006FB07F70CFB06F602FB0CFC16EB074628
:1043400045EB174516EB0C4645EB1C42121951F193
:10435000000148BF7047B619524141EB0101A3F17A
:10436000010370474FEA14454FEA114724EA054616
:1043700021EA074C05FB07F106FB07F70CFB06F2E9
:104380004FF0000605FB0CFC12EB074241EB174116
:1043900012EB0C4251EB1C4148BF7047921841EBA5
:1043A0000101A3F10103704738B504466846AFF335
:1043B00000800146204605F0B3F938BDFEE770479E
:1043C00000F0DEBA00E0401E0028FCDC704772B648
:1043D000FEE700002DE9F84F81462C481E4688462E
:1043E00003884B454FD3418841454CD3B0884107A2
:1043F00000D0012101EBD000203A10FB02F0F1883F
:104400004FF0800A484331684FF0010B0F18002528
:1044100036E000242BE00A9804F00702A0F57F4163
:10442000FF3939782AFA02F001EA000101D009B90E
:104430000BE0B1B108EB050081B209EB040080B2DA
:104440000123CDF800B00B9A09E008EB050081B21A
:1044500009EB0400CDF800B080B201230A9A00F005
:10446000FDF9E043400700D17F1C641CA4B2B08872
:10447000A042D0D83079400700D07F1C6D1CADB26F
:10448000F088A842C5D8BDE8F88F00009C00002045
:104490002DE9FF4FADF5037D8846DDE990BA8146F1
:1044A00000244FF4807715462646394642A8FCF78B
:1044B00070F8394602A8FCF76CF8164842AA03883F
:1044C0004B4523D3438802A843451FD30A219DB1FE
:1044D00095FBF1F301FB135395FBF1F530330355D5
:1044E000641C24B2F3E7031913F8013C8B55761CC6
:1044F000641E36B224B200E01146002CF3DCCDE994
:1045000000BA41464846869B00F006F80DF5077D47
:10451000BDE8F08F9C0000202DE9FC5F8046194823
:1045200089460D4601884446DDF834B01E461746DC
:10453000A14225D341888246A94221D31DE0B088FB
:10454000BAF800300119994203D9F1884446294448
:104550008DB2F188BAF802002944814201D944465B
:104560004D460C99CDE9001B334629462046FFF7FE
:1045700031FFB0887F1C204484B23A78002ADED113
:10458000BDE8FC9F9C0000202DE9FF4F804681483C
:1045900085B00F460488129944457BD34088B842C1
:1045A00078D903200024A0EB420015B20FFA80FA5C
:1045B00001297BD0EAE0264661E000BF4FF0010907
:1045C00008EB040007EB060B02901FFA8BF1CDF805
:1045D000009080B24B46089A00F040F9A8EB040026
:1045E00004901FFA8BF1CDF8009080B20123089A55
:1045F00000F034F93819CDE9009081B2A8EB060B30
:104600001FFA8BF00123089A00F028F9381B039059
:1046100081B2CDF800901FFA8BF00123089A00F0C8
:104620001DF90498A7EB060B1FFA8BF1CDF800904B
:1046300080B20123089A00F011F902981FFA8BF159
:10464000CDF8009080B20123089A00F007F9039892
:1046500008EB060B81B2CDF800901FFA8BF0012316
:10466000089A00F0FBF80198CDF8009081B21FFA8B
:104670008BF00123089A00F0F1F8761C36B2AE42B6
:104680009CDDBAF1000F07DA0AEB8400801D0FFAF7
:1046900080FA09E00CE009E0611B0AEB81000A30B6
:1046A0006D1E0FFA80FA2DB2641C24B2AC4282DD7A
:1046B00009B0BDE8F08F08EB0400012607EB0509FF
:1046C00002901FFA89F1009680B2139B089A00F0BD
:1046D000C5F8A8EB040003901FFA89F1009680B298
:1046E000139B089A00F0BAF83819CDE9006081B23E
:1046F000A8EB05091FFA89F0139B089A00F0AEF8A1
:10470000A7EB040B1FFA8BF11FFA89F00096139B9D
:10471000089A00F0A3F80398A7EB05091FFA89F19E
:10472000009680B2139B089A00F098F802981FFA3E
:1047300089F1009680B2139B089A00F08FF808EB7D
:1047400005091FFA8BF11FFA89F00096139B089A4E
:1047500000F084F80198009681B21FFA89F0139B4B
:10476000089A00F07BF8BAF1000F05DA0AEB840032
:10477000801D0FFA80FA07E0611B0AEB81000A3006
:104780006D1E0FFA80FA2DB2641C24B2AC4292DD89
:104790008EE700009C0000202DE9FE4F1C462E4BAA
:1047A00015461A88824254D35B888B4251D3AA4261
:1047B0004FD3A3424DD383468A462A1A00D5421BC3
:1047C0009146621A002A00DD0A1B90464FF0FF3224
:1047D000AB4501D2012000E010460290A24500D274
:1047E000012209EB0806002701927F1C0D987FB279
:1047F000012805D1032097FBF0F100FB1170E8B10F
:1048000001200090514658460E9B0C9A00F026F865
:10481000B8EB460F06DCAB451BD002984644584423
:104820001FFA80FBB9EB460FDFDBA24511D00199DF
:104830004E440AEB01001FFA80FAD6E701200090EF
:104840004FF6FF72514658460E9B00F007F80027BE
:10485000DEE7BDE8FE8F00009C0000202DE9F05F40
:10486000814621481C46884603880A9993464B4551
:1048700021D3428842451ED301294FF000062FD193
:10488000881E00EB440714E009EB06000025A0EBAE
:10489000040A0AE008EB0500001B81B21FFA8AF047
:1048A0005A4601F0E5FA6D1CADB2AF42F2DC761C5F
:1048B000B6B2B742E8DCBDE8F09F002509EB060779
:1048C0007F1E09E008EB0500401E81B2B8B25A46CF
:1048D00001F0CEFA6D1CADB2A542F3D3761CB6B290
:1048E000A642EAD3E7E700009C0000202DE9FE4F36
:1048F0008846224917468146DDE90C4208880E9D0C
:104900001E46484510D34988434641450CD3B8421A
:104910000AD3B14208D3184642B1014633463A465B
:104920004846009401F014FABDE8FE8F4FF0000AEB
:10493000CDE9004A43463A46194648460295FFF7F4
:104940002BFFCDE9004A4A463346414610460295C0
:10495000FFF722FFCDE9004A3A464346314610466A
:104960000295FFF719FFCDE9004A33464A4619463A
:1049700038460295FFF710FFD6E700009C000020A4
:1049800070B5044600F006F90546601C02D00448E4
:104990000078044400F0FEF8401BA042FAD370BD3A
:1049A0001C0000202DE9F84FDFF8ACA10022012403
:1049B0000AF1040B03254FF00F090BF1040E00BFA1
:1049C0000B6804FA02F63340B34272D10F7907F054
:1049D0000307012F01D0022F16D187684FEA420842
:1049E00005FA08FC27EA0C07D1F80CC00CFA08FC01
:1049F0004CEA070CC0F808C04768B7430E79C6F305
:104A0000001696403E4346600E79F643B6070AD03C
:104A1000C6684FEA420C05FA0CF7BE438F6807FAE6
:104A20000CF73743C7600E7906F00306022E10D14B
:104A3000D60800EB8608D8F8206057074FEAD76CF5
:104A400009FA0CF7BE430F6907FA0CF73743C8F8A9
:104A5000207006684FEA420C05FA0CF7BE430F7946
:104A600007F0030707FA0CF7374307604E68F600B4
:104A70006BD53A4E376847F480473760366822F086
:104A8000030706F480460096354E07EB060CDCF86B
:104A9000086897074FEA177809FA08F7BE43314FBD
:104AA000B84201D100271FE02F4FB84202D10127A1
:104AB0001AE04AE02D4FB84201D1022714E02C4FF2
:104AC000B84201D103270FE02A4FB84201D1042791
:104AD0000AE0294FB84201D1052705E0274FB84227
:104AE00001D1062700E0072707FA08F73743CCF87B
:104AF0000878DAF800605746D1F804C09E435FEAB0
:104B0000CC3C00D51E433E60DBF800605F46D1F828
:104B100004C09E435FEA8C3C00D51E433E60DEF835
:104B200000607746D1F804C09E435FEACC2C00D5E4
:104B30001E433E60084F0C373E68D1F804C09E43C8
:104B40005FEA8C2C00D51E433E60521C102AFFF4F5
:104B500037AFBDE8F88F0000003C01404438024008
:104B60000030014000000240000402400008024002
:104B7000000C0240001002400014024000180240E5
:104B80000069084000D0012070470AB18161704778
:104B90000904FBE701488068704700001C00002002
:104BA0000248816802781144816070471C0000202F
:104BB0000B4810B5016841F400710160016841F4CF
:104BC00080610160016841F480710160032000F0A0
:104BD00063F8002000F006F800F024F8002010BD73
:104BE000003C024070B50D4D04464FF47A712878B0
:104BF000B1FBF0F00A490968B1FBF0F000F064FD88
:104C000048B9102C07D200222146501E00F024F88B
:104C100000206C6070BD012070BD00001C000020F1
:104C2000280000200B4882B0016841F480410160F7
:104C3000006800F4804000900648001F016841F0C1
:104C400080510160006800F080500090072002B0A1
:104C500000F022B844380240F0B40E4B1B680C46FA
:104C6000C3F30223C3F10705042D00D90425191D40
:104C7000072901D2002300E0DB1E012606FA05F118
:104C8000491E214099409E40761E16403143F0BC9B
:104C900003F08FBF0CED00E0064900F00702086842
:104CA0004FF6FF03184040EA0220034A1043086011
:104CB000704700000CED00E00000FA052DE9F04718
:104CC0000E46050065D0DFF81481D8F80000F7B271
:104CD00000F00F00B04207D288F80070D8F800004A
:104CE00000F00F00B04254D128683D4C810712D526
:104CF000400703D5206840F4E05020602878000782
:104D000003D5206840F4604020602068A96820F046
:104D1000F000084320602878C0072DD0304968682B
:104D20000839012812D0022813D0032811D00968AD
:104D3000890700292DDA216821F003010143216050
:104D4000FFF728FF814641F2883A0EE0096889039F
:104D5000EFE709688901ECE7FFF71CFFA0EB090109
:104D6000514502D90320BDE8F0872068696800F04A
:104D70000C00B0EB810FEFD1D8F80010404601F0E5
:104D80000F01B14207D90770006800F00F00B04270
:104D900001D00120E7E72878400705D52068E968B9
:104DA00020F4E050084320602878000706D52068EA
:104DB000296920F4604040EAC100206000F038F822
:104DC0002168084AC1F30311515CC84006490860D4
:104DD00006480068FFF706FF0020C4E7003C0240D9
:104DE000083802403ACF00082800002020000020A8
:104DF0000448054900680968044AC1F38221515CEE
:104E0000C840704728000020083802404ACF0008F8
:104E10000448054900680968044AC1F34231515CFD
:104E2000C840704728000020083802404ACF0008D8
:104E3000224810B5006810F00C02214815D041102E
:104E4000042A11D01D4C241F082A0FD00C2A0CD183
:104E50002268236802F03F025B0221D52068C0F37C
:104E60008810A0FB010120E0084610BD22682368DD
:104E700002F03F025B0205D52068C0F38810A0FB5A
:104E8000010104E02168C1F38811A1FB00010023A6
:104E9000FBF76AFA2168C1F30141491C49000AE0A5
:104EA0002168C1F38811A1FB00010023FBF75CFA24
:104EB0002168C1F30271B0FBF1F010BD0838024067
:104EC0000024F4002DE9F84F04007DD0DFF878B31A
:104ED0002078ABF10407C007A7F1040550D0DBF838
:104EE00000105846C1F3810101290FD00168C1F3B8
:104EF0008101022902D13968490207D40068C0F350
:104F00008100032809D13868400206D5286880034B
:104F100036D560680028D8D032E06068B0F5803FB0
:104F200010D0B0F5A02F286810D020F48030286071
:104F3000286820F4802028606068A0B1FFF72AFE6E
:104F400006460CE0286840F48030F4E740F4802006
:104F50002860F7E7FFF71EFE801B642876D82868D4
:104F60008003F7D50CE0FFF715FE064605E000BF0D
:104F7000FFF710FE801B6428F0D828688003F7D460
:104F80002078DFF8C89280074FF0000A44D5DBF89C
:104F90000010584611F00C0F0FD00168C1F38101C9
:104FA000022902D13968490207D50068C0F381009F
:104FB00003280AD13868400207D42868800715D52D
:104FC000E068012800D111E03AE1E068B0B10120C9
:104FD000C9F80000FFF7DEFD064604E0FFF7DAFD42
:104FE000801B0228BAD828688007F7D5286821696D
:104FF00020F0F80040EAC10028600DE0C9F800A0E8
:10500000FFF7C8FD064604E0FFF7C4FD801B022839
:105010001CD828688007F7D42078000727D5DFF848
:1050200028828B48616908F16C0881B10121016017
:10503000FFF7B0FD064604E0FFF7ACFD801B022839
:1050400004D8D8F800008007F6D510E089E0C0F851
:1050500000A0FFF79FFD064605E000BFFFF79AFDA1
:10506000801B02287DD8D8F800008007F6D420786D
:10507000400769D574484FF0000838300068C00018
:105080000BD471483830016841F0805101600068EC
:105090004FF0010800F0805000906E4E3068C0055F
:1050A00011D4306840F480703060FFF773FD0090D9
:1050B00006E000BFFFF76EFD0099401A022850D8A5
:1050C0003068C005F6D5604EA068683601280FD05C
:1050D0000528306810D020F001003060306820F0E2
:1050E00004003060A068B8B1FFF754FD00900FE0F5
:1050F000306840F00100F4E740F004003060F7E76A
:10510000FFF748FD0099411A41F28830814264D886
:1051100030688007F4D50EE0FFF73CFD009007E013
:10512000FFF738FD0099411A41F28830814254D886
:1051300030688007F4D4B8F1000F05D04248383009
:10514000016821F080510160A069A8B3DBF800106C
:10515000C1F38101022947D00228C9F860A005D017
:1051600000E03AE0FFF716FD044639E0FFF712FDD4
:10517000064604E0FFF70EFD801B02282DD82868A4
:105180008001F7D4F4E907010843E168324A49088D
:1051900002EB0141A26841EA82110843217C40EA06
:1051A0000160217D40EA017038600120C9F860008B
:1051B000FFF7F0FC044606E044E000BFFFF7EAFC1E
:1051C000001B022809D828688001F7D53AE000BF03
:1051D000FFF7E0FC001B022802D90320BDE8F88F8E
:1051E00028688001F4D42DE00128F7D03868E269FE
:1051F00000F48001914223D1226A00F03F019142E4
:105200001ED147F6C071626A0140B1EB821F17D10F
:10521000A26A4FF0FF3300F4403103EB5202B1EBCE
:10522000024F0DD194F82C2000F07061B1EB026FA9
:1052300006D194F8301000F0E040B0EB017F01D0CF
:105240000120CBE70020C9E70838024000004742B0
:10525000800E4742007000400000FFFF70B5040060
:1052600009D0606A002540B125616561A56294F8A6
:10527000510040B10CE0012070BD6068B0F5827F44
:10528000F4D0E561F2E784F85050204600F044F88D
:10529000022084F851002068016821F0400101607B
:1052A000A088218900F4827001F404410843A18997
:1052B00001F400610843217C01F002010843217DD3
:1052C00001F001010843218B01F400710843217FA3
:1052D00001F03801084394F8201001F080010843E0
:1052E000218D01F40051084321680860A069042160
:1052F00001EA104094F8241001F0100108432168DD
:1053000048602068C16921F40061C16165650120C0
:1053100084F85100002070BD10B586B004461421F9
:105320006846FBF736F913492068884220D11248B5
:105330000021026842F480520260006800F480504C
:1053400005900D481438026842F0010202600068BE
:1053500000F001000590E02000900220CDE901015D
:10536000032003900520049069460448FFF71AFBC8
:1053700006B010BD00300140443802400000024039
:105380002DE9F84F044690F8500000271D461646B8
:10539000894601280DD04FF0010B84F850B0FFF77B
:1053A000F9FB804694F85100BA46012804D0022740
:1053B00093E00220BDE8F88FB9F1000F73D0002E02
:1053C00071D0032084F85100C4F854A0C4F8309080
:1053D000A686E686C4F838A0A4F83CA0A4F83EA0AF
:1053E000C4F844A0C4F840A0A068B0F5004F09D1AB
:1053F0002068016821F0400101602068016841F4E3
:105400008041016020680168490603D4016841F0C9
:1054100040010160E068B0F5006F606803D030B310
:10542000012E24D041E008B1012E1CD1206B21684F
:105430000088C86006E020688168890709D5216B6B
:105440000988C160206B801C2063E08E401EE086CE
:1054500009E0FFF79FFBA0EB0800A84202D3681CFD
:1054600001D031E07DB3E08E0028E4D120E0206B54
:1054700021680078087306E020688168890709D5EB
:10548000216B09780173206B401C2063E08E401E65
:10549000E0860AE0FFF77EFBA0EB0800A84203D3FA
:1054A000681C02D010E017E06DB1E08E0028E3D157
:1054B00042462946204600F077FE08B1202060656C
:1054C000A06818B106E0FFE7032706E02068C1687E
:1054D00080680090606D00B1012784F851B084F8B5
:1054E00050A0384666E72DE9F84F044690F8500082
:1054F00000270A9E1D4692468B464FF0010901285F
:105500000ED0012084F85000FFF744FB804694F849
:105510005100616801280CD0B1F5827F07D102E00B
:105520000220BDE8F88FA16809B9042801D002273C
:10553000C2E0BBF1000F27D0BAF1000F24D01DB399
:1055400094F85100042802D0052084F8510000206E
:105550006065C4F838A0E587A587C4F830B0E58653
:10556000A5862064606420680168490603D4016848
:1055700041F040010160E068B0F5006F606805D05F
:10558000E8B3012D46D07FE0012795E008B1012D59
:1055900039D1206B21680088C860206B801C206393
:1055A000E08E401EE0862EE02068816889070FD5D6
:1055B000E18E69B1B9F1010F0AD1216B0988C1608F
:1055C000206B801C2063E08E401EE0864FF00009B7
:1055D00020688168C9070CD0E18F51B1C068A16B08
:1055E0000880A06B801CA063E08F401EE0874FF016
:1055F0000109FFF7CFFAA0EB0800B04200E009E094
:1056000001D3701C50D1E08E0028CDD1E08F00284E
:10561000CAD13FE0206B216800780873206B401CE2
:105620002063E08E401EE0862EE0206881688907B6
:105630000FD5E18E69B1B9F1010F0AD1216B09785B
:105640000173206B401C2063E08E401EE0864FF00B
:10565000000920688168C9070CD0E18F51B1C0688A
:10566000A16B0870A06B401CA063E08F401EE08718
:105670004FF00109FFF78EFAA0EB0800B04202D309
:10568000701C01D010E07EB1E08E0028CDD1E08FFB
:105690000028CAD142463146204600F085FD28B197
:1056A00001272020606507E0032705E0A06818B9FE
:1056B0002068C16880680090012084F851000020B3
:1056C00084F8500038462CE710B5401EB0F1807FBA
:1056D00001D3012010BD4FF0E02460610F2160175D
:1056E00003F067FA0020A06107202061002010BDB0
:1056F00070B590F83C20012A32D0012480F83C405B
:10570000022280F83D2003685A689D6822F07006E6
:105710000A6832435A60134B02689A4214D0B2F1BD
:10572000804F11D0104B9A420ED0104B9A420BD0A2
:105730000F4B9A4208D00F4B9A4205D00E4B9A421B
:1057400002D00E4B9A4204D1496825F080031943D8
:10575000916080F83D40002180F83C10084670BD03
:10576000022070BD0000014000040040000800401D
:10577000000C0040000401400040014000180040BF
:1057800010B586B0044614216846FAF702FF0D49A9
:105790002068884214D10C480021026842F00402BB
:1057A0000260006800F00400059080200090022054
:1057B000CDE90101CDE9031069460448FFF7F2F88D
:1057C00006B010BD0004004030380240000802401E
:1057D00070B5044690F83C000D4601280AD001201F
:1057E00084F83C0042B1042A18D0082A2AD00C2A96
:1057F0004DD139E0022070BD206800F0E1FD206845
:10580000816941F0080181612068816921F004010A
:105810008161206881692A69114311E0206800F0E4
:10582000FFFD2068816941F4006181612068816920
:1058300021F480618161206881692A6941EA02213D
:10584000816124E0206800F021FE2068C16941F0F8
:105850000801C1612068C16921F00401C1612068AB
:10586000C1692A69114311E0206800F043FE2068F5
:10587000C16941F40061C1612068C16921F480619E
:10588000C1612068C1692A6941EA0221C161002021
:1058900084F83C0070BD10B5040003D094F83D00BE
:1058A00010B107E0012010BD002084F83C00204624
:1058B00000F01EF8022084F83D00211D206800F051
:1058C0000DFD012084F8460084F83E0084F83F0076
:1058D00084F8400084F8410084F8420084F84300D2
:1058E00084F8440084F8450084F83D00002010BD91
:1058F00008B500680649884208D10648016841F0A9
:1059000002010160006800F00200009008BD000084
:10591000000400404038024010B50446022249B15C
:1059200004290ED0082913D094F84100012816D07C
:10593000012010BD94F83E000128F9D184F83E20E2
:105940000FE094F83F000128F2D184F83F2008E0EE
:1059500094F840000128EBD184F8402001E084F85D
:1059600041200122206800F01DFD16492068164ADA
:10597000884201D0904203D1436C43F40043436416
:105980002068884213D0B0F1804F10D00F49884270
:105990000DD00F4988420AD00E49884207D0904264
:1059A00005D00D49884202D00C49884204D1816853
:1059B00001F00701062903D0016841F001010160EF
:1059C000002010BD00000140000401400004004020
:1059D00000080040000C004000400140001800405A
:1059E00070B5040004D094F83D00002510B106E025
:1059F000012070BD84F83C50204600F023F824209C
:105A000084F83D002068C16821F40051C16020463F
:105A100001F036FD2068016921F4904101612068A0
:105A2000416921F02A0141612068C16841F40051B7
:105A3000C1602564202084F83D0084F83E000020E9
:105A400070BD000010B586B0044614216846FAF710
:105A5000A0FD13492068884220D112480021026825
:105A600042F400320260006800F4003005900D48F6
:105A70001038026842F001020260006800F0010084
:105A800005900C2000900220CDE901010320039035
:105A90000720049069460448FEF784FF06B010BD55
:105AA000004400404038024000000240FEE7000091
:105AB00008B500210090034843880288084600F09A
:105AC00047F908BD9C0000202DE9F04101221B4E42
:105AD0000C468046550229463046FFF756F84FF4EB
