:020000040800F2
:1000000050080020750200080D2F00088D270008F9
:10001000092F000861080008394C000800000000A2
:10002000000000000000000000000000C1300008D7
:1000300065080008000000003D2F0008C3300008DC
:100040008F0200088F0200088F0200088F0200084C
:100050008F0200088F0200088F0200088F0200083C
:100060008F0200088F0200088F0200088F0200082C
:100070008F0200088F0200088F0200088F0200081C
:100080008F0200088F0200088F0200088F0200080C
:100090008F0200088F0200088F0200088F020008FC
:1000A0008F0200088F0200088F0200088F020008EC
:1000B0008F0200088F0200088F0200088F020008DC
:1000C0008F0200088F0200088F0200088F020008CC
:1000D0008F0200088F0200088F0200088F020008BC
:1000E0008F0200088F0200088F0200088F020008AC
:1000F000E93000088F0200088F0200088F02000814
:100100008F0200088F0200088F0200088F0200088B
:100110008F0200088F0200088F0200088F0200087B
:100120008F0200088F0200088F0200088F0200086B
:100130008F02000800000000000000008F0200088D
:100140008F0200088F0200088F0200088F0200084B
:100150008F0200088F0200088F0200088F0200083B
:100160008F0200088F0200088F0200088F0200082B
:100170008F0200088F0200088F02000800000000B4
:10018000000000008F0200080000000000000000D6
:100190008F02000800000000000000008F0200082D
:1001A0000000000000000000000000008F020008B6
:1001B0008F0200088F0200088F0200088F020008DB
:1001C0008F02000800F002F800F045F80AA090E85D
:1001D000000C82448344AAF10107DA4501D100F002
:1001E0003AF8AFF2090EBAE80F0013F0010F18BF8A
:1001F000FB1A43F001031847C0760000E0760000C8
:10020000103A24BF78C878C1FAD8520724BF30C842
:1002100030C144BF04680C60704700000023002414
:1002200000250026103A28BF78C1FBD8520728BF06
:1002300030C148BF0B6070471FB504F081FF9DE8D7
:10024000030000F075F900F0F9FA1FBD10B50020A9
:1002500000F04DFA10BD00F0FAF91146FFF7ECFF7F
:1002600004F0EEFD00F03AFA03B4FFF7EFFF03BC31
:1002700000F034F90948804709480047FEE7FEE7E7
:10028000FEE7FEE7FEE7FEE7FEE7FEE7FEE7FEE746
:1002900004480549054A064B70470000CD30000868
:1002A000C501000850020020500800205004002022
:1002B0005004002053EA020C00F069802DE9F04B55
:1002C0004FF00006002B1FBFB3FA83F503FA05F4C5
:1002D00024FA05F65E4012BF1643B2FA82F502FA1E
:1002E00005F4C5F120051EBF22FA05FC44EA0C0402
:1002F000203556EA044C4FEA144418BF641C4FF0F2
:1003000000084FF00009904271EB030C39D300292B
:1003100019BFB1FA81F701FA07F6B0FA80F700FACF
:1003200007F6C7F120071EBF20FA07FC46EA0C06B5
:100330002037B6FBF4FCA7EB0507103F07F01F0BB7
:10034000CBF120060CFA0BFB2CFA06F644BFB346A1
:100350000026202FA4BF5E464FF0000B5BEA060C80
:1003600008BF4FF0010B19EB0B09ABFB027C48EB0C
:100370000608C01B06FB02CC0BFB03CC71EB0C0187
:10038000C1E70B46024641464846BDE8F08B13B52F
:100390004FF000004FF00001AFF30080BDE81C40BB
:1003A00070474FF0000200B5134694469646203938
:1003B00022BFA0E80C50A0E80C50B1F12001BFF41E
:1003C000F7AF090728BFA0E80C5048BF0CC05DF884
:1003D00004EB890028BF40F8042B08BF704748BFD2
:1003E00020F8022B11F0804F18BF00F8012B704746
:1003F0007047704770470000004870472402002093
:1004000070B5064600F074F8056806F10B0020F0A0
:100410000704B4429CBF002070BD2B466A68BAB185
:100420001068A04210D304F1080188423CBF506814
:10043000586007D35168101941601168091B0160A9
:1004400058601460101D70BD13465268002AE7D131
:100450002146284600F058F80028DED170BD70B55E
:100460000446051F00F044F80068002C14BF4468DF
:1004700070BD002C18BFAC423CBF20466468F8D366
:1004800001680A18AA4218BF456003D12A680546C8
:100490001144016028684119A1421CBF6C6070BD05
:1004A0006168696021680844286070BD10B500F07B
:1004B00023F8006810BD10B5044600F01DF8046074
:1004C00010BD10B5002000F085F8FFF7BFFEBDE8B5
:1004D0001040012000F002B800F083B80149182054
:1004E000ABBEFEE72600020000487047F001002086
:1004F00000487047F801002000487047F0010020D4
:10050000704770477047704738B504460A46002068
:100510006946AFF30080002808BF38BD0246009945
:10052000204600F0C1F8012038BD012000F032B9AA
:10053000F8B5AFF30080054600200C46102000BF40
:100540000646A819A0420DD9324669460020AFF3ED
:100550000080070008BF00F01DF90098A04218BFF6
:100560000546C419FFF7C4FF05600746F01D20F0DB
:1005700007004619284600F00AF8B44208BFF8BD43
:10058000A21B31463868BDE8F84000F08DB8002164
:100590000160C0E901107047102070472DE9F0415B
:1005A000074615460E461020FFF72AFF04000AD022
:1005B0006760C4E9026500F06FF8016821600460BB
:1005C0000020BDE8F0810120FBE7002801D0FFF703
:1005D00085BF704710B500F0C5F8BDE81040FFF7C3
:1005E000F4BF10B500F00DF8016919B100220261E5
:1005F000884701E080688047FFF763FF10B5FFF789
:1006000060FF70B500F04CF804680546A4B92020DE
:10061000FFF7F6FE040011D0094900202C60C4E960
:1006200000010849A1602073206160610649A06152
:1006300009B100F0B6F8E061204670BDFFF741FF58
:1006400000000000FD05000800000000704775462E
:10065000FFF74AFFAE4605006946534620F0070003
:10066000854618B020B5FFF713FEBDE820404FF0D7
:1006700000064FF000074FF000084FF0000B21F08C
:100680000701AC46ACE8C009ACE8C009ACE8C00959
:10069000ACE8C0098D46704700487047280200202A
:1006A000004870472C020020034640688C46002812
:1006B00018BF88423CBF03464068F8D31868184406
:1006C000884207D00CF1030020F00700001D411AFA
:1006D000521A0146081D0A60FFF7C1BE10B5044654
:1006E000AFF300802046BDE81040FFF7BDBD2DE907
:1006F000F0410646FFF7D0FF8046454613E016B1AD
:10070000E068B0420ED120682860D4E90101D8F831
:10071000007088472046FFF7A2FED8F80000B842D4
:10072000EBD100E025462C68002CE8D1BDE8F08133
:1007300070B505460C460A2000E06D1C00F04FF82D
:1007400035B128780028F8D102E0641C00F047F8A1
:1007500014B120780028F8D1BDE870400A2000F0DC
:100760003EB8000010B5002102A0FFF7E1FF012014
:1007700010BD0000534947414252543A2041626E35
:100780006F726D616C207465726D696E6174696FF2
:100790006E00000010B500F029F8BDE81040FFF72A
:1007A00014BF10B58820FFF72BFE002801D00021D0
:1007B000017010BD802902D808B1017809B100206C
:1007C0007047012100F8081B704718B100F10802BA
:1007D000914201D00020704700210170704708B598
:1007E00069468DF800000320ABBE08BD10B5012896
:1007F00005D0002103A0FFF79BFF012010BD09A138
:10080000F8E7000053494752544D454D3A204F7583
:1008100074206F662068656170206D656D6F7279F8
:10082000000000003A2048656170206D656D6F72B0
:100830007920636F727275707465640070B5064CD0
:100840007C44064D7D4403E0206820448047241DFD
:10085000AC42F9D170BD0000947000009C700000A3
:1008600000BFFEE7704710B50446204600F062FB6B
:1008700010BD014600E0491E0029FCDC704772B63D
:1008800000BFFEE72DE9FC5F0746884692461D46FD
:10089000DDF830B044480088B84203DB4248408865
:1008A000404501DABDE8FC9FA988CA1701EB5272E6
:1008B000D2100846CB1701EB5373DB10A1EBC30337
:1008C0000BB1012300E000231344AAF12002B5F884
:1008D00006C002FB0CF25A4301922868019A00EB11
:1008E000020900265BE000244AE04FF6FF708345D2
:1008F00017D1E11704EB5171C910A4EBC10280219B
:10090000114199F80020114011B3012008EB0602B3
:1009100091B23A19009090B201230D9A00F05EFA5C
:1009200022E0E11704EB5171C910A4EBC102802150
:10093000114199F80020114059B1012008EB06023D
:1009400091B23A19009090B201230D9A00F046FA44
:100950000AE0012008EB060291B23A19009090B229
:1009600001235A4600F03AFAE11704EB5171C9101D
:10097000A4EBC101072901D109F10109601C84B26E
:10098000A888A042B1DCA888C11700EB5171C9103A
:10099000A0EBC10109B109F10109701C86B2E88818
:1009A000B042A0DC00BF7DE7540000202DE9F04FED
:1009B000ADF5037D06460F4615469946DDF834B27F
:1009C000DDF830A20024A0464FF4807143A8FFF761
:1009D000E8FC4FF4807103A8FFF7E3FC43A8029002
:1009E0001A480088B04203DB18484088B84203DA4E
:1009F0000DF5037DBDE8F08F0CE00A2095FBF0F1CA
:100A000000FB1150303003A90855601C04B20A20C5
:100A100095FBF0F5002DF0D10BE0601E03A9085CFA
:100A200043A901F8080008F101000FFA80F8601EE0
:100A300004B2002CF1DC4B46CDE900AB3946304620
:100A4000029A00F005F800BFD2E700005400002031
:100A50002DE9FC5F04460E4617461D46DDE90CAB4A
:100A6000A046B14617480088A04203DB15484088DD
:100A7000B04201DABDE8FC9F1FE0A888404411495C
:100A80000988884204DDA046E88848441FFA80F9B6
:100A9000E88848440B494988884201DDA046B146B0
:100AA000CDE900AB3A782B4649464046FFF7EAFECF
:100AB0007F1CA88840441FFA80F838780028DCD1D1
:100AC00000BFD7E7540000202DE9F84F05460E4639
:100AD00092469B467A480088A84203DB78484088C3
:100AE000B04201DCBDE8F88F00240FFA8AF703203A
:100AF000A0EB4A000FFA80F90A98012877D172E03A
:100B0000A0465BE0012006EB080291B22A19009092
:100B100090B201235A4600F061F9012006EB080269
:100B200091B22A1B009090B201235A4600F056F968
:100B30000120321991B2A5EB0802009090B2012376
:100B40005A4600F04BF90120321B91B2A5EB080286
:100B5000009090B201235A4600F040F90120A6EB24
:100B6000080291B22A1B009090B201235A4600F06D
:100B700035F90120A6EB080291B22A19009090B233
:100B800001235A4600F02AF90120321B91B205EBED
:100B90000802009090B201235A4600F01FF901208C
:100BA000321991B205EB0802009090B201235A4627
:100BB00000F014F908F101000FFA80F8B845A1DD42
:100BC000B9F1000F05DAA000801D48440FFA80F942
:100BD00007E0E01B80000A3048440FFA80F9781ED5
:100BE00007B2601C04B2BC428ADD66E0FFE762E047
:100BF0000120F21991B22A19009090B25A460B9B2B
:100C000000F0ECF80120F21991B22A1B009090B28A
:100C10005A460B9B00F0E2F80120321991B2EA1B10
:100C2000009090B25A460B9B00F0D8F80120321B7E
:100C300091B2EA1B009090B25A460B9B00F0CEF89E
:100C40000120F21B91B22A1B009090B25A460B9BD6
:100C500000F0C4F80120F21B91B22A19009090B262
:100C60005A460B9B00F0BAF80120321B91B2EA19E8
:100C7000009090B25A460B9B00F0B0F80120321958
:100C800091B2EA19009090B25A460B9B00F0A6F878
:100C9000B9F1000F05DAA000801D48440FFA80F971
:100CA00007E0E01B80000A3048440FFA80F9781E04
:100CB00007B2601C04B2BC429ADD00BF12E700001C
:100CC000540000202DE9F04F85B007460C4615462C
:100CD0001E4641480088B8420BDB3F484088A0428E
:100CE00007DB3D480088A84203DB3B484088B04210
:100CF00002DA05B0BDE8F08FAF4203DD2946384681
:100D000000F014F9B44203DD3146204600F00EF93C
:100D1000B846A246E81B01D4E81B00E0781B8346D6
:100D2000301B002801DC301B00E0A01B0490AF4208
:100D300001DA012001E04FF0FF300390B44201DA04
:100D4000012001E04FF0FF30029004980BEB000906
:100D50000020019000BF0198401C40B201900F9804
:100D6000012812D10321019890FBF1F201FB12003E
:100D700058B9012000904FF6FF7251464046109B33
:100D800000F02CF80020019007E00120009051466F
:100D90004046109B0E9A00F021F84FEA4901049852
:100DA000814208DBA84500D112E0049881440398F1
:100DB00040441FFA80F84FEA49005845CBDCB24561
:100DC00000D105E0D944029850441FFA80FAC2E7E6
:100DD00000BF00BF8DE70000540000202DE9F04760
:100DE0000746884691461D46DDF820A01F4800882A
:100DF000B84203DB1D484088404501DABDE8F08772
:100E0000BAF1010F1AD1002413E000260BE008EB21
:100E10000602521B91B23A19521B90B24A4601F097
:100E200091FE701C86B26800401EB042EFDC601C70
:100E300084B26800401EA042E7DC15E0002411E007
:100E400000260BE008EB0602521E91B23A19521E20
:100E500090B24A4601F076FE701C86B2AE42F1DBDB
:100E6000601C84B2AC42EBDB00BFC7E7540000203B
:100E70002DE9FE4F80460C4615469946DDE90DA743
:100E80000C9E2948008840450BDB27484088A0423B
:100E900007DB25480088A84203DB234840884845F3
:100EA00001DABDE8FE8FA84503DD2946404600F083
:100EB0003DF84C4503DD4946204600F037F8BAF1CD
:100EC000000F07D04B462A4621464046009601F0C7
:100ED000B3FD27E0002023462A462146CDE901073D
:100EE00000964046FFF7EEFE00204B464246214664
:100EF000CDE9010700964046FFF7E4FE00202346B7
:100F00002A464946CDE9010700962846FFF7DAFE52
:100F100000204B4642464946CDE901070096284647
:100F2000FFF7D0FE00BFBCE7540000200246084691
:100F30001146704770B5044600F018F9064625467C
:100F4000681C10B104480078054400BF00F00EF999
:100F5000801BA842FAD370BD20000020F8B50246DD
:100F60000B460025002400200021D9E0012606FAC6
:100F700001F51E6806EA0504AC4275D11E7906F03B
:100F80000306012E04D01E7906F00306022E13D1AB
:100F900090684F000326BE40B0434F00DE68BE405D
:100FA00030439060506801268E40B0431E79C6F3EE
:100FB00000168E40304350601E7906F00306032E63
:100FC00009D0D0684F000326BE40B0434F009E6852
:100FD000BE403043D0601E7906F00306022E13D1C6
:100FE000CF0802F1200656F827004E07F70E0F260D
:100FF000BE40B0434F07FF0E1E69BE403043CF08CE
:1010000002F1200646F8270010684F000326BE4074
:10101000B0431E7906F003064F00BE403043106017
:101020005E6806F08056B6F1805F78D100BF00267A
:1010300000963D4E366846F480463B4F3E603E4645
:10104000366806F48046009600BF00BF374E8F0812
:1010500056F827008E07370F0F26BE40B043344E98
:10106000B24202D100261FE059E0324EB24201D115
:10107000012619E0304EB24201D1022614E02F4E73
:10108000B24201D103260FE02D4EB24201D1042617
:101090000AE02C4EB24201D1052605E02A4EB242AA
:1010A00001D1062600E007268F073F0FBE403043E0
:1010B0001E4E8F0846F82700244E3068A0435E6815
:1010C00006F48036B6F5803F00D120431F4E3060D5
:1010D000361D3068A0435E6806F40036B6F5003F62
:1010E00000D12043194E361D3060361D3068A043B4
:1010F0005E6806F48016B6F5801F00D12043134EBB
:1011000008363060361D3068A0435E6806F400166D
:10111000B6F5001F00D120430C4E0C363060491C40
:101120001029FFF423AFF8BD4438024008380140CD
:10113000000002400004024000080240000C02408F
:10114000001002400014024000180240003C014020
:10115000024613690B400BB1012000E000207047EC
:101160000AB1816101E00B048361704701480068A6
:101170007047000018000020034800680349097800
:101180000844014908607047180000202000002032
:1011900010B50D48006840F400700B49086008461F
:1011A000006840F4806008600846006840F4807081
:1011B0000860032000F0A6F8002000F007F800F017
:1011C0002BF8002010BD0000003C024070B5044622
:1011D0000E4800784FF47A71B1FBF0F00C490968C1
:1011E000B1FBF0F5284600F01DFF08B1012070BDED
:1011F000102C07D200222146501E00F045F8054869
:10120000046001E00120F2E70020F0E72000002068
:10121000240000201C00002008B500BF0020009022
:101220001048006840F480400E4908600846006895
:1012300000F48040009000BF00BF00BF002000907D
:10124000081F006840F08050091F086008460068C9
:1012500000F08050009000BF00BF072000F052F85F
:1012600008BD00004438024001460846002809DB5A
:1012700000F01F0301229A4043099B0003F1E02381
:10128000C3F8002100BF70472DE9F05F80460D468E
:101290001646002703F04EFD074639462A463346D8
:1012A00001F00700C0F1070ABAF1040F02D94FF0AC
:1012B000040A01E0C0F1070AD14600F1040ABAF1BC
:1012C000070F02D24FF0000A01E0A0F1030AD44652
:1012D0004FF0010A0AFA09FAAAF1010A0AEA020A17
:1012E0000AFA0CFA4FF0010B0BFA0CFBABF1010BF5
:1012F0000BEA030B4AEA0B042146404603F022FDA9
:10130000BDE8F09F00BF00F00702064B19684FF6DA
:10131000FF031940044B0B4343EA0221014B1960C0
:1013200000BF70470CED00E00000FA0570B5044600
:101330000D460CB9012070BD5848006800F00F0040
:10134000A84209D255490D700846006800F00F0008
:10135000A84201D00120EEE7207800F00200022828
:101360001DD1207800F00400042805D14C48006805
:1013700040F4E0504A490860207800F0080008284E
:1013800005D14748006840F460404549086044483A
:10139000006820F0F000A168084341490860207807
:1013A00000F00100A8B36068012807D13C48083864
:1013B0000068C0F34040B8B90120BCE7606802286B
:1013C00002D06068032807D1354808380068C0F3A8
:1013D000406048B90120AEE7314808380068C0F3E2
:1013E000400008B90120A6E72D48006820F003005E
:1013F000616808432A490860FFF7B8FE064609E01D
:10140000FFF7B4FE801B41F28831884202D90320E5
:1014100091E707E02248006800F00C006168B0EB3B
:10142000810FEDD11D48006800F00F00A84209D9D6
:101430001A490D700846006800F00F00A84201D05C
:10144000012078E7207800F00400042807D1144830
:10145000006820F4E050E1680843114908602078F2
:1014600000F00800082808D10D48006820F460400A
:10147000216940EAC1000A49086000F03FF80849C4
:101480000968C1F30311074A515CC8400649086066
:1014900006480068FFF79AFE00204CE7003C024037
:1014A00008380240E2770008240000201C000020D9
:1014B00001480068704700002400002000B5FFF7D5
:1014C000F7FF04490968C1F38221034A515CC8400F
:1014D00000BD000008380240F277000800B5FFF7B1
:1014E000E7FF04490968C1F34231034A515CC8402F
:1014F00000BD000008380240F27700082DE9F047EF
:10150000002400250026A146A2463F48006800F0BE
:101510000C0030B1042807D0082808D00C286BD163
:1015200038E0DFF8E8A06AE0DFF8E4A067E03648DA
:10153000001F006800F03F043348001F006800F4FB
:10154000800078B132483049091F0968C1F3881119
:10155000A0FB01700146224600233846FEF7AAFE92
:1015600005460DE029482849091F0968C1F388117B
:10157000A0FB0171224600233846FEF79BFE05467C
:101580002148001F0068C0F30140401C4600B5FB25
:10159000F6FA34E01C48001F006800F03F041A48C7
:1015A000001F006800F4800078B119481649091F2F
:1015B0000968C1F38811A0FB01700146224600238F
:1015C0003846FEF777FE05460EE010480E49091F23
:1015D0000968C1F38811A0FB01700146224600236F
:1015E0003846FEF767FE05460748001F0068C0F34F
:1015F0000279B5FBF9FA02E0DFF810A000BF00BFE6
:101600005046BDE8F0870000083802400024F4008E
:1016100000127A00F8B504460CB90120F8BD207814
:1016200000F0010000286FD0FE48006800F00C00B8
:1016300004281BD0FB48006800F00C00082807D1E4
:10164000F848001F006800F48000B0F5800F0DD04E
:10165000F448006800F00C000C2813D1F148001F7A
:10166000006800F48000B0F5800F0BD1ED48083819
:101670000068C0F34040002859D06068002856D167
:101680000120CBE700BF6068B0F5803F08D1E54896
:101690000838006840F48030E249083908601EE0EC
:1016A0006068B0F5A02F0DD1DE480838006840F41E
:1016B0008020DC49083908600846006840F4803022
:1016C00008600CE0D7480838006820F48030D5491D
:1016D000083908600846006820F48020086000BFD0
:1016E000606890B1FFF742FD054606E0FFF73EFD5A
:1016F000401B642801D9032090E7CA4808380068D5
:10170000C0F340400028F1D011E0FFF72FFD05465F
:1017100006E0FFF72BFD401B642801D903207DE77D
:10172000C04808380068C0F340400028F1D1207854
:1017300000F0020002286BD1BA48006800F00C00EB
:10174000B8B1B848006800F00C00082805D1B548C9
:10175000001F006800F4800058B1B248006800F033
:101760000C000C281CD1AF48001F006800F480005A
:10177000B0B9AC4808380068C0F3400020B1E06858
:10178000012801D0012049E7A6480838006820F068
:10179000F800216940EAC100A2490839086037E031
:1017A000E06800B30120A0490860FFF7DFFC0546B0
:1017B00006E0FFF7DBFC401B022801D903202DE7E0
:1017C000984808380068C0F340000028F1D09548D8
:1017D0000838006820F0F800216940EAC10091490A
:1017E0000839086014E000208F490860FFF7BEFC4C
:1017F000054606E0FFF7BAFC401B022801D903208A
:101800000CE7884808380068C0F340000028F1D190
:10181000207800F0080008282CD16069A8B10120C8
:1018200082490860FFF7A2FC054606E0FFF79EFC30
:10183000401B022801D90320F0E67A486C3000688A
:10184000C0F340000028F1D014E000207749086080
:10185000FFF78CFC054606E0FFF788FC401B0228DA
:1018600001D90320DAE66F486C300068C0F340000D
:101870000028F1D1207800F00400042870D100275E
:1018800068483830006800F0805090B900BF0020F0
:10189000009064483830006840F080506149383129
:1018A00008600846006800F08050009000BF00BF4C
:1018B00001275F48006800F48070B0B95C48006898
:1018C00040F480705A490860FFF750FC054606E076
:1018D000FFF74CFC401B022801D903209EE6544828
:1018E000006800F480700028F2D000BFA0680128D2
:1018F00008D14C486830006840F00100494968311F
:1019000008601DE0A06805280DD1464868300068D1
:1019100040F004004349683108600846006840F020
:10192000010008600CE03F486830006820F00100CA
:101930003C49683108600846006820F004000860EF
:1019400000BFA068A8B1FFF711FC054609E0FFF74A
:101950000DFC401B41F28831884202D903205DE62C
:1019600026E0304868300068C0F340000028EED020
:1019700013E0FFF7FBFB054608E0FFF7F7FB401B12
:1019800041F28831884201D9032047E62548683072
:101990000068C0F340000028EFD1012F07D1214893
:1019A0003830006820F080501E493831086000BF90
:1019B000A069002851D01B48006800F00C000828DE
:1019C00061D0A069022849D1002017490866FFF7B5
:1019D000CDFB054606E0FFF7C9FB401B022801D9F5
:1019E00003201BE60F4808380068C0F34060002859
:1019F000F1D1D4E907010843616A40EA811101226B
:101A0000A06AC2EB500041EA00412C20005D41EA8F
:101A100000613020005D41EA00700249091F086042
:101A2000012007E00838024000004742800E47428C
:101A3000007000402F490866FFF798FB054606E056
:101A4000FFF794FB401B022801D90320E6E52A4852
:101A50000068C0F340600028F2D048E0002025492B
:101A60000866FFF783FB054606E0FFF77FFB401B98
:101A7000022801D90320D1E51F480068C0F3406067
:101A80000028F2D133E0A069012800D1C6E51A4848
:101A9000001D0668A069012827D006F48001E069CE
:101AA000814222D106F03F01206A81421DD147F6D2
:101AB000C0703040616AB0EB811F16D106F440312E
:101AC0000122A06AC2EB5000B1EB004F0DD106F02D
:101AD00070612C20005DB1EB006F06D106F0E04193
:101AE0003020005DB1EB007F01D0012096E50020A1
:101AF00094E50000000047420038024010B504465B
:101B00000CB9012010BD606A38B96068B0F5827FF9
:101B100000D105E00021E16102E000212161616165
:101B20000021A16294F8510028B9002084F85000E7
:101B3000204600F047F8022084F851002068006831
:101B400020F0400021680860A08800F4827021899C
:101B500001F404410843A18901F400610843217C98
:101B600001F002010843217D01F001010843218BAE
:101B700001F400710843217F01F03801084320215E
:101B8000095D01F080010843218D01F400510843F3
:101B9000216808600421A06901EA104094F824102B
:101BA00001F010010843216848602068C06920F4F2
:101BB00000602168C86100206065012084F8510040
:101BC00000209FE710B586B00446142101A8FEF757
:101BD000E8FB1B49206888422FD100BF00200090FD
:101BE0001848006840F480501649086008460068AC
:101BF00000F48050009000BF00BF00BF00200090A4
:101C000010481438006840F001000E49143908608B
:101C10000846006800F00100009000BF00BFE0200F
:101C200001900220029000200390032004900520E0
:101C3000059001A90448FFF791F906B010BD000016
:101C40000030014044380240000002402DE9F84FC6
:101C50000446884616461D464FF0000A00BF94F819
:101C60005000012802D10220BDE8F88F012084F83D
:101C7000500000BFFFF77AFA0746B14694F85100CA
:101C8000012802D04FF0020AADE0B8F1000F00D0F9
:101C900016B94FF0010AA6E0032084F85100002095
:101CA0006065C4F83080A686E686A063A087E087DA
:101CB00060642064A068B0F5004F0BD12068006814
:101CC00020F04000216808602068006840F48040EF
:101CD000216808602068006800F04000402805D0B6
:101CE0002068006840F0400021680860E068B0F5B6
:101CF000006F2FD1606810B1B9F1010F09D1206BCD
:101D000000882168C860206B801C2063E08E401E24
:101D1000E0861BE02068806800F0020002280AD1FB
:101D2000206B00882168C860206B801C2063E08ED7
:101D3000401EE0860AE0FFF719FAC01BA84201D353
:101D4000681C00B915B94FF0030A4CE0E08E00287A
:101D5000E0D12EE0606810B1B9F1010F09D1206B1C
:101D6000007821680873206B401C2063E08E401EC1
:101D7000E0861BE02068806800F0020002280AD19B
:101D8000206B007821680873206B401C2063E08E74
:101D9000401EE0860AE0FFF7E9F9C01BA84201D324
:101DA000681C00B915B94FF0030A1CE0E08E00284A
:101DB000E0D13A462946204601F0E0F808B120205B
:101DC0006065A06850B900BF002000902068C0681E
:101DD000009020688068009000BF00BF606D08B16F
:101DE0004FF0010A00BF012084F8510000BF00201D
:101DF00084F8500000BF504636E72DE9FF5F0446E7
:101E0000884691461D460E9E0120029000200190BA
:101E100000BF94F85000012803D1022004B0BDE8AF
:101E2000F09F012084F8500000BFFFF79FF907469C
:101E300094F851B060680390AA46BBF1010F0BD033
:101E40000398B0F5827F04D1A06810B9BBF1040FEC
:101E500002D002200190DBE0B8F1000F03D0B9F10D
:101E6000000F00D015B901200190D1E094F8510085
:101E7000042802D0052084F8510000206065C4F8D1
:101E80003890E587A587C4F83080E586A58620646C
:101E900060642068006800F04000402805D0206899
:101EA000006840F0400021680860E068B0F5006F0D
:101EB0004AD1606810B1BAF1010F09D1206B0088D6
:101EC0002168C860206B801C2063E08E401EE08685
:101ED00033E02068806800F00200022810D1E08E14
:101EE00070B1029801280BD1206B00882168C8606E
:101EF000206B801C2063E08E401EE0860020029054
:101F00002068806800F0010068B1E08F58B1206857
:101F1000C068A16B0880A06B801CA063E08F401E8E
:101F2000E08701200290FFF721F9C01BB04204D3E3
:101F3000701C10B1032001906AE0E08E0028C8D127
:101F4000E08F0028C5D14AE0606810B1BAF1010FF6
:101F500009D1206B007821680873206B401C206336
:101F6000E08E401EE08634E02068806800F00200C9
:101F7000022810D1E08E70B1029801280BD1206B9D
:101F8000007821680873206B401C2063E08E401E9F
:101F9000E086002002902068806800F0010068B1AF
:101FA000E08F58B12068C068A16B0870A06B401C1E
:101FB000A063E08F401EE08701200290FFF7D6F873
:101FC000C01BB04201D3701C00B916B903200190A8
:101FD0001EE0E08E0028C7D1E08F0028C4D13A4629
:101FE0003146204600F0CAFF20B101200190202098
:101FF00060650DE0A06850B900BF00200090206827
:10200000C068009020688068009000BF00BF00BFDB
:10201000012084F8510000BF002084F8500000BF68
:102020000198FBE670B504462546681EB0F1807F36
:1020300001D301200FE0681E4FF0E02148610F211D
:102040004FF0FF3002F07EFE00204FF0E02188616B
:1020500007200861002070BD7047704730B5024608
:102060000B4600BF92F83C00012801D1022030BD90
:10207000012082F83C0000BF022082F83D00106879
:1020800044681068816824F070041868044310687C
:102090004460184D1068A8421BD01068B0F1804F02
:1020A00017D0154D1068A84213D0144D1068A842DF
:1020B0000FD0134D1068A8420BD0124D1068A842E3
:1020C00007D0114D1068A84203D0104D1068A842E7
:1020D00005D121F08001586801431068816001201A
:1020E00082F83D0000BF002082F83C0000BF00BF26
:1020F000BDE700000000014000040040000800406F
:10210000000C004000040140004001400018004065
:1021100010B504460CB9012010BD94F83D0028B953
:10212000002084F83C00204600F026F8022084F8C5
:102130003D00211D206800F0DFFF012084F84600EB
:1021400000BF84F83E0001213F2001554020015589
:102150004120015500BF00BF012084F84200432008
:102160000155442001554520015500BF012084F848
:102170003D000020D0E7000038B50446184920682B
:10218000884218D100BF002000901648006840F037
:102190008000144908600846006800F08000009044
:1021A00000BF00BF002211462C20FFF76DF82C2045
:1021B000FFF75AF813E00C49206888420FD100BF9E
:1021C000002000900748006840F4807005490860CE
:1021D0000846006800F48070009000BF00BF38BD62
:1021E000001C00404038024000200040704710B5FD
:1021F000044620680069C0F34000D8B12068C06878
:10220000C0F34000B0B16FF0020021680861012006
:1022100020772068806900F0030018B12046FFF79E
:10222000E5FF05E0204600F0DDF8204600F0A6F9C5
:102230000020207720680069C0F38000D8B12068B2
:10224000C068C0F38000B0B16FF00400216808617D
:10225000022020772068806900F4407018B1204681
:10226000FFF7C4FF05E0204600F0BCF8204600F070
:1022700085F90020207720680069C0F3C000D8B13C
:102280002068C068C0F3C000B0B16FF008002168DA
:102290000861042020772068C06900F0030018B1AD
:1022A0002046FFF7A3FF05E0204600F09BF82046FC
:1022B00000F064F90020207720680069C0F3001066
:1022C000D8B12068C068C0F30010B0B16FF0100042
:1022D00021680861082020772068C06900F44070F8
:1022E00018B12046FFF782FF05E0204600F07AF89B
:1022F000204600F043F9002020772068006900F0B4
:10230000010058B12068C06800F0010030B16FF0E2
:10231000010021680861204600F0B8F920680069D2
:10232000C0F3C01058B12068C068C0F3C01030B10D
:102330006FF08000216808612046FFF78DFE20685D
:102340000069C0F3801058B12068C068C0F38010E5
:1023500030B16FF0400021680861204600F097F925
:1023600020680069C0F3401058B12068C068C0F30D
:10237000401030B16FF02000216808612046FFF75F
:102380006CFE10BD10B586B00446142101A8FEF7FE
:1023900008F81149206888421CD100BF0020009035
:1023A0000E48006840F004000C49086008460068C8
:1023B00000F00400009000BF00BF802001900220C8
:1023C00002900020039004900220059001A9044887
:1023D000FEF7C4FD06B010BD0004004030380240D6
:1023E00000080240704770B504460D46164600BF0F
:1023F00094F83C00012801D1022070BD012084F82E
:102400003C0000BF36B1042E1BD0082E31D00C2E5C
:102410005ED145E02946206800F0ECFE2068806926
:1024200040F00800216888612068806920F004007D
:10243000216888612068806929690843216888616A
:1024400047E02946206800F00DFF2068806940F4CD
:102450000060216888612068806920F480602168BC
:10246000886120688069296940EA012021688861C3
:102470002FE02946206800F033FF2068C06940F053
:1024800008002168C8612068C06920F00400216844
:10249000C8612068C069296908432168C86118E0DB
:1024A0002946206800F058FF2068C06940F40060A9
:1024B0002168C8612068C06920F480602168C86113
:1024C0002068C069296940EA01202168C86100E0EC
:1024D00000BF00BF00BF002084F83C0000BF00BF69
:1024E0008BE710B504460CB9012010BD94F83D00EF
:1024F00028B9002084F83C00204600F025F802208E
:1025000084F83D00211D206800F0F6FD012084F8CC
:10251000460000BF84F83E0001213F2001554020C5
:1025200001554120015500BF00BF012084F8420041
:1025300043200155442001554520015500BF01208D
:1025400084F83D000020D0E708B50A4A01689142AE
:102550000FD100BF002100910749096841F0020135
:10256000054A11601146096801F00201009100BF9F
:1025700000BF08BD00040040403802407047000022
:1025800070B504460D4615B994F83E000BE0042DD5
:1025900002D13F20005D06E0082D02D14020005D01
:1025A00001E04120005D012801D0012070BD1DB96E
:1025B000022084F83E000EE0042D03D102213F20CA
:1025C000015508E0082D03D102214020015502E009
:1025D00002214120015501222946206800F0F8FD22
:1025E00023492068884203D022492068884201D1CB
:1025F000012000E0002028B12068406C40F4004039
:10260000216848641A49206888421BD02068B0F1CC
:10261000804F17D018492068884213D01749206886
:1026200088420FD01649206888420BD01149206893
:10263000884207D013492068884203D01249206895
:1026400088420CD12068806800F00706062E0CD066
:102650002068006840F001002168086005E02068FB
:10266000006840F001002168086000209EE700003B
:102670000000014000040140000400400008004048
:10268000000C0040004001400018004070477047B7
:1026900010B504460CB9012010BDA06900B100E0DE
:1026A00000BF94F83D0028B9002084F83C00204683
:1026B00000F028F8242084F83D002068C06820F449
:1026C00000502168C860204602F0A0F92068006927
:1026D00020F49040216808612068406920F02A00B9
:1026E000216848612068C06840F400502168C860D3
:1026F00000202064202084F83D0084F83E00002063
:10270000CAE7000010B586B00446142101A8FDF701
:1027100048FE1B49206888422FD100BF002000904E
:102720001848006840F40030164908600846006800
:1027300000F40030009000BF00BF00BF00200090F8
:1027400010481038006840F001000E491039086048
:102750000846006800F00100009000BF00BF0C2098
:102760000190022002900020039003200490072093
:10277000059001A90448FEF7F1FB06B010BD00006A
:1027800000440040403802400000024000BFFEE725
:1027900038B504460448009443880288002108465E
:1027A00000F04AF938BD00005400002070B505461D
:1027B0000C4600F021F9B4F57A7F01DD4FF47A740C
:1027C000204600F054F900F010F8284600F06AF9AD
:1027D000C820FEF748F8112000F018FA7820FEF71C
:1027E00042F8292000F012FA70BD10B5F92000F06F
:1027F0000DFA002000F0EEF9082000F0EBF9C020FF
:1028000000F004FA192000F0E5F91A2000F0E2F9CE
:10281000C12000F0FBF9452000F0DCF9002000F0B9
:10282000D9F9C22000F0F2F9332000F0D3F9C52025
:1028300000F0ECF9002000F0CDF9282000F0CAF9F2
:10284000B12000F0E3F9A02000F0C4F9112000F05D
:10285000C1F9B42000F0DAF9022000F0BBF9B6208B
:1028600000F0D4F9002000F0B5F9422000F0B2F9F0
:102870003B2000F0AFF9B72000F0C8F9072000F0C6
:10288000A9F9E02000F0C2F91F2000F0A3F92520EB
:1028900000F0A0F9222000F09DF90B2000F09AF939
:1028A000062000F097F90A2000F094F94E2000F07D
:1028B00091F9C62000F08EF9392000F08BF9002044
:1028C00000F088F9002000F085F9002000F082F97E
:1028D000002000F07FF9002000F07CF9002000F0DB
:1028E00079F9E12000F092F91F2000F073F93F2000
:1028F00000F070F93F2000F06DF90F2000F06AF948
:102900001F2000F067F90F2000F064F9462000F066
:1029100061F9492000F05EF9312000F05BF90520F3
:1029200000F058F9092000F055F9032000F052F9A1
:102930001C2000F04FF91A2000F04CF9002000F0A4
:1029400049F9F12000F062F9362000F043F9042043
:1029500000F040F9002000F03DF93C2000F03AF989
:102960000F2000F037F90F2000F034F9A42000F018
:1029700031F9022000F02EF9F22000F047F918207A
:1029800000F028F9A32000F025F9122000F022F928
:10299000022000F01FF9322000F01CF9122000F094
:1029A00019F9FF2000F016F9322000F013F9002089
:1029B00000F010F9F42000F029F9402000F00AF9A5
:1029C000002000F007F9082000F004F9912000F041
:1029D00001F9042000F0FEF8F82000F017F921209A
:1029E00000F0F8F8042000F0F5F83A2000F00EF9B5
:1029F000552000F0EFF810BD10B5012251020D482E
:102A0000FEF7AEFB4FF4FA70FDF72DFF00224FF4F6
:102A100000710848FEF7A4FB4FF4FA70FDF723FF9E
:102A2000012251020348FEF79BFB4FF4FA70FDF7B9
:102A30001AFF10BD000002402DE9F04104460D468A
:102A400016461F46DDF81880A6420EDDAF420CDDAB
:102A50003B4632462946204600F08CF8781B82B26D
:102A6000301B81B2404600F008F8BDE8F08110B597
:102A70000446204600F04CFA10BD70B506460C46E0
:102A8000154604FB05F1304600F0DAF870BD70B56C
:102A900004460D462B4622462946204600F06AF899
:102AA00070BD000070B5044600250026082C1DD21C
:102AB000DFE804F004070A0D101316190825222672
:102AC00014E00825622611E0082502260EE00825FC
:102AD00042260BE02825222608E02825022605E0CC
:102AE0002825622602E02825422600BF00BF1448A0
:102AF00004712CB1012C03D0022C01D0032C07D17E
:102B00004FF4A0700E4908804FF4F070488006E042
:102B10004FF4F0700A4908804FF4A0704880B62046
:102B200000F074F8002000F055F8F0B200F052F810
:102B3000362000F06BF8E8B200F04CF870BD0000F1
:102B40005400002070B506460C461546084800881B
:102B5000B0420CDB06484088A04208DB21463046E4
:102B6000FFF795FF012211462846FFF786FF70BD4B
:102B7000540000202DE9F04104460D4616461F463C
:102B80002A2000F043F8201200F024F8E0B200F010
:102B900021F8711EC1F3072000F01CF8711EC8B2A5
:102BA00000F018F82B2000F031F8281200F012F88D
:102BB000E8B200F00FF8791EC1F3072000F00AF820
:102BC000791EC8B200F006F82C2000F01FF8BDE80E
:102BD000F081000010B50446012211020948FEF7F9
:102BE000BFFA002240210848FEF7BAFA201200F08E
:102BF000B9F9E0B200F0B6F9012240210248FEF72F
:102C0000AFFA10BD000002400004024010B50446B7
:102C100000224FF480710848FEF7A2FA00224021FA
:102C20000648FEF79DFA204600F09CF9012240215B
:102C30000248FEF795FA10BD000002400004024071
:102C400070B504460D46012211020C48FEF788FAC1
:102C5000002240210A48FEF783FA002606E02012EF
:102C600000F080F9E0B200F07DF9761CAE42F6D3B8
:102C7000012240210248FEF773FA70BD00000240B5
:102C80000004024000B587B0142102A8FDF789FBBB
:102C900000BF002001903F48006840F004003D491B
:102CA00008600846006800F00400019000BF00BF03
:102CB00000BF002001900846006840F080000860D6
:102CC0000846006800F08000019000BF00BF00BF10
:102CD000002001900846006840F0010008600846A6
:102CE000006800F00100019000BF00BF00BF00209D
:102CF00001900846006840F002000860084600683D
:102D000000F00200019000BF00BF00224FF48C6170
:102D10002148FEF725FA00224FF440711F48FEF7C4
:102D20001FFA4FF4005002901D48039000200490B9
:102D300002A91C48FEF712F94FF48C6002900120A2
:102D4000039000200490059002A91348FEF706F9AD
:102D50004FF44070029001200390002004900590F1
:102D600002A90E48FEF7FAF808200290002003900E
:102D7000049002A90848FEF7F1F84FF4B0700290F1
:102D800000200390049002A90648FEF7E7F807B078
:102D900000BD000030380240000402400000024044
:102DA000000021100008024010B50E480E490860CE
:102DB0004FF48270486000210B488160C16001615E
:102DC00041614FF4007181610821C16100210162FC
:102DD000416281620A21C162FEF790FE08B1FDF7EF
:102DE0004EFD10BD003001407C00002010B50A48A7
:102DF0000A49086044F24F6048600021074881603A
:102E000042F20F71C160002101618161FFF780F919
:102E100008B1FDF734FD10BD001C00401C0100206E
:102E200010B50A480A490860B320486000210848E4
:102E300081604FF6FF71C160002101618161FFF780
:102E400067F908B1FDF71BFD10BD00000020004030
:102E50006401002000B589B00020079008901C2173
:102E60006846FDF79EFA18481849086040F2077056
:102E7000486000211548816040F2E731C1600021BF
:102E800001618161FFF72DFB08B1FDF7F8FC00201F
:102E90000790089007A90D48FFF7E0F808B1FDF783
:102EA000EEFC60200090002001900290049004222B
:102EB00069460648FFF797FA08B1FDF7E0FC0348BA
:102EC000FFF760FA09B000BD00040040D400002004
:102ED00010B50B480B4908604FF4E1304860002101
:102EE00008488160C16001610C214161002181615C
:102EF000C161FFF7CDFB08B1FDF7C1FC10BD0000BB
:102F000000440040AC01002000BFFEE700BFFEE728
:102F100010B588B004466020019002940020039010
:102F20000590042201A90448FFF75DFA0421024834
:102F3000FFF726FB08B010BDD4000020704700004A
:102F400001B582B0002001904FF47A70012301AAEC
:102F500002A900900248FEF750FF9DF804000EBD44
:102F60007C00002001B54FF47A73012269460248C3
:102F7000FEF76CFE002008BD7C0000207CB50446F6
:102F80000D461646164800681821B0FBF1F01549A9
:102F9000B0FBF1F04FF47A71484301906068B0F5EE
:102FA000827F0DD12B46002280212046009600F022
:102FB0001BF898B1606D40F02000606503207CBD77
:102FC00000BF019800B908E00198401E01902068F8
:102FD0008068C0F3C0100028F3D100BF0020EEE7E6
:102FE0002400002040420F002DE9F84F04460D4612
:102FF00090461E46DDF82890FEF7B8F8A0EB0900D1
:10300000371AFEF7B3F882462C480068C0F3CB307D
:103010007843009045E0701C002842D0FEF7A6F8E7
:10302000A0EB0A00B84200D2A7BB2068406820F09D
:10303000E000216848606068B0F5827F0DD1A0682B
:10304000B0F5004F03D0A068B0F5806F05D12068BF
:10305000006820F0400021680860A06AB0F5005FB9
:103060000DD100BF2068006820F40050216808607E
:103070002068006840F400502168086000BF01200B
:1030800084F8510000BF002084F8500000BF0320E6
:10309000BDE8F88FFFE7009800B900270098401EB0
:1030A0000090206880682840A84201D1012000E0FB
:1030B00000204045AFD10020EAE7000024000020B6
:1030C000704710B5FEF758F810BD000005480068BD
:1030D00040F47000034908604FF0006001498039F6
:1030E0000860704788ED00E010B50248FFF77FF8F0
:1030F00010BD00001C01002010B50268294B984249
:103100000ED0B0F1804F0BD0274B984208D0274B00
:10311000984205D0264B984202D0264B984203D1C4
:1031200022F070024B681A431E4B984220D0B0F137
:10313000804F1DD01C4B98421AD01C4B984217D080
:103140001B4B984214D01B4B984211D01A4B9842FB
:103150000ED01A4B98420BD0194B984208D0194BFD
:10316000984205D0184B984202D0184B984203D190
:1031700022F44072CB681A4322F080034C6943EA80
:10318000040202608B68C3620B688362054B98423D
:1031900002D0084B984201D10B69036301234361BC
:1031A00010BD000000000140000400400008004085
:1031B000000C004000040140004001400044014078
:1031C0000048014000180040001C00400020004062
:1031D00030B501F01F05012404FA05F3046A9C438D
:1031E0000462046A01F01F0502FA05F52C4304622B
:1031F00030BD000030B5056A25F001050562026AA0
:103200004368846924F0700424F003040D682C439F
:1032100022F002028D682A43104DA84200D103E03B
:103220000F4DA84206D100BF22F00802CD682A4304
:1032300022F00402094DA84202D0094DA84207D14C
:1032400023F4807323F400734D692B438D692B4362
:10325000436084614D684563026230BD00000140F7
:103260000004014030B5056A25F010050562026AC8
:103270004368846924F4E04424F440740D6844EA0B
:10328000052422F020028D6842EA0512124DA84260
:1032900000D103E0114DA84207D100BF22F0800207
:1032A000CD6842EA051222F040020B4DA84202D03E
:1032B0000A4DA84209D123F4806323F400634D69C9
:1032C00043EA85038D6943EA8503436084614D6861
:1032D0008563026230BD000000000140000401402F
:1032E00030B5056A25F480750562026A4368C469D1
:1032F00024F0700424F003040D682C4322F40072BF
:103300008D6842EA0522124DA84200D103E0114D1A
:10331000A84207D100BF22F40062CD6842EA05222C
:1033200022F480620A4DA84202D00A4DA84209D177
:1033300023F4805323F400534D6943EA05138D6948
:1033400043EA05134360C4614D68C563026230BD42
:10335000000001400004014030B5056A25F48055A5
:103360000562036A4468C26922F4E04222F44072B2
:103370000D6842EA052223F400538D6843EA0533C1
:10338000084DA84202D0084DA84204D124F480443C
:103390004D6944EA85144460C2614D680564036266
:1033A00030BD00000000014000040140F0B52DEDEB
:1033B000088B89B000279FEDFA0AB0EE408A4FF6DD
:1033C000FF70FFF7E5F94FF478404FF6FF71F54BCA
:1033D000F54ACDE900103C210020FDF739FB0C2413
:1033E0004FF478422146204600F00EFF0020EF49BE
:1033F000087292E2012001F09DF8EC48007A00F09A
:10340000C000402875D1E948007A20F04000E74923
:1034100008720846808805A921F82700E348C0887B
:1034200001EB87014880781CC7B2C820FDF71BFA62
:10343000012F06D0022F17D0032F2BD0042F7DD1C0
:1034400041E04FF6FF722146204600F0DDFED849EC
:103450000988091B88B24FF47842214600F0D4FE57
:10346000C820FDF700FAFDE3D1490988091B88B29D
:103470004FF6FF72214600F0C7FECD484088001B82
:1034800081B24FF47842204600F0BEFEC820FDF71E
:10349000EAF9E7E3C6484088001B81B24FF6FF72A5
:1034A000204600F0B1FEC24A5288121B91B2C04AB7
:1034B0001288121B90B24FF4784200F0A5FEC8208B
:1034C000FDF7D1F9CEE3BDF81410BDF81820891A24
:1034D00008B2002801DB014600E041420D46BDF87C
:1034E0001620BDF81A10511A08B2002802DB014656
:1034F00001E0F7E341420E466D437643A81901F01F
:10350000F2FC41EC1B0BB0EE4B0AF0EE6B0A01F043
:103510002DFCB0EE40AAF0EE60AA51EC1A0B01F0BF
:10352000B5FC80B208EE900ABDF81C10BDF8202052
:10353000891A08B2002802DB014601E0E6E34142B5
:103540000D46BDF81E20BDF82210511A08B2002801
:1035500001DB014600E041420E466D437643A81967
:1035600001F0C1FC41EC1B0BB0EE4B0AF0EE6B0A14
:1035700001F0FCFBB0EE40AAF0EE60AA51EC1A0B91
:1035800001F084FC80B209EE100AB8EE680AF8EE89
:10359000490A80EE201AB0EE418A9FED860AB4EE09
:1035A000C08AF1EE10FA14D39FED830AB4EEC08AFC
:1035B000F1EE10FA0DDCB8EE680AB5EEC00AF1EED5
:1035C00010FA06D0B8EE490AB5EEC00AF1EE10FACC
:1035D00037D100279FED790A28EE000ABCEEC00A19
:1035E00010EE100A82B2BDF82200BDF82010BDF81E
:1035F0001E30CDE90131CDE90302BDF81C00009079
:10360000BDF81A30BDF81820BDF81610BDF814002A
:1036100001F0D4F84FF47A70FDF725F9644A528826
:10362000121B91B2624A1288121B90B24FF6FF72BF
:1036300000F0EAFD4FF478422146204600F0E4FD18
:1036400086E3BDF81410BDF81C20891A08B20028C2
:1036500001DB014600E041420D46BDF81620BDF8F1
:103660001E10511A08B2002801DB014600E0414259
:103670000E466D437643A81901F035FC41EC1B0B57
:10368000B0EE4B0AF0EE6B0A01F070FBB0EE40AA10
:10369000F0EE60AA51EC1A0B01F0F8FB80B208EED4
:1036A000900ABDF81810BDF82020891A08B2002829
:1036B00001DB014600E041420D46BDF81A20BDF88D
:1036C0002210511A08B2002801DB014600E04142F5
:1036D0000E466D437643A81901F005FC41EC1B0B27
:1036E000B0EE4B0AF0EE6B0A01F040FBB0EE40AAE0
:1036F000F0EE60AA51EC1A0B01F0C8FB80B209EEA3
:10370000100AB8EE680AF8EE490A80EE201AB0EE08
:10371000418A9FED280AB4EEC08AF1EE10FA06D372
:103720009FED250AB4EEC08AF1EE10FA48DD0027BD
:103730009FED220A28EE000ABCEEC00A10EE100A25
:1037400080B2BDF82210BDF82020BDF81E30CDE9B2
:103750000132CDE90310BDF81C000090BDF81A300D
:10376000BDF81820BDF81610BDF8140001F026F8B9
:103770004FF47A70FDF777F80D4A5288121B91B218
:103780000B4A1288121B90B24FF6FF7200F03CFDFC
:103790004FF478422146204600F036FDD8E2000082
:1037A0000000000000000020FC77000860000020FE
:1037B000540000203333733F6666863F0000C842E2
:1037C000BDF81810BDF81C20891A08B2002801DBCA
:1037D000014600E041420D46BDF81A20BDF81E101A
:1037E000511A08B2002801DB014600E041420E46B2
:1037F0006D437643A81901F076FB41EC1B0BB0EE4C
:103800004B0AF0EE6B0A01F0B1FAB0EE40AAF0EE0E
:1038100060AA51EC1A0B01F039FB80B208EE900A55
:10382000BDF81410BDF82020891A08B2002801DB69
:10383000014600E041420D46BDF81620BDF82210B9
:10384000511A08B2002801DB014600E041420E4651
:103850006D437643A81901F046FB41EC1B0BB0EE1B
:103860004B0AF0EE6B0A01F081FAB0EE40AAF0EEDE
:1038700060AA51EC1A0B01F009FB80B209EE100AA4
:10388000B8EE680AF8EE490A80EE201AB0EE418AD6
:103890001FED380AB4EEC08AF1EE10FA06D31FED20
:1038A0003A0AB4EEC08AF1EE10FA37DD00271FEDB8
:1038B0003D0A28EE000ABCEEC00A10EE100A82B2E1
:1038C000BDF82210BDF82000BDF81E30CDE9013052
:1038D000CDE90312BDF81C000090BDF81A30BDF808
:1038E0001820BDF81610BDF8140000F067FF4FF463
:1038F0007A70FCF7B8FFF84A5288121B91B2F64A68
:103900001288121B90B24FF6FF7200F07DFC4FF44C
:1039100078422146204600F077FC19E2EE48007913
:10392000EE4908761FED620A084680ED040A007E23
:1039300003286FD1E8480088022101FB140000EE43
:10394000100AF8EEC00ABDF81800BDF81410401AAD
:1039500000B200EE100AB8EEC00A80EE801ADF480E
:1039600080ED041ADC484088022101FB140000EEBF
:10397000100AF8EEC00ABDF81E00BDF81610401A75
:1039800000B200EE100AB8EEC00A80EE801AD348EA
:1039900080ED051ABDF81800BDF81410084400EEBB
:1039A000100AF8EEC00ACC48008800EE100AB8EE03
:1039B000400ACA4890ED041A01EE600AF0EE000ACF
:1039C00080EE201ABDEEC10A10EE100A00B2C34903
:1039D0004881BDF81E00BDF81610084400EE100A1C
:1039E000F8EEC00ABC48408800EE100AB8EE400A63
:1039F000BA4890ED051A01EE600AF0EE000A80EE7A
:103A0000201ABDEEC10A10EE100A00B2B349888137
:103A100058E1FFE7B148007EE8BBAF4800880221CB
:103A200001FB140000EE100AF8EEC00ABDF8140005
:103A3000BDF81810401A00B200EE100AB8EEC00A25
:103A400080EE801AA54880ED041AA3484088022120
:103A500001FB140000EE100AF8EEC00ABDF81610C3
:103A6000BDF81E00081A00B200EE100AB8EEC00A37
:103A700080EE801A994880ED051ABDF81400BDF853
:103A80001810084400EE100AF8EEC00A92480088A8
:103A900000EE100A00E031E0B8EE400A8F4890EDE9
:103AA000041A01EE600AF0EE000A80EE201ABDEE64
:103AB000C10A10EE100A00B288494881BDF81610FC
:103AC000BDF81E00084400EE100AF8EEC00A824855
:103AD000408800EE100AB8EE400A804890ED051AC2
:103AE00001EE600AF0EE000A80EE201ABDEEC10A77
:103AF00010EE100A00B279498881E3E07748007E31
:103B000005286FD174480088022101FB140000EEE3
:103B1000100AF8EEC00ABDF81A00BDF81610401AD7
:103B200000B200EE100AB8EEC00A80EE801A6B48B0
:103B300080ED041A68484088022101FB140000EE61
:103B4000100AF8EEC00ABDF81C00BDF81410401AA7
:103B500000B200EE100AB8EEC00A80EE801A5F488C
:103B600080ED051ABDF81A00BDF81610084400EEE5
:103B7000100AF8EEC00A5848008800EE100AB8EEA5
:103B8000400A564890ED041A01EE600AF0EE000A71
:103B900080EE201ABDEEC10A10EE100A00B24F49A5
:103BA0004881BDF81C00BDF81410084400EE100A4E
:103BB000F8EEC00A4848408800EE100AB8EE400A05
:103BC000464890ED051A01EE600AF0EE000A80EE1C
:103BD000201ABDEEC10A10EE100A00B23F498881DA
:103BE00070E0FFE73C480088022101FB140000EE72
:103BF000100AF8EEC00ABDF81610BDF81A00081A2F
:103C000000B200EE100AB8EEC00A80EE801A334807
:103C100080ED041A30484088022101FB140000EEB8
:103C2000100AF8EEC00ABDF81400BDF81C10401AC6
:103C300000B200EE100AB8EEC00A80EE801A2748E3
:103C400080ED051ABDF81610BDF81A00084400EE04
:103C5000100AF8EEC00A2048008800EE100AB8EEFC
:103C6000400A00E072E01D4890ED041A01EE600A7F
:103C7000F0EE000A80EE201ABDEEC10A10EE100A26
:103C800000B216494881BDF81400BDF81C10084464
:103C900000EE100AF8EEC00A0F48408800EE100A45
:103CA000B8EE400A0D4890ED051A01EE600AF0EEFC
:103CB000000A80EE201ABDEEC10A10EE100A00B212
:103CC000064988814FF6FF70FEF762FD4FF4784099
:103CD0004FF6FF71024B06E0540000206000002008
:103CE0000000002033E01BA2CDE900106E2123204C
:103CF000FCF7AEFE4FF47A70FCF7B5FD4FF6FF709F
:103D0000FEF746FD09B0BDEC088BF0BD0027174A51
:103D10005288121B91B2154A1288121B90B24FF6AC
:103D2000FF7200F071FA4FF478422146204600F00D
:103D30006BFA4FF478404FF6FF710D4B0DA2CDE9B1
:103D400000101A212820FCF783FE00BF00BF00BF2F
:103D5000FFF750BB546F7563682053637265656EDF
:103D60002041646A757374204F4B21005400002079
:103D7000000000205450204E656564207265616427
:103D80006A757374210000000EB54FF6FF70FEF7E0
:103D9000FFFC6148008860494988884265DD1F2032
:103DA000C102CDE900105C4909883C3988B25B4BFF
:103DB0005BA20021FCF74CFE1F20C102CDE90010E0
:103DC00055490988783988B2574B58A20021FCF729
:103DD0003FFE01201F22CDE900204F4902900A88B2
:103DE0000988323988B246231421FDF741F80120B1
:103DF0004FF4FC62CDE90020474902900A88098807
:103E0000323988B282235021FDF732F801204FF475
:103E10007842CDE90020404902900A880988323969
:103E200088B2BE238C21FDF723F801204FF6E07203
:103E3000CDE90020384902900A880988323988B2D1
:103E4000FA23C821FDF714F801200022CDE9002053
:103E5000314902900A880988323988B24FF49B733D
:103E60004FF48271FDF704F855E01F20C102CDE93F
:103E70000010294909883C3988B2284B28A2002122
:103E8000FCF7E6FD1F20C102CDE900102249098898
:103E9000783988B2244B25A20021FCF7D9FD0120F6
:103EA0001F22CDE9002046231A461421029008461D
:103EB000FCF7DEFF01204FF4FC62CDE90020462331
:103EC0008222142102905020FCF7D2FF01204FF4EF
:103ED0007842CDE900204623BE22142102908C2096
:103EE000FCF7C6FF01204FF6E072CDE90020462323
:103EF000FA2214210290C820FCF7BAFF0120002208
:103F0000CDE9002046234FF49B72142102904FF418
:103F10008270FCF7ADFF0EBD5400002000000020B1
:103F2000434C45415200000008000020414400007D
:103F300008B5002000F0FEFAB048007A00F08000DA
:103F400000281ED0AE480088AE490988884218DA99
:103F5000AB484088AB4949888842F8DAA9480088CC
:103F6000A8494988884271DDA5480188A54800888C
:103F70003C38814206DDA2484088102802DAFFF76B
:103F800003FF3AE19E4801889E48008878388142C4
:103F90000FDD9B4801889B4800885038814208DA31
:103FA00097484088182804DAFFF700FAFFF7ECFE7C
:103FB00023E193480188934800883238814211DD1B
:103FC0008F4800888F49098888420BDA8C484088DE
:103FD000142807DD8A484088462803DA1F208849CC
:103FE00088800AE186480188864800883238814204
:103FF00012DD834800888349098888420CDA8048AA
:104000004088502808DD7E484088822804DA4FF432
:10401000FC607B498880F0E0794801887948008815
:104020003238814213DD7648008876490988884213
:104030000DDA734840888C2809DD71484088BE2815
:1040400005DA4FF478406E498880D6E03EE06C484F
:1040500001886C4800883238814212DD6848008847
:104060006849098888420CDA65484088C82808DD14
:1040700063484088FA2804DA4FF6E0706049888087
:10408000BBE05F4801885F4800883238814213DD19
:104090005B4800885B49098888420DDA58484088A7
:1040A000B0F5827F08DD56484088B0F59B7F03DA83
:1040B000002053498880A0E00220514B00909A884C
:1040C000598818880123FCF789FE96E04C4801883E
:1040D0004C4800883C38814206DD49484088102819
:1040E00002DAFFF751FE88E045480188454800881C
:1040F000783881420FDD42480188424800885038B4
:10410000814208DA3E484088182804DAFFF74EF961
:10411000FFF73AFE71E03A48008814280FDD38486E
:10412000008846280BDA36484088142807DD3448D2
:104130004088462803DA1F20314988805DE03048F6
:104140000088502810DD2E48008882280CDA2C4880
:104150004088142808DD2A484088462804DA4FF4AD
:10416000FC602749888048E0254800888C2810DDBD
:1041700023480088BE280CDA21484088142808DD2E
:104180001F484088462804DA4FF478401C4988804C
:1041900033E01B480088C82810DD19480088FA2839
:1041A0000CDA17484088142808DD1548408846284E
:1041B00004DA4FF6E070124988801EE0104800884B
:1041C000B0F5827F10DD0E480088B0F59B7F0BDADA
:1041D0000B484088142807DD09484088462803DA40
:1041E00000200749888008E00220054B00909A884B
:1041F000598818880223FCF7F1FD08BD60000020F3
:104200001000002054000020FEB504460D4616465E
:1042100001200021CDE90061029004F10C018AB275
:10422000183988B22B462946FCF74CFD01200021A5
:10423000CDE90061029005F10C0083B2183881B21B
:1042400022462046FCF73EFD012002233246294645
:1042500000902046FCF7C2FD0120002133460622D3
:10426000CDE9001029462046FCF72EFCFEBD0000DB
:104270001CB53248007E062810D19FED310A2F4828
:1042800080ED040A9FED2F0A80ED050A4FF40170BE
:104290002A4948816FF0150088814DE02748007E4B
:1042A00080B99FED290A254880ED040A9FED270A71
:1042B00080ED050A6FF01400204948816FF0260058
:1042C000888139E01D48007E032810D19FED200A27
:1042D0001A4880ED040A9FED1F0A80ED050A6FF071
:1042E0001500164948816FF02500888124E01348A5
:1042F000007E052810D19FED180A104880ED040AB1
:104300009FED160A80ED050A40F205200B49488111
:104310006FF0130088810FE04FF6FF70FEF738FA58
:104320004FF478404FF6FF710D4B0E4ACDE9001067
:104330003C210020FCF78CFB1CBD0000600000202D
:10434000239F07BE5950B83D10B3B73DEA060A3E59
:104350005B25B83DD05F083E831808BE7826B43D83
:10436000000000207478000810B5044601222021C6
:104370000448FCF7F5FE04480476811D001D00F09A
:1043800074F810BD000402406000002070B50546BE
:10439000002428211348C161FDF7B0FB0022202131
:1043A0001148FCF7DDFE2846FEF7DCFDC820FCF7CF
:1043B00060FAFF20FEF7C4FD04464FF6FF7000EAE6
:1043C0000424FF20FEF7BCFD0443E4100122202159
:1043D0000548FCF7C5FE08210248C161FDF78EFBC8
:1043E000204670BD7C000020000402402DE9FE4301
:1043F000804600260027002409E04046FFF7C6FF5C
:104400002DF81400C820FCF734FA601CC4B2052C47
:10441000F3DB002416E0601CC5B20FE03DF8140089
:104420003DF81510884207DD3DF814703DF8150081
:104430002DF814002DF81570681CC5B2052DEDDBA4
:10444000601CC4B2042CE6DB012405E03DF8140036
:10445000304486B2601CC4B2042CF7DB032096FB08
:10446000F0F087B23846BDE8FE8370B504460D46CD
:10447000D020FFF7BBFF20809020FFF7B7FF2880F8
:1044800070BD7FB504460D4602A903A8FFF7EDFFF6
:10449000694601A8FFF7E9FFBDF80400BDF80C105C
:1044A000884206DCBDF80C10BDF8040032308142B1
:1044B0000CDBBDF80C00BDF80410884237DCBDF8F9
:1044C0000410BDF80C003230814230DABDF8000033
:1044D000BDF80810884206DCBDF80810BDF80000E1
:1044E000323081420CDBBDF80800BDF80010884274
:1044F0001DDCBDF80010BDF808003230814216DA2C
:10450000BDF80C10BDF80420881800EBD071C1F381
:104510004F012180BDF80810BDF80020881800EB7D
:10452000D071C1F34F012980012004B070BD00207B
:10453000FBE7000010B5044608219C48FCF708FE84
:1045400000287DD124B19A49881EFFF79AFFFDE02B
:104550009749881EFFF795FF0028F8D09448801FE0
:10456000007E032831D19248801FB0F90A0000EE86
:10457000100AB8EEC00A8E48801F90ED041A808899
:1045800000EE900AF8EE600A01EE200ABCEEC00AC6
:1045900010EE100A874908808548801FB0F90C008A
:1045A00000EE100AB8EEC00A8148801F90ED051A8F
:1045B000C08800EE900AF8EE600A01EE200ABCEE18
:1045C000C00A10EE100A4880C0E07948801F007EC3
:1045D000B8BB7948008800EE100AB8EE400A74486B
:1045E000801F90ED041A808800EE900AF8EE600AB1
:1045F00001EE600A6E48801FB0F90A0000EE900AD2
:10460000F8EEE00A30EE600ABCEEC00A10EE100AC6
:10461000684908806848408800EE100AB8EE400AF1
:104620006348801F90ED051AC08800EE900AF8EEEE
:10463000600A01EE600A5E48801FB0F90C0001E0DC
:1046400095E00BE000EE900AF8EEE00A30EE600A2A
:10465000BCEEC00A10EE100A488077E05448801F74
:10466000007E052831D15248801FB0F90A0000EEC3
:10467000100AB8EEC00A4E48801F90ED041AC08898
:1046800000EE900AF8EE600A01EE200ABCEEC00AC5
:1046900010EE100A474908804548801FB0F90C0009
:1046A00000EE100AB8EEC00A4148801F90ED051ACE
:1046B000808800EE900AF8EE600A01EE200ABCEE57
:1046C000C00A10EE100A488040E03B48008800EE27
:1046D000100AF8EE400A3648801F90ED041AC08890
:1046E00000EE100AB8EE400A41EE400A3048801F42
:1046F000B0F90A0000EE100AB8EEC00A30EEC00AA7
:10470000BCEEC00A10EE100A2A4908802A484088E8
:1047100000EE100AB8EE400A2548801F90ED051AF9
:10472000808800EE900AF8EE600A01EE600A2048E8
:10473000801FB0F90C0000EE900AF8EEE00A30EEAF
:10474000600ABCEEC00A10EE100A48801848801FAC
:10475000007A00F0800010BBC0201549891F087244
:104760000846808808800846C088488017E01048BE
:10477000801F007A00F0800040B10D48801F007A51
:1047800020F080000A49891F087208E000200849CB
:10479000891F088048804FF6FF708880C8800448D1
:1047A000801F007A00F0800010BD0000000402406D
:1047B0006600002010000020540000202DE9FE4F6C
:1047C00005460E4691461F46DDE90CABDFF80C822C
:1047D000B8F8044001204FF6FF72CDE900204FF4F5
:1047E0008773FA22A02102902820FCF741FB4FF4A6
:1047F00078404FF6FF71434679A2CDE90010A02121
:104800002820FCF725F94FF478404FF6FF71434616
:1048100074A2CDE90010A0218C20FCF719F94FF407
:1048200078404FF6FF7143466FA2CDE90010B421E6
:104830002820FCF70DF94FF478404FF6FF714346FE
:104840006AA2CDE90010B4218C20FCF701F94FF4E5
:1048500078404FF6FF71434665A2CDE90010C821AC
:104860002820FCF7F5F84FF478404FF6FF714346E7
:1048700060A2CDE90010C8218C20FCF7E9F84FF4C4
:1048800078404FF6FF7143465BA2CDE90010DC2172
:104890002820FCF7DDF84FF478404FF6FF714346CF
:1048A00056A2CDE90010DC218C20FCF7D1F84FF4A2
:1048B00078404FF6FF71434651A2CDE90010F02138
:1048C0002820FCF7C5F84FF478404FF6FF71CDE98A
:1048D000001004EB4401283188B243462A46A02147
:1048E000FCF764F84FF478404FF6FF71CDE9001003
:1048F00004EB44018C3188B243463246A021FCF7D8
:1049000055F84FF478404FF6FF71CDE9001004EBF5
:104910004401283188B243464A46B421FCF746F8A0
:104920004FF478404FF6FF71CDE9001004EB4401DD
:104930008C3188B243463A46B421FCF737F84FF43D
:1049400078404FF6FF71CDE9001004EB44012831A7
:1049500088B243465246C821FCF728F84FF4784005
:104960004FF6FF71CDE9001004EB44018C3188B2A1
:1049700043465A46C821FCF719F84FF478404FF6E1
:10498000FF71CDE9001004EB4401283188B24346A1
:10499000DC210E9AFCF70AF84FF478404FF6FF71CD
:1049A000CDE9001004EB44018C3188B24346DC2190
:1049B0000F9AFBF7FBFF4FF478404FF6FF71CDE9FC
:1049C000001004EB84014900283188B24346F021ED
:1049D000109AFBF7EBFFBDE8FE8F000000000020FF
:1049E000783100007931000078320000793200001F
:1049F0007833000079330000783400007934000007
:104A0000666163206973203A200000002DE9F84FA9
:104A100004462068006920F44050E168084321689A
:104A200008612169A068084361690843E169084396
:104A300000902068C06849F20C61884300990843DF
:104A40002168C8602068406920F44070A16908436B
:104A50002168486176492068884203D075492068FA
:104A6000884203D1FCF73AFD814602E0FCF726FDBF
:104A70008146E069B0F5004F6CD102206168A0FB6F
:104A8000015003461920A9FB007001462A4638460A
:104A9000FBF710FC6421B0FBF1F04FEA001A022092
:104AA0006168A0FB01510B461920A9FB00712A4641
:104AB0003846FBF7FFFB834602206168A0FB0150EC
:104AC00003461920A9FB00712A463846FBF7F2FB82
:104AD0006421B0FBF1F000EBC00101EB0010ABEB87
:104AE0008000322101EBC0006421B0FBF1F000F046
:104AF000F8000AEB400A02206168A0FB015003465F
:104B00001920A9FB007001462A463846FBF7D2FB64
:104B1000834602206168A0FB015003461920A9FBCF
:104B200000712A463846FBF7C5FB6421B0FBF1F063
:104B300000EBC00101EB0010ABEB8000322101EB78
:104B4000C0006421B0FBF1F000F007005044216880
:104B500088606AE004206168A0FB015003461920C8
:104B6000A9FB007001462A463846FBF7A3FB8246A4
:104B700004206168A0FB015003461920A9FB0070C6
:104B800001462A463846FBF795FB6421B0FBF1F05D
:104B900000EBC00101EB0010AAEB8000322101EB19
:104BA00000106421B0FBF1F000F0F00A042061680D
:104BB000A0FB017003461920A9FB00513A46284684
:104BC000FBF778FB6421B0FBF1F00AEB001A04203C
:104BD0006168A0FB01510B461920A9FB00712A4610
:104BE0003846FBF767FB834604206168A0FB015051
:104BF00003461920A9FB007001462A463846FBF7F8
:104C000059FB6421B0FBF1F000EBC00101EB001097
:104C1000ABEB8000322101EB00106421B0FBF1F01E
:104C200000F00F00504421688860BDE8F88F000054
:104C3000001001400014014000BFFEE700B593B032
:104C4000342106A8FBF7ADFB142101A8FBF7A9FB53
:104C500000BF002000902548006840F080502349A4
:104C600008600846006800F08050009000BF00BF58
:104C7000002000901E48006820F4404040F480402E
:104C80001B4908600846006800F44040009000BFDF
:104C9000022006900120099010200A9002200C901A
:104CA00000210D9110210E914FF4A8710F91042154
:104CB000109102211191129106A8FCF7ABFC08B1EA
:104CC000FBF7DDFD0F2001900220029000200390F1
:104CD0004FF48050049000200590022101A8FCF7B9
:104CE00025FB08B1FBF7CBFD13B000BD40380240F7
:104CF0000070004010B500F001F810BD10B5FBF7D2
:104D0000AEFB10BD10B500F001F810BD10B50400E9
:104D100007D1012405E0FBF76FFB006800B90448E8
:104D200080472046FBF76CFB0028F4D010BD000044
:104D3000D904000802480068C0F302207047000050
:104D40000CED00E010B5002804DB0A07130E054A3D
:104D5000135406E00A07140E034A00F00F031B1F4A
:104D6000D45410BD00E400E018ED00E000B52DEDD6
:104D7000048BB0EE409AF0EE609A83B051EC190BC0
:104D800000F012F941EC180B18EE100A18EE901A08
:104D90008DED008B002818BF0120084320F0004053
:104DA000C0F17F6000F1E040C00F14D019EE101A7E
:104DB00019EE900A8DED009B002918BF01210843D0
:104DC00020F00040C0F17F6000F1E040C00F04BF60
:104DD0000120FBF770FBB0EE480A03B0F0EE680A62
:104DE000BDEC048B00BD0000024800210160001DE5
:104DF000016070474400002070B50A4D022400266F
:104E00000820FFF77FFFC5E900042868641E40F80A
:104E10002460FAD12846BDE87040034A0349FBF7F5
:104E2000BDBB00004C000020000000087F4E0008C1
:104E3000024800210160001D016070472800002029
:104E4000FCF7A6F9FFF7FAFEFDF71CFFFDF7ACFF34
:104E5000FEF700F8FDF7CAFFFDF7E2FFFEF738F8AE
:104E600006244FF47A712046FDF7A0FC2046FFF798
:104E70007BFAFFF7FDF901E0FFF75AF8FCE710B500
:104E800004460068FFF736FF204610BD4FEA115375
:104E9000A3F58063D3F11E03A8BFD3F1200C08DB78
:104EA0004FF0004242EAC12252EA505232FA03F075
:104EB000704709420BD4102BC4BF0020704703F584
:104EC000787CBCF1FF3F05D04FF0FF3070474FF0CA
:104ED0000000704770B500F019F800BF49922480B7
:104EE00000207047F0E7B0FA80F310FA03F10AD01F
:104EF000C3F11D0303F580634FEA41504FEA0352AB
:104F000002EBD12170474FF0000070470EF1020E06
:104F10002EF0030E5EF8046B364205D4012A43EBF3
:104F2000030515F5001F12D8012841EB010C1CF5F3
:104F3000001F0CD80ED14FEAD17C15F5001F0CEBE9
:104F40004C0C0CF1020C08BF4CEBD37C04E04FF08E
:104F5000080C01E04FEAD37C0CEB4C0526FA05F671
:104F600006F00706B6F1040C06D20EEB860CBDE87F
:104F700070404CF0010C6047DFE80CF0090B0202B6
:104F80004FF000414FF00000A1F5002170BD19461F
:104F90001046012851EB010418BFD4F5001484BF5A
:104FA000002001F0004170BD2DE9F04101F5801CA9
:104FB000BCF5001FC0F2A9804FEA115C21EA0C5138
:104FC0000CF1FD0C41F480115FEA5C0C0CF5C07C27
:104FD00001D34000494130A4890241EA905187023F
:104FE0008E0E0A0CA45D04FB04F602FB06F6C6F165
:104FF0004046A4FB0662F60D46EA422606FB06F48E
:10500000A4FB01235242C3F1404338BF5B1EA6FB01
:1050100002420024E6FB0324D20B42EA4446A6FBEC
:105020000623A1FB02E2A3FB07E4E3FB6142644227
:10503000C2F1404E38BFAEF1010EA6FB04234FF083
:105040000002E6FB0E32A2FB03463400E2FB626480
:10505000A1FB06E6A4FB07E8E4FB61687642C8F121
:10506000405838BFA8F10108A2FB06E4A3FB08E5FD
:10507000E2FB6854A1FB05E6A7FB04E8E1FB6486BC
:1050800018F1200556F10006A809A8F11B08B1097E
:1050900008F03F08B8F10A0F40EA86601CD901EB1E
:1050A0000C51BDE8F08100BFFCF5EEE8E2DDD8D39D
:1050B000CFCBC7C3C0BDB9B6B4B1AEACA9A7A5A389
:1050C000A19F9D9B9A9896959392908F8D8C8B899A
:1050D0008887868584838281A0FB006800FB01F2BB
:1050E00008EB4208B8EB872807D5341858EB0104C1
:1050F000D5D5401C51F10001D1E7341A78EB0104F9
:10510000CDD4401E71F10001C9E75FEA4C0C5FEAA3
:105110009C5C0DD105D34FF0000001F00041BDE8CB
:10512000F081BDE8F04170B5FFF7F0FE6DDBFFBE2A
:10513000BDE8F0414FF00000004970470000F87FE3
:105140004FF04070E1EE100A7047000000000000D0
:10515000000000000000000000000000000000004F
:105160000000000000000000000000000C000C0027
:105170000C000C000C000C000C000C0000000C00DB
:1051800000000000000000000000000000001DC042
:105190001DC008800880088000000000000000009A
:1051A0000000000000000000000000000D800D80E5
:1051B0000D800D803FC01B003FC01B001B001B006B
:1051C0001B00000000000000000004001F80318070
:1051D000318038001E000F000380318031803F0095
:1051E000040004000000000000000000180024007B
:1051F000240018C007801E00318002400240018058
:1052000000000000000000000000000000000F008F
:105210001800180018000C001D80370033001D8096
:105220000000000000000000000000000000070077
:105230000700020002000200000000000000000061
:105240000000000000000000000000000300030058
:1052500006000E000C000C000C000C000E000600F6
:105260000300030000000000000000001800180008
:105270000C000600060006000600060006000C00F2
:105280001C001800000000000000000006000600DE
:105290003FC03FC00F001F801980000000000000C9
:1052A00000000000000000000000000000000000FE
:1052B0000400040004003F80040004000400000017
:1052C00000000000000000000000000000000000DE
:1052D00000000000000000000000000006000400C4
:1052E0000C000800080000000000000000000000A2
:1052F0000000000000003F800000000000000000EF
:10530000000000000000000000000000000000009D
:105310000000000000000000000000000C000C0075
:105320000000000000000000000000C000C001807C
:1053300001800300030006000C000C001800180098
:105340003000300000000000000000000E001B00D4
:105350003180318031803180318031801B000E00FE
:1053600000000000000000000000000006003E00F9
:1053700006000600060006000600060006003FC004
:105380000000000000000000000000000F00198075
:1053900031803180030006000C00180030003F808F
:1053A0000000000000000000000000003F006180DD
:1053B000018003001F0003800180018061803F00A5
:1053C00000000000000000000000000007000700CF
:1053D0000F000B001B00130033003F8003000F8001
:1053E0000000000000000000000000001F80180006
:1053F000180018001F0011800180018021801F000B
:1054000000000000000000000000000007801C00F9
:1054100018003000370039803180318019800F004A
:105420000000000000000000000000007F004300BA
:10543000030006000600060006000C000C000C002D
:105440000000000000000000000000001F0031808C
:10545000318031801F0031803180318031801F00E8
:105460000000000000000000000000001E003300EB
:105470003180318033801D800180030007003C00B3
:10548000000000000000000000000000000000001C
:1054900000000C000C000000000000000C000C00DC
:1054A00000000000000000000000000000000000FC
:1054B00000000300030000000000000006000400DC
:1054C000080008000000000000000000000000C00C
:1054D000030004001800600018000400030000C06E
:1054E00000000000000000000000000000000000BC
:1054F000000000007FC000007FC00000000000002E
:10550000000000000000000000000000000060003B
:1055100018000400030000C003000400180060002D
:1055200000000000000000000000000000001F005C
:1055300031803180018007000C000C0000000C005D
:105540000000000000000000000000000E0011003C
:105550002100210027002900290027002000110038
:105560000E000000000000000000000000003F00EE
:105570000F000900198019801F8030C030C079E009
:1055800000000000000000000000000000007F009C
:105590003180318031803F003180318031807F0027
:1055A00000000000000000000000000000001F409C
:1055B00030C06040600060006000604030801F00CC
:1055C00000000000000000000000000000007F005C
:1055D000318030C030C030C030C030C031807F003A
:1055E00000000000000000000000000000007F80BC
:1055F0003080308032003E003200308030807F804A
:1056000000000000000000000000000000007FC05B
:105610003040304032003E003200300030007C002C
:1056200000000000000000000000000000001E80DC
:10563000318060806000600067C0618031801F0041
:1056400000000000000000000000000000007BC01F
:105650003180318031803F803180318031807BC02A
:1056600000000000000000000000000000003FC03B
:1056700006000600060006000600060006003FC001
:1056800000000000000000000000000000001FC03B
:1056900003000300030003006300630063003E0097
:1056A00000000000000000000000000000007BC0BF
:1056B0003180330036003C003E003300318079C039
:1056C00000000000000000000000000000007E005C
:1056D00018001800180018001840184018407FC023
:1056E0000000000000000000000000000000E0E0FA
:1056F00060C071C07BC06AC06EC064C060C0FBE0A7
:10570000000000000000000000000000000073C066
:10571000318039803D803580378033803180798099
:1057200000000000000000000000000000001F005A
:10573000318060C060C060C060C060C031801F0048
:1057400000000000000000000000000000007F00DA
:1057500031803180318031803F00300030007E0068
:1057600000000000000000000000000000001F001A
:10577000318060C060C060C060C060C031801F0008
:105780000CC01F80000000000000000000007F002F
:105790003180318031803E003300318031807CE0C7
:1057A00000000000000000000000000000001F805A
:1057B0003180318038001F000380318031803F000C
:1057C00000000000000000000000000000007F80DA
:1057D0004C804C804C800C000C000C000C003F00F6
:1057E00000000000000000000000000000007BC07E
:1057F00031803180318031803180318031801F00B3
:1058000000000000000000000000000000007BC05D
:10581000318031801B001B001B000A000E000E00AF
:105820000000000000000000000000000000FBE09D
:1058300060C064C06EC06EC02A803B803B803180F7
:1058400000000000000000000000000000007BC01D
:1058500031801B000E000E000E001B0031807BC04B
:10586000000000000000000000000000000079E0DF
:1058700030C019800F0006000600060006001F80D9
:1058800000000000000000000000000000003F8059
:1058900021802300060004000C00188030803F8027
:1058A000000000000000000000000000078006006B
:1058B00006000600060006000600060006000600B8
:1058C00006000780000000000000300030001800D3
:1058D00018000C000C00060003000300018001808A
:1058E00000C000C000000000000000001E00060014
:1058F0000600060006000600060006000600060078
:1059000006001E0000000000000004000A000A005B
:105910001100208020800000000000000000000036
:105920000000000000000000000000000000000077
:105930000000000000000000000000000000000067
:105940000000000000000000FFE00800040002006A
:105950000000000000000000000000000000000047
:105960000000000000000000000000000000000037
:1059700000001F00018001801F80318033801DC026
:105980000000000000000000000000007000300077
:1059900030003700398030C030C030C039807700E7
:1059A00000000000000000000000000000000000F7
:1059B00000001E80318060806000608031801F00A8
:1059C00000000000000000000000000003800180D3
:1059D00001801D80338061806180618033801DC0C3
:1059E00000000000000000000000000000000000B7
:1059F00000001F00318060C07FC0600030C01F8089
:105A000000000000000000000000000007E00C00A3
:105A10000C003F800C000C000C000C000C003F80C0
:105A20000000000000000000000000000000000076
:105A300000001DC0338061806180618033801D80E3
:105A4000018001801F000000000000007000300095
:105A500030003700398031803180318031807BC027
:105A6000000000000000000000000000060006002A
:105A700000001E00060006000600060006003FC0EB
:105A8000000000000000000000000000060006000A
:105A900000003F00030003000300030003000300B5
:105AA000030003003E000000000000007000300012
:105AB0003000378036003C003C003600330077C0B1
:105AC0000000000000000000000000001E000600B2
:105AD00006000600060006000600060006003FC09D
